:020000040800F2
:10000000001000208D0F00081510000815100008C2
:10001000151000081510000815100008151000082C
:10002000151000081510000815100008151000081C
:10003000151000081510000815100008CD21000843
:1000400015100008151000081510000815100008FC
:100050001510000815100008151000084D0E0008B6
:1000600015100008151000081510000815100008DC
:1000700015100008151000081510000815100008CC
:1000800015100008151000081510000815100008BC
:1000900015100008151000081510000815100008AC
:1000A000151000081510000815100008310E000882
:1000B0001510000813B504008388C2898189408A1D
:1000C0000190E0880090034800F052F80123237467
:1000D00013BDC0460400002013B5037C0400002BB0
:1000E00009D08388C289818900200190E08800902E
:1000F000024800F03DF80023237413BD04000020E3
:10010000F7B504001E0008AB1D8809AB1F880091DD
:10011000019201F0A9FF074B678208332360002397
:100120002374009BA680A381019BE5802000E381CE
:10013000FEBDC046DC24000810B5040001F094FFA9
:10014000034B2000083323600023237410BDC046F6
:10015000DC24000830B504AD2D8803AC45820025B1
:10016000248805748380C4808181C28130BDC046EB
:1001700037B506AC07AD2D8824886830019500940A
:1001800000F0F7FB37BDF0B58FB0029214AA0D90C6
:10019000019115888B4200D992E0029A934200D9CE
:1001A0008EE0CA18F02A00DD8AE0029AD218F02AFE
:1001B00000DD85E05A1E5B00099301230392099A32
:1001C00006939A1A0893002300920793039B079AB9
:1001D000934275DB6B46019A9B890D9C04939B1897
:1001E0009BB20A936B46029A9B8B68349F18BFB2EE
:1001F0003A0005930A992B00200000F07FFB019A3A
:10020000059B20009B189BB20B93029A049B0B99B1
:100210009E18B6B232002B0000F070FB059A019BCD
:1002200020009B1A9BB20C9332002B000C9900F01B
:1002300065FB019B049A20009E1AB6B23A00310079
:100240002B0000F05BFB029B059A31009F1ABFB2A6
:100250002B003A00200000F051FB029B049A0C99FD
:100260009E1AB6B22B003200200000F047FB2B0094
:1002700032000B99200000F041FB2B003A000A9954
:10028000200000F03BFB009B002B0DDC069A079B37
:10029000944601330793009B634400931300023399
:1002A0000693009B002B91DD039B099A013B03936E
:1002B000089B023308939B1A009AD318009385E792
:1002C0000FB0F0BDF0B587B01F000CAB04901888DC
:1002D0000DAB1B8815000593831A01220C000292B6
:1002E000791A002B02DA023A2B1A02925B00019370
:1002F0005E1A4B000393A74210DB0498AAB2A1B286
:10030000059B683000F0FAFA002E03DD029BED1821
:10031000039BF61A019B0134F618ECE707B0F0BD19
:10032000F0B587B004900CA807880DA800880D00D0
:10033000059001201400591ABA1A0290002903DA14
:10034000E91A01235B4202934B0001939E1A53006A
:100350000393A74210DB0498A2B2A9B2059B6830B0
:1003600000F0CCFA002E03DD029BED18039BF61A79
:10037000019B0134F618ECE707B0F0BDF7B51C009F
:1003800008AB1D8809AB1B88AE1A00D5561B671A2F
:1003900000D50F1B0193B7420BDD8C4206D20092B1
:1003A0000B002A002100FFF78DFFF7BD0095230009
:1003B000F9E7954206D200920B002A002100FFF7D0
:1003C000AFFFF2E700952300F9E7F0B5160007004C
:1003D0000D0085B00AAA1488CB180BAA12889BB20C
:1003E000029303920192029B32000096FFF7C6FF30
:1003F0003419039BA4B2019332002B00290038006A
:100400000094FFF7BBFF039B32000193029B38006F
:1004100019000094FFF7B2FF039B009401932200A0
:10042000029B29003800FFF7A9FF05B0F0BDF0B529
:100430008FB0160014AA128807900D0008928B4204
:100440006AD8B34268D8CA18F02A65DCF218F02AD4
:1004500062DC5A1E5B000A93012302920A9A0593FA
:100460009C1A099300230693029B069A934253DB3E
:100470006B461B8907980393EB1A9BB20B936B4651
:100480001B8B0B9904939A19039B92B25F19089BDB
:10049000BFB2019300923B00FFF770FF049B0798E7
:1004A000EB1A9BB20C93039B0C999A19049B92B282
:1004B0005B199BB20D93089B009201930D9BFFF774
:1004C0005DFF049B0B99F21A089B92B20193009274
:1004D0003B000798FFF752FF039B0C99F21A089B09
:1004E00092B2019300920D9B0798FFF747FF002CF3
:1004F00008DC069B01330693059BE4180233059341
:10050000002CB1DD029B0A9A013B0293099B023346
:1005100009939B1AE418A7E70FB0F0BD10B5683037
:1005200000F0ECF910BD37B506AC2488079D6830A3
:100530000195009400F0F2F937BDF0B500249DB0AC
:100540001D0022AB1B880490079323AB1B880591E9
:10055000089324AB1B8806920993069B9C422EDAD3
:100560000522059B0AA81B5D203B5343154A9B1897
:100570005A1D03921A78010002920022029E01275E
:1005800016413E4219D0089E01320E800A31072AD8
:10059000F4D10399013302308B42EBD104980AABBA
:1005A0000193009229000523079A6830073501342A
:1005B00000F0B4F9ADB2E4B2CFE7099EE4E71DB0B4
:1005C000F0BDC046EC240008F0B50D008BB00593DB
:1005D00010AB1B880600069311AB1B8828000A216C
:1005E0001700079301F08AFE08AC30312171280012
:1005F0000A2101F0FDFD0A2180B201F07FFE3031B9
:10060000E1702800642101F0F3FD0A2180B201F0BD
:1006100075FE3031A170FA212800890001F0E8FD53
:100620000A2180B201F06AFE303161702800094968
:1006300001F0DEFD079B303020700293069B0522FF
:100640000193059B2100009330003B00FFF775FFED
:100650000BB0F0BD10270000084B1B68002B08D121
:10066000C26E930FD10E5940012352008B431343A6
:10067000C366C06E400140097047C04600000020BC
:1006800070B50D001400FFF7E7FF611B01F036FEA7
:10069000481970BD002370B50500C36601242E0003
:1006A0002436300000F0ACF8A040EB6E0134C018E6
:1006B000E866112CF3D10028F0D0300000F06EF87D
:1006C00070BD10B5040001F039FD20002100683034
:1006D00000F077F92000243000F00EF820002030E0
:1006E00001F082FB20002100283000F015FB2000E3
:1006F000FFF7D0FF10BDC0468023244A9B009169BC
:1007000010B50B4380219361214B09061869214CD8
:100710000843186118692040186100209860802003
:1007200040029862C024C220240480001C509868B3
:100730000143996099680029FCDB0721596106395A
:10074000996080235169DB030B43536180230F249D
:1007500051699B020B4353610F4A3F201368A34327
:1007600013609023DB05196881431960D168A143A8
:10077000D1600521D4682143D160DA688243DA6010
:100780001522D9680A43DA6010BDC0460010024045
:1007900000240140FFFFFFBF00140048C2210022D7
:1007A000044B89009A605A50034A044993690B40EC
:1007B000936170470024014000100240FFFDFFFFDD
:1007C00001200E4B1A6990431A6902231A4200D184
:1007D00018439023DB051A69D20701D40422104381
:1007E0001B699B0701D4082318439023DB051B6971
:1007F0005B0701D4102318437047C046001400481B
:100800008022074B52029A62052299680A439A6035
:10081000042299681142FCD0186C80B27047C0461F
:10082000002401400221024A53698B4353617047FF
:10083000000400480223024A51690B435361704788
:100840000004004890224021D20553698B43536134
:10085000704790224023D20551690B435361704782
:1008600010B50C00FFF7DEFF200001F051FB10BDBA
:1008700010B50C00FFF7DEFF200001F049FB10BDB2
:10088000F7B504000F001E00150008AB1B882A21D5
:100890000193FFF7E5FF390A2000FFF7E9FFF9B2FE
:1008A0002000FFF7E5FF310A2000FFF7E1FFF1B27A
:1008B0002000FFF7DDFF20002B21FFF7D1FF290AE1
:1008C0002000FFF7D5FFE9B22000FFF7D1FF019B21
:1008D0002000190AFFF7CCFF6B4620001979FFF7BB
:1008E000C7FF2C212000FFF7BBFFF7BD10B50C00A0
:1008F000FFF7A0FF200001F061FB10BD37B5040039
:100900001D00501C4B1C80B29BB200902000FFF7D2
:10091000B7FF29002000FFF7E9FF37BDF0B51F0042
:10092000002485B00AAB1B880290039303987B1EBA
:1009300001381018CB1880B29BB200900298FFF7D4
:100940009FFF0B9B7F00DD19039B9C420FD00B9EEA
:10095000AE4205D031880298FFF7C8FF0236F7E7AC
:100960000B9B0134DB190B93A4B2ED19ECE705B036
:10097000F0BDF0B51F00060085B00AAB1B8800244F
:10098000029302980BAB1B880138039310187B1E4F
:10099000CB1880B200909BB23000FFF771FF029B32
:1009A0009C420CD00025BD4206D003993000013591
:1009B000FFF79CFFADB2F6E70134A4B2EFE705B054
:1009C000F0BD8022414B73B50D00596992020A4374
:1009D0005A6190228021D205040010684901014328
:1009E000116011683A480826014011608022596957
:1009F000D2020A435A610422364B200019680A4386
:100A00001A601A68B2431A60FFF723FF2800192101
:100A100001F0CFFB2000FFF715FF2800192101F09E
:100A2000C8FB2000FFF715FF2800192101F0C1FBCA
:100A300020000121FFF714FF2800962101F0B9FBE7
:100A400020001121FFF70CFF2800192101F0B1FB54
:100A500020003A21FFF704FF20005521FFF708FF8F
:100A60002800192101F0A5FB20003621FFF7F8FE30
:100A700031002000FFF7FCFE2800192101F099FB4E
:100A800020005121FFF7ECFE2800192101F091FB15
:100A900020002121FFF7E4FE20001321FFF7E0FEF4
:100AA00020002921FFF7DCFE2800192101F081FB3D
:100AB00020002C21FFF7D4FE0021F02301910093A8
:100AC0000A002000FFF755FF73BDC046001002402A
:100AD000FFDFFFFF00040048002070470020891856
:100AE0008A4204D013780132C018C0B2F8E77047C8
:100AF000012070479022D205536902490B4053618F
:100B00007047C046FFFBFFFF90228023D20551694A
:100B1000DB000B43536170479023DB0518694005E8
:100B2000C00F704703002D331B78022B02D0002327
:100B30000363C363704713B5FF236A4613700379D9
:100B400003215370802304009370FFF7C7FF6B46A7
:100B5000D8702000FFF7CEFF00234021064A6846E8
:100B6000C05C9062D0690842FCD00133042BF6D1FE
:100B70002000FFF7C9FF13BD0038014070B5050024
:100B80002D352B780400032B37D0036B002B12D0AC
:100B900001232B70026B4279FF2A23D1C3799B0674
:100BA00007D5827903799A4203D1FFF7C4FF002366
:100BB000236300232B70A36B002B1ED00223200085
:100BC0002B70FFF797FF2100002340200B4A1831BC
:100BD000666B9E420BD90133CE5C9662D6690642A3
:100BE000FCD0F5E701799142E3D1C363E1E7002648
:100BF0002000A663FFF788FF2E7070BD003801400B
:100C000070B504000E2B1BD81A43C27602000025D3
:100C1000417601791C3281769D4204D00499495D68
:100C200051550135F8E72200E91CC9B219322000FC
:100C3000FFF754FF63191877012304356563A36335
:100C40002000FFF769FF002802D02000FFF796FF81
:100C5000002070BD0300F0B52D3385B00193032350
:100C6000019A902713700023040003ADC363FF3380
:100C70002B70DF3BAB70DE330371FF052379002B54
:100C800016D02A00032120006B70FA26FFF726FFFA
:100C90007600E8702000FFF73FFF002805D1012112
:100CA0002068013E01F085FAF4E7002E05D1267197
:100CB0000023019A137005B0F0BD2000FFF71AFF62
:100CC0000023144AE95C91624020D1690142FBD0C3
:100CD0000133042BF6D12000FFF716FF0023142662
:100CE0002363236B032B06D802212068013E01F009
:100CF00060FA002EF5D1236B032BD9D9E3797F2B32
:100D000002D92379013B237108237A6913437B615C
:100D1000B4E7C04600380140304B020070B518609F
:100D20000023016080212D320363C363836313704A
:100D30002B4A0371040050698902014351618021EB
:100D40009069C90101439161D1682648264D01404F
:100D5000D1606B600833AB60244BC022EB60902302
:100D6000DB055968D2000A435A60A022D9685203B1
:100D70000A43DA60DA681E4920000A40DA60C022BD
:100D8000196852030A431A601A681A490A40F02186
:100D90001A605A6A8A435A621022596A0A435A628E
:100DA000FFF7B2FE2D232B60802313491B050A6831
:100DB000134380220B60114BD20018681043186057
:100DC000986810439860D8680243DA6080230A6804
:100DD000200013430B60FFF73DFF70BD740000203F
:100DE00000100240FFBFFFFF0038014088130000E1
:100DF000FFFFD7FFFFFFDBFF00E100E00004014041
:100E0000094B0A495A6A196203002D331B78022BD9
:100E100008D0036B132B05D8036BC3185A71036BEF
:100E2000013303637047C04600380140D8106000AA
:100E3000044B10B5DB699B0603D5034B1868FFF71D
:100E4000DFFF10BD00380140740000208023084AF5
:100E5000DB0010B553619022D2050649126908687B
:100E60001A4202D0FFF78AFE10BDFFF75BFEFBE7D8
:100E7000000401407400002080B500AF234B1A68C5
:100E8000224B23490A401A60204B1A6880239B0496
:100E900013405A1E9341DBB2002B00D0F4E71D4BE8
:100EA0001A681C4B01210A431A601A4B1A68194B25
:100EB00006218A431A60174B1A68164B10210A4301
:100EC0001A60124B5A68114B13490A405A600F4B73
:100ED0005A680E4BA02189030A435A600B4B5A688B
:100EE0000A4B8021C9010A435A60084B1A68074B14
:100EF000802149040A431A60044B5A68034B0221BB
:100F00000A435A60C046BD4680BDC046001002403C
:100F1000FFFFFFFE00200240FFFFC3FF80B582B04D
:100F200000AF164A164BD31A9B103B6000237B6020
:100F30007A683B689A4208D2114B7A689200D3587B
:100F400098477B6801337B60F2E70E4A0E4BD31A59
:100F50009B103B6000237B607A683B689A4208D212
:100F6000094B7A689200D35898477B6801337B60BD
:100F7000F2E7C046BD4602B080BDC046DC24000892
:100F8000DC240008DC240008DC24000880B584B0E0
:100F900000AFFFF771FF1A4BFB601A4BBB601A4A98
:100FA000184BD31A7B607B685A1E7A605A1E934195
:100FB000DBB2002B08D0FA68531CFB60BB68591CDD
:100FC000B96012781A70EEE7104BBB60104A0F4BF5
:100FD000D31A7B607B685A1E7A605A1E9341DBB23B
:100FE000002B05D0BB685A1CBA6000221A70F1E7CA
:100FF000FFF794FF02F032F8C046BD4604B080BD52
:101000004C330008000000200000002000000020F9
:101010008800002080B500AFFEE7C04610B5074845
:10102000FFF7CEFB04231840054B04D000201A68BC
:10103000824201D10130186010BDC0462800002056
:101040007800002006398BB20C2130B589B00191AF
:101050000538023982B2009103A8104900F0F2FF6E
:1010600003A800F0C7FFFA210D4D32222800C90065
:1010700000F0D8FE0B4C3221200001F09AF8FA2142
:1010800032222800490000F0CDFE3221200001F07C
:1010900090F803A800F0C2FF09B030BDE4270008B3
:1010A0002400002004000020F0B5994C0C26A54433
:1010B00003230A24974D1A002900019600942EA8B4
:1010C00000F0C0FF2900019603231722009433A8E3
:1010D00000F0B8FF2900019603232B22009438A8C2
:1010E00000F0B0FF2900019603233F2200943DA8A1
:1010F00000F0A8FF2900019603235322009442A880
:1011000000F0A0FF2900019603236722009447A85E
:1011100000F098FF2900019603237B2200944CA83D
:1011200000F090FF2900019603238F22009451A81C
:1011300000F088FF290001960323A322009456A8FB
:1011400000F080FF290001960323B72200945BA8DA
:1011500000F078FF0623704E01933100CC337822E3
:10116000009410A80527082500F06CFF00237836AE
:101170001A0031000195009715A800F063FF0023C5
:1011800031001A00019500971AA800F05BFF0023B8
:1011900031001A00019500971FA800F053FF0023AB
:1011A00031001A000195009724A800F04BFF00239E
:1011B00031001A000195009729A800F043FF002391
:1011C000564E1A00483631000195009760A800F08D
:1011D00039FF002331001A000195009765A800F03F
:1011E00031FF002331001A00019500976AA800F032
:1011F00029FF002331001A00019500976FA800F025
:1012000021FF002331001A000195009774A800F017
:1012100019FF002331001A000195009779A800F00A
:1012200011FF002331001A00019500977EA800F0FD
:1012300009FF002331001A000195009783A800F0F0
:1012400001FF002331001A000195009788A800F0E3
:10125000F9FE002331001A00019500978DA800F0D7
:10126000F1FE0025F0232E4E00932A0029003000C5
:101270000195FEF77DFF2B4B2200019328232A497D
:101280000093300023000295FFF757F9254B0F22FA
:1012900001933C2325490093300023000295FFF77A
:1012A0004CF9204B10220193502321490093300028
:1012B00023000295FFF741F91A4B0B220193642397
:1012C0001C490093300023000295FFF736F9FA21FC
:1012D0003000890000F06DFF06230593053B09935C
:1012E000104B04970693023F0024F02301940093CF
:1012F000220021000A48FEF73BFF2EAD059B9C42D1
:101300001ADA2B6828001B68984701341435F5E772
:10131000B4FDFFFFD4280008CC2600084C270008A5
:1013200004000020FFFF0000D02F0008DB2F000882
:10133000EB2F0008FC2F00083A0000212EA800F037
:10134000A3FE3A000F2133A800F09EFE3A001E21B2
:1013500038A800F099FE3A002D213DA800F094FE37
:101360003A003C2142A800F08FFE3A004B2147A8EA
:1013700000F08AFE3A005A214CA800F085FE3A009F
:10138000692151A800F080FE3A00782156A800F0AB
:101390007BFE3A0087215BA800F076FE002560AC5A
:1013A000236820005B680135984714340A2DF7D173
:1013B000002415AD2B6828005B680134984714356C
:1013C000052CF7D1069B00260193E623944D2200BD
:1013D00002960093934923002800FFF7AEF86B466E
:1013E0009B8A3C220C93591F069B0196009389B25D
:1013F000E6232800FFF7E8F8049C0A362101611A69
:10140000894DF03189B2019500960A23E62284487D
:10141000013CFEF7ADFE0F95002CEFD110A800F0B7
:10142000E9FD0223089310A800F026FE7F48FFF78D
:10143000C7F90223184209D00CAB998BE42905D8CF
:101440000231DA8B89B210A800F01EFE7748FFF750
:10145000B7F90123184209D00CAB998B012905D9A2
:101460000239DA8B89B210A800F00EFEFFF7D6FD24
:1014700000282FD015AC237C002B13D029230CAAD5
:101480009B18DB7F002B4ED023AB1B78002B4DD05D
:1014900028AB1B78002B4CD02DAB1B78002B19D11F
:1014A00029AC04331422534315AA9B5820001B680F
:1014B000984710ABA179DA894908521A19799B89A2
:1014C0004908CB18217992B24908591A89B22000EB
:1014D00000F0DAFD2EAE15ACE289237C002A2BD079
:1014E000002B2BD0023A92B2A189200000F0CCFD53
:1014F00060AB07932EADE289A189280000F0D8FDEA
:1015000000280BD02B6828005B68984723682000D0
:101510005B689847E189A089FFF794FD079B143524
:101520009D42E8D10AE01AAC0123BBE71FAC0223BD
:10153000B8E724AC3B00B5E7002B5CD11434A642DD
:10154000CAD10A2692AB079360ACE289237CDB2ADE
:1015500056D8002B57D0023292B2A189200000F059
:1015600093FDA279E38952082179D218A389490809
:10157000C91892B289B210A800F09AFD002800D1D3
:1015800076E00CABD98B988BFFF75CFD049B2000B9
:10159000013BDBB2049323685B689847049B204DB2
:1015A000002B4BD1049A0193F033110000932800D3
:1015B000FEF7DEFD049B09220293069B1C49019362
:1015C0006423280000933C3BFEF7B7FF049B0F22E7
:1015D0000293184B18490193782328000093703B1D
:1015E000FEF7ABFFFFF71AFD002811D10A212800F2
:1015F00000F0DFFDF6E7236820005B6898479DE771
:10160000002B00D0F4E0002E32D0013EF6B22FE0E5
:10161000FFF704FD0028FBD193239B009D44F0BD00
:10162000040000200830000861F8000028000020B5
:101630000E3000081FF80000183000080023019346
:101640000A33009328006E33E622A521FEF790FDB1
:10165000049D0F9B290101930A23691AF03189B275
:101660000093E6226748013DFEF782FD002DF0D190
:10167000079B14349C4200D067E760AB0D930023B6
:1016800001252EAC0A930793237C002B51D0059B98
:101690009E4231DA8DAB0E9360AD00222B7C0B9213
:1016A000934222D1323200215648FEF7E9FF00284A
:1016B0001BD12B6828001B6898478E230CAA9B1807
:1016C0001A78E3895208D2182FAB1B78A1895B08DE
:1016D000CB1A217992B24908C91889B2280000F0C2
:1016E000D3FC01230136F6B20B930E9B9D4203D02F
:1016F0000B9B1435002BD0D0099BE289A1899A1845
:10170000089B92B2591889B2200000F0BDFCF0216C
:101710002379A289CB1A9A4201DB01230793002A7D
:1017200001D101230793E38900258C2B01D90123E3
:101730000A930D9B1434A342A6D1079B002B03D020
:10174000089B5B429BB208930A9B002B03D0099B2A
:101750005B429BB209932B4C0F21200000F029FD26
:10176000002D00D15FE6069B00250193E623009340
:10177000E13B1A00244920000295FEF7DEFE0C9999
:10178000069B0439009389B2E62301953C22200090
:10179000FEF71AFF059B013305930A2B00D0A3E542
:1017A000FC26E633F6002A0029000093200001966B
:1017B000FEF7DEFC6423154D009308223C3B1449E0
:1017C000200002960195FEF7B8FE7823029600935A
:1017D0000195703B0F220F492000FEF7AEFEFFF788
:1017E0001DFC002809D10A21064800F0E2FCF6E7BA
:1017F000236820005B68984705E7FFF70FFC002887
:10180000FBD109E704000020083000081FF80000A1
:10181000283000081830000880220B4BD203596989
:1018200010B50A4301215A61084A10680143022099
:1018300011601168814311608022596992020A4344
:101840005A6100F081FB10BD0010024000140048F6
:1018500080230E4A9B0091690B43936100220C4B3D
:10186000C0219A60802252029A62C2220904920028
:1018700099508022996812060A439A609A68002A51
:10188000FCDB07225A61063A9A607047001002405A
:1018900000240140F0B587B00024EF23264D0093CB
:1018A0002200210028000194FEF762FC0A23234E47
:1018B0000093019623000E22214928000294FEF78E
:1018C0003CFE2048FEF77CFF14270100009628000C
:1018D00001940A238222FEF777FE230001960097E7
:1018E0002800029406221849FEF727FE21006422F0
:1018F0002800FEF7C5FE009681B23B002800019447
:101900008222FEF761FE114F114B05AE338022009B
:1019100000960223FE213800FFF772F90096022399
:101920002200FD213800FFF76BF9FA212800490059
:1019300000F03FFCB0E7C04604000020FFFF0000BD
:101940003130000828000020403000082C00002022
:10195000AA550000F0B5CC4CA544002415AB1819CD
:10196000FEF7EAFBC94B14349C42F7D10024EF2365
:101970000194220021000093C5480A9415ADFEF79A
:10198000F7FB049403340A990A980A9E0A9B0A9A60
:101990000593C04BFC279A181818127940789E19A5
:1019A00007901000B67820400696BB4E595C305C1C
:1019B000FF00C00008913840B84997102740CF5D1C
:1019C00012112240FF10B21838431779059AFF0808
:1019D0009B18DB78FF023843019000932800069B98
:1019E000079A0899FEF7B6FB0A9B280005330A936D
:1019F0002B6814351B689847049B013304939D2B77
:101A0000C1D1A74D0094893BDC22002101950BA890
:101A1000FEF776FB782210AE0094032301951100A7
:101A20003000FEF76DFB052334000593013B069360
:101A30000795974DE6220A212800FEF721FE78221D
:101A400081B2200000F020FB022200212800FEF7D6
:101A500017FE01230493002801D1023B04936B4637
:101A60000A26197D0B01C91A89B20D000F35ADB2D6
:101A70000F2D0BD08B4BF03189B2019300960A23C6
:101A8000E6228348FEF774FB2900EEE72000FEF70C
:101A900011FB0BA8FEF70EFB079B00270193E62620
:101AA00005237B4D1A0002977F4928000096FEF718
:101AB00044FD0521069B0197C91A079B89B2009333
:101AC0003C2233002800FEF77FFD013F7748FEF7F8
:101AD00077FE0BAD83070BD5F0232A79A9899B1AD2
:101AE000994205DA0231EA8989B2280000F0CCFA7D
:101AF0006E48FEF765FEC30709D506AB198C0029B1
:101B000005D002395A8C89B2280000F0BDFAA279BA
:101B1000E38952082179D218A3894908C91892B2D9
:101B200089B2280000F0DCFA002806D07F42142297
:101B3000C8215F487FB200F075F9049BE289A18952
:101B4000D219C91892B289B2200000F09DFAA38977
:101B5000022B09D1C821049B14225B425BB24900CD
:101B60005348049300F05EF9A389EE2B09D1C821F4
:101B7000049B14225B425BB249004D48049300F081
:101B800051F9E389022B07D1C8217F421422490071
:101B900047487FB200F046F906AB06AA927E5B8CFE
:101BA0009B18E2890133934200DB8BE0059D384EA0
:101BB000013DEDB26BB20593002B2BD1059A019339
:101BC000F033110000933000FEF7D2FA059B092292
:101BD0000293079B374901936423300000933C3BF9
:101BE000FEF7ABFC059B0F220293334B3349019365
:101BF000782330000093703BFEF79FFC04242B48B1
:101C0000FEF7DEFD204200D0E1E00A21300000F0C6
:101C1000D0FAF4E7642200213000FEF731FD012301
:101C20000493184201D1023B0493E6220A213000BA
:101C3000FEF726FD782207005A213000FEF720FD2E
:101C4000B9B282B2200000F01FFA0A270023A521B2
:101C5000019300977833E6223000FEF789FA2901D4
:101C60006D1AADB22E000F36B6B20F2E28D00D4B26
:101C7000F035A9B2019300970A23E6220448FEF743
:101C800077FA3500EEE7C04664F3FFFF440C00002E
:101C900004000020CC290008C4290008C829000835
:101CA000FFFF000061F80000083000082800002055
:101CB000240000200E3000081FF800001830000833
:101CC00001277F42434A15AB94466344099301239D
:101CD00015AE0893337CA1895A425341089A5B425E
:101CE0001A4008923000E28900F0FAF9051E1CD172
:101CF000A189E289023189B2300000F0F1F9051EB4
:101D000013D1E289A189023292B2300000F0E8F9E1
:101D1000051E0AD1E289A1890232023192B289B24A
:101D2000300000F0DDF9051E18D0336830005B6824
:101D300098472B0002229343012B01D17F427FB2AF
:101D40000223023D9D4303D1049B5B425BB204939B
:101D5000FA2114228900204800F064F8099B143607
:101D6000B342B7D1089B012B21D1069B002B1EDD6E
:101D7000013B20000693FEF7AFF90023E626174D3E
:101D8000079A02930533019215491A00280000961C
:101D9000FEF7D3FB00230521069A0193079B891ABE
:101DA000009389B233003C222800FEF70DFC069B0D
:101DB0000A48591D00F0FDF90BA800F05DF9089BD9
:101DC000002B00D182E6069B002B00DD31E6054B9F
:101DD0009D44F0BD440C00002400002004000020BD
:101DE000083000089C0C000080220B4B5200186049
:101DF0000A4BD9690A43DA618022596992020A437F
:101E00005A610022064B1A6060329A61196A5F3A81
:101E10000A431A627047C0467C000020001002404E
:101E2000002000409023F7B5DB0501920F001A68EF
:101E3000164901250A401A608022196892000A4357
:101E40001A601A6A1249134C0A401A628022596AAF
:101E5000D2020A435A6223680600AB432360B723C9
:101E60009B00A362A16A0C4800F0C2F9390000F09F
:101E7000BFF9E062E36AEB406363002363622368B7
:101E80001D43019B25603360F7BDC046FFFEFFFF89
:101E9000FFFFF4FF00200040006CDC020121054A36
:101EA00013688B4313609022D205136802490B40DC
:101EB0001360704700040040FFFCFFFF0068431EF2
:101EC00098417047F7B505000E00170000240193F4
:101ED000019B9C420ADA2B68002BFCD16300FA5A62
:101EE000F15A2800FFF79EFF0134F1E7F7BD074BD9
:101EF00010B51B681A68002A07D01A68013A1A60E0
:101F00001B68002B01D1FFF7C9FF10BD7C0000202A
:101F10000A4A30B511008024094B9568254202D049
:101F2000013B002BF9D18022064B1870044B8C68C2
:101F3000144202D0013B002BF9D130BD00300140EA
:101F400041420F000C3001408022174B5201996929
:101F500010B50A439A61C0225969D2020A435A61F4
:101F60009023DB051A68114920240A401A60882250
:101F7000196812020A431A601A6A0D490A401A6265
:101F8000CC22996812020A439A600A4B9A680A4A5C
:101F90001A60E022D2005A600020013CFFF7B8FF2F
:101FA000002CF9D110BDC04600100240FFBBFFFF5E
:101FB000FFFF0F0F00300140460300000B4930B512
:101FC0000B0080240A4A8D68254202D0013A002A7B
:101FD000F9D18021064AD8609868084202D0013AB7
:101FE000002AF9D1D86880B230BDC0460030014027
:101FF00041420F0013B5037C0400002B09D18388F4
:10200000C289818980680190E08800900248FEF7CB
:102010008AFA0123237413BD0400002013B5037C46
:102020000400002B09D08388C28981890020019097
:10203000E08800900248FEF79BF80023237413BD4C
:1020400004000020C381002370B504AC268805ACD1
:102050002588044C86800834C580046082818160B4
:10206000037470BDE02C0008024B083303600023AA
:1020700003747047E02C0008037C10B5002B02D0DD
:1020800003681B68984710BD70B5037C04000E0000
:102090001500002B09D003685B6898472368A68168
:1020A000E5811B682000984770BDA181E281FBE7B4
:1020B00030B5047C231E11D0858900238D420DD8B4
:1020C00084886419A14209DAC489944206D8C18877
:1020D000012309198A4200DB00239BB2180030BD9E
:1020E00070B5047C231E26D0C5898689954206D109
:1020F000B14204D384880123A419A1421BDBC48804
:102100006419B14204D1954202D80223944212DCF0
:102110008088631E8019934204D1B14202D3032305
:10212000884208DC01380023884204D1954202D855
:10213000944200DD0433180070BDC0460A4B0722EC
:1021400018600023036043608360C36003614361E0
:102150008361C361054B19680A431A60044A5A60D7
:1021600005229A6062B670478000002010E000E00F
:102170007FBB0000002210B594000359002B02D150
:102180002150180010BD0132082AF5D1012040422B
:10219000F8E7002310B59A0084588C4203D100233D
:1021A0001350180010BD0133082BF4D10120404218
:1021B000F8E7002907D00022034B5A605A688A4288
:1021C00001D230BFFAE770478000002070B50024CC
:1021D000064D6B6801336B602A68A3009B58002B87
:1021E00000D098470134082CF6D170BD8000002043
:1021F000002243088B4274D303098B425FD3030A46
:102200008B4244D3030B8B4228D3030C8B420DD358
:10221000FF22090212BA030C8B4202D312120902E6
:1022200065D0030B8B4219D300E0090AC30B8B4224
:1022300001D3CB03C01A5241830B8B4201D38B03D2
:10224000C01A5241430B8B4201D34B03C01A524177
:10225000030B8B4201D30B03C01A5241C30A8B42BA
:1022600001D3CB02C01A5241830A8B4201D38B02A5
:10227000C01A5241430A8B4201D34B02C01A524149
:10228000030A8B4201D30B02C01A5241CDD2C309BB
:102290008B4201D3CB01C01A524183098B4201D337
:1022A0008B01C01A524143098B4201D34B01C01A22
:1022B000524103098B4201D30B01C01A5241C3089A
:1022C0008B4201D3CB00C01A524183088B4201D309
:1022D0008B00C01A524143088B4201D34B00C01AF5
:1022E0005241411A00D20146524110467047FFE761
:1022F00001B5002000F0F0F802BDC0460029F7D07B
:1023000076E7704703460B437FD4002243088B4295
:1023100074D303098B425FD3030A8B4244D3030B6C
:102320008B4228D3030C8B420DD3FF22090212BA31
:10233000030C8B4202D31212090265D0030B8B42AD
:1023400019D300E0090AC30B8B4201D3CB03C01A97
:102350005241830B8B4201D38B03C01A5241430B72
:102360008B4201D34B03C01A5241030B8B4201D362
:102370000B03C01A5241C30A8B4201D3CB02C01ACD
:102380005241830A8B4201D38B02C01A5241430A45
:102390008B4201D34B02C01A5241030A8B4201D334
:1023A0000B02C01A5241CDD2C3098B4201D3CB01DB
:1023B000C01A524183098B4201D38B01C01A52418A
:1023C00043098B4201D34B01C01A524103098B428E
:1023D00001D30B01C01A5241C3088B4201D3CB0079
:1023E000C01A524183088B4201D38B00C01A52415C
:1023F00043088B4201D34B00C01A5241411A00D20C
:1024000001465241104670475DE0CA0F00D0494274
:10241000031000D34042534000229C4603098B42E4
:102420002DD3030A8B4212D3FC22890112BA030A6C
:102430008B420CD3890192118B4208D389019211EE
:102440008B4204D389013AD0921100E08909C30973
:102450008B4201D3CB01C01A524183098B4201D375
:102460008B01C01A524143098B4201D34B01C01A60
:10247000524103098B4201D30B01C01A5241C308D8
:102480008B4201D3CB00C01A524183088B4201D347
:102490008B00C01A5241D9D243088B4201D34B0062
:1024A000C01A5241411A00D20146634652415B10A4
:1024B000104601D34042002B00D549427047634685
:1024C0005B1000D3404201B5002000F005F802BDCA
:1024D0000029F8D016E770477047C046000000009A
:1024E00000000000B5000008D9000008000000004E
:1024F0000000005F00000007000700147F147F1435
:10250000242A7F2A12231308646236495522500078
:1025100005030000001C2241000041221C00082A83
:102520001C2A0808083E0808005030000008080867
:102530000808006060000020100804023E51494570
:102540003E00427F400042615149462141454B31A6
:102550001814127F1027454545393C4A4949300136
:10256000710905033649494936064949291E00368D
:1025700036000000563600000008142241141414DE
:10258000141441221408000201510906324979410C
:102590003E7E1111117E7F494949363E414141221B
:1025A0007F4141221C7F494949417F090901013E80
:1025B000414151327F0808087F00417F410020409F
:1025C000413F017F081422417F404040407F020488
:1025D000027F7F0408107F3E4141413E7F09090987
:1025E000063E4151215E7F09192946464949493134
:1025F00001017F01013F4040403F1F2040201F7FDD
:102600002018207F631408146303047804036151C5
:1026100049454300007F4141020408102041417FA9
:102620000000040201020440404040400001020456
:102630000020545454787F4844443838444444205B
:10264000384444487F3854545418087E090102081D
:102650001454543C7F0804047800447D400020401A
:10266000443D00007F10284400417F40007C041856
:1026700004787C0804047838444444387C141414E6
:1026800008081414187C7C08040408485454542086
:10269000043F4440203C4040207C1C2040201C3C07
:1026A0004030403C44281028440C5050503C446476
:1026B000544C44000836410000007F0000004136C1
:1026C000080008082A1C08081C2A08080000000046
:1026D00000000000000000000000000000000000FA
:1026E0000000000000000000FFFFFFFF00000000EE
:1026F000000000000000000000000000FFFFFFFFDE
:1027000000000000000000000000FFFFFFFFFFFFCF
:10271000FFFFFFFFFFFFFFFFFFFF0000FFFFFFFFC7
:10272000FFFFFFFFFFFFFFFFFFFFFFFFFFFFFFFFB9
:10273000FFFFFFFFFFFFFFFFFFFFFFFFFFFFFFFFA9
:10274000FFFFFFFF000000001F000000000000006E
:102750001F001F001F00000000001F001F001F00BF
:10276000000000001F001F001F00000000001F00ED
:102770001F001F0000001F001F001F001F001F0080
:102780001F001F001F001F001F00000000001FF897
:1027900000000000000000001FF800000000E0073B
:1027A000E007E007E007E007E007E007E007E007F1
:1027B000E0070000E007E007E00700000000E00796
:1027C000E007E00700000000E007E007E007000086
:1027D0000000E007E007E007000000000000E0075D
:1027E00000000000000000000000000000F800F8F9
:1027F000000000000000000000F8000000000000E1
:1028000000F800F800000000000000F8000000F8E8
:102810000000000000F800F80000000000F80000D0
:102820000000000000F8000000F800F8000000F8C8
:102830000000000000000000000000F800F800F8B0
:1028400000F800000000000000F800F800F800F8B0
:1028500000F800F800F800F800F800F800F800F8B8
:1028600000F800F800F800F800F800F800F800F8A8
:1028700000000000000000F800F800F800F8000078
:10288000000000000000000000F8000000F800F860
:10289000000000F800000000000000F80000000048
:1028A00000F800F80000000000F8000000F8000048
:1028B0000000000000F800F800000000000000F830
:1028C000000000000000000000F800F80000000018
:1028D00000000000000000000000000000000000F8
:1028E00000000000000000000000000000000000E8
:1028F0001FF81FF8000000000000000000000000AA
:1029000000001FF81FF81FF81FF80000000000006B
:1029100000001FF81FF800001FF81FF800001FF844
:102920001FF8000000001FF81FF800001FF81FF834
:1029300000001FF81FF8000000001FF81FF81FF824
:102940001FF81FF81FF81FF81FF8000000001FF8FD
:102950001FF81FF81FF81FF81FF81FF81FF80000D6
:10296000000000001FF81FF8000000001FF81FF80B
:1029700000000000000000001FF81FF80000000029
:102980001FF81FF80000000000001FF81FF80000EB
:102990000000000000001FF81FF800001FF81FF8DB
:1029A0001FF800000000000000001FF81FF81FF8CB
:1029B0000000000000000000000000000000000017
:1029C00000000000003F7FFF003F7FFF0A34051535
:1029D0000F0F3408040F0F4508040F1639050D0FAB
:1029E0001F3505110F2B3405110F21450C040F3332
:1029F0003406150F393406040F393C06040F3945E7
:102A000006040F3F3605070F3F3F05070F47340504
:102A1000150F4C450A040F593405150F623405157E
:102A20000F673408040F6F3405150F7D3505150C3D
:102A30008D3505150C863503150C823504020C897D
:102A40003504020C953505150CA43505150C9A3E78
:102A50000B040C9A350B020CAD3405150CB23D0578
:102A6000030CB73704060CB74104060CB74706033E
:102A70000CB73407030CC23405150CC7340A040C18
:102A8000C7450A040CC73C0A040CD43405150CD9FC
:102A90003406040CD93D06050CDF36050A0CDE426F
:102AA00006070C002A170A30162A170A302D2A1793
:102AB0000A30442A170A305A2A170A30712A170A8C
:102AC00030882A170A309E2A170A30B52A170A308A
:102AD000CC2A170A30E22A0D0A300049170A3C179F
:102AE00049170A3C2D49170A3C4449170A3C5B49DF
:102AF000170A3C7149170A3C8849170A3C9F491735
:102B00000A3CB549170A3CCC49170A3CE3490D0A6F
:102B10003C001F0F0C3F00180C073F031707013F35
:102B200000150C013F122607043F141E04093F152F
:102B300013020A3F041305023F1C2417063F1F1C03
:102B400014083F1F1A0F023F23190B023F332305BE
:102B5000073F3416030D3F381913113F3D18070284
:102B60003F4B2109093F4D18050A3F4E1303043F0F
:102B700054220D083F591F08033F612417063F6286
:102B80001D0B073F6D2103033F702308023F722195
:102B900002023F7F1C040E3F8000021C3F8825116B
:102BA000053F8B210E043F992809023F9A26070210
:102BB0003F9D2401023FA221190A3FA61E11023F98
:102BC000AB13080B3FAD1004043FBB2518053FC3F2
:102BD0002110043FC313090E3FD4221C083FDB2001
:102BE00012033FDE1C03033FE31C06043FE21A0806
:102BF000013FD51F02033F00530B1033006308074A
:102C000033006A0608331153040A331853040A3395
:102C1000135D080A331567040A332A53070E33205D
:102C20006215063334630903334453050F3341629D
:102C30000A06333F680508334968050833595305C8
:102C40000833545B060433505F0A08335D5B0604A7
:102C5000335D5F0A0833715E0501336D530D0B332D
:102C600072680309336F600908338753040433869D
:102C700057070633835D0C1133836E020233886E6F
:102C80000302338C6E03023398530A09339B5D04AD
:102C900005339C61020A33A957080C33AB53050472
:102CA00033B753050E33B861030D33BF630A0733DF
:102CB000C15C060733C353020933C06A010333C63C
:102CC0006A010333DC53051833D360080333D46837
:102CD000080333E165040433E953062033000000A0
:102CE0000000000000000000F51F00081D20000883
:102CF0004743433A2028474E5520546F6F6C73204A
:102D0000666F722041726D20456D62656464656412
:102D10002050726F636573736F727320382D323079
:102D200031382D71342D6D616A6F722920382E3241
:102D30002E31203230313831323133202872656CF7
:102D40006561736529205B6763632D382D6272614D
:102D50006E6368207265766973696F6E20323637EC
:102D60003037345D00412B0000006165616269000D
:102D700001210000000536532D4D00060C074D09BA
:102D8000011204140115011703180119011A011E7B
:102D900004412B00000061656162690001210000AF
:102DA000000536532D4D00060C074D090112041481
:102DB0000115011703180119011A011E04412B0006
:102DC0000000616561626900012100000005365361
:102DD0002D4D00060C074D090112041401150117B1
:102DE00003180119011A011E04412B00000061653E
:102DF0006162690001210000000536532D4D000677
:102E00000C074D09011204140115011703180119CB
:102E1000011A011E04412B00000061656162690016
:102E200001210000000536532D4D00060C074D0909
:102E3000011204140115011703180119011A011ECA
:102E400004412B00000061656162690001210000FE
:102E5000000536532D4D00060C074D0901120414D0
:102E60000115011703180119011A011E04412B0055
:102E700000006165616269000121000000053653B0
:102E80002D4D00060C074D09011204140115011700
:102E900003180119011A011E04412B00000061658D
:102EA0006162690001210000000536532D4D0006C6
:102EB0000C074D090112041401150117031801191B
:102EC000011A011E04412B00000061656162690066
:102ED00001210000000536532D4D00060C074D0959
:102EE000011204140115011703180119011A011E1A
:102EF00004412B000000616561626900012100004E
:102F0000000536532D4D00060C074D09011204141F
:102F10000115011703180119011A011E04412B00A4
:102F200000006165616269000121000000053653FF
:102F30002D4D00060C074D0901120414011501174F
:102F400003180119011A011E04412B0000006165DC
:102F50006162690001210000000536532D4D000615
:102F60000C074D090112041401150117031801196A
:102F7000011A011E04411D000000616561626900C3
:102F800001130000000536532D4D00060C074D09B6
:102F9000011901411D0000006165616269000113B2
:102FA0000000000536532D4D00060C074D09011990
:102FB00001411D00000061656162690001130000AC
:102FC000000536532D4D00060C074D09011901006F
:102FD0004D43552047616C616761004F6E6C7920ED
:102FE00035206D697373696C65730063616E20626F
:102FF0006520696E20666C69676874006174206F73
:103000006E652074696D65004C6576656C0047419E
:103010004D45204F564552004669726520746F2019
:103020007265737461727400564943544F5259214A
:1030300000427574746F6E207374617465203A0079
:1030400052616E643A20004475626C696E204D6175
:093050006B657200323031390069
:10305C00F0B589B0FEF7DAFBB448FDF72CFB9023F2
:10306C004022DB051968B2480A4380211A601A68AD
:10307C000A258A431A60FDF79DFB032801D1FEF750
:10308C0003FC1424AB48013CFEF75EFC002CF9D188
:10309C00EF2301940093220001332100A348FDF794
:1030AC0061F8C826A14CBE2201212000FDF7E2FAEE
:1030BC00BE22059032212000FDF7DCFA2822069072
:1030CC0029002000FDF7D6FA07009A4A29002000B3
:1030DC00FDF7D0FA6A466946BBB2002780B2128B64
:1030EC00898A00902000FDF79CF9924B0C220193E9
:1030FC0091494623200002970095FDF718FA8D4B55
:10310C00029701931423042200938C495A33200014
:10311C00013EFDF70CFABE42C4D1EF2301963200FA
:10312C00310000932000FDF71DF8C8267F4CC72204
:10313C0001212000FDF79EFAC722059028212000CE
:10314C00FDF798FA2822069029002000FDF792FA44
:10315C002822079029002000FDF78CFA754A0700F9
:10316C0029002000FDF786FA6B466A466946BFB215
:10317C009B8B128B898A0097002780B201902000CC
:10318C00FCF7F0FF6B4B0C2201936B49462320009C
:10319C0002970095FDF7CBF9664B02970193142328
:1031AC000422009365495A332000013EFDF7BFF914
:1031BC00BE42BBD1EF2301963200310000932000B8
:1031CC00FCF7D0FFC826594CBE2201212000FDF788
:1031DC0051FABE22059032212000FDF74BFA28222D
:1031EC00069029002000FDF745FA0700514A2900F6
:1031FC002000FDF73FFA6A466946BBB2002780B251
:10320C00128B898A00902000FCF7B7FF494B0C22E7
:10321C00019349494623200002970095FDF787F951
:10322C00444B0297019314230422009343495A33CD
:10323C002000013EFDF77BF9BE42C4D1EF2301967D
:10324C000093320031002000FCF78CFFC837374C5C
:10325C00C72201212000FDF70DFAC7220590282175
:10326C002000FDF707FA2822069029002000FDF720
:10327C0001FA2822060029002000FDF7FBF92D4A4F
:10328C00079029002000FDF7F5F96A46694680B2DF
:10329C00128B898A01906846808BB3B20090200013
:1032AC00FDF78DF80023244E224A029301924633F7
:1032BC000C22310020000095FDF739F900231D4A3E
:1032CC00029314330192009304225A331B492000B9
:1032DC00013FFDF72CF9002FB9D1EF233A000093F1
:1032EC00390020000197FCF73DFF124A3100019292
:1032FC0020000297009546230C22FDF718F90D4A81
:10330C00200001921422029700926E23103A0B496E
:10331C00FDF70DF9EF233A0000933900013320003B
:10332C000197FCF71FFFFDF7B9FEAAE60400002089
:10333C0028000020FFFF0000473000085430000830
:0400000508000000EF
:00000001FF
