:020000040800F2
:1000000000100020F50D00087D0E00087D0E000890
:100010007D0E00087D0E00087D0E00087D0E000894
:100020007D0E00087D0E00087D0E00087D0E000884
:100030007D0E00087D0E00087D0E000829200008B6
:100040007D0E00087D0E00087D0E00087D0E000864
:100050007D0E00087D0E00087D0E00087D0E000854
:100060007D0E00087D0E00087D0E00087D0E000844
:100070007D0E00087D0E00087D0E00087D0E000834
:100080007D0E00087D0E00087D0E00087D0E000824
:100090007D0E00087D0E00087D0E00087D0E000814
:1000A0007D0E00087D0E00087D0E00087D0E000804
:1000B0007D0E000813B504008388C2898189408AB7
:1000C0000190E0880090034800F054F80123237465
:1000D00013BDC0460400002013B5037C0400002BB0
:1000E00009D08388C289818900200190E08800902E
:1000F000024800F03FF80023237413BD04000020E1
:10010000F7B504001E0008AB1D8809AB1F880091DD
:10011000019201F0D9FE084B678208332360002367
:1001200023746B461B88A680A3816B469B88E58061
:100130002000E381FEBDC0466821000810B5040020
:1001400001F0C2FE034B2000083323600023237418
:1001500010BDC0466821000830B504AD2D8803AC41
:1001600045820025248805748380C4808181C281F2
:1001700030BDC04637B506AC07AD2D882488293080
:100180000195009400F0FAFB37BDF0B58FB00292F4
:1001900014AA0D90019115888B4200DD94E0029A1B
:1001A000934200DD90E05A18F02A00DD8CE0029ABC
:1001B0009A18F02A00DD87E05A1E5B00099301239C
:1001C0000392099A04939A1A0893002300920793C2
:1001D000039B079A934277DB6B469B890D9C0593A3
:1001E000059A019B29349B189BB20A936B469B8B03
:1001F0000A990693069A029B20009F18BFB23A0004
:100200002B0000F083FB069A019B20009B189BB2F9
:100210000B93059A029B0B999E18B6B232002B00E5
:1002200000F074FB069A019B20009B1A9BB20C9372
:1002300032002B000C9900F069FB019B059A20000D
:100240009E1AB6B23A0031002B0000F05FFB029B11
:10025000069A31009F1ABFB22B003A00200000F02E
:1002600055FB029B059A0C999E1AB6B22B003200E0
:10027000200000F04BFB2B0032000B99200000F017
:1002800045FB2B003A000A99200000F03FFB009B41
:10029000002B0DDC049A079B944601330793009BC7
:1002A00063440093130002330493009B002B8FDD03
:1002B000039B099A013B0393089B023308939B1A03
:1002C000009AD318009383E70FB0F0BDF0B587B064
:1002D0001F000CAB1B8815009B1A012204900DA86F
:1002E00000880C000590791A0192002B02DA023A7C
:1002F0005B4201925B0002935E1A4B000393BC4287
:1003000010DC0498AAB2A1B2059B293000F0FEFAD5
:10031000002E03DD019BED18039BF61A029B0134AE
:10032000F618ECE707B0F0BDF0B55B1A0D0001213F
:1003300087B004900CA807880DA8008814000590C9
:10034000BA1A0191002B02DA02395B4201915B007B
:1003500002939E1A53000393BC4210DC0498A2B28D
:10036000A9B2059B293000F0D1FA002E03DD019BD4
:10037000ED18039BF61A029B0134F618ECE707B060
:10038000F0BDF7B51C00671AFE17BF197740BC46D1
:1003900008AB1D8809ABAE1AF7171B88F6197E400B
:1003A0000193B4450BDD8C4206DA00920B002A0063
:1003B0002100FFF78BFFF7BD00952300F9E7954279
:1003C00006DA00920B002A002100FFF7ADFFF2E7EA
:1003D00000952300F9E7F0B5160007000D0085B081
:1003E0000AAA1488CB180BAA12889BB20293039214
:1003F0000192029B32000096FFF7C3FF3419039B62
:10040000A4B2019332002B00290038000094FFF7BA
:10041000B8FF039B32000193029B3800190000943F
:10042000FFF7AFFF039B009401932200029B29007A
:100430003800FFF7A6FF05B0F0BDF0B58FB016008D
:1004400014AA128807900D0008928B426ADCB3420E
:1004500068DC5A18F02A65DC9A19F02A62DC5A1E08
:100460005B000A93012302920A9A03939C1A099350
:1004700000230693029B069A934253DB6B461B892B
:1004800007980493EB1A9BB20B936B461B8B0B994B
:100490000593F218049B92B2EF18089BBFB2019328
:1004A00000923B00FFF76DFF059B0798EB1A9BB28C
:1004B0000C93049B0C99F218059B92B2EB189BB21B
:1004C0000D93089B009201930D9BFFF75AFF059B2C
:1004D0000B99F21A089B92B2019300923B00079885
:1004E000FFF74FFF049B0C99F21A089B92B20193FD
:1004F00000920D9B0798FFF744FF002C08DC069B39
:1005000001330693039BE41802330393002CB1DDFF
:10051000029B0A9A013B0293099B023309939B1A9F
:10052000E418A7E70FB0F0BD10B5293000F0EEF9E0
:1005300010BD37B506AC2488079D2930019500947D
:1005400000F0F4F937BDF0B5002405269DB01D007C
:1005500022AB1B880490079323AB1B88059108935B
:1005600024AB1B8806920993069B9C4233DA059BB9
:100570000022185D194B203870431B1803930A237F
:100580009C460AAB510059180023072B11D0039841
:10059000875C01201F41074206D0674668465F43DB
:1005A000008CC8530133F0E7674668465F43808C90
:1005B000F7E70132052AE4D104980AAA01920093D0
:1005C00029003300079A29300735013400F0AEF9CD
:1005D000ADB2E4B2C8E71DB0F0BDC0467821000856
:1005E000F0B50D008BB0059310AB1B880600069389
:1005F00011AB1B8828000A211700079301F0AEFDFC
:1006000008AC3031217128000A2101F021FD0A21B6
:1006100080B201F0A3FD3031E1702800642101F0C7
:1006200017FD0A2180B201F099FD3031A170FA2145
:100630002800890001F00CFD0A2180B201F08EFD36
:10064000303161702800094901F002FD079B30300C
:1006500020700293069B05220193059B21000093C5
:1006600030003B00FFF76FFF0BB0F0BD102700001C
:1006700030B5084C2568002D08D1C26A930FD10E01
:100680005940012352008B431343C362C06A4001A7
:10069000400930BD0000002070B50D001400FFF7C8
:1006A000E7FF611B01F05AFD481970BD002370B5CA
:1006B0000400C3622600E36A2836002B0BD1012513
:1006C000300000F0A5F8A840E36A01351818E06290
:1006D000112DF5D1EEE7300000F068F870BD10B5CF
:1006E000040001F05DFC20002100293000F06EF9CB
:1006F0002000283000F008F82000243001F0A4FA8F
:100700002000FFF7D3FF10BD8023244A9B0091698E
:1007100010B50B4380219361214B09061869214CC8
:1007200008431861186920401861002098608020F3
:1007300040029862C024C220240480001C509868A3
:100740000143996099680029FCDB0721596106394A
:10075000996080235169DB030B43536180230F248D
:1007600051699B020B4353610F4A3F201368A34317
:1007700013609023DB05196881431960D168A14398
:10078000D1600521D4682143D160DA688243DA6000
:100790001522D9680A43DA6010BDC0460010024035
:1007A00000240140FFFFFFBF00140048C2210022C7
:1007B000044B89009A605A50034A044993690B40DC
:1007C000936170470024014000100240FFFDFFFFCD
:1007D00001200E4B1A6990431A6902231A4200D174
:1007E00018439023DB051A69D20701D40422104371
:1007F0001B699B0701D4082318439023DB051B6961
:100800005B0701D4102318437047C046001400480A
:100810008022074B52029A62052299680A439A6025
:10082000042299681142FCD0186C80B27047C0460F
:10083000002401400221024A53698B4353617047EF
:10084000000400480223024A51690B435361704778
:100850000004004890224021D20553698B43536124
:10086000704790224023D20551690B435361704772
:1008700010B50C00FFF7DEFF200001F079FA10BD83
:1008800010B50C00FFF7DEFF200001F071FA10BD7B
:10089000F7B504000F001E00150008AB1B882A21C5
:1008A0000193FFF7E5FF390A2000FFF7E9FFF9B2EE
:1008B0002000FFF7E5FF310A2000FFF7E1FFF1B26A
:1008C0002000FFF7DDFF20002B21FFF7D1FF290AD1
:1008D0002000FFF7D5FFE9B22000FFF7D1FF019B11
:1008E0002000190AFFF7CCFF6B4620001979FFF7AB
:1008F000C7FF2C212000FFF7BBFFF7BD10B50C0090
:10090000FFF7A0FF200001F089FA10BD37B5040001
:100910001D00501C4B1C80B29BB200902000FFF7C2
:10092000B7FF29002000FFF7E9FF37BDF0B51F0032
:1009300085B00AAB1B880290039303987B1E013895
:100940001018CB1880B200909BB20298FFF7A0FF5E
:100950000026039B9E420FDA00240B9D0B95BC42A0
:1009600007DA298802980134FFF7C8FFA4B20235DC
:10097000F4E70136B6B2ECE705B0F0BDF0B51F0004
:10098000060085B00AAB1B880024029302980BABCB
:100990001B880138039310187B1ECB1880B200907F
:1009A0009BB23000FFF774FF029B9C420CDA0025DB
:1009B000BD4206DA039930000135FFF79FFFADB263
:1009C000F6E70134A4B2EFE705B0F0BD8022414B59
:1009D00073B50D00596992020A435A619022802131
:1009E000D2050400106849010143116011683A48BA
:1009F00008260140116080225969D2020A435A61D7
:100A00000422364B200019680A431A601A68B24360
:100A10001A60FFF726FF2800192101F0FBFA2000D9
:100A2000FFF718FF2800192101F0F4FA2000FFF762
:100A300018FF2800192101F0EDFA20000121FFF72D
:100A400017FF2800962101F0E5FA20001121FFF799
:100A50000FFF2800192101F0DDFA20003A21FFF7ED
:100A600007FF20005521FFF70BFF2800192101F097
:100A7000D1FA20003621FFF7FBFE31002000FFF7FE
:100A8000FFFE2800192101F0C5FA20005121FFF7CF
:100A9000EFFE2800192101F0BDFA20002121FFF707
:100AA000E7FE20001321FFF7E3FE20002921FFF7D6
:100AB000DFFE2800192101F0ADFA20002C21FFF7FC
:100AC000D7FE0021F023019100930A002000FFF7D8
:100AD00055FF73BD00100240FFDFFFFF0004004818
:100AE00010B50E2B19DC017501002D3109781A4360
:100AF000417500218275CA1CD2B2994205D0029C70
:100B00008218645C01311475F5E7012381180B75B7
:100B100001002C302A310A70037010BD70477047F5
:100B2000012070475218013A107801384342584169
:100B3000C0B270479022D205536902490B405361FD
:100B40007047C046FFFBFFFF90228023D20551690A
:100B5000DB000B43536170470100002328310B7009
:100B60000A78132A03DC835401320A70F8E72B3029
:100B70000B700370704713B5FF236A4613700300B0
:100B80002D331B7804005370802393707F3BD37008
:100B9000FFF7D0FF00234021064A6846C05C906200
:100BA000D0690842FCD00133042BF6D12000FFF7B6
:100BB000CBFF13BD00380140030070B5050028339A
:100BC0001B7804002C35002B13D0C318013B1A7876
:100BD000012A0ED10378FF2B24D1A3789B0608D5D8
:100BE00023002D3362781B789A4202D12000FFF750
:100BF000C2FF2B78002B1FD02000FFF79BFF2300A4
:100C0000220040252A3318780C4929321378834270
:100C10000FDA5E1C1670E3181B7D8B62CB692B42CA
:100C2000FCD0F3E721002D3109789942E1D12A70F7
:100C3000DFE72000FFF788FF70BDC04600380140A5
:100C4000FE232D300370FEE70200002380212832AE
:100C500070B513705370D370137153711A4A040036
:100C6000506989020143516180219069C9010143A2
:100C70009161D1681548164D0140D1606B60083311
:100C8000AB60144BC022EB609023DB055968D200A7
:100C90000A435A60A022D96852030A43DA60DA682C
:100CA0000D4920000A40DA60C022196852030A4345
:100CB0001A601A6809490A401A60FFF745FF0523C0
:100CC00020002B60FFF7BCFF00100240FFBFFFFFBA
:100CD0000038014088130000FFFFD7FFFFFFDBFF54
:100CE00080B500AF234B234A126823490A401A609B
:100CF000204B1A6880239B0413405A1E9341DBB299
:100D0000002B00D0F4E71D4B1C4A126801210A4356
:100D10001A601A4B194A126806218A431A60174B47
:100D2000164A126810210A431A60124B114A52687F
:100D300013490A405A600F4B0E4A5268A02189039A
:100D40000A435A600B4B0B4A52688021C9010A437F
:100D50005A60084B074A1268802149040A431A6006
:100D6000044B044A526802210A435A60C046BD46F9
:100D700080BDC04600100240FFFFFFFE0020024081
:100D8000FFFFC3FF80B582B000AF164A164BD31ADF
:100D90009B103B6000237B607A683B689A4208D2D4
:100DA000114B7A689200D35898477B6801337B6077
:100DB000F2E70E4A0E4BD31A9B103B6000237B6078
:100DC0007A683B689A4208D2094B7A689200D358F5
:100DD00098477B6801337B60F2E7C046BD4602B0AE
:100DE00080BDC0466821000868210008682100080D
:100DF0006821000880B584B000AFFFF771FF1A4B7F
:100E0000FB601A4BBB601A4A184BD31A7B607B6895
:100E10005A1E7A605A1E9341DBB2002B08D0BB6881
:100E20005A1CBA60FA68511CF96012781A70EEE721
:100E3000104BBB60104A0F4BD31A7B607B685A1E65
:100E40007A605A1E9341DBB2002B05D0BB685A1C56
:100E5000BA6000221A70F1E7FFF794FF01F054FF27
:100E6000C046BD4604B080BDEC2F00080000002045
:100E700000000020000000204000002080B500AFEE
:100E8000FEE7C04610B50748FFF7A2FC0423184050
:100E9000054B04D000201A68824201D1013018604D
:100EA00010BDC0462C0000203400002006398BB253
:100EB0000C2130B589B001910538023982B2009118
:100EC00003A8104900F0EEFF03A800F0C3FFFA21C9
:100ED0000D4D32222800C90000F0D4FE0B4C322107
:100EE000200001F097F8FA2132222800490000F092
:100EF000C9FE3221200001F08DF803A800F0BEFFEA
:100F000009B030BD5823000828000020040000204C
:100F1000F0B59B4C0C26A54403230A24994D1A00D6
:100F200070352900019600942EA800F0BBFF29001F
:100F3000019603231722009433A800F0B3FF290081
:100F4000019603232B22009438A800F0ABFF290060
:100F5000019603233F2200943DA800F0A3FF29003F
:100F6000019603235322009442A800F09BFF29001E
:100F7000019603236722009447A800F093FF2900FD
:100F8000019603237B2200944CA800F08BFF2900DC
:100F9000019603238F22009451A800F083FF2900BB
:100FA00001960323A322009456A800F07BFF29009A
:100FB00001960323B72200945BA800F073FF062379
:100FC000714901937822CC336031009410A8082530
:100FD000052700F067FF00236C4E1A0058363100D9
:100FE0000195009715A800F05DFF002331001A005D
:100FF000019500971AA800F055FF002331001A0050
:10100000019500971FA800F04DFF002331001A0042
:101010000195009724A800F045FF002331001A0035
:101020000195009729A800F03DFF0023584E1A00B3
:10103000283631000195009760A800F033FF0023A7
:1010400031001A000195009765A800F02BFF0023DE
:1010500031001A00019500976AA800F023FF0023D1
:1010600031001A00019500976FA800F01BFF0023C4
:1010700031001A000195009774A800F013FF0023B7
:1010800031001A000195009779A800F00BFF0023AA
:1010900031001A00019500977EA800F003FF00239D
:1010A00031001A000195009783A800F0FBFE002391
:1010B00031001A000195009788A800F0F3FE002384
:1010C00031001A00019500978DA800F0EBFE002575
:1010D000F023304E00932A00290030000195FFF7DD
:1010E00049F82D4B2200019328232C49009330000E
:1010F00023000295FFF727FA274B0F2201933C2389
:1011000027490093300023000295FFF71CFA224B79
:1011100010220193502323490093300023000295AD
:10112000FFF711FA1C4B0B22019364231E49009315
:10113000300023000295FFF706FAFA2130008900FB
:1011400000F068FF06230693053B0A93124B0497B1
:1011500007930024F02301940093220021000D48FE
:10116000FFF708F81426069B2EAD9C421EDA3300CA
:101170006343E818EB5801341B689847F3E7C0460F
:10118000B4FDFFFFD8230008D82400085825000824
:10119000D825000804000020FFFF00007C2C000878
:1011A000872C0008972C0008A82C00080322002197
:1011B000280000F099FE03220F2133A800F094FECE
:1011C00003221E2138A800F08FFE03222D213DA806
:1011D00000F08AFE03223C2142A800F085FE032293
:1011E0004B2147A800F080FE03225A214CA800F0B2
:1011F0007BFE0322692151A800F076FE03227821AC
:1012000056A800F071FE032287215BA800F06CFE57
:1012100060AB92AC0593059B05981B685B6898478B
:10122000059B14330593A342F5D115AC2368200028
:101230005B6814349847A542F8D1079B00250193B9
:10124000E623B74C0093E13B1A0020000295B54914
:10125000FFF779F96B460A271B8B20000D93591F66
:10126000079B0195009389B2E6233C22FFF7B8F96A
:10127000049D2C012C1BF034A4B2AB4E210001962E
:1012800000970A23E622A6480F34013DFEF772FFBD
:10129000A4B20F96002DF0D110A800F0DBFD0223C0
:1012A000099310A800F018FEA048FFF791FA022356
:1012B000184209D00CAB998BE42905DC0231DA8B9A
:1012C00089B210A800F010FE9848FFF781FA0123B8
:1012D000184209D00CAB998B012905DD0239DA8B54
:1012E00089B210A800F000FEFFF7CCFD002823D043
:1012F0000023142215A91D00052B1DD010005843F2
:101300000C181030085C01330028F4D16A438B5864
:1013100020001B68984710ABA179DA894908521A56
:1013200019799B894908CB18217992B24908591A31
:1013300089B2200000F0D8FD002615AC052E0AD099
:10134000E289237C002A00D1E2E0002B00D0F5E006
:1013500001361434F2E70A2760AC059B9C4233D077
:10136000E289237CDB2A00DD5BE1002B00D006E173
:10137000002F27D0013FFFB224E0FFF783FD0028B4
:10138000FBD193239B009D44F0BD002301930A33BE
:10139000009328006E33E622A521FEF7EBFE049EA3
:1013A0003501751BF035ADB20F9B290001930A235F
:1013B000E62200935A480F35013EFEF7DBFEADB240
:1013C000002EF1D11434C8E7002301262FAD0C9371
:1013D000089361ABAB423BD02B1F0E932B7B002BB2
:1013E00034D0069BBB4214DD002360AE0B93B442A5
:1013F0000FD00B9B002B0CD1337C002B07D132225A
:101400000B994748FFF748F9002800D111E114363D
:10141000EDE70A9B6A8929899A18099B92B25918A3
:1014200089B20E9800F060FDF0212B782A89CB1A42
:101430009A4201DB01230893002A01D1012308937A
:101440006B8900268C2B01DD01230C931435C0E73A
:10145000089B002B03D0099B5B429BB209930C9B1A
:10146000002B03D00A9B5B429BB20A932C4C0F21AA
:10147000200000F0CFFD002E00D112E7079B0025D1
:101480000193E6230093E13B1A00264920000295D0
:10149000FFF759F80D99079B0439009389B2E623A9
:1014A00001953C222000FFF79BF8069B0133069331
:1014B0000A2B00D04DE6FC26E633F6002A00290070
:1014C000009320000196FEF755FE6423184D00930B
:1014D00008223C3B1749200002960195FFF733F89C
:1014E0007823029600930195703B0F221249200049
:1014F000FFF729F8FFF7C6FC002804D10A210848A5
:1015000000F088FDF6E7FFF7BDFC0028FBD138E7C7
:10151000002B00D11CE7236820005B68984717E781
:1015200004000020B42C000861F800002C0000200A
:101530001FF80000D42C0008C42C0008023A92B214
:10154000A189200000F0D0FC00252EAF7B19E28994
:10155000A1891800089300F0DBFC00280BD0EB59A0
:1015600008985B689847236820005B689847E18982
:10157000A089FFF79BFC1435C82DE6D1E8E60232BE
:1015800092B2A189200000F0AFFCA279E389520851
:101590002179D218A3894908C91892B289B210A832
:1015A00000F0B6FC002800D10CE70CABD98B988B6F
:1015B000FFF77CFC049B2000013BDBB20493236813
:1015C0005B689847049B294D002B00D0DDE6049A08
:1015D0000193F033110000932800FEF7CBFD049B2C
:1015E00009220293079B2249019364232800009358
:1015F0003C3BFEF7A8FF049B0F2202931D4B1E49A4
:101600000193782328000093703BFEF79CFFFFF7BF
:1016100039FC002800D0B0E60A21280000F0FAFCCE
:10162000F5E7002B00D1A3E6236820005B6898470C
:101630009EE6336830001B6898478E230CAA9B18DF
:101640001A786B895208D2182FAB1B7829895B084E
:10165000CB1A297892B24908C91889B2300000F033
:1016600043FC01230137FFB20B93D0E604000020B6
:10167000BA2C00081FF80000C42C000880220B4B75
:10168000D203596910B50A4301215A61084A10680A
:101690000143022011601168814311608022596961
:1016A00092020A435A6100F07FFB10BD0010024015
:1016B0000014004880230E4A9B0091690B439361FC
:1016C00000220C4BC0219A60802252029A62C222F0
:1016D0000904920099508022996812060A439A6080
:1016E0009A68002AFCDB07225A61063A9A60704722
:1016F000001002400024014010B50248FFF788F8AE
:1017000010BDC0462C000020F0B585B00024EF23AA
:101710001D4D00932200210028000194FEF72AFDB0
:101720000A231A4E00930E2223001949280002941E
:101730000196FEF708FF1748FFF74AF81427010043
:101740000194280000960A238222FEF749FF230015
:10175000280002940196009706220F49FEF7F3FE37
:10176000210064222800FEF797FF019481B20096C1
:1017700028003B008222FEF733FFFA21280089006F
:1017800000F048FCC2E7C04604000020FFFF000054
:10179000DD2C00082C000020EC2C0008F0B5D74C04
:1017A000D74DA54408AB1CACED18200014341438F8
:1017B000FEF7C4FCA542F8D10021EF2303257F26C4
:1017C000009301910A00CF480C91FEF7D3FC17ABB0
:1017D00009930C9ACC4B3700995C0C9A0C989A1888
:1017E00018188078527884460C981818C07805909C
:1017F0000C981B181B7918112840022806D0FF27C7
:10180000032803D0C03F012800D000279C102C40A3
:101810003000022C06D0FF20032C03D0C038012C4E
:1018200000D000202B403400022B06D0FF24032BD5
:1018300003D0C03C012B00D00024FF08FF02C010E1
:101840003843FC27E400FF00059B3C400443009321
:10185000099863460194FEF77FFC0C9B09980533B9
:101860000C93099B1B681B689847099B08AA1433B3
:101870000993C8231B019B18099A9342A9D10326F7
:10188000A24C1423DC220021019400960DA8FEF73F
:1018900037FC782212AF3300019400961100380013
:1018A000FEF72EFC05230693013B08930A94954C02
:1018B000E6220A212000FEF7EFFE782281B23800EE
:1018C00000F012FB200002220021FEF7E5FE434259
:1018D000584101234042034307936B460A251C7E6F
:1018E000002C0ED02101611A894BF031019389B28D
:1018F00000950A23E6228348013CFEF73BFCE4B254
:10190000EEE738000DADFEF7D5FB2800FEF7D2FB61
:101910000A9B7C4E0193E6230093E13B1A003000C2
:101920007C490294FEF70FFE052330000126089A39
:101930000194991A0A9B89B200933C22E623FEF790
:101940004FFE76420595744C2000FEF741FF830759
:101950000DD5059B1A799989F0239B1A994206DACD
:10196000059B0231DA8989B2180000F0BDFA200027
:10197000FEF72EFFC30709D5059B9989002905D0DD
:101980000239DA8989B2180000F0AEFABA79FB8917
:1019900052083979D218BB894908C91892B289B25C
:1019A000059800F0CDFA002806D076421422C8210E
:1019B0005A4876B200F066F9079BFA89B9899219FC
:1019C000C91892B289B2380000F08EFABB89022B96
:1019D00009D1C821079B1422584243B249004F48FD
:1019E000079300F04FF9BB89EE2B09D1C821079B63
:1019F0001422584243B249004848079300F042F984
:101A0000FB89022B07D1C8217642142249004348A2
:101A100076B200F037F9059B059ADB8992799B181D
:101A2000FA890133934200DB82E0069C354D013C8C
:101A3000E4B263B20693002B2BD1069A0193F033E4
:101A4000110000932800FEF795FB069B09220293E4
:101A50000A9B334901936423280000933C3BFEF723
:101A600072FD069B0F2202932E4B2F490193782380
:101A700028000093703BFEF766FD04242648FEF71D
:101A8000A7FE204200D0D4E00A21280000F0C2FACC
:101A9000F4E7642200212800FEF7FEFD0123184030
:101AA00001380343E6220A2128000793FEF7F4FDDC
:101AB000782206005A212800FEF7EEFDB1B282B26C
:101AC000380000F011FA0A26002300960193E6225E
:101AD0007833A5212800FEF74DFB002C26D02101EC
:101AE000611A0B4BF031019389B200960A23E6226A
:101AF0000448013CFEF73EFBE4B2EEE75CF3FFFF77
:101B0000940C00000400002050260008FFFF000095
:101B100061F80000B42C00082C00002028000020F0
:101B2000BA2C00081FF80000C42C000801267642D9
:101B3000012317AD0B93099BAB4245D02B7CB98990
:101B40005A4253410B9A5B421A400B922800FA8981
:101B500000F0F6F9041E1CD1B989FA89023189B264
:101B6000280000F0EDF9041E13D1FA89B989023278
:101B700092B2280000F0E4F9041E0AD1FA89B9896A
:101B80000232023192B289B2280000F0D9F9041E63
:101B900018D02B6828005B689847230002229343E3
:101BA000012B01D1764276B20223023C9C4303D141
:101BB000079B584243B20793FA21142289001E481A
:101BC00000F060F81435B6E70B9B012B21D1089B80
:101BD000002B1EDD013B38000893FEF77DFA002341
:101BE00002930A9BE62501930523144C1A0014491D
:101BF00020000095FEF7A7FC0523089A2000991AFB
:101C0000002301930A9B89B200933C222B00FEF72C
:101C1000E7FC089B0948591D00F0FCF9059800F005
:101C20005BF90B9B002B00D18DE6089B002B00DDA0
:101C30003DE6044B9D44F0BD280000200400002038
:101C4000B42C0008A40C000080220B4B520018603A
:101C50000A4BD9690A43DA618022596992020A4320
:101C60005A610022064B1A6060329A61196A5F3A23
:101C70000A431A627047C046380000200010024034
:101C8000002000409023F7B5DB0501920F001A6891
:101C9000164901250A401A608022196892000A43F9
:101CA0001A601A6A1249134C0A401A628022596A51
:101CB000D2020A435A6223680600AB432360B7236B
:101CC0009B00A362A16A0C4800F0C2F9390000F041
:101CD000BFF9E062E36AEB40636300236362236859
:101CE0001D43019B25603360F7BDC046FFFEFFFF2B
:101CF000FFFFF4FF00200040006CDC020121054AD8
:101D000013688B4313609022D205136802490B407D
:101D10001360704700040040FFFCFFFF0068431E93
:101D200098417047F7B505000E0017000024019395
:101D3000019B9C420ADA2B68002BFCD16300FA5A03
:101D4000F15A2800FFF79EFF0134F1E7F7BD074B7A
:101D500010B51B681A68002A07D01A68013A1A6081
:101D60001B68002B01D1FFF7C9FF10BD3800002010
:101D70000A4A30B511008024094B9568254202D0EB
:101D8000013B002BF9D18022064B1870044B8C6864
:101D9000144202D0013B002BF9D130BD003001408C
:101DA00041420F000C3001408022174B52019969CB
:101DB00010B50A439A61C0225969D2020A435A6196
:101DC0009023DB051A68114920240A401A608822F2
:101DD000196812020A431A601A6A0D490A401A6207
:101DE000CC22996812020A439A600A4B9A680A4AFE
:101DF0001A60E022D2005A600020013CFFF7B8FFD1
:101E0000002CF9D110BDC04600100240FFBBFFFFFF
:101E1000FFFF0F0F00300140460300000B4930B5B3
:101E20000B0080240A4A8D68254202D0013A002A1C
:101E3000F9D18021064AD8609868084202D0013A58
:101E4000002AF9D1D86880B230BDC04600300140C8
:101E500041420F0013B5037C0400002B09D1838895
:101E6000C289818980680190E08800900248FEF76D
:101E700060FB0123237413BD0400002013B5037C11
:101E80000400002B09D08388C28981890020019039
:101E9000E08800900248FEF76DF90023237413BD1B
:101EA00004000020C381002370B504AC268805AC73
:101EB0002588044C86800834C58004608281816056
:101EC000037470BD64290008024B083303600023CB
:101ED0000374704764290008037C10B5002B02D0FE
:101EE00003681B68984710BD70B5037C04000E00A2
:101EF0001500002B09D003685B6898472368A6810A
:101F0000E5811B682000984770BDA181E281FBE755
:101F100030B50300047C0020844210D09D89A94282
:101F20000DDB9C886419A14209DAD9898A4206DB53
:101F3000DB885B1801219A4200DB011C88B230BDAE
:101F40000023F0B5047C9C4228D0C689848996423F
:101F500006D1A14204DB858801332D19A9421DDB7E
:101F6000C588A14205D1B24203DBAF190223BA42B0
:101F700014DBAD196B1E80889A4205D1A14203DBA8
:101F800007190323B94209DB0019013800238142F4
:101F900004D1B24202DBAA4200DA04331800F0BDD9
:101FA0000022094B1860031D243004C38342FCD176
:101FB0000722064B19680A431A60054A5A6005222F
:101FC0009A6062B67047C0463C00002010E000E016
:101FD0007FBB0000002210B5940004196368002B39
:101FE00002D11800616010BD0132082AF4D101202D
:101FF0004042F8E7002310B59A00821854688C42DA
:1020000002D10020506010BD0133082BF4D1012013
:102010004042F8E7002906D0002303600368994294
:1020200001D930BFFAE7704770B50024074D2A6820
:102030001368013313602A68A300D3185B68002B70
:1020400000D098470134082CF5D170BD3C00002029
:10205000002243088B4274D303098B425FD3030AE7
:102060008B4244D3030B8B4228D3030C8B420DD3FA
:10207000FF22090212BA030C8B4202D31212090288
:1020800065D0030B8B4219D300E0090AC30B8B42C6
:1020900001D3CB03C01A5241830B8B4201D38B0374
:1020A000C01A5241430B8B4201D34B03C01A524119
:1020B000030B8B4201D30B03C01A5241C30A8B425C
:1020C00001D3CB02C01A5241830A8B4201D38B0247
:1020D000C01A5241430A8B4201D34B02C01A5241EB
:1020E000030A8B4201D30B02C01A5241CDD2C3095D
:1020F0008B4201D3CB01C01A524183098B4201D3D9
:102100008B01C01A524143098B4201D34B01C01AC3
:10211000524103098B4201D30B01C01A5241C3083B
:102120008B4201D3CB00C01A524183088B4201D3AA
:102130008B00C01A524143088B4201D34B00C01A96
:102140005241411A00D20146524110467047FFE702
:1021500001B5002000F006F802BDC0460029F7D006
:1021600076E770477047C04600000000000000009E
:10217000B5000008D9000008000000000000005F62
:1021800000000007000700147F147F14242A7F2A10
:1021900012231308646236495522500005030000DB
:1021A000001C2241000041221C00082A1C2A0808A9
:1021B000083E0808005030000008080808080060C1
:1021C00060000020100804023E5149453E00427F55
:1021D000400042615149462141454B311814127F5C
:1021E0001027454545393C4A4949300171090503E5
:1021F0003649494936064949291E0036360000004D
:1022000056360000000814224114141414144122FC
:102210001408000201510906324979413E7E11112C
:10222000117E7F494949363E414141227F41412249
:102230001C7F494949417F090901013E4141513211
:102240007F0808087F00417F41002040413F017F17
:10225000081422417F404040407F0204027F7F04F7
:1022600008107F3E4141413E7F090909063E415128
:10227000215E7F09192946464949493101017F01FB
:10228000013F4040403F1F2040201F7F2018207FFB
:10229000631408146303047804036151494543003F
:1022A000007F4141020408102041417F00000402E8
:1022B0000102044040404040000102040020545408
:1022C00054787F484444383844444420384444488F
:1022D0007F3854545418087E090102081454543CA1
:1022E0007F0804047800447D40002040443D000005
:1022F0007F10284400417F40007C041804787C084B
:1023000004047838444444387C1414140808141421
:10231000187C7C080404084854545420043F44406A
:10232000203C4040207C1C2040201C3C4030403C55
:1023300044281028440C5050503C4464544C4400F1
:102340000836410000007F00000041360800080800
:102350002A1C08081C2A08080000000000000000D1
:1023600000F800F8000000000000000000F8000085
:102370000000000000F800F800000000000000F875
:10238000000000F80000000000F800F80000000065
:1023900000F800000000000000F8000000F800F85D
:1023A000000000F80000000000000000000000F83D
:1023B00000F800F800F800000000000000F800F845
:1023C00000F800F800F800F800F800F800F800F84D
:1023D00000F800F800F800F800F800F800F800F83D
:1023E00000F800F800000000000000F800F800F815
:1023F00000F80000000000000000000000F80000ED
:1024000000F800F8000000F800000000000000F8EC
:102410000000000000F800F80000000000F80000D4
:1024200000F800000000000000F800F800000000C4
:10243000000000F8000000000000000000F800F8B4
:10244000000000000000000000000000000000008C
:10245000000000000000000000000000000000007C
:10246000000000001FF81FF800000000000000003E
:102470000000000000001FF81FF81FF81FF8000000
:102480000000000000001FF81FF800001FF81FF8F0
:1024900000001FF81FF8000000001FF81FF80000E0
:1024A0001FF81FF800001FF81FF8000000001FF8B9
:1024B0001FF81FF81FF81FF81FF81FF81FF800007B
:1024C00000001FF81FF81FF81FF81FF81FF81FF86B
:1024D0001FF80000000000001FF81FF800000000B7
:1024E0001FF81FF800000000000000001FF81FF890
:1024F000000000001FF81FF80000000000001FF897
:102500001FF800000000000000001FF81FF8000086
:102510001FF81FF81FF800000000000000001FF85F
:102520001FF81FF80000000000000000000000007D
:10253000000000000000000000000000000000009B
:10254000000000000000000000000000000000008B
:1025500000000000FFFFFFFF00000000000000007F
:102560000000000000000000FFFFFFFF000000006F
:10257000000000000000FFFFFFFFFFFFFFFFFFFF65
:10258000FFFFFFFFFFFF0000FFFFFFFFFFFFFFFF59
:10259000FFFFFFFFFFFFFFFFFFFFFFFFFFFFFFFF4B
:1025A000FFFFFFFFFFFFFFFFFFFFFFFFFFFFFFFF3B
:1025B000000000001F000000000000001F001F00BE
:1025C0001F00000000001F001F001F00000000008F
:1025D0001F001F001F00000000001F001F001F0041
:1025E00000001F001F001F001F001F001F001F0012
:1025F0001F001F001F00000000001FF80000000067
:10260000000000001FF800000000E007E007E007FE
:10261000E007E007E007E007E007E007E007000069
:10262000E007E007E00700000000E007E007E00740
:1026300000000000E007E007E00700000000E007FE
:10264000E007E007000000000000E00700000000D5
:102650000A3405150F0F3408040F0F4508040F1630
:1026600039050D0F1F3505110F2B3405110F2145AD
:102670000C040F333406150F393406040F393C06A9
:10268000040F394506040F3F3605070F3F3F050786
:102690000F473405150F4C450A040F593405150F23
:1026A000623405150F673408040F6F3405150F7D6C
:1026B0003505150C8D3505150C863503150C823541
:1026C00004020C893504020C953505150CA435055A
:1026D000150C9A3E0B040C9A350B020CAD34051503
:1026E0000CB23D05030CB73704060CB74104060CC9
:1026F000B74706030CB73407030CC23405150CC7E3
:10270000340A040CC7450A040CC73C0A040CD43430
:1027100005150CD93406040CD93D06050CDF360529
:102720000A0CDE4206070C002A170A30162A170A7E
:10273000302D2A170A30442A170A305A2A170A302D
:10274000712A170A30882A170A309E2A170A30B5CC
:102750002A170A30CC2A170A30E22A0D0A3000491B
:10276000170A3C1749170A3C2D49170A3C444917D8
:102770000A3C5B49170A3C7149170A3C8849170A09
:102780003C9F49170A3CB549170A3CCC49170A3CFB
:10279000E3490D0A3C001F0F0C3F00180C073F03D4
:1027A0001707013F00150C013F122607043F141EB6
:1027B00004093F1513020A3F041305023F1C2417A6
:1027C000063F1F1C14083F1F1A0F023F23190B025C
:1027D0003F332305073F3416030D3F381913113FCC
:1027E0003D1807023F4B2109093F4D18050A3F4E8E
:1027F0001303043F54220D083F591F08033F61246F
:1028000017063F621D0B073F6D2103033F7023082E
:10281000023F722102023F7F1C040E3F8000021C17
:102820003F882511053F8B210E043F992809023F5F
:102830009A2607023F9D2401023FA221190A3FA6C2
:102840001E11023FAB13080B3FAD1004043FBB2524
:1028500018053FC32110043FC313090E3FD4221CA7
:10286000083FDB2012033FDE1C03033FE31C06048A
:102870003FE21A08013FD51F02033F00530B1033FC
:102880000063080733006A0608331153040A33183B
:1028900053040A33135D080A331567040A332A53B5
:1028A000070E33206215063334630903334453059E
:1028B0000F3341620A06333F68050833496805084B
:1028C000335953050833545B060433505F0A083309
:1028D0005D5B0604335D5F0A0833715E0501336D8D
:1028E000530D0B3372680309336F60090833875344
:1028F0000404338657070633835D0C1133836E025D
:102900000233886E0302338C6E03023398530A0934
:10291000339B5D0405339C61020A33A957080C33CD
:10292000AB53050433B753050E33B861030D33BF02
:10293000630A0733C15C060733C353020933C06A15
:10294000010333C66A010333DC53051833D360082F
:102950000333D468080333E165040433E9530620E4
:10296000330000000000000000000000551E0008B9
:102970007D1E00084743433A2028474E5520546F98
:102980006F6C7320666F722041524D20456D6265F9
:10299000646465642050726F636573736F72732033
:1029A000362D323031372D71322D7570646174657A
:1029B0002920362E332E3120323031373036323026
:1029C000202872656C6561736529205B41524D2F2B
:1029D000656D6265646465642D362D6272616E6337
:1029E00068207265766973696F6E203234393433CA
:1029F000375D0041300000006165616269000126B9
:102A000000000005436F727465782D4D3000060C90
:102A1000074D0901120414011501170318011901CA
:102A20001A011E0441300000006165616269000105
:102A30002600000005436F727465782D4D30000646
:102A40000C074D090112041401150117031801198F
:102A5000011A011E044130000000616561626900D5
:102A6000012600000005436F727465782D4D30001B
:102A7000060C074D09011204140115011703180172
:102A800019011A011E04413000000061656162698C
:102A900000012600000005436F727465782D4D30EB
:102AA00000060C074D090112041401150117031843
:102AB0000119011A011E04413000000061656162C4
:102AC0006900012600000005436F727465782D4D82
:102AD0003000060C074D09011204140115011703FB
:102AE000180119011A011E044130000000616561DE
:102AF000626900012600000005436F727465782D3D
:102B00004D3000060C074D09011204140115011780
:102B100003180119011A011E04413000000061650B
:102B200061626900012600000005436F72746578D8
:102B30002D4D3000060C074D09011204140115013A
:102B40001703180119011A011E0441300000006129
:102B50006561626900012600000005436F727465BB
:102B6000782D4D3000060C074D0901120414011593
:102B7000011703180119011A011E04413000000059
:102B8000616561626900012600000005436F72748F
:102B900065782D4D3000060C074D09011204140113
:102BA00015011703180119011A011E044130000014
:102BB00000616561626900012600000005436F72D3
:102BC0007465782D4D3000060C074D090112041470
:102BD0000115011703180119011A011E04413000E3
:102BE0000000616561626900012600000005436F15
:102BF000727465782D4D3000060C074D09011204E2
:102C0000140115011703180119011A011E0441309E
:102C10000000006165616269000126000000054353
:102C20006F727465782D4D3000060C074D09011246
:102C300004140115011703180119011A011E04419A
:102C40001D0000006165616269000113000000055C
:102C500036532D4D00060C074D09011901411D0089
:102C600000006165616269000113000000053653D0
:0C2C70002D4D00060C074D090119010054
:102C7C004D43552047616C616761004F6E6C792044
:102C8C0035206D697373696C65730063616E2062C6
:102C9C006520696E20666C69676874006174206FCA
:102CAC006E652074696D65004C6576656C004741F6
:102CBC004D45204F564552004669726520746F2071
:102CCC007265737461727400564943544F525921A2
:102CDC0000427574746F6E207374617465203A00D1
:102CEC0052616E643A20004475626C696E204D61CD
:092CFC006B6572003230313900C1
:102D0800F0B589B0FEF7B6FCB148FDF7E4FCB14870
:102D1800FDF75AFD0A25032801D1FEF7F1FC14241A
:102D2800AD48013CFEF736FD002CF9D1EF230194A4
:102D38000093220001332100A548FDF717FAC826A1
:102D4800A34CBE2201212000FDF7A2FCBE22059063
:102D580032212000FDF79CFC282206902900200043
:102D6800FDF796FC9C4A070029002000FDF790FC1F
:102D78006A46694680B2128B898ABBB200902000ED
:102D8800FDF757FB00230293934B0C2201939349C1
:102D9800462320000095FDF7D2FB002302938E4BBB
:102DA8000422019314238E49009320005A33013ED4
:102DB800FDF7C5FB002EC3D1EF2301963200310089
:102DC80000932000FDF7D2F9C836814CC7220121B3
:102DD8002000FDF75DFCC722059028212000FDF7A3
:102DE80057FC2822069029002000FDF751FC2822D4
:102DF800079029002000FDF74BFC774A07002900BF
:102E08002000FDF745FC6B466A46694680B2BFB2B2
:102E18009B8B128B898A019000972000FDF7A6F9F9
:102E2800002302936C4B0C2201936C49462320002B
:102E38000095FDF784FB00230293674B042201935E
:102E480014236749009320005A33013EFDF777FBAE
:102E5800002EBAD1EF2301963200310000932000F2
:102E6800FDF784F9C8365A4CBE2201212000FDF72F
:102E78000FFCBE22059032212000FDF709FC282214
:102E8800069029002000FDF703FC534A070029009B
:102E98002000FDF7FDFB6A46694680B2128B898ADD
:102EA800BBB200902000FDF76CF9002302934A4B57
:102EB8000C2201934949462320000095FDF73FFB6A
:102EC80000230293444B04220193142344490093A2
:102ED80020005A33013EFDF732FB002EC3D1EF2309
:102EE80001960093320031002000FDF73FF9C82712
:102EF800374CC72201212000FDF7CAFBC7220590E5
:102F080028212000FDF7C4FB282206902900200074
:102F1800FDF7BEFB2822060029002000FDF7B8FBBC
:102F28002D4A079029002000FDF7B2FB6A46694642
:102F380080B2128B898A01906846808BB3B2009068
:102F48002000FDF744FA0023244E0293224B0C2262
:102F580001933100462320000095FDF7F0FA002385
:102F680002931D4B0422019314231D490093200052
:102F78005A33013FFDF7E3FA002FB9D1EF233A00A6
:102F88000093390020000197FDF7F0F8124B31004B
:102F9800019320000297009546230C22FDF7CFFAF3
:102FA8000D4B2000019314230297009304225A33F7
:102FB8000B49FDF7C4FAEF233A00009339000133B7
:102FC80020000197FDF7D2F8FDF79EFFA7E6C0465F
:102FD800040000202C000020FFFF0000F32C000854
:042FE800002D0008B0
:0400000508000000EF
:00000001FF
