:020000040800F2
:100000000010002031150008B9150008B9150008C6
:10001000B9150008B9150008B9150008B915000888
:10002000B9150008B9150008B9150008B915000878
:10003000B9150008B9150008B91500082F200008E7
:10004000B9150008B9150008B9150008B915000858
:10005000B9150008B9150008B9150008B915000848
:10006000B9150008B9150008B9150008B915000838
:10007000B9150008B9150008B9150008B915000828
:10008000B9150008B9150008B9150008B915000818
:10009000B9150008B9150008B9150008B915000808
:1000A000B9150008B9150008B9150008B9150008F8
:1000B000B915000880B582B000AF78607B68180081
:1000C00001F026FF7B6825337A681100180000F0E4
:1000D00003FF7B682433180000F084FE7B6818005F
:1000E00000F030FEC046BD4602B080BD90B587B07E
:1000F00002AFF8600C00100019000A23FB18221C44
:100100001A800823FB18021C1A80BB1D0A1C1A80C7
:10011000FB6825331800BB1D1C880823FB181A88B0
:100120000A23FB1819882423FB181B88019320231A
:10013000FB181B880093230001F020F8C046BD4641
:1001400005B090BDB0B586B002AFF8600C001000ED
:1001500019000A23FB18221C1A800823FB18021C12
:100160001A80BB1D0A1C1A800A23FA18BB1D1288AC
:100170001B88D3189CB20823FB181A880A23FB1883
:100180001988F8682423FB181B8801930823FB189F
:100190001B880093230000F05BFB0823FB18202240
:1001A000B9181A880B88D3189BB20A22BA18158876
:1001B0000822BA1814880A22BA181188F86824226A
:1001C000BA181288019200932B00220000F040FB25
:1001D0000A23FA18BB1D12881B88D31899B20A2368
:1001E000FA18BB1D12881B88D3189DB20823FB1870
:1001F0002022B8181A880388D3189BB20822BA188C
:100200001488F8682422BA181288019200932B00EF
:10021000220000F01DFB0823FB182022B9181A88C1
:100220000B88D3189CB20A23FA18BB1D12881B88AE
:10023000D3189DB20823FB182022B9181A880B88FE
:10024000D3189BB20A22BA181188F8682422BA1867
:100250001288019200932B00220000F0F9FAC046A8
:10026000BD4604B0B0BD90B58BB000AFF8600C00D7
:10027000100019000A23FB18221C1A800823FB18FF
:10028000021C1A80BB1D0A1C1A80BB1D1B88013B67
:100290007B6200233B620123FB610123BB61BB1D29
:1002A0001B885B00FA69D31A7B61BB1D1A880A237D
:1002B000FB181B889A4200DDEEE0BB1D1A8808235C
:1002C000FB181B889A4200DDE8E00A23FB181A8815
:1002D000BB1D1B88D318F02B00DDE1E00823FB18C1
:1002E0001A88BB1D1B88D318F02B00DDDAE07A6A70
:1002F0003B6A9A4200DAD6E0FB68253318007B6A35
:100300009AB20A23FB181B88D31899B23B6A9AB297
:100310000823FB181B88D3189AB23823FB181B88B4
:1003200000F08EFEFB68253318003B6A9AB20A2360
:10033000FB181B88D31899B27B6A9AB20823FB1862
:100340001B88D3189AB23823FB181B8800F078FE5C
:10035000FB68253318003B6A9BB20A22BA18128840
:10036000D31A99B27B6A9AB20823FB181B88D31858
:100370009AB23823FB181B8800F062FEFB68253315
:1003800018007B6A9BB20A22BA181288D31A99B253
:100390003B6A9AB20823FB181B88D3189AB23823F9
:1003A000FB181B8800F04CFEFB68253318007B6AA5
:1003B0009BB20A22BA181288D31A99B23B6A9BB22E
:1003C0000822BA181288D31A9AB23823FB181B884D
:1003D00000F036FEFB68253318003B6A9BB20A2208
:1003E000BA181288D31A99B27B6A9BB20822BA183B
:1003F0001288D31A9AB23823FB181B8800F020FE0B
:10040000FB68253318003B6A9AB20A23FB181B8845
:10041000D31899B27B6A9BB20822BA181288D31AF1
:100420009AB23823FB181B8800F00AFEFB682533BC
:1004300018007B6A9AB20A23FB181B88D31899B25A
:100440003B6A9BB20822BA181288D31A9AB2382390
:10045000FB181B8800F0F4FD7B69002B09DC3B6A6C
:1004600001333B627A69BB69D3187B61BB69023394
:10047000BB617B69002B00DC39E77B6A013B7B6257
:10048000FB690233FB61BB1D1B885B00FA69D31A51
:100490007A69D3187B612AE7C04604E0C04602E0CF
:1004A000C04600E0C046BD460BB090BDB0B58CB0B4
:1004B00002AFF8600C00100019000A23FB18221C80
:1004C0001A800823FB18021C1A80BB1D0A1C1A8004
:1004D000BB1D1B88013B7B6200233B620123FB6148
:1004E0000123BB61BB1D1B885B00FA69D31A7B61CA
:1004F000BB1D1A880A23FB181B889A4200DDD6E030
:10050000BB1D1A880823FB181B889A4200DDD0E027
:100510000A23FB181A88BB1D1B88D318F02B00DD9B
:10052000C9E00823FB181A88BB1D1B88D318F02BC1
:1005300000DDC2E07A6A3B6A9A4200DABEE07B6A7A
:100540009BB20A22BA181288D31A99B23B6A9AB29D
:100550000823FB181B88D3189CB27B6A9AB20A2323
:10056000FB181B88D3189DB23B6A9AB20823FB186C
:100570001B88D3189BB2F8683822BA1812880192E7
:1005800000932B00220000F063F93B6A9BB20A2221
:10059000BA181288D31A99B27B6A9AB20823FB1848
:1005A0001B88D3189CB23B6A9AB20A23FB181B889B
:1005B000D3189DB27B6A9AB20823FB181B88D31804
:1005C0009BB2F8683822BA181288019200932B0067
:1005D000220000F03DF97B6A9BB20A22BA18128809
:1005E000D31A99B23B6A9BB20822BA181288D31A5E
:1005F0009CB27B6A9AB20A23FB181B88D3189DB25F
:100600003B6A9BB20822BA181288D31A9BB2F868C8
:100610003822BA181288019200932B00220000F0B1
:1006200017F93B6A9BB20A22BA181288D31A99B2F8
:100630007B6A9BB20822BA181288D31A9CB23B6A12
:100640009AB20A23FB181B88D3189DB27B6A9BB20F
:100650000822BA181288D31A9BB2F8683822BA183E
:100660001288019200932B00220000F0F1F87B69C0
:10067000002B09DC3B6A01333B627A69BB69D31802
:100680007B61BB690233BB617B69002B00DC51E7F6
:100690007B6A013B7B62FB690233FB61BB1D1B88EC
:1006A0005B00FA69D31A7A69D3187B6142E7C046C6
:1006B00004E0C04602E0C04600E0C046BD460AB0C5
:1006C000B0BD90B58BB000AFF8600C001000190001
:1006D0000A23FB18221C1A800823FB18021C1A800C
:1006E000BB1D0A1C1A80BB1D1A880A23FB181B8815
:1006F000D31A3B613823FB181A880823FB181B8880
:10070000D31A7B6201233B627B6A002B05DA01234B
:100710005B423B627B6A5B427B627B6A5A003B695D
:10072000D31AFB610823FB181B88BB610A23FB1843
:100730001B887B61BB1D1A887B699A4220DBFB68A2
:10074000253318007B6999B2BB699AB23C23FB1828
:100750001B8800F075FCFB69002B08DDBA693B6A59
:10076000D318BB613B695B00FA69D31AFB617B6AF2
:100770005B00FA69D318FB617B6901337B61D9E7C0
:10078000C046BD460BB090BD90B58BB000AFF860D1
:100790000C00100019000A23FB18221C1A800823E1
:1007A000FB18021C1A80BB1D0A1C1A80BB1D1A886C
:1007B0000A23FB181B88D31A7B623823FB181A887C
:1007C0000823FB181B88D31A3B6101233B627B6A19
:1007D000002B05DA01235B423B627B6A5B427B6252
:1007E0007B6A5A003B69D31AFB610A23FB181B88FA
:1007F000BB610823FB181B887B613823FB181A8810
:100800007B699A4220DBFB6825331800BB6999B2EB
:100810007B699AB23C23FB181B8800F011FCFB6932
:10082000002B08DDBA693B6AD318BB613B695B00EA
:10083000FA69D31AFB617B6A5B00FA69D318FB6122
:100840007B6901337B61D8E7C046BD460BB090BDE4
:1008500090B587B002AFF8600C00100019000A23B1
:10086000FB18221C1A800823FB18021C1A80BB1DCF
:100870000A1C1A802023FB181A880823FB181B88DF
:10088000D21AFB681100180001F050FF0400BB1DD4
:100890001A880A23FB181B88D21AFB68110018005B
:1008A00001F044FF030001229C4201DB00231A1CDB
:1008B000D3B2002B30D00A23FB181A88BB1D1B882B
:1008C0009A4214DD0A23FB181C882023FB181A887F
:1008D000BB1D1988F8682423FB181B880193082383
:1008E000FB181B8800932300FFF7EBFE45E0BB1DC0
:1008F0001C880823FB181A880A23FB181988F86833
:100900002423FB181B8801932023FB181B880093CA
:100910002300FFF7D6FE30E00823FB181A882023B7
:10092000FB181B889A4214DD0A23FB181C8820231D
:10093000FB181A88BB1D1988F8682423FB181B882C
:1009400001930823FB181B8800932300FFF71CFF6B
:1009500013E0BB1D1C880823FB181A880A23FB1808
:100960001988F8682423FB181B8801932023FB189F
:100970001B8800932300FFF707FFC046BD4605B064
:1009800090BD90B585B000AFF8600C001000190064
:100990000A23FB18221C1A800823FB18021C1A8049
:1009A000BB1D0A1C1A80FB6825331800BB1D1C8860
:1009B0000823FB181A880A23FB181988230000F063
:1009C0003FFBC046BD4605B090BD90B587B002AFB5
:1009D000F8600C00100019000A23FB18221C1A8072
:1009E0000823FB18021C1A80BB1D0A1C1A80FB6816
:1009F00025331800BB1D1C880823FB181A880A23FE
:100A0000FB1819887B6A01932023FB181B8800932D
:100A1000230000F048FBC046BD4605B090BD80B540
:100A20009AB002AFF860B9601900BB1D1A803B1D77
:100A30000A1C1A805F23FB1800221A700023BB6572
:100A40005F23FB1800221A705F23FB181A78BB1D66
:100A50001B889A4200DB7EE05F23FB181B78BA6894
:100A6000D3181B78203B1A0013009B009A183C4BAC
:100A7000D318BB655D23FB1800221A705D23FB1899
:100A80001B78042B4ADC5E23FB1800221A705E23BD
:100A9000FB181B78062B39DC5D23FB181B78BA6D1D
:100AA000D3181B781A005E23FB181B781A41130019
:100AB0000122134011D05E23FB181A7813009B000B
:100AC0009A185D23FB181B78D2181023FB185200CC
:100AD0006C2179180988D15210E05E23FB181A782E
:100AE00013009B009A185D23FB181B78D218102363
:100AF000FB185200702179180988D1525E23FB1827
:100B00001A785E23FB1801321A70C0E75D23FB18C8
:100B10001A785D23FB1801321A70AFE7FB682533A2
:100B200018006823FB181A883B1D19881023FB182E
:100B3000019307230093052300F0B5FA3B1D3A1DEE
:100B4000128809321A805F23FB181A785F23FB187A
:100B500001321A7078E7C046BD4618B080BDC04665
:100B6000A021000890B58BB004AFF8600C00100015
:100B700019000A23FB18221C1A800823FB18021CE8
:100B80001A80BB1D0A1C1A800A23FB181B880A2125
:100B9000180001F0FBFA0B009BB2DBB23033DAB283
:100BA0001023FB181A710A23FC180A23FB181B8850
:100BB0000A21180001F064FA030023800A23FB18BD
:100BC0001B880A21180001F0E1FA0B009BB2DBB28E
:100BD0003033DAB21023FB18DA700A23FC180A2328
:100BE000FB181B880A21180001F04AFA0300238031
:100BF0000A23FB181B880A21180001F0C7FA0B0012
:100C00009BB2DBB23033DAB21023FB189A700A239E
:100C1000FC180A23FB181B880A21180001F030FA7F
:100C2000030023800A23FB181B880A21180001F007
:100C3000ADFA0B009BB2DBB23033DAB21023FB18F3
:100C40005A700A23FC180A23FB181B880A21180073
:100C500001F016FA030023800A23FB181B880A21DF
:100C6000180001F093FA0B009BB2DBB23033DAB21A
:100C70001023FB181A700823FB181A881023F91880
:100C8000F8682C23FB181B8802932823FB181B8869
:100C90000193BB1D1B88009313000522FFF7BFFEC5
:100CA000C046BD4607B090BD80B584B000AFF860C7
:100CB000B9607A60FB68180000F00EF87A68BB68CB
:100CC000D31A190001F062FA0B001A00BB68D3189E
:100CD0001800BD4604B080BD80B584B000AF786018
:100CE0000023FB60164B1B68002B21D1144B012203
:100CF0001A607B689B6ADA0E7B689B6A9B0F534085
:100D000001221340FB60FB68DB43FB60FB680122B0
:100D10001340FB607B689B6A5A007B689A627B6821
:100D20009A6AFB681A437B689A62054B00221A6034
:100D30007B689B6A5B015B091800BD4604B080BDFF
:100D40002C00002080B584B000AF78607B68002262
:100D50009A627B689B6A002B16D10123FB60FB68BB
:100D6000102BF6DC7B682433180000F094F80300A5
:100D70001A00FB689A407B689B6A9A187B689A62A3
:100D8000FB680133FB60EAE77B682433180000F05E
:100D90005DF8C046BD4604B080BD80B582B000AFEE
:100DA000786039607B68012B07D13B68054A934224
:100DB00003D1054B180001F0A2FCC046BD4602B0AD
:100DC00080BDC046FFFF00000000002080B500AFDE
:100DD000034B19000120FFF7E0FFBD4680BDC04670
:100DE000FFFF000080B582B000AF7860154B154A58
:100DF0009269802189000A439A61134B00229A600C
:100E0000114B802252029A620F49C2239B00C022DA
:100E10001204CA500C4B0C4A9268802109060A43FE
:100E20009A60094B9B68DB0FDBB2002B00D0F8E720
:100E3000054B07225A61044B01229A60C046BD4609
:100E400002B080BD001002400024014080B582B095
:100E500000AF7860084B00229A60074AC2239B00CB
:100E60000021D150054B054A926905490A409A6113
:100E7000C046BD4602B080BD0024014000100240C3
:100E8000FFFDFFFF80B582B000AF7860002318003F
:100E9000BD4602B080BD80B582B000AF78600D4B1A
:100EA000802252029A620B4B0A4A926804210A433A
:100EB0009A60084B9B68042213405A1E9341DBB290
:100EC000002B00D0F5E7034B1B6C9BB21800BD460E
:100ED00002B080BD0024014080B584B002AF7860CC
:100EE0003960544B534A5269802189020A435A613E
:100EF0009023DB059022D2051268802149010A4324
:100F00001A609023DB059022D20512684A490A40F4
:100F10001A60484B474A52698021C9020A435A6104
:100F2000464B464A126804210A431A60434B434A1F
:100F3000126808218A431A607B68180000F022FAC0
:100F40003B681921180001F05CF87B68180000F07C
:100F500009FA3B681921180001F053F87B68180062
:100F600000F010FA3B681921180001F04AF87B687C
:100F70000121180000F016FA3B689621180001F0D4
:100F800040F87B681121180000F00CFA3B68192129
:100F9000180001F036F87B683A21180000F002FAD8
:100FA0007B685521180000F011FA3B6819211800E0
:100FB00001F027F87B683621180000F0F3F97B6810
:100FC0000021180000F002FA3B681921180001F016
:100FD00018F87B685121180000F0E4F93B681921EA
:100FE000180001F00EF87B682121180000F0DAF9F2
:100FF0007B681321180000F0D5F97B6829211800BF
:1010000000F0D0F93B681921180000F0FAFF7B6866
:101010002C21180000F0C6F9786800230193F02312
:101020000093F0230022002100F0A8F8C046BD463E
:1010300002B080BD00100240FFDFFFFF0004004847
:10104000B0B586B002AFF8600C00100019000A239A
:10105000FB18221C1A800823FB18021C1A80BB1DD7
:101060000A1C1A800A23FB181B8801339DB208232F
:10107000FB181B8801339BB20822BA1814880A2275
:10108000BA181188F86800932B00220000F0DAF8F3
:10109000BB1D1A88FB681100180000F0ABF9C046B0
:1010A000BD4604B0B0BDB0B588B002AFF8600C006A
:1010B000100019000A23FB18221C1A800823FB18B1
:1010C000021C1A80BB1D0A1C1A800A23FA18BB1DB9
:1010D00012881B88D3189BB2013B9DB20823FB18D2
:1010E0002822B9181A880B88D3189BB2013B9BB2EF
:1010F0000822BA1814880A22BA181188F8680093CE
:101100002B00220000F09EF80823FB1800221A8012
:101110000823FB181A882823FB181B889A4229DA0F
:101120000A23FB1800221A800A23FB181A88BB1D09
:101130001B889A4216DAFB6A9A1CFA621622BA18BF
:101140001B8813801623FB181A88FB6811001800EF
:1011500000F050F90A23FB181A880A23FB18013201
:101160001A80E1E70823FB181A880823FB180132CC
:101170001A80CDE7C046BD4606B0B0BDB0B586B05A
:1011800002AFF8600C00100019000A23FB18221CA3
:101190001A800823FB18021C1A80BB1D0A1C1A8027
:1011A0000A23FA18BB1D12881B88D3189BB2013B77
:1011B0009DB20823FB182022B9181A880B88D3186F
:1011C0009BB2013B9BB20822BA1814880A22BA18B3
:1011D0001188F86800932B00220000F033F80823F0
:1011E000FB1800221A800823FB181A882023FB18FA
:1011F0001B889A4222DA0A23FB1800221A800A234B
:10120000FB181A88BB1D1B889A420FDA2423FB188F
:101210001A88FB681100180000F0ECF80A23FB188C
:101220001A880A23FB1801321A80E8E70823FB1802
:101230001A880823FB1801321A80D4E7C046BD463D
:1012400004B0B0BD90B585B000AFF8600C001000E0
:1012500019000A23FB18221C1A800823FB18021C01
:101260001A80BB1D0A1C1A80FB682A21180000F096
:1012700099F80A23FB181B881B12DAB2FB681100CD
:10128000180000F0A3F80A23FB181B88DAB2FB68E9
:101290001100180000F09AF8BB1D1B881B12DAB26F
:1012A000FB681100180000F091F8BB1D1B88DAB232
:1012B000FB681100180000F089F8FB682B2118006A
:1012C00000F070F80823FB181B881B12DAB2FB68C9
:1012D0001100180000F07AF80823FB181B88DAB216
:1012E000FB681100180000F071F82023FB181B8820
:1012F0001B12DAB2FB681100180000F067F8202317
:10130000FB181B88DAB2FB681100180000F05EF8C9
:10131000FB682C21180000F045F8C046BD4605B01A
:1013200090BD80B582B000AF7860054B044A526929
:1013300002218A435A61C046BD4602B080BDC04604
:101340000004004880B582B000AF7860044B044AC6
:10135000526902210A435A61C046BD4602B080BDAF
:101360000004004880B582B000AF78609023DB05B0
:101370009022D205526940218A435A61C046BD4637
:1013800002B080BD80B582B000AF78609023DB05ED
:101390009022D205526940210A435A61C046BD4697
:1013A00002B080BD80B582B000AF78600A00FB1C3F
:1013B0001A707B681800FFF7B4FFFB1C1B7818003D
:1013C00000F096FBC046BD4602B080BD80B582B03D
:1013D00000AF78600A00FB1C1A707B681800FFF7EA
:1013E000B1FFFB1C1B78180000F082FBC046BD4615
:1013F00002B080BD80B582B000AF78600A00BB1C2F
:101400001A807B681800FFF79DFFBB1C1B88180023
:1014100000F0B0FBC046BD4602B080BD80B500AF55
:10142000234B234A126823490A401A60204B1A684A
:1014300080239B0413405A1E9341DBB2002B00D043
:10144000F4E71D4B1C4A126801210A431A601A4B2B
:10145000194A126806218A431A60174B164A126805
:1014600010210A431A60124B114A526813490A406C
:101470005A600F4B0E4A5268A02189030A435A60F2
:101480000B4B0B4A52688021C9010A435A60084B32
:10149000074A1268802149040A431A60044B044A2F
:1014A000526802210A435A60C046BD4680BDC0460C
:1014B00000100240FFFFFFFE00200240FFFFC3FFBD
:1014C00080B582B000AF164A164BD31A9B103B6012
:1014D00000237B607A683B689A4208D2114B7A6895
:1014E0009200D35898477B6801337B60F2E70E4A3D
:1014F0000E4BD31A9B103B6000237B607A683B68DD
:101500009A4208D2094B7A689200D35898477B6870
:1015100001337B60F2E7C046BD4602B080BDC046E5
:101520009821000898210008A021000898210008AF
:1015300080B584B000AFFFF771FF1A4BFB601A4B08
:10154000BB601A4A184BD31A7B607B685A1E7A60BC
:101550005A1E9341DBB2002B08D0BB685A1CBA60FC
:10156000FA68511CF96012781A70EEE7104BBB60F4
:10157000104A0F4BD31A7B607B685A1E7A605A1E42
:101580009341DBB2002B05D0BB685A1CBA60002225
:101590001A70F1E7FFF794FF00F076F8C046BD46F9
:1015A00004B080BD4C27000800000020000000208F
:1015B000000000204400002080B500AFFEE7C046D8
:1015C00080B500AF0F4B0F4A52698021C9030A430F
:1015D0005A610D4B0C4A126801210A431A600A4BEA
:1015E000094A126802218A431A60064B054A526969
:1015F000802189020A435A6100F02CFAC046BD4698
:1016000080BDC046001002400014004880B500AF05
:10161000154B154A9269802189000A439A61134B40
:1016200000229A60114B802252029A620F49C22313
:101630009B00C0221204CA500C4B0C4A92688021B5
:1016400009060A439A60094B9B68DB0FDBB2002B4B
:1016500000D0F8E7054B07225A61044B01229A603B
:10166000C046BD4680BDC046001002400024014077
:1016700080B500AF034B1800FFF70DFC0300180006
:10168000BD4680BD24000020F0B5C64600B586B03A
:1016900004AF00237B60FFF793FFD34B1800FEF7E6
:1016A00009FD00237B607B68312B42DCCE4BBE22E0
:1016B00001211800FFF7F8FA03009CB2CA4BBE22C2
:1016C00032211800FFF7F0FA03009DB2C64B282222
:1016D0000A211800FFF7E8FA03009EB2C34AC24B82
:1016E0000A211800FFF7E0FA03009BB2BE480093FE
:1016F00033002A002100FEF7D9FEBD49BA48002375
:101700000293BA4B01930A23009346230C22FFF75E
:1017100086F9B849B44800230293B44B01931423CB
:1017200000936E230422FFF77AF97B6801337B6014
:10173000B9E7AD4800230193EF230093EF23002284
:101740000021FEF7D3FC00237B607B68C72B4CDCB9
:10175000A54BC72201211800FFF7A6FA03009DB28E
:10176000A14BC72228211800FFF79EFA03009EB262
:101770009D4B28220A211800FFF796FA03009BB21E
:101780009846994B28220A211800FFF78DFA03008A
:101790009CB2964A944B0A211800FFF785FA030081
:1017A0009BB2914801930094434632002900FEF712
:1017B0009DFC8F498C48002302938C4B01930A2394
:1017C000009346230C22FFF72AF98A498648002312
:1017D0000293864B0193142300936E230422FFF798
:1017E0001EF97B6801337B60AFE77F4800230193DC
:1017F000EF230093EF2300220021FEF777FC002364
:101800007B607B68C72B42DC774BBE22012118002E
:10181000FFF74AFA03009CB2734BBE223221180034
:10182000FFF742FA03009DB26F4B28220A211800ED
:10183000FFF73AFA03009EB26C4A6B4B0A2118007C
:10184000FFF732FA03009BB26748009333002A0087
:101850002100FEF708FD6649634800230293634BAD
:1018600001930A23009346230C22FFF7D8F861491D
:101870005D48002302935D4B0193142300936E2374
:101880000422FFF7CCF87B6801337B60B9E7564848
:1018900000230193EF230093EF2300220021FEF7A2
:1018A00025FC00237B607B68C72B4CDC4E4BC7229A
:1018B00001211800FFF7F8F903009DB24A4BC72237
:1018C00028211800FFF7F0F903009EB2464B2822AA
:1018D0000A211800FFF7E8F903009BB29846424B33
:1018E00028220A211800FFF7DFF903009CB23F4AC3
:1018F0003D4B0A211800FFF7D7F903009BB23A4885
:1019000001930094434632002900FEF71BFC38493E
:10191000354800230293354B01930A230093462355
:101920000C22FFF77CF833492F48002302932F4BFA
:101930000193142300936E230422FFF770F87B6851
:1019400001337B60AFE7284800230193EF23009326
:10195000EF2300220021FEF7C9FB2549224800237E
:101960000293224B01930A23009346230C22FFF794
:1019700056F820491C48002302931C4B0193142362
:1019800000936E230422FFF74AF81B4B002200212C
:10199000180000F0B9F9184B180000F051F90023B5
:1019A0003B603B68EF2B10DC3B6899B23B689AB216
:1019B000114B180000F0A8F90B4B0A21180000F099
:1019C00020FB3B6801333B60EBE70B4B180000F05A
:1019D00079F9054800230193EF230093EF230022B8
:1019E0000021FEF783FB5CE600000020FFFF000003
:1019F00070240008802400083000002080B584B0E6
:101A000002AF786039607B68012B0DD13B68084AD2
:101A1000934209D1074908480C2301930A230093F4
:101A20007823782200F0E4F8C046BD4602B080BDBD
:101A3000FFFF0000802300083000002080B500AFC9
:101A4000034B19000120FFF7D9FFBD4680BDC046FA
:101A5000FFFF000080B582B000AF214B204A9269A1
:101A6000802149010A439A611D4B1D4A5269C021D8
:101A7000C9020A435A619023DB059022D2051268FD
:101A800018490A401A609023DB059022D20512689B
:101A9000882109020A431A609023DB059022D205AF
:101AA000126A1203120B1A620F4B9B683B600E4BBB
:101AB0000E4A1A600C4BE022D2005A6000237B6071
:101AC0007B681F2B08DC002000F012F803003B604D
:101AD0007B6801337B60F3E7C046BD4602B080BD42
:101AE00000100240FFBBFFFF003001404603000032
:101AF00080B586B000AF0200FB1D1A701A4B7B61E7
:101B00001A4B3B611A4B9B688022134006D07B69BD
:101B10005A1E7A61002B01D0012300E00023002B24
:101B200000D0EFE73B69FA1D12781A700E4B7B610B
:101B30000F4B9B688022134006D07B695A1E7A6146
:101B4000002B01D0012300E00023002B00D0EFE7A1
:101B50000F23FB183A6912781A700F23FB181B78B1
:101B60001800BD4606B080BD40420F000C30014059
:101B70000030014080B584B000AF0200BB1D1A8068
:101B8000194BFB60194B9B688022134006D0FB6801
:101B90005A1EFA60002B01D0012300E00023002B25
:101BA00000D0EFE7114BBA1D1288DA600E4BFB60D4
:101BB0000E4B9B688022134006D0FB685A1EFA60C9
:101BC000002B01D0012300E00023002B00D0EFE721
:101BD000064BDA680A23FB181A800A23FB181B88B5
:101BE0001800BD4604B080BD40420F0000300140E7
:101BF00080B584B000AFF860B9601900BB1D1A80D1
:101C00003B1D0A1C1A80FB68BA1D12881A81FB68EA
:101C10003A1D12885A81FB681822BA1812881A8055
:101C2000FB681C22BA1812885A80FB68BA685A608E
:101C3000FB6800221A73FB681800BD4604B080BD23
:101C4000B0B584B002AF78607B681B7B002B10D1ED
:101C50007B6819897B685C897B681D887B685A88EA
:101C60007B685B680648019300922B002200FEF718
:101C7000ACFE7B6801221A73C046BD4602B0B0BDFF
:101C800000000020B0B584B002AF78607B681B7B99
:101C9000002B10D07B6819897B685C897B681D8864
:101CA0007B685A887B685B680548019300922B002B
:101CB0002200FEF78AFEC046BD4602B0B0BDC04657
:101CC00000000020B0B584B002AF78607B681B7B59
:101CD000002B0FD07B6819897B685C897B681D8825
:101CE0007B685B8807480022019200932B0022004A
:101CF000FEF7FCF97B6800221A73C046BD4602B0AD
:101D0000B0BDC04600000020B0B584B002AF78601E
:101D100008001100BB1C021C1A803B000A1C1A8020
:101D20007B681B7B002B29D07B6819897B685C89C9
:101D30007B681D887B685B881648002201920093AF
:101D40002B002200FEF7D2F97B68BA1C12881A8198
:101D50007B683A0012885A817B6819897B685C89A4
:101D60007B681D887B685A887B685B68094801939B
:101D700000922B002200FEF728FE07E07B68BA1CC9
:101D800012881A817B683A0012885A81C046BD4683
:101D900002B0B0BD0000002080B582B000AF786016
:101DA00008001100BB1C021C1A803B000A1C1A8090
:101DB0007B681B7B002B01D1002324E0BB1C1B880C
:101DC0007A68128993421DDBBB1C1A887B681B89C9
:101DD00019007B681B88CB189A4213DA3B001B88DA
:101DE0007A68528993420BDB3B001A887B685B89D7
:101DF00019007B685B88CB189A4201DA012302E064
:101E0000002300E000231800BD4602B080BD80B56D
:101E100082B000AF786008001100BB1C021C1A8061
:101E20003B000A1C1A807B681B7B002B01D100231E
:101E30006AE07B685B893A0012889A4211D1BB1C28
:101E40001B887A68128993420BDBBB1C1A887B685B
:101E50001B8919007B681B88CB189A4201DA012381
:101E600052E07B681B89BA1C12889A4211D13B0050
:101E70001B887A68528993420BDB3B001A887B6887
:101E80005B8919007B685B88CB189A4201DA0223D0
:101E90003AE03B001A887B685B8919007B685B88A5
:101EA000CB18013B9A4211D1BB1C1B887A6812895E
:101EB00093420BDBBB1C1A887B681B8919007B686B
:101EC0001B88CB189A4201DA03231DE0BB1C1A8839
:101ED0007B681B8919007B681B88CB18013B9A42E1
:101EE00011D13B001B887A68528993420BDB3B007F
:101EF0001A887B685B8919007B685B88CB189A42DB
:101F000001DA042300E000231800BD4602B080BDC2
:101F100080B584B000AF7860114B7A681A600023F6
:101F2000FB60FB68072B0ADC7A68FB689B00D31810
:101F3000043300221A60FB680133FB60F1E7094BB0
:101F4000084A126807210A431A60064B064A5A607B
:101F5000044B05229A6062B6C046BD4604B080BDFF
:101F60004000002010E000E07FBB000080B584B09E
:101F700000AF786039600023FB60FB68072B14DC3E
:101F80007A68FB689B00D31804331B68002B08D1C8
:101F90007A68FB689B00D31804333A681A60002300
:101FA00005E0FB680133FB60E7E701235B421800B3
:101FB000BD4604B080BD80B584B000AF78603960A4
:101FC0000023FB60FB68072B15DC7A68FB689B002D
:101FD000D31804331A683B689A4208D17A68FB68C0
:101FE0009B00D318043300221A60002305E0FB682D
:101FF0000133FB60E6E701235B421800BD4604B0F5
:1020000080BD80B582B000AF786039603B68002B3E
:1020100009D07B6800221A607B681A683B689A4284
:1020200001D230BFF8E7C046BD4602B080BD80B5E2
:1020300082B000AF114B1B681A6801321A6000238E
:102040007B607B68072B14DC0C4B1A687B689B0059
:10205000D31804331B68002B07D0084B1A687B6821
:102060009B00D31804331B6898477B6801337B605F
:10207000E7E7C046BD4602B080BDC0464000002034
:10208000002243088B4274D303098B425FD3030AB7
:102090008B4244D3030B8B4228D3030C8B420DD3CA
:1020A000FF22090212BA030C8B4202D31212090258
:1020B00065D0030B8B4219D300E0090AC30B8B4296
:1020C00001D3CB03C01A5241830B8B4201D38B0344
:1020D000C01A5241430B8B4201D34B03C01A5241E9
:1020E000030B8B4201D30B03C01A5241C30A8B422C
:1020F00001D3CB02C01A5241830A8B4201D38B0217
:10210000C01A5241430A8B4201D34B02C01A5241BA
:10211000030A8B4201D30B02C01A5241CDD2C3092C
:102120008B4201D3CB01C01A524183098B4201D3A8
:102130008B01C01A524143098B4201D34B01C01A93
:10214000524103098B4201D30B01C01A5241C3080B
:102150008B4201D3CB00C01A524183088B4201D37A
:102160008B00C01A524143088B4201D34B00C01A66
:102170005241411A00D20146524110467047FFE7D2
:1021800001B5002000F006F802BDC0460029F7D0D6
:1021900076E770477047C046CD0D00083D1A00082D
:1021A000000000000000005F0000000700070014AE
:1021B0007F147F14242A7F2A12231308646236496D
:1021C0005522500005030000001C2241000041225E
:1021D0001C00082A1C2A0808083E08080050300085
:1021E00000080808080800606000002010080402C9
:1021F0003E5149453E00427F4000426151494621DF
:1022000041454B311814127F1027454545393C4A4A
:10221000494930017109050336494949360649499A
:10222000291E003636000000563600000008142231
:102230004114141414144122140800020151090617
:10224000324979413E7E1111117E7F494949363E1E
:10225000414141227F4141221C7F494949417F0937
:102260000901013E414151327F0808087F00417F4A
:1022700041002040413F017F081422417F404040FF
:10228000407F0204027F7F0408107F3E4141413EAF
:102290007F090909063E4151215E7F0919294646F9
:1022A0004949493101017F01013F4040403F1F2022
:1022B00040201F7F2018207F6314081463030478D4
:1022C0000403615149454300007F41410204081065
:1022D0002041417F00000402010204404040404090
:1022E000000102040020545454787F484444383894
:1022F00044444420384444487F3854545418087E99
:10230000090102081454543C7F0804047800447DF9
:1023100040002040443D00007F10284400417F40A1
:10232000007C041804787C08040478384444443859
:102330007C14141408081414187C7C08040408483D
:1023400054545420043F4440203C4040207C1C20F6
:1023500040201C3C4030403C44281028440C505045
:10236000503C4464544C44000836410000007F0057
:1023700000004136080008082A1C08081C2A080822
:10238000000000000000000000000000000000004D
:102390000000000000000000000000001F001F00FF
:1023A00000000000000000000000000000001F000E
:1023B0001F001F001F0000000000000000001F00A1
:1023C0001F0000001F001F0000001F001F00000072
:1023D00000001F001F0000001F001F0000001F0062
:1023E0001F00000000001F001F001F001F001F0033
:1023F0001F001F001F00000000001F001F001F0023
:102400001F001F001F001F001F0000000000000031
:102410001F001F00000000001F001F000000000040
:10242000000000001F001F00000000001F001F0030
:102430000000000000001F001F000000000000005E
:1024400000001F001F0000001F001F001F000000F1
:102450000000000000001F001F001F00000000001F
:10246000000000000000000000000000000000006C
:102470004475626C696E204D616B657200000000EE
:1024800032303139004743433A2028474E552054D3
:102490006F6F6C7320666F722041524D20456D62E4
:1024A00065646465642050726F636573736F7273E3
:1024B00020362D323031372D71322D7570646174B4
:1024C000652920362E332E312032303137303632E6
:1024D00030202872656C6561736529205B41524D1F
:1024E0002F656D6265646465642D362D6272616E60
:1024F0006368207265766973696F6E20323439348F
:1025000033375D00413000000061656162690001A0
:102510002600000005436F727465782D4D3000066B
:102520000C074D09011204140115011703180119B4
:10253000011A011E064130000000616561626900F8
:10254000012600000005436F727465782D4D300040
:10255000060C074D09011204140115011703180197
:1025600019011A011E0641300000006165616269AF
:1025700000012600000005436F727465782D4D3010
:1025800000060C074D090112041401150117031868
:102590000119011A011E06413000000061656162E7
:1025A0006900012600000005436F727465782D4DA7
:1025B0003000060C074D0901120414011501170320
:1025C000180119011A011E06413000000061656101
:1025D000626900012600000005436F727465782D62
:1025E0004D3000060C074D090112041401150117A6
:1025F00003180119011A011E06413000000061652F
:1026000061626900012600000005436F72746578FD
:102610002D4D3000060C074D09011204140115015F
:102620001703180119011A011E064130000000614C
:102630006561626900012600000005436F727465E0
:10264000782D4D3000060C074D09011204140115B8
:10265000011703180119011A011E0641300000007C
:10266000616561626900012600000005436F7274B4
:1026700065782D4D3000060C074D09011204140138
:1026800015011703180119011A011E06411D00004A
:102690000061656162690001130000000536532D79
:1026A0004D00060C074D09011901411D0000006194
:1026B000656162690001130000000536532D4D006D
:0826C000060C074D0901190188
:1026C80080B582B000AF78607B681800BD4602B064
:0226D80080BDC3
:1026DA0080B582B000AF78607B681800BD4602B052
:0226EA0080BDB1
:1026EC0080B582B000AF78607B681800BD4602B040
:0226FC0080BD9F
:1026FE0080B582B000AF78607B681800FFF7DDFF11
:10270E007B6824331800FFF7EAFF7B682533180037
:0E271E00FFF7DCFF7B681800BD4602B080BDEF
:10272C0080B582B000AF786039603B68002B02DA6C
:10273C003B685B4200E03B681800BD4602B080BDC0
:0400000508000000EF
:00000001FF
