:020000040800F2
:1000000000100020FD140008851500088515000863
:100010008515000885150008851500088515000858
:100020008515000885150008851500088515000848
:100030008515000885150008851500084929000860
:100040008515000885150008851500088515000828
:10005000851500088515000885150008BD130008E2
:100060008515000885150008851500088515000808
:1000700085150008851500088515000885150008F8
:1000800085150008851500088515000885150008E8
:1000900085150008851500088515000885150008D8
:1000A000851500088515000885150008A1130008AE
:1000B00085150008F0B50325C34C99B00C900D913F
:1000C0000493002113000194DC2200950EA800F097
:1000D000E9FA78222B0001940095110013A800F092
:1000E000E1FA00230B9305330593013B0793089432
:1000F00000251427FF260D9B9D4219DA3C006C4316
:100100000C9B1C19236820001B689847049B002B3C
:100110000BD10498A388E289A1890190E08833403B
:1001200030400090A94800F022FC0135EDB2E2E732
:10013000A64CE6220A21200000F074FD782281B24C
:1001400013A802F031F902220021200000F06AFD1C
:100150000127002800D1023F6B460A25197D0B01BB
:10016000C91A89B20C000F34A4B20F2C0BD0984BD3
:10017000F03189B2019300950A23E622934800F0FA
:10018000C9FA2100EEE713A800F066FA0EA800F005
:1001900063FA089B00260193E62505238B4C1A0081
:1001A0008C4920000296009500F099FC0521079BE0
:1001B0000196C91A089B89B200933C222B002000AB
:1001C00000F0D4FC01235B420693049B002B00D07B
:1001D000ADE0814800F0CCFD0223184200D0ADE034
:1001E0007D4800F0C5FDC30708D50EA88189002908
:1001F00004D00239C28989B202F0D6F813AB9A79D9
:10020000D9895208521819799B894908C91892B29C
:1002100089B20EA802F0F4F800280CD0069B5B42CD
:100220005BB20693049B002B00D0A6E11422C821E8
:100230006A4801F085FF13AC069BE289A189D218B8
:10024000C91992B289B2200002F0AEF8A389022B3C
:100250000AD1049B7F427FB2002B05D1C821142212
:1002600049005E4801F06CFF13AB9B89EE2B0AD16D
:10027000049B7F427FB2002B05D1C8211422490084
:10028000564801F05DFF13ABDB89022B0CD1069BB6
:100290005B425BB20693049B002B05D1C82114225C
:1002A00049004E4801F04CFF0EAAD38992799B1861
:1002B00013AAD2890133934200DB9CE0059C434D95
:1002C000013CE4B263B20593002B45D1059A01933A
:1002D000F03311000093280000F01CFA059B09225E
:1002E0000293089B3E490193642328000093143B2A
:1002F00000F0F5FB059B0F2202933A4B3A4901931C
:100300007823280000933C3B00F0E9FB0426374C9F
:10031000314800F02DFD304200D0FDE0013C002CC2
:1003200000D1F9E00A21280002F001FBF0E72A4899
:1003300000F01EFD002800D14BE7EDE0F0220EA8F2
:1003400003798189D31A994200DB49E70231C289D6
:1003500089B202F029F843E764220021280000F066
:1003600061FC0127384200D1023F184EE6220A21E3
:10037000300000F057FC782205005A21300000F0D0
:1003800051FCA9B282B213A802F00EF80A2500238C
:10039000A521019300957833E622300000F0BAF9E8
:1003A0002101641AA4B226000F36B6B20F2E1FD058
:1003B000074BF034A1B2019300950A23E6220348CB
:1003C00000F0A8F93400EEE7FFFF00000400002071
:1003D00061F80000E4380008280000202400002014
:1003E000EA3800081FF80000F4380008E9030000AC
:1003F00001235B42069300230A93013309930D9B6B
:100400000A9A934250DD142555430C9B13AE5D1997
:100410002B7CB1895A425341099A5B421A40099296
:100420002800F28901F0ECFF041E1CD1B189F28989
:10043000023189B2280001F0E3FF041E13D1F289D2
:10044000B189023292B2280001F0DAFF041E0AD10B
:10045000F289B1890232023192B289B2280001F0E8
:10046000CFFF041E1BD02B6828005B689847230031
:1004700002229343012B03D1069B5B425BB206939E
:100480000223023C9C4301D17F427FB2049B002B9C
:1004900005D1FA21142289003B4801F051FE0A9B44
:1004A0000133DBB20A93AAE7099B012B20D1079BFA
:1004B000002B33DD013B13A8079300F0DFF8089B06
:1004C00000260193E6250523304C1A003049200010
:1004D0000296009500F003FB0521079B0196C91ABF
:1004E000089B89B200933C222B00200000F03EFBC9
:1004F000049B26480521002B01D1079B591D02F0C2
:1005000016FA0EA801F048FF099B002B00D15CE60B
:10051000079B002B00DDEBE519B0F0BDFC25F023B7
:1005200000221A4CED00110001950093200000F00C
:10053000F1F86423174E02950196009308223C3B84
:100540001549200000F0CBFA78230295019600931C
:100550000F22703B1149200000F0C1FA0426104D13
:10056000104800F005FC3042D6D1013D002DD3D01B
:100570000A21200002F0DBF9F2E70B9B01330B9319
:10058000092B00D857E6C7E724000020040000200C
:10059000E43800081FF8000004390008F4380008A7
:1005A000E903000028000020F0B5EF230024FBB091
:1005B00001940093220021002348F02700F0AAF8BC
:1005C0007F0002AEA019143400F088F83500BC4258
:1005D000F7D100240A271D4B21001E34019330005F
:1005E00000971E233222A4B200F086F81436F02CB5
:1005F000F1D100240A272AAE154B21001E340193A5
:10060000300000971E233C22A4B200F075F8143687
:10061000F02CF1D100240A2752AE0E4B21001E34DB
:100620000193300000971E234622A4B200F064F824
:100630001436F02CF1D100231E2218212800FFF7D8
:1006400039FD7BB0F0BDC046040000201FFA000059
:100650001F420000E847000013B504008388C289E8
:100660008189408A0190E0880090034800F052F8A8
:100670000123237413BDC0460400002013B5037C7E
:100680000400002B09D08388C28981890020019051
:10069000E0880090024800F03DF80023237413BD69
:1006A00004000020F7B504001E0008AB1D8809AB4C
:1006B0001F880091019201F067FE074B67820833A3
:1006C000236000232374009BA680A381019BE58007
:1006D0002000E381FEBDC046582C000810B5040080
:1006E00001F052FE034B20000833236000232374E3
:1006F00010BDC046582C000830B504AD2D8803ACA1
:1007000045820025248805748380C4808181C2814C
:1007100030BDC04637B506AC07AD2D882488703093
:100720000195009400F0FFFB37BDF0B58FB0029249
:1007300014AA0D90019115888B4200D992E0029A7B
:10074000934200D98EE0CA18F02A00DD8AE0029AAE
:10075000D218F02A00DD85E05A1E5B0009930123C0
:100760000392099A06939A1A08930023009207931A
:10077000039B079A934275DB6B46019A9B890D9CFC
:1007800004939B189BB20A936B46029A9B8B70341E
:100790009F18BFB23A0005930A992B00200000F081
:1007A00087FB019A059B20009B189BB20B93029A32
:1007B000049B0B999E18B6B232002B0000F078FB18
:1007C000059A019B20009B1A9BB20C9332002B00D0
:1007D0000C9900F06DFB019B049A20009E1AB6B2A2
:1007E0003A0031002B0000F063FB029B059A3100B8
:1007F0009F1ABFB22B003A00200000F059FB029B69
:10080000049A0C999E1AB6B22B003200200000F018
:100810004FFB2B0032000B99200000F049FB2B000E
:100820003A000A99200000F043FB009B002B0DDCEE
:10083000069A079B944601330793009B63440093F9
:10084000130002330693009B002B91DD039B099A52
:10085000013B0393089B023308939B1A009AD31819
:10086000009385E70FB0F0BDF0B587B01F000CAB6B
:10087000049018880DAB1B8815000593831A01227C
:100880000C000292791A002B02DA023A2B1A029219
:100890005B0001935E1A4B000393A74210DB0498A0
:1008A000AAB2A1B2059B703000F002FB002E03DD5E
:1008B000029BED18039BF61A019B0134F618ECE736
:1008C00007B0F0BDF0B587B004900CA807880DA85C
:1008D00000880D00059001201400591ABA1A0290E0
:1008E000002903DAE91A01235B4202934B000193CA
:1008F0009E1A53000393A74210DB0498A2B2A9B238
:10090000059B703000F0D4FA002E03DD029BED1839
:10091000039BF61A019B0134F618ECE707B0F0BD13
:10092000F7B51C0008AB1D8809AB1B88AE1A00D5B3
:10093000561B671A00D50F1B0193B7420BDD8C4283
:1009400006D200920B002A002100FFF78DFFF7BDB1
:1009500000952300F9E7954206D200920B002A0089
:100960002100FFF7AFFFF2E700952300F9E7F0B5AC
:10097000160007000D0085B00AAA1488CB180BAA30
:1009800012889BB2029303920192029B320000965E
:10099000FFF7C6FF3419039BA4B2019332002B006A
:1009A000290038000094FFF7BBFF039B320001933E
:1009B000029B380019000094FFF7B2FF039B0094DC
:1009C00001932200029B29003800FFF7A9FF05B020
:1009D000F0BDF0B58FB0160014AA128807900D0074
:1009E00008928B426AD8B34268D8CA18F02A65DCEC
:1009F000F218F02A62DC5A1E5B000A93012302926D
:100A00000A9A05939C1A099300230693029B069A5F
:100A1000934253DB6B461B8907980393EB1A9BB2F7
:100A20000B936B461B8B0B9904939A19039B92B201
:100A30005F19089BBFB2019300923B00FFF770FF64
:100A4000049B0798EB1A9BB20C93039B0C999A1981
:100A5000049B92B25B199BB20D93089B0092019389
:100A60000D9BFFF75DFF049B0B99F21A089B92B256
:100A7000019300923B000798FFF752FF039B0C99EC
:100A8000F21A089B92B2019300920D9B0798FFF710
:100A900047FF002C08DC069B01330693059BE418F6
:100AA00002330593002CB1DD029B0A9A013B0293AD
:100AB000099B023309939B1AE418A7E70FB0F0BD16
:100AC00010B5703000F0F4F910BD37B506AC2488CD
:100AD000079D70300195009400F0FAF937BDF0B52C
:100AE00000249DB01D0022AB1B880490079323AB0C
:100AF0001B880591089324AB1B8806920993069BDB
:100B00009C422EDA0522059B0AA81B5D203B53431D
:100B1000154A9B185A1D03921A780100029200226E
:100B2000029E012716413E4219D0089E01320E80D6
:100B30000A31072AF4D10399013302308B42EBD1F9
:100B400004980AAB0193009229000523079A70309C
:100B50000735013400F0BCF9ADB2E4B2CFE7099E2D
:100B6000E4E71DB0F0BDC046682C0008F0B50D00EC
:100B70008BB0059310AB1B880600069311AB1B8846
:100B800028000A211700079301F076FF08AC3031E6
:100B9000217128000A2101F0E9FE0A2180B201F04A
:100BA0006BFF3031E1702800642101F0DFFE0A2183
:100BB00080B201F061FF3031A170FA212800890074
:100BC00001F0D4FE0A2180B201F056FF303161708D
:100BD0002800094901F0CAFE079B303020700293BB
:100BE000069B05220193059B2100009330003B00EA
:100BF000FFF775FF0BB0F0BD10270000084B1B6816
:100C0000002B08D1426F930FD10E5940012352009F
:100C10008B4313434367406F400140097047C04610
:100C20000000002070B50D001400FFF7E7FF611B06
:100C300001F022FF481970BD002370B5050043671D
:100C400001242E002436300000F0B4F8A0406B6F71
:100C50000134C0186867112CF3D10028F0D030009F
:100C600000F074F870BD10B5040001F025FE2000FE
:100C70002100703000F07FF92000243000F014F8DB
:100C80002000203001F03EFA0649200001F030FE3D
:100C900020002100283000F041FA2000FFF7CCFFAF
:100CA00010BDC0460F2200088023244A9B00916992
:100CB00010B50B4380219361214B09061869214C23
:100CC000084318611869204018610020986080204E
:100CD00040029862C024C220240480001C509868FE
:100CE0000143996099680029FCDB072159610639A5
:100CF000996080235169DB030B43536180230F24E8
:100D000051699B020B4353610F4A3F201368A34371
:100D100013609023DB05196881431960D168A143F2
:100D2000D1600521D4682143D160DA688243DA605A
:100D30001522D9680A43DA6010BDC046001002408F
:100D400000240140FFFFFFBF00140048C221002221
:100D5000044B89009A605A50034A044993690B4036
:100D6000936170470024014000100240FFFDFFFF27
:100D700001220F4B18691B6910404242504140004C
:100D80009B0701D4102318439023DB051A69D2076F
:100D900001D4042210431B699B0701D40823184384
:100DA0009023DB051B695B0701D4012318437047BF
:100DB000001400488022074B52029A62052299686B
:100DC0000A439A60042299681142FCD0186C80B2E0
:100DD0007047C046002401400221024A53698B43F8
:100DE00053617047000400480223024A51690B43D3
:100DF000536170470004004890224021D205536996
:100E00008B435361704790224023D20551690B43B5
:100E10005361704710B50C00FFF7DEFF200001F0B2
:100E200007FA10BD10B50C00FFF7DEFF200001F03F
:100E3000FFF910BDF7B504000F001E00150008AB48
:100E40001B882A210193FFF7E5FF390A2000FFF7ED
:100E5000E9FFF9B22000FFF7E5FF310A2000FFF7B4
:100E6000E1FFF1B22000FFF7DDFF20002B21FFF7AB
:100E7000D1FF290A2000FFF7D5FFE9B22000FFF7D4
:100E8000D1FF019B2000190AFFF7CCFF6B46200021
:100E90001979FFF7C7FF2C212000FFF7BBFFF7BD33
:100EA00010B50C00FFF7A0FF200001F017FA10BDED
:100EB00037B504001D00501C4B1C80B29BB2009043
:100EC0002000FFF7B7FF29002000FFF7E9FF37BD3B
:100ED000F0B51F00002485B00AAB1B880290039375
:100EE00003987B1E01381018CB1880B29BB200907B
:100EF0000298FFF79FFF0B9B7F00DD19039B9C422D
:100F00000FD00B9EAE4205D031880298FFF7C8FF84
:100F10000236F7E70B9B0134DB190B93A4B2ED19F2
:100F2000ECE705B0F0BDF0B51F00060085B00AABD8
:100F30001B880024029302980BAB1B880138039393
:100F400010187B1ECB1880B200909BB23000FFF7C8
:100F500071FF029B9C420CD00025BD4206D0039934
:100F600030000135FFF79CFFADB2F6E70134A4B2C3
:100F7000EFE705B0F0BD8022414B73B50D00596914
:100F800092020A435A6190228021D205040010681F
:100F900049010143116011683A4808260140116077
:100FA00080225969D2020A435A610422364B20003A
:100FB00019680A431A601A68B2431A60FFF723FFE0
:100FC0002800192101F0B3FC2000FFF715FF2800CD
:100FD000192101F0ACFC2000FFF715FF28001921B2
:100FE00001F0A5FC20000121FFF714FF2800962145
:100FF00001F09DFC20001121FFF70CFF28001921B2
:1010000001F095FC20003A21FFF704FF2000552154
:10101000FFF708FF2800192101F089FC2000362184
:10102000FFF7F8FE31002000FFF7FCFE2800192131
:1010300001F07DFC20005121FFF7ECFE2800192172
:1010400001F075FC20002121FFF7E4FE20001321B0
:10105000FFF7E0FE20002921FFF7DCFE2800192120
:1010600001F065FC20002C21FFF7D4FE0021F023C5
:10107000019100930A002000FFF755FF73BDC046A1
:1010800000100240FFDFFFFF0004004870B5436C12
:10109000002B0DD0060000230C000836994203DD1A
:1010A000F55CD5540133F9E700234364200070BD9B
:1010B00001246442FAE7002089188A4204D0137898
:1010C0000132C018C0B2F8E7704770B50D001400C7
:1010D0000139C9B2FFF7EFFF6419013C2378181AF0
:1010E00043425841C0B270BD9023DB055A6905499F
:1010F0000A405A618022196852030A431A60052384
:1011000003637047FFFBFFFF9022D205136802497B
:101110000B4013607047C046FFFFEFFF70B504003F
:10112000314B00251C6001232563216063630800A7
:101130002E4901F0DDFB230080222D33A563656479
:1011400025641D702A4B2571596992020A435A6120
:1011500080229969D2010A439A61DA682549264EAC
:101160000A40DA6008237560B360244BC022F36044
:101170009023DB055968D2000A435A60A022D9683F
:1011800052030A43DA60DA681D4920000A40DA6037
:101190008022196812030A431A601A6819490A4022
:1011A000F0211A605A6A8A435A621022596A0A4325
:1011B0005A62FFF7A9FF2D233360802312491B05D4
:1011C0000A68134380220B60104BD200186810434A
:1011D0001860986810439860D8680243DA608023EA
:1011E0000A6813430B6070BD7C000020C112000828
:1011F00000100240FFBFFFFF0038014088130000CD
:10120000FFFFD7FFFFFFCBFF00E100E0000401403C
:101210009023DB0518694005C00F704770B50400C6
:101220000E2B1BD81A43C2760200002541760179A5
:101230001C3281769D4204D00499495D5155013597
:10124000F8E72200E91CC9B219322000FFF733FF8A
:101250006319187701230435E56323642000FFF741
:10126000D7FF002801D005236363002070BD05234C
:101270004363704770B5036C0400002B1CD0FFF76C
:10128000C7FF002818D0250002232D352B70200021
:10129000FFF72AFF210000234020084A1831E66B9F
:1012A0009E4206D90133CE5C9662D6690642FCD0D6
:1012B000F5E7002323642B7070BDC0460038014061
:1012C00010B50C4B1868036B002B08D0036B013B67
:1012D0000363036B002B01D1FFF716FF10BD036CF6
:1012E000002BFBD0436B5A1E4263002BF6D1FFF755
:1012F000C1FFF3E77C00002003002D331B78022B95
:1013000002D0002383634364704713B5FF236A460A
:101310001370037903215370802304009370FFF747
:10132000CAFE6B46D8702000FFF7DEFE0023402186
:10133000054A6846C05C9062D0690842FCD001331F
:10134000042BF6D113BDC04600380140124B13499F
:1013500010B55A6A196203002D331B780400022B62
:1013600018D0836B132B15D8836BC3185A71836BFA
:1013700001338363836B022B0CD90F21C379826BFA
:101380000B4004339A4205D1816B421DC9B2FFF76D
:101390009CFE606410BDC04600380140D81060005B
:1013A000044B10B5DB699B0603D5034B1868FFF7A8
:1013B000CDFF10BD003801407C0000208023084A8A
:1013C000DB0010B553619022D20506491269086806
:1013D0001A4202D00523436310BDFFF78DFFFBE7E0
:1013E000000401407C00002080B500AF234B1A6848
:1013F000224B23490A401A60204B1A6880239B0421
:1014000013405A1E9341DBB2002B00D0F4E71D4B72
:101410001A681C4B01210A431A601A4B1A68194BAF
:1014200006218A431A60174B1A68164B10210A438B
:101430001A60124B5A68114B13490A405A600F4BFD
:101440005A680E4BA02189030A435A600B4B5A6815
:101450000A4B8021C9010A435A60084B1A68074B9E
:10146000802149040A431A60044B5A68034B022145
:101470000A435A60C046BD4680BDC04600100240C7
:10148000FFFFFFFE00200240FFFFC3FF80B582B0D8
:1014900000AF164A164BD31A9B103B6000237B60AB
:1014A0007A683B689A4208D2114B7A689200D35806
:1014B00098477B6801337B60F2E70E4A0E4BD31AE4
:1014C0009B103B6000237B607A683B689A4208D29D
:1014D000094B7A689200D35898477B6801337B6048
:1014E000F2E7C046BD4602B080BDC046582C000899
:1014F000582C0008582C0008582C000880B584B0DF
:1015000000AFFFF771FF1A4BFB601A4BBB601A4A22
:10151000184BD31A7B607B685A1E7A605A1E93411F
:10152000DBB2002B08D0FA68531CFB60BB68591C67
:10153000B96012781A70EEE7104BBB60104A0F4B7F
:10154000D31A7B607B685A1E7A605A1E9341DBB2C5
:10155000002B05D0BB685A1CBA6000221A70F1E754
:10156000FFF794FF02F052FAC046BD4604B080BDBA
:101570002C3B00080000002000000020000000209C
:101580009000002080B500AFFEE7C04610B50748C8
:10159000FFF7EEFB04231840054B04D000201A6827
:1015A000824201D10130186010BDC04628000020E1
:1015B0008000002006398BB20C2130B589B0019132
:1015C0000538023982B2009103A8104900F0CAFE22
:1015D00003A800F09FFEFA210D4D32222800C90019
:1015E00000F0AEFD0B4C3221200001F0A0F9FA21F1
:1015F00032222800490000F0A3FD3221200001F032
:1016000096F903A800F09AFE09B030BD602F0008DB
:101610002400002004000020F0B59A4C0C26A544BC
:1016200003230A24984D1A0029000E900196009475
:1016300030A800F097FE290001960323172200949A
:1016400035A800F08FFE2900019603232B22009479
:101650003AA800F087FE2900019603233F22009458
:101660003FA800F07FFE2900019603235322009437
:1016700044A800F077FE2900019603236722009416
:1016800049A800F06FFE2900019603237B220094F5
:101690004EA800F067FE2900019603238F220094D4
:1016A00053A800F05FFE290001960323A3220094B3
:1016B00058A800F057FE290001960323B722009492
:1016C0005DA800F04FFE0623704E01933100CC332D
:1016D0007822009412A80527082500F043FE002375
:1016E00078361A0031000195009717A800F03AFEED
:1016F000002331001A00019500971CA800F032FE6B
:10170000002331001A000195009721A800F02AFE5D
:10171000002331001A000195009726A800F022FE50
:10172000002331001A00019500972BA800F01AFE43
:101730000023574E1A00483631000195009762A8E1
:1017400000F010FE002331001A000195009767A8F1
:1017500000F008FE002331001A00019500976CA8E4
:1017600000F000FE002331001A000195009771A8D7
:1017700000F0F8FD002331001A000195009776A8CB
:1017800000F0F0FD002331001A00019500977BA8BE
:1017900000F0E8FD002331001A000195009780A8B1
:1017A00000F0E0FD002331001A000195009785A8A4
:1017B00000F0D8FD002331001A00019500978AA897
:1017C00000F0D0FD002331001A00019500978FA88A
:1017D00000F0C8FD0025F0232E4E00932A002900BA
:1017E00030000195FEF796FF2B4B22000193282332
:1017F0002A490093300023000295FFF770F9264B29
:101800000F2201933C2326490093300023000295C8
:10181000FFF765F9204B10220193502321490093D3
:10182000300023000295FFF75AF91B4B0B2201935E
:1018300064231D490093300023000295FFF74FF900
:10184000FA213000890001F072F806230693053B67
:101850000A93114B05970793023F0024F02301944C
:101860000093220021000B48FEF754FF30AD069B89
:101870009C421BDA2B6828001B68984701341435FA
:10188000F5E7C046ACFDFFFF50300008482E0008C9
:10189000C82E000804000020FFFF00000D390008DA
:1018A0001839000828390008393900083A000021A1
:1018B00030A800F079FD3A000F2135A800F074FD42
:1018C0003A001E213AA800F06FFD3A002D213FA8F2
:1018D00000F06AFD3A003C2144A800F065FD3A00A2
:1018E0004B2149A800F060FD3A005A214EA800F0B3
:1018F0005BFD3A00692153A800F056FD3A007821BB
:1019000058A800F051FD3A0087215DA800F04CFD79
:10191000002562AC236820005B68013598471434C9
:101920000A2DF7D1002417AD2B6828005B6801341D
:1019300098471435052CF7D1079B00260193E62321
:10194000A24D220002960093A14923002800FFF730
:10195000C6F86B461B8B3C220D93591F079B0196C3
:10196000009389B2E6232800FFF700F9059C0A36A8
:101970002101611A974DF03189B2019500960A2331
:10198000E6229248013CFEF7C5FE1195002CEFD1EE
:1019900012A800F0BFFC0223099312A800F0FCFC7F
:1019A0000E9B002B00D076E08B48FFF7E1F9022375
:1019B000184200D079E08848FFF7DAF9012318428D
:1019C00009D00EAB998B012905D90239DA8B89B27E
:1019D00012A800F0E9FCFFF7D9FD002832D017ACBF
:1019E000237C002B16D029230EAA9B18DB7F002B0B
:1019F00000D166E025AB1B78002B00D164E02AAB58
:101A00001B78002B00D162E02FAB1B78002B19D183
:101A10002BAC04331422534317AA9B5820001B6895
:101A2000984712ABA179DA894908521A19799B892A
:101A30004908CB18217992B24908591A89B2200075
:101A400000F0B2FC30AE17ACE289237C002A41D012
:101A5000002B41D0023A92B2A189200000F0A4FCF0
:101A600062AB089330ADE289A189280000F0B0FC98
:101A700000280BD02B6828005B689847236820005B
:101A80005B689847E189A089FFF794FD089B1435AE
:101A9000AB42E8D120E05048FFF76AF9002800D1B6
:101AA00082E795239B009D44F0BD0EAB998BE42902
:101AB00000D980E70231DA8B89B212A800F074FCF9
:101AC00079E71CAC0123A5E721AC0223A2E726ACF1
:101AD0003B009FE7002B67D11434B442B4D10A26EF
:101AE00094AB089362ACE289237CDB2A61D8002B9B
:101AF00062D0023292B2A189200000F055FCA27996
:101B0000E38952082179D218A3894908C91892B2E9
:101B100089B212A800F05CFC002800D183E012A872
:101B200000F00CFC0EABD98B988BFFF743FD059BA7
:101B30002000013BDBB2059323685B689847059B57
:101B4000224D002B52D1059A0193F03311000093DE
:101B50002800FEF7DFFD059B09220293079B1F4922
:101B60000193642328000093143BFEF7B8FF059B04
:101B70000F2202931A4B1B490193782328000093EC
:101B80003C3BFEF7ACFF0E9B002B00D089E7164CC8
:101B9000FFF7FCFC002814D1013C002C11D00A21D5
:101BA000280000F0C4FEF3E7236820005B68984734
:101BB00092E7002B00D0FAE0002E34D0013EF6B2BE
:101BC00031E0FFF7E3FC0028FBD16AE704000020C6
:101BD000E438000861F8000028000020EA38000816
:101BE0001FF80000F4380008E903000012A800F014
:101BF00091FB002301930A33009328006E33E62201
:101C0000A521FEF787FD059D119B290101930A235C
:101C1000691AF03189B20093E6226A48013DFEF765
:101C200079FD002DF0D1089B14349C4200D05AE776
:101C300062AB0F930023012530AC0B930893237CF8
:101C4000002B51D0069B9E4231DA8FAB109362ADD0
:101C500000222B7C0C92934222D13232002159482F
:101C6000FEF7E0FF00281BD12B6828001B6898476F
:101C70008E230EAA9B181A78E3895208D21831AB2A
:101C80001B78A1895B08CB1A217992B24908C9183F
:101C900089B2280000F088FB01230136F6B20C93CC
:101CA000109B9D4203D00C9B1435002BD0D00A9B77
:101CB000E289A1899A18099B92B2591889B2200029
:101CC00000F072FBF0212379A289CB1A9A4201DB42
:101CD00001230893002A01D101230893E3890025F9
:101CE0008C2B01D901230B930F9B1434A342A6D153
:101CF000089B002B03D0099B5B429BB209930B9B73
:101D0000002B03D00A9B5B429BB20A932D4C0F2100
:101D1000200000F00CFE002D00D13EE6079B0025C0
:101D20000193E6230093E13B1A0027492000029526
:101D3000FEF7D5FE0D99079B0439009389B2E6237F
:101D400001953C222000FEF711FF069B013306930C
:101D50000A2B00D081E5FC26E633F6002A00290094
:101D6000200000930196FEF7D5FC6423174D200058
:101D7000009308223C3B164902960195FEF7AFFE00
:101D800078232000009302960195703B0F221149A1
:101D9000FEF7A5FE104CFFF7F9FB00280CD1013C23
:101DA000002C09D00A21074800F0C1FDF3E72368A1
:101DB00020005B689847FFE6FFF7E8FB0028FBD1AF
:101DC0006FE6C04604000020E43800081FF8000059
:101DD00004390008F4380008E903000080220B4BA6
:101DE000D203596910B50A4301215A61084A1068A3
:101DF00001430220116011688143116080225969FA
:101E000092020A435A6100F02FFA10BD00100240FE
:101E10000014004880230E4A9B0091690B43936194
:101E200000220C4BC0219A60802252029A62C22288
:101E30000904920099508022996812060A439A6018
:101E40009A68002AFCDB07225A61063A9A607047BA
:101E500000100240002401401FB5074A03AB1A805E
:101E6000FE210093002202230448FFF7D7F9142132
:101E7000034800F05CFDF0E7AA5500002C000020AC
:101E800004000020F0B506000025954CA54413ACD5
:101E90002819FEF723FC934B14359D42F7D10025FA
:101EA000F023019500932A0029008F480895FEF73A
:101EB00031FC08998D4A0898515C101840780591BA
:101EC000049014206843011906910321FC20089F07
:101ED000089BD7190293089BBF78D3181B790397E7
:101EE000834F1940795CC000C9000140079103216C
:101EF000981008407F491B11085C0799C0100143E6
:101F000003200340FB181879029BC008D218D3782D
:101F1000C002014301910093049A039B059906981E
:101F2000FEF7EAFB089B0135053308939D2DC0D1D0
:101F3000002E0AD1236820001B680136984714340C
:101F40009D2EF7D16C4B9D44F0BD012E0FD1002585
:101F5000236820001B680135984714349D2DF7D164
:101F60000123F022290013A8FEF7A4F8EAE7022EC5
:101F7000E8D10C230193023B0093073B1A005F4911
:101F800009A800F0EFF908230193033B00933900FF
:101F9000002308311A000EA800F0E4F909A800F0A7
:101FA000B9F906ABC82200214F481D8BFEF73AFE57
:101FB00006AB2D18A9B25A8B09A800F0F5F9250037
:101FC0000026EA89A9897832280092B200F0ECF95B
:101FD0002B6828001B680136984714359D2EF0D1D8
:101FE000FA2301271B0103939B3E4548FEF7C0FEE1
:101FF0000028A7D109ADEA89A989D219891992B215
:1020000089B2280000F0D0F9A989AB880122002903
:1020100006D0EF32DBB2D31AD80FCA179942424129
:10202000EB89642B57D8002A00D076420EAD2B7C6A
:10203000002B3DD02B79AA895B089B189BB2049397
:10204000AB79EA895B089B189BB2059300232500B6
:1020500002932B7C002B0DD0059A0499280000F0E8
:10206000B7F9002806D02B6828005B6898470EA8AF
:1020700000F064F9029B1435013302939D2BE8D1E3
:102080000EADEA89A989023292B2280000F08CF9DB
:10209000EB89F02B02D9280000F050F90A211248F0
:1020A00000F045FC039B013B0393002B9DD149E7C6
:1020B000280000F02FF909A801792B79C2898089BD
:1020C00049085B0809189A18C91A92B289B22800FF
:1020D00000F06AF9E2E7002A00D076427F42A5E7E5
:1020E0006CF3FFFF440C000004000020983100084E
:1020F0004031000844310008940C0000AA34000864
:102100002800002080220B4B520018600A4BD9692E
:102110000A43DA618022596992020A435A61002215
:10212000064B1A6060329A61196A5F3A0A431A6272
:102130007047C0468400002000100240002000408C
:10214000F8B59023DB050E00150017491A68012722
:102150000A401A608022196892000A431A601A6ABB
:102160001249134C0A401A628022196AD2020A43A9
:102170001A6223680F48BB432360B7239B00A36206
:10218000A16A00F0F3FB310000F0F0FBE062E36ACB
:10219000FB4063630023636223681F43064B276091
:1021A0001B681D60F8BDC046FFFEFFFFFFFFF4FF88
:1021B00000200040006CDC02840000200121054A60
:1021C00013688B4313609022D205136802490B40B9
:1021D0001360704700040040FFFCFFFF0068431ECF
:1021E00098417047F7B505000E00170000240193D1
:1021F000019B9C420ADA2B68002BFCD16300FA5A3F
:10220000F15A2800FFF79CFF0134F1E7F7BD074BB7
:1022100010B51B681A68002A07D01A68013A1A60BC
:102220001B68002B01D1FFF7C9FF10BD84000020FF
:102230000A4A30B511008024094B9568254202D026
:10224000013B002BF9D18022064B1870044B8C689F
:10225000144202D0013B002BF9D130BD00300140C7
:1022600041420F000C3001408022174B5201996906
:1022700010B50A439A61C0225969D2020A435A61D1
:102280009023DB051A68114920240A401A6088222D
:10229000196812020A431A601A6A0D490A401A6242
:1022A000CC22996812020A439A600A4B9A680A4A39
:1022B0001A60E022D2005A600020013CFFF7B8FF0C
:1022C000002CF9D110BDC04600100240FFBBFFFF3B
:1022D000FFFF0F0F00300140460300000B4930B5EF
:1022E0000B0080240A4A8D68254202D0013A002A58
:1022F000F9D18021064AD8609868084202D0013A94
:10230000002AF9D1D86880B230BDC0460030014003
:1023100041420F0013B5037C0400002B09D18388D0
:10232000C289818980680190E08800900248FEF7A8
:10233000CCFB0123237413BD0400002013B5037CE0
:102340000400002B09D08388C28981890020019074
:10235000E08800900248FEF7DDF90023237413BDE6
:1023600004000020C381002370B504AC268805ACAE
:102370002588044C86800834C58004608281816091
:10238000037470BD9C350008024B083303600023C2
:10239000037470479C350008037C10B5002B02D0F5
:1023A00003681B68984710BD70B5037C04000E00DD
:1023B0001500002B09D003685B6898472368A68145
:1023C000E5811B682000984770BDA181E281FBE791
:1023D00030B5047C231E11D0858900238D420DD891
:1023E00084886419A14209DAC489944206D8C18854
:1023F000012309198A4200DB00239BB2180030BD7B
:1024000070B5047C231E26D0C5898689954206D1E5
:10241000B14204D384880123A419A1421BDBC488E0
:102420006419B14204D1954202D80223944212DCCD
:102430008088631E8019934204D1B14202D30323E2
:10244000884208DC01380023884204D1954202D832
:10245000944200DD0433180070BDC046F0B597B05B
:10246000D248FEF785FC051EFAD1F0230A27D04C8E
:10247000D04E02000100019000932000FEF74AF9BF
:102480003B001A22CC492000029501960097FEF7E6
:1024900026FB1E2319220093C8493B002000029509
:1024A0000196FEF71CFB32230295009301963B0038
:1024B0001722C3492000FEF712FB0996BB48FEF71E
:1024C00057FC32210490200000F031FA049B002BCD
:1024D000F4D0022B6CD12300012200272C331A7078
:1024E0000021F025019100952B000A002000FEF745
:1024F00011F9002F17D1099B132201931E23B14913
:1025000000932000143B0297FEF7E9FAFA2120001D
:10251000890000F00CFA019700952B003A00390071
:102520002000FEF7F7F8099BB92201932823C82160
:1025300000930CA8263BFEF7B5F8A34B7822019335
:1025400005231100009311A8FEF7ACF80CA8FEF7C4
:1025500083F8002F02D111A8FEF77EF81425944CC1
:102560009A4EF02301962A00002120000095FEF7E4
:10257000D7F90196DC26F0230096320000212000D6
:10258000FEF7CEF9002F1DD10BAA04219048FEF7CB
:102590007DFD904B009601932A003B0039002000FE
:1025A000FEF7BEF98148FEF7E3FB0428FAD117E0F5
:1025B000049B012B00D06CE1230002222C331A7003
:1025C000049F8DE70CA8C2892821FFF7EDFE814BFF
:1025D00000960193EF232A0019002000FEF7A0F9CE
:1025E00001260023059606936B46198B0023019361
:1025F000099B642200936E48052311ACFEF7B6FADE
:10260000237C0893002B00D1E8E0059BE289A18997
:102610009219C91892B289B22000FFF7C5FEA279BB
:10262000E38952082179D218A3894908C9180CAD49
:1026300092B289B22800FFF7E3FE002850D0059B34
:1026400011AA5B425BB205939379D2895B089A1811
:10265000AB79E9895B085B180321D31ADA170A40C2
:10266000D3189B101422C5315B485EB2FFF768FD9A
:1026700011ACE289A379D118DB2902DCD31A142B1F
:1026800001D8764276B2A389002F39D1002B10D120
:1026900001210BAB5A70059A19709A70DE703A00DE
:1026A0000093049904234A48FEF7B8FD2000FDF783
:1026B000E5FF11AC0CABA2899B899A4239D9022261
:1026C0000BAB1A70069A04995A70002240485A803F
:1026D00000930423FEF7A2FD2000FDF7CFFF28E0C2
:1026E000A279E3895208D2182379A1895B08C91A13
:1026F00092B289B22800FFF783FE00289FD1B7E786
:10270000EF2B10D901210BAB5A70059A19709A70F2
:10271000DE7000220093049904232D48FEF77EFD0D
:102720002000FDF7ABFF11AC0CABA2899B899A424C
:10273000C5D31E4C2000FEF71BFB030708D50CA8D1
:10274000C289002A04D0013A92B28189FFF72CFE97
:102750002000FEF70DFBC3060BD5EF230CA88179F3
:10276000C2895B1A9A4204DC013292B28189FFF776
:102770001BFE2000FEF7FCFA43070FD5002F0DD1FA
:1027800011AC237C002B09D17822012611002000F6
:10279000FFF70AFE2000FDF75FFF05960CA8FFF784
:1027A000FBFD0521024800F0C2F81DE728000020CB
:1027B00004000020FFFF000089390008A439000848
:1027C000BE390008D63900081FFA000008FA0000D8
:1027D0002C00002010A50000240000200BAD2A00D2
:1027E00004212D48FEF752FC0028A2DD2B78079328
:1027F000012B32D0022B9CD1069B01330693092B6F
:1028000043D9FC24F023089AE400110001940093BA
:102810002248FDF77FFF1E23214D029400930822DA
:10282000143320491D480195FEF759F932230294CB
:102830000195009316221C491848FEF750F91B4CCD
:102840001B48FEF795FA042823D0013C002C20D029
:102850003221124800F06BF8F2E72000FDF7FCFE91
:102860006A78EF2192B2002F00D107992000FFF77C
:102870009BFD02230326C8210A22EB5689000593FB
:10288000AE570C48FFF75CFC53E7FA210A22C90057
:10289000F7E717B0F0BDC0462C0000200400002070
:1028A0001FF80000EA390008F3390008E9030000C6
:1028B00028000020240000200A4B07221860002373
:1028C000036043608360C360036143618361C361EC
:1028D000054B19680A431A60044A5A6005229A6037
:1028E00062B670478800002010E000E07FBB000067
:1028F000002210B594000359002B02D1215018007A
:1029000010BD0132082AF5D101204042F8E700232A
:1029100010B59A0084588C4203D10023135018003C
:1029200010BD0133082BF4D101204042F8E7002903
:1029300007D00022034B5A605A688A4201D230BF46
:10294000FAE770478800002070B50024064D6B68D8
:1029500001336B602A68A3009B58002B00D0984776
:102960000134082CF6D170BD8800002000224308F5
:102970008B4274D303098B425FD3030A8B4244D347
:10298000030B8B4228D3030C8B420DD3FF22090289
:1029900012BA030C8B4202D31212090265D0030B48
:1029A0008B4219D300E0090AC30B8B4201D3CB033E
:1029B000C01A5241830B8B4201D38B03C01A524180
:1029C000430B8B4201D34B03C01A5241030B8B4282
:1029D00001D30B03C01A5241C30A8B4201D3CB026D
:1029E000C01A5241830A8B4201D38B02C01A524152
:1029F000430A8B4201D34B02C01A5241030A8B4255
:102A000001D30B02C01A5241CDD2C3098B4201D36C
:102A1000CB01C01A524183098B4201D38B01C01AEA
:102A2000524143098B4201D34B01C01A5241030961
:102A30008B4201D30B01C01A5241C3088B4201D310
:102A4000CB00C01A524183088B4201D38B00C01ABD
:102A5000524143088B4201D34B00C01A5241411AE4
:102A600000D20146524110467047FFE701B50020F1
:102A700000F0F0F802BDC0460029F7D076E77047B5
:102A800003460B437FD4002243088B4274D30309CF
:102A90008B425FD3030A8B4244D3030B8B4228D370
:102AA000030C8B420DD3FF22090212BA030C8B4296
:102AB00002D31212090265D0030B8B4219D300E036
:102AC000090AC30B8B4201D3CB03C01A5241830BBB
:102AD0008B4201D38B03C01A5241430B8B4201D36B
:102AE0004B03C01A5241030B8B4201D30B03C01A94
:102AF0005241C30A8B4201D3CB02C01A5241830A0E
:102B00008B4201D38B02C01A5241430A8B4201D33C
:102B10004B02C01A5241030A8B4201D30B02C01A66
:102B20005241CDD2C3098B4201D3CB01C01A5241CD
:102B300083098B4201D38B01C01A524143098B4256
:102B400001D34B01C01A524103098B4201D30B013F
:102B5000C01A5241C3088B4201D3CB00C01A524164
:102B600083088B4201D38B00C01A524143088B4229
:102B700001D34B00C01A5241411A00D201465241C2
:102B8000104670475DE0CA0F00D04942031000D3E1
:102B90004042534000229C4603098B422DD3030A36
:102BA0008B4212D3FC22890112BA030A8B420CD346
:102BB000890192118B4208D3890192118B4204D36F
:102BC00089013AD0921100E08909C3098B4201D3EF
:102BD000CB01C01A524183098B4201D38B01C01A29
:102BE000524143098B4201D34B01C01A52410309A0
:102BF0008B4201D30B01C01A5241C3088B4201D34F
:102C0000CB00C01A524183088B4201D38B00C01AFB
:102C10005241D9D243088B4201D34B00C01A5241D2
:102C2000411A00D20146634652415B10104601D35F
:102C30004042002B00D54942704763465B1000D3E9
:102C4000404201B5002000F005F802BD0029F8D08F
:102C500016E770477047C046000000000000000003
:102C6000590600087D060008000000000000005F13
:102C700000000007000700147F147F14242A7F2A15
:102C800012231308646236495522500005030000E0
:102C9000001C2241000041221C00082A1C2A0808AE
:102CA000083E0808005030000008080808080060C6
:102CB00060000020100804023E5149453E00427F5A
:102CC000400042615149462141454B311814127F61
:102CD0001027454545393C4A4949300171090503EA
:102CE0003649494936064949291E00363600000052
:102CF0005636000000081422411414141414412202
:102D00001408000201510906324979413E7E111131
:102D1000117E7F494949363E414141227F4141224E
:102D20001C7F494949417F090901013E4141513216
:102D30007F0808087F00417F41002040413F017F1C
:102D4000081422417F404040407F0204027F7F04FC
:102D500008107F3E4141413E7F090909063E41512D
:102D6000215E7F09192946464949493101017F0100
:102D7000013F4040403F1F2040201F7F2018207F00
:102D80006314081463030478040361514945430044
:102D9000007F4141020408102041417F00000402ED
:102DA000010204404040404000010204002054540D
:102DB00054787F4844443838444444203844444894
:102DC0007F3854545418087E090102081454543CA6
:102DD0007F0804047800447D40002040443D00000A
:102DE0007F10284400417F40007C041804787C0850
:102DF00004047838444444387C1414140808141427
:102E0000187C7C080404084854545420043F44406F
:102E1000203C4040207C1C2040201C3C4030403C5A
:102E200044281028440C5050503C4464544C4400F6
:102E30000836410000007F00000041360800080805
:102E40002A1C08081C2A08080000000000000000D6
:102E50000000000000000000000000000000000072
:102E600000000000FFFFFFFF000000000000000066
:102E70000000000000000000FFFFFFFF0000000056
:102E8000000000000000FFFFFFFFFFFFFFFFFFFF4C
:102E9000FFFFFFFFFFFF0000FFFFFFFFFFFFFFFF40
:102EA000FFFFFFFFFFFFFFFFFFFFFFFFFFFFFFFF32
:102EB000FFFFFFFFFFFFFFFFFFFFFFFFFFFFFFFF22
:102EC000000000001F000000000000001F001F00A5
:102ED0001F00000000001F001F001F000000000076
:102EE0001F001F001F00000000001F001F001F0028
:102EF00000001F001F001F001F001F001F001F00F9
:102F00001F001F001F00000000001FF8000000004D
:102F1000000000001FF800000000E007E007E007E5
:102F2000E007E007E007E007E007E007E007000050
:102F3000E007E007E00700000000E007E007E00727
:102F400000000000E007E007E00700000000E007E5
:102F5000E007E007000000000000E00700000000BC
:102F6000000000000000000000F800F80000000071
:102F70000000000000F800000000000000F800F869
:102F800000000000000000F8000000F80000000051
:102F900000F800F80000000000F800000000000049
:102FA00000F8000000F800F8000000F80000000041
:102FB00000000000000000F800F800F800F8000031
:102FC0000000000000F800F800F800F800F800F831
:102FD00000F800F800F800F800F800F800F800F831
:102FE00000F800F800F800F800F800F80000000011
:102FF000000000F800F800F800F8000000000000F1
:103000000000000000F8000000F800F8000000F8E0
:1030100000000000000000F80000000000F800F8C8
:103020000000000000F8000000F8000000000000B0
:1030300000F800F800000000000000F800000000A8
:103040000000000000F800F8000000000000000090
:103050000000000000000000000000000000000070
:103060000000000000000000000000001FF81FF832
:1030700000000000000000000000000000001FF839
:103080001FF81FF81FF800000000000000001FF8E4
:103090001FF800001FF81FF800001FF81FF80000BD
:1030A00000001FF81FF800001FF81FF800001FF8AD
:1030B0001FF8000000001FF81FF81FF81FF81FF886
:1030C0001FF81FF81FF8000000001FF81FF81FF876
:1030D0001FF81FF81FF81FF81FF80000000000007D
:1030E0001FF81FF8000000001FF81FF80000000084
:1030F000000000001FF81FF8000000001FF81FF874
:103100000000000000001FF81FF800000000000091
:1031100000001FF81FF800001FF81FF81FF800003C
:103120000000000000001FF81FF81FF8000000005A
:10313000000000000000000000000000000000008F
:10314000003F7FFF003F7FFF000000001FF80000EE
:103150000000E007E007E007E007E007E007E0071E
:10316000E007E007E0070000E007E007E0070000F5
:103170000000E007E007E00700000000E007E007CC
:10318000E00700000000E007E007E00700000000A3
:103190000000E007000000000A3405150F0F340896
:1031A000040F0F4508040F1639050D0F1F350511C3
:1031B0000F2B3405110F21450C040F333406150F66
:1031C000393406040F393C06040F394506040F3F15
:1031D0003605070F3F3F05070F473405150F4C45D0
:1031E0000A040F593405150F623405150F673408AA
:1031F000040F6F3405150F7D3505150C8D3505153C
:103200000C863503150C823504020C893504020C3A
:10321000953505150CA43505150C9A3E0B040C9A32
:10322000350B020CAD3405150CB23D05030CB73758
:1032300004060CB74104060CB74706030CB7340765
:10324000030CC23405150CC7340A040CC7450A0424
:103250000CC73C0A040CD43405150CD93406040CF4
:10326000D93D06050CDF36050A0CDE4206070C00C8
:103270002A170A30162A170A302D2A170A30442A2C
:10328000170A305A2A170A30712A170A30882A1763
:103290000A309E2A170A30B52A170A30CC2A170A94
:1032A00030E22A0D0A300049170A3C1749170A3C38
:1032B0002D49170A3C4449170A3C5B49170A3C71DF
:1032C00049170A3C8849170A3C9F49170A3CB549E7
:1032D000170A3CCC49170A3CE3490D0A3C001F0F72
:1032E0000C3F00180C073F031707013F00150C01A6
:1032F0003F122607043F141E04093F1513020A3F1C
:10330000041305023F1C2417063F1F1C14083F1F0F
:103310001A0F023F23190B023F332305073F3416D0
:10332000030D3F381913113F3D1807023F4B210988
:10333000093F4D18050A3F4E1303043F54220D0860
:103340003F591F08033F612417063F621D0B073FCB
:103350006D2103033F702308023F722102023F7F69
:103360001C040E3F8000021C3F882511053F8B2165
:103370000E043F992809023F9A2607023F9D240127
:10338000023FA221190A3FA61E11023FAB13080BF0
:103390003FAD1004043FBB2518053FC32110043F77
:1033A000C313090E3FD4221C083FDB2012033FDE6B
:1033B0001C03033FE31C06043FE21A08013FD51F2C
:1033C00002033F00530B10330063080733006A0603
:1033D00008331153040A331853040A33135D080ADF
:1033E000331567040A332A53070E33206215063358
:1033F00034630903334453050F3341620A06333FF4
:103400006805083349680508335953050833545B88
:10341000060433505F0A08335D5B0604335D5F0AC0
:103420000833715E0501336D530D0B337268030968
:10343000336F600908338753040433865707063314
:10344000835D0C1133836E020233886E0302338C6A
:103450006E03023398530A09339B5D0405339C6164
:10346000020A33A957080C33AB53050433B753058D
:103470000E33B861030D33BF630A0733C15C06071F
:1034800033C353020933C06A010333C66A010333ED
:10349000DC53051833D360080333D468080333E1E1
:1034A00065040433E95306203300000000000000E7
:1034B000000000000000000000000000000000000C
:1034C0000000000000001FF81FF8000000000000CE
:1034D00000000000000000001FF81FF81FF81FF890
:1034E00000000000000000001FF81FF800001FF897
:1034F0001FF800001FF81FF8000000001FF81FF859
:1035000000001FF81FF800001FF81FF8000000005F
:103510001FF81FF81FF81FF81FF81FF81FF81FF8F3
:10352000000000001FF81FF81FF81FF81FF81FF811
:103530001FF81FF80000000000001FF81FF800002F
:1035400000001FF81FF800000000000000001FF836
:103550001FF8000000001FF81FF800000000000026
:103560001FF81FF800000000000000001FF81FF8FF
:1035700000001FF81FF81FF8000000000000000006
:103580001FF81FF81FF800000000000000000000F6
:10359000000000000000000000000000000000002B
:1035A00000000000152300083D2300084743433A6C
:1035B0002028474E5520546F6F6C7320666F722021
:1035C00041726D20456D6265646465642050726F60
:1035D000636573736F727320382D323031382D71FB
:1035E000342D6D616A6F722920382E322E312032CF
:1035F00030313831323133202872656C6561736542
:1036000029205B6763632D382D6272616E636820C9
:103610007265766973696F6E203236373037345D84
:1036200000412B000000616561626900012100001A
:10363000000536532D4D00060C074D0901120414E8
:103640000115011703180119011A011E04412B006D
:1036500000006165616269000121000000053653C8
:103660002D4D00060C074D09011204140115011718
:1036700003180119011A011E04412B0000006165A5
:103680006162690001210000000536532D4D0006DE
:103690000C074D0901120414011501170318011933
:1036A000011A011E04412B0000006165616269007E
:1036B00001210000000536532D4D00060C074D0971
:1036C000011204140115011703180119011A011E32
:1036D00004412B0000006165616269000121000066
:1036E000000536532D4D00060C074D090112041438
:1036F0000115011703180119011A011E04412B00BD
:103700000000616561626900012100000005365317
:103710002D4D00060C074D09011204140115011767
:1037200003180119011A011E04412B0000006165F4
:103730006162690001210000000536532D4D00062D
:103740000C074D0901120414011501170318011982
:10375000011A011E04412B000000616561626900CD
:1037600001210000000536532D4D00060C074D09C0
:10377000011204140115011703180119011A011E81
:1037800004412B00000061656162690001210000B5
:10379000000536532D4D00060C074D090112041487
:1037A0000115011703180119011A011E04412B000C
:1037B0000000616561626900012100000005365367
:1037C0002D4D00060C074D090112041401150117B7
:1037D00003180119011A011E04412B000000616544
:1037E0006162690001210000000536532D4D00067D
:1037F0000C074D09011204140115011703180119D2
:10380000011A011E04412B0000006165616269001C
:1038100001210000000536532D4D00060C074D090F
:10382000011204140115011703180119011A011ED0
:1038300004412B0000006165616269000121000004
:10384000000536532D4D00060C074D0901120414D6
:103850000115011703180119011A011E04412B005B
:1038600000006165616269000121000000053653B6
:103870002D4D00060C074D09011204140115011706
:1038800003180119011A011E04411D0000006165A1
:103890006162690001130000000536532D4D0006DA
:1038A0000C074D09011901411D00000061656162AD
:1038B000690001130000000536532D4D00060C076A
:1038C0004D09011901411D00000061656162690037
:1038D00001130000000536532D4D00060C074D095D
:0438E00001190100C9
:1038E4004C6576656C0047414D45204F5645520066
:1038F4004669726520746F20726573746172740016
:10390400564943544F525921004D43552047616C49
:10391400616761004F6E6C792035206D697373693E
:103924006C65730063616E20626520696E20666C4D
:1039340069676874006174206F6E652074696D65D1
:10394400005072657373204669726520666F722039
:103954004272696369005072657373204C656674C2
:1039640020666F7220496E766164657273005072CE
:1039740065737320526967687420666F722054659A
:103984006E6E697300507265737320526967687450
:1039940020666F722061206E65772067616D650017
:1039A4005072657373204C65667420746F206A6F5F
:1039B400696E20612067616D6500416E79206F74C6
:1039C400686572206B657920746F2063616E63652E
:1039D4006C005072657373204669726520746F20A1
:1039E400736572766500596F752077696E21005092
:1039F40072657373206669726520746F20636F6EDD
:063A040074696E75650097
:103A0C00F0B587B0FEF7E4F93F4C2000FDF725F93F
:103A1C0090234022DB0519683C480A4380211A6038
:103A2C001A688A431A60FDF79DF9062851D00025C3
:103A3C0014270020FEF720FA8C23354E00933A0011
:103A4C003B003449200002950196FDF742F89B2378
:103A5C001722009330493B00200002950196FDF798
:103A6C0038F8AA230295009301963B0016222B49A5
:103A7C002000FDF72EF8C92305932448FDF772F9B1
:103A8C00642106002000FEF74CFF002E23D1059B7D
:103A9C00013B0593002BF0D10120FEF7EDF9F02648
:103AAC00002233001100200001950096FCF72CFE3B
:103ABC000220FEF7E1F9FA2120008900FEF731FF20
:103ACC00002201950096330011002000FCF71CFE2B
:103ADC000DE0FEF7BBF9022E13D0042E05D0012EFB
:103AEC00DAD10020FDF792FD01E0FCF757FD074805
:103AFC00FDF738F900289CD039002000FEF711FFA3
:103B0C00F5E7FEF7A5FCF2E70400002028000020F2
:103B1C00FFFF0000453900085A39000872390008C7
:0400000508000000EF
:00000001FF
