:020000040800F2
:1000000000100020F914000881150008811500086F
:100010008115000881150008811500088115000868
:100020008115000881150008811500088115000858
:10003000811500088115000881150008852B00082E
:100040008115000881150008811500088115000838
:10005000811500088115000881150008B9130008F2
:100060008115000881150008811500088115000818
:100070008115000881150008811500088115000808
:1000800081150008811500088115000881150008F8
:1000900081150008811500088115000881150008E8
:1000A0008115000881150008811500089D130008BE
:1000B00081150008F0B50325C34C99B00C900D9143
:1000C0000493002113000194DC2200950EA800F097
:1000D000E9FA78222B0001940095110013A800F092
:1000E000E1FA00230B9305330593013B0793089432
:1000F00000251427FF260D9B9D4219DA3C006C4316
:100100000C9B1C19236820001B689847049B002B3C
:100110000BD10498A388E289A1890190E08833403B
:1001200030400090A94800F022FC0135EDB2E2E732
:10013000A64CE6220A21200000F074FD782281B24C
:1001400013A802F04FFA02220021200000F06AFDFD
:100150000127002800D1023F6B460A25197D0B01BB
:10016000C91A89B20C000F34A4B20F2C0BD0984BD3
:10017000F03189B2019300950A23E622934800F0FA
:10018000C9FA2100EEE713A800F066FA0EA800F005
:1001900063FA089B00260193E62505238B4C1A0081
:1001A0008C4920000296009500F099FC0521079BE0
:1001B0000196C91A089B89B200933C222B002000AB
:1001C00000F0D4FC01235B420693049B002B00D07B
:1001D000ADE0814800F0CAFD0223184200D0ADE036
:1001E0007D4800F0C3FDC30708D50EA8818900290A
:1001F00004D00239C28989B202F0F4F913AB9A79BA
:10020000D9895208521819799B894908C91892B29C
:1002100089B20EA802F012FA00280CD0069B5B42AD
:100220005BB20693049B002B00D0A6E11422C821E8
:100230006A4802F0A3F813AC069BE289A189D218A0
:10024000C91992B289B2200002F0CCF9A389022B1D
:100250000AD1049B7F427FB2002B05D1C821142212
:1002600049005E4802F08AF813AB9B89EE2B0AD155
:10027000049B7F427FB2002B05D1C8211422490084
:10028000564802F07BF813ABDB89022B0CD1069B9E
:100290005B425BB20693049B002B05D1C82114225C
:1002A00049004E4802F06AF80EAAD38992799B1849
:1002B00013AAD2890133934200DB9CE0059C434D95
:1002C000013CE4B263B20593002B45D1059A01933A
:1002D000F03311000093280000F01CFA059B09225E
:1002E0000293089B3E490193642328000093143B2A
:1002F00000F0F5FB059B0F2202933A4B3A4901931C
:100300007823280000933C3B00F0E9FB0426374C9F
:10031000314800F02BFD304200D0FDE0013C002CC4
:1003200000D1F9E00A21280002F01FFCF0E72A487A
:1003300000F01CFD002800D14BE7EDE0F0220EA8F4
:1003400003798189D31A994200DB49E70231C289D6
:1003500089B202F047F943E764220021280000F047
:1003600061FC0127384200D1023F184EE6220A21E3
:10037000300000F057FC782205005A21300000F0D0
:1003800051FCA9B282B213A802F02CF90A2500236D
:10039000A521019300957833E622300000F0BAF9E8
:1003A0002101641AA4B226000F36B6B20F2E1FD058
:1003B000074BF034A1B2019300950A23E6220348CB
:1003C00000F0A8F93400EEE7FFFF00000400002071
:1003D00061F800002C3D00082800002024000020C7
:1003E000323D00081FF800003C3D0008E903000012
:1003F00001235B42069300230A93013309930D9B6B
:100400000A9A934250DD142555430C9B13AE5D1997
:100410002B7CB1895A425341099A5B421A40099296
:100420002800F28902F00AF9041E1CD1B189F28970
:10043000023189B2280002F001F9041E13D1F289B9
:10044000B189023292B2280002F0F8F8041E0AD1F3
:10045000F289B1890232023192B289B2280002F0E7
:10046000EDF8041E1BD02B6828005B68984723001A
:1004700002229343012B03D1069B5B425BB206939E
:100480000223023C9C4301D17F427FB2049B002B9C
:1004900005D1FA21142289003B4801F06FFF0A9B25
:1004A0000133DBB20A93AAE7099B012B20D1079BFA
:1004B000002B33DD013B13A8079300F0DFF8089B06
:1004C00000260193E6250523304C1A003049200010
:1004D0000296009500F003FB0521079B0196C91ABF
:1004E000089B89B200933C222B00200000F03EFBC9
:1004F000049B26480521002B01D1079B591D02F0C2
:1005000034FB0EA802F066F8099B002B00D15CE6D4
:10051000079B002B00DDEBE519B0F0BDFC25F023B7
:1005200000221A4CED00110001950093200000F00C
:10053000F1F86423174E02950196009308223C3B84
:100540001549200000F0CBFA78230295019600931C
:100550000F22703B1149200000F0C1FA0426104D13
:10056000104800F003FC3042D6D1013D002DD3D01D
:100570000A21200002F0F9FAF2E70B9B01330B93FA
:10058000092B00D857E6C7E724000020040000200C
:100590002C3D00081FF800004C3D00083C3D0008C1
:1005A000E903000028000020F0B5F0230024FBB090
:1005B00001940093220021002348F02700F0AAF8BC
:1005C0007F0002AEA019143400F088F83500BC4258
:1005D000F7D100240A271D4B21001E34019330005F
:1005E00000971E233222A4B200F086F81436F02CB5
:1005F000F1D100240A272AAE154B21001E340193A5
:10060000300000971E233C22A4B200F075F8143687
:10061000F02CF1D100240A2752AE0E4B21001E34DB
:100620000193300000971E234622A4B200F064F824
:100630001436F02CF1D100231E2218212800FFF7D8
:1006400039FD7BB0F0BDC046040000201FFA000059
:100650001F420000E847000013B504008388C289E8
:100660008189408A0190E0880090034800F052F8A8
:100670000123237413BDC0460400002013B5037C7E
:100680000400002B09D08388C28981890020019051
:10069000E0880090024800F03DF80023237413BD69
:1006A00004000020F7B504001E0008AB1D8809AB4C
:1006B0001F880091019201F085FF074B6782083384
:1006C000236000232374009BA680A381019BE58007
:1006D0002000E381FEBDC046942E000810B5040042
:1006E00001F070FF034B20000833236000232374C4
:1006F00010BDC046942E000830B504AD2D8803AC63
:1007000045820025248805748380C4808181C2814C
:1007100030BDC04637B506AC07AD2D882488703093
:100720000195009400F0FDFB37BDF0B58FB002924B
:1007300014AA0D90019115888B4200D992E0029A7B
:10074000934200D98EE0CA18F02A00DD8AE0029AAE
:10075000D218F02A00DD85E05A1E5B0009930123C0
:100760000392099A06939A1A08930023009207931A
:10077000039B079A934275DB6B46019A9B890D9CFC
:1007800004939B189BB20A936B46029A9B8B70341E
:100790009F18BFB23A0005930A992B00200000F081
:1007A00085FB019A059B20009B189BB20B93029A34
:1007B000049B0B999E18B6B232002B0000F076FB1A
:1007C000059A019B20009B1A9BB20C9332002B00D0
:1007D0000C9900F06BFB019B049A20009E1AB6B2A4
:1007E0003A0031002B0000F061FB029B059A3100BA
:1007F0009F1ABFB22B003A00200000F057FB029B6B
:10080000049A0C999E1AB6B22B003200200000F018
:100810004DFB2B0032000B99200000F047FB2B0012
:100820003A000A99200000F041FB009B002B0DDCF0
:10083000069A079B944601330793009B63440093F9
:10084000130002330693009B002B91DD039B099A52
:10085000013B0393089B023308939B1A009AD31819
:10086000009385E70FB0F0BDF0B587B01F000CAB6B
:10087000049018880DAB1B8815000593831A01227C
:100880000C000292791A002B02DA023A2B1A029219
:100890005B0001935E1A4B000393A74210DB0498A0
:1008A000AAB2A1B2059B703000F000FB002E03DD60
:1008B000029BED18039BF61A019B0134F618ECE736
:1008C00007B0F0BDF0B587B004900CA807880DA85C
:1008D00000880D00059001201400591ABA1A0290E0
:1008E000002903DAE91A01235B4202934B000193CA
:1008F0009E1A53000393A74210DB0498A2B2A9B238
:10090000059B703000F0D2FA002E03DD029BED183B
:10091000039BF61A019B0134F618ECE707B0F0BD13
:10092000F7B51C0008AB1D8809AB1B88AE1A00D5B3
:10093000561B671A00D50F1B0193B7420BDD8C4283
:1009400006D200920B002A002100FFF78DFFF7BDB1
:1009500000952300F9E7954206D200920B002A0089
:100960002100FFF7AFFFF2E700952300F9E7F0B5AC
:10097000160007000D0085B00AAA1488CB180BAA30
:1009800012889BB2029303920192029B320000965E
:10099000FFF7C6FF3419039BA4B2019332002B006A
:1009A000290038000094FFF7BBFF039B320001933E
:1009B000029B380019000094FFF7B2FF039B0094DC
:1009C00001932200029B29003800FFF7A9FF05B020
:1009D000F0BDF0B58FB0160014AA128807900D0074
:1009E00008928B426AD8B34268D8CA18F02A65DCEC
:1009F000F218F02A62DC5A1E5B000A93012302926D
:100A00000A9A05939C1A099300230693029B069A5F
:100A1000934253DB6B461B8907980393EB1A9BB2F7
:100A20000B936B461B8B0B9904939A19039B92B201
:100A30005F19089BBFB2019300923B00FFF770FF64
:100A4000049B0798EB1A9BB20C93039B0C999A1981
:100A5000049B92B25B199BB20D93089B0092019389
:100A60000D9BFFF75DFF049B0B99F21A089B92B256
:100A7000019300923B000798FFF752FF039B0C99EC
:100A8000F21A089B92B2019300920D9B0798FFF710
:100A900047FF002C08DC069B01330693059BE418F6
:100AA00002330593002CB1DD029B0A9A013B0293AD
:100AB000099B023309939B1AE418A7E70FB0F0BD16
:100AC00010B5703000F0F2F910BD37B506AC2488CF
:100AD000079D70300195009400F0F8F937BDF0B52E
:100AE00000249DB01D0022AB1B880490079323AB0C
:100AF0001B880591089324AB1B8806920993069BDB
:100B00009C422EDA0522059B0AA81B5D203B53431D
:100B1000154A9B185A1D03921A780100029200226E
:100B2000029E012716413E4219D0089E01320E80D6
:100B30000A31072AF4D10399013302308B42EBD1F9
:100B400004980AAB0193009229000523079A70309C
:100B50000735013400F0BAF9ADB2E4B2CFE7099E2F
:100B6000E4E71DB0F0BDC046A42E0008F0B50D00AE
:100B70008BB0059310AB1B880600069311AB1B8846
:100B800028000A211700079302F094F808AC3031CE
:100B9000217128000A2102F007F80A2180B202F030
:100BA00089F83031E1702800642101F0FDFF0A214D
:100BB00080B202F07FF83031A170FA21280089005C
:100BC00001F0F2FF0A2180B202F074F83031617056
:100BD0002800094901F0E8FF079B3030207002939C
:100BE000069B05220193059B2100009330003B00EA
:100BF000FFF775FF0BB0F0BD10270000084B1B6816
:100C0000002B08D1426F930FD10E5940012352009F
:100C10008B4313434367406F400140097047C04610
:100C20000000002070B50D001400FFF7E7FF611B06
:100C300002F040F8481970BD002370B50500436705
:100C400001242E002436300000F0B2F8A0406B6F73
:100C50000134C0186867112CF3D10028F0D030009F
:100C600000F072F870BD10B5040001F043FF2000E1
:100C70002100703000F07DF92000243000F014F8DD
:100C80002000203001F05CFB0649200001F04EFFFF
:100C900020002100283000F03FFA2000FFF7CCFFB1
:100CA00010BDC0464B2400088023234A9B00916955
:100CB00010B50B4380219361204B09061869204C25
:100CC000084318611869204018610020986080204E
:100CD00040029862C024C220240480001C509868FE
:100CE0000143996099680029FCDB012159619960F1
:100CF00080235169DB030B43536180230F24516927
:100D00009B020B4353610F4A3F201368A3431360B8
:100D10009023DB05196881431960D168A143D16034
:100D20000521D4682143D160DA688243DA60152254
:100D3000D9680A43DA6010BD001002400024014067
:100D4000FFFFFFBF00140048C2210022044B8900AE
:100D50009A605A50034A044993690B409361704763
:100D60000024014000100240FFFDFFFF01220F4B55
:100D700018691B6910404242504140009B0701D452
:100D8000102318439023DB051A69D20701D40422EB
:100D900010431B699B0701D4082318439023DB05EC
:100DA0001B695B0701D401231843704700140048F6
:100DB0008022074B52029A62052299680A439A6080
:100DC000042299681142FCD0186C80B27047C0466A
:100DD000002401400221024A53698B43536170474A
:100DE000000400480223024A51690B4353617047D3
:100DF0000004004890224021D20553698B4353617F
:100E0000704790224023D20551690B4353617047CC
:100E100010B50C00FFF7DEFF200001F027FB10BD2E
:100E200010B50C00FFF7DEFF200001F01FFB10BD26
:100E3000F7B504000F001E00150008AB1B882A211F
:100E40000193FFF7E5FF390A2000FFF7E9FFF9B248
:100E50002000FFF7E5FF310A2000FFF7E1FFF1B2C4
:100E60002000FFF7DDFF20002B21FFF7D1FF290A2B
:100E70002000FFF7D5FFE9B22000FFF7D1FF019B6B
:100E80002000190AFFF7CCFF6B4620001979FFF705
:100E9000C7FF2C212000FFF7BBFFF7BD10B50C00EA
:100EA000FFF7A0FF200001F037FB10BD37B50400AD
:100EB0001D00501C4B1C80B29BB200902000FFF71D
:100EC000B7FF29002000FFF7E9FF37BDF0B51F008D
:100ED000002485B00AAB1B880290039303987B1E05
:100EE00001381018CB1880B29BB200900298FFF71F
:100EF0009FFF0B9B7F00DD19039B9C420FD00B9E35
:100F0000AE4205D031880298FFF7C8FF0236F7E7F6
:100F10000B9B0134DB190B93A4B2ED19ECE705B080
:100F2000F0BDF0B51F00060085B00AAB1B88002499
:100F3000029302980BAB1B880138039310187B1E99
:100F4000CB1880B200909BB23000FFF771FF029B7C
:100F50009C420CD00025BD4206D0039930000135DB
:100F6000FFF79CFFADB2F6E70134A4B2EFE705B09E
:100F7000F0BD8022414B73B50D00596992020A43BE
:100F80005A6190228021D205040010684901014372
:100F9000116011683A4808260140116080225969A1
:100FA000D2020A435A610422364B200019680A43D0
:100FB0001A601A68B2431A60FFF723FF280019214C
:100FC00001F0D3FD2000FFF715FF2800192101F0E3
:100FD000CCFD2000FFF715FF2800192101F0C5FD09
:100FE00020000121FFF714FF2800962101F0BDFD2C
:100FF00020001121FFF70CFF2800192101F0B5FD99
:1010000020003A21FFF704FF20005521FFF708FFD9
:101010002800192101F0A9FD20003621FFF7F8FE74
:1010200031002000FFF7FCFE2800192101F09DFD92
:1010300020005121FFF7ECFE2800192101F095FD59
:1010400020002121FFF7E4FE20001321FFF7E0FE3E
:1010500020002921FFF7DCFE2800192101F085FD81
:1010600020002C21FFF7D4FE0021F02301910093F2
:101070000A002000FFF755FF73BDC0460010024074
:10108000FFDFFFFF0004004870B5436C002B0DD05C
:10109000060000230C000836994203DDF55CD554A8
:1010A0000133F9E700234364200070BD012464424A
:1010B000FAE7002089188A4204D013780132C01858
:1010C000C0B2F8E7704770B50D0014000139C9B21D
:1010D000FFF7EFFF6419013C2378181A4342584187
:1010E000C0B270BD9023DB055A6905490A405A61B8
:1010F0008022196852030A431A600523036370476C
:10110000FFFBFFFF9022D205136802490B401360DA
:101110007047C046FFFFEFFF70B50400314B00255C
:101120001C60012325632160636308002E4901F0E0
:10113000FDFC230080222D33A563656425641D70AA
:101140002A4B2571596992020A435A618022996992
:10115000D2010A439A61DA682549264E0A40DA60CC
:1011600008237560B360244BC022F3609023DB0535
:101170005968D2000A435A60A022D96852030A4330
:10118000DA60DA681D4920000A40DA6080221968B6
:1011900012030A431A601A6819490A40F0211A60BA
:1011A0005A6A8A435A621022596A0A435A62FFF7FE
:1011B000A9FF2D233360802312491B050A681343BE
:1011C00080220B60104BD20018681043186098689A
:1011D00010439860D8680243DA6080230A6813439A
:1011E0000B6070BD7C000020BD12000800100240A2
:1011F000FFBFFFFF0038014088130000FFFFD7FF4B
:10120000FFFFCBFF00E100E0000401409023DB057D
:1012100018694005C00F704770B504000E2B1BD82D
:101220001A43C27602000025417601791C3281768C
:101230009D4204D00499495D51550135F8E72200DB
:10124000E91CC9B219322000FFF733FF6319187780
:1012500001230435E56323642000FFF7D7FF00284E
:1012600001D005236363002070BD052343637047ED
:1012700070B5036C0400002B1CD0FFF7C7FF0028DB
:1012800018D0250002232D352B702000FFF72AFFF0
:10129000210000234020084A1831E66B9E4206D9FF
:1012A0000133CE5C9662D6690642FCD0F5E7002396
:1012B00023642B7070BDC0460038014010B50C4B44
:1012C0001868036B002B08D0036B013B0363036BAF
:1012D000002B01D1FFF716FF10BD036C002BFBD0D4
:1012E000436B5A1E4263002BF6D1FFF7C1FFF3E7B1
:1012F0007C00002003002D331B78022B02D000233A
:1013000083634364704713B5FF236A461370037900
:1013100003215370802304009370FFF7CAFE6B46CD
:10132000D8702000FFF7DEFE00234021054A684602
:10133000C05C9062D0690842FCD00133042BF6D126
:1013400013BDC04600380140124B134910B55A6A0C
:10135000196203002D331B780400022B18D0836B15
:10136000132B15D8836BC3185A71836B01338363B6
:10137000836B022B0CD90F21C379826B0B40043392
:101380009A4205D1816B421DC9B2FFF79CFE606491
:1013900010BDC04600380140D8106000044B10B5A5
:1013A000DB699B0603D5034B1868FFF7CDFF10BD23
:1013B000003801407C0000208023084ADB0010B583
:1013C00053619022D2050649126908681A4202D078
:1013D0000523436310BDFFF78DFFFBE700040140C9
:1013E0007C00002080B500AF234B1A68224B2349B4
:1013F0000A401A60204B1A6880239B0413405A1E2F
:101400009341DBB2002B00D0F4E71D4B1A681C4B54
:1014100001210A431A601A4B1A68194B06218A43A4
:101420001A60174B1A68164B10210A431A60124BA8
:101430005A68114B13490A405A600F4B5A680E4BB9
:10144000A02189030A435A600B4B5A680A4B80213A
:10145000C9010A435A60084B1A68074B80214904A6
:101460000A431A60044B5A68034B02210A435A602C
:10147000C046BD4680BDC04600100240FFFFFFFED3
:1014800000200240FFFFC3FF80B582B000AF164AC4
:10149000164BD31A9B103B6000237B607A683B6835
:1014A0009A4208D2114B7A689200D35898477B68C9
:1014B00001337B60F2E70E4A0E4BD31A9B103B6060
:1014C00000237B607A683B689A4208D2094B7A68AD
:1014D0009200D35898477B6801337B60F2E7C0469F
:1014E000BD4602B080BDC046942E0008942E000870
:1014F000942E0008942E000880B584B000AFFFF74A
:1015000071FF1A4BFB601A4BBB601A4A184BD31A77
:101510007B607B685A1E7A605A1E9341DBB2002BB7
:1015200008D0FA68531CFB60BB68591CB96012787C
:101530001A70EEE7104BBB60104A0F4BD31A7B605A
:101540007B685A1E7A605A1E9341DBB2002B05D08D
:10155000BB685A1CBA6000221A70F1E7FFF794FFCB
:1015600002F0AAFCC046BD4604B080BDFC3F0008A6
:10157000000000200000002000000020900000205B
:1015800080B500AFFEE7C04610B50748FFF7EEFB99
:1015900004231840054B04D000201A68824201D170
:1015A0000130186010BDC0462800002080000020D7
:1015B00006398BB20C2130B589B00191053802395A
:1015C00082B2009103A8104900F0EAFF03A800F0DE
:1015D000BFFFFA210D4D32222800C90000F0CEFED7
:1015E0000B4C3221200001F0C0FAFA2132222800EF
:1015F000490000F0C3FE3221200001F0B6FA03A832
:1016000000F0BAFF09B030BD9C3100082400002072
:1016100004000020F0B59A4C0C26A54403230A24AC
:10162000984D1A0029000E900196009430A800F001
:10163000B7FF2900019603231722009435A800F074
:10164000AFFF2900019603232B2200943AA800F053
:10165000A7FF2900019603233F2200943FA800F032
:101660009FFF2900019603235322009444A800F011
:1016700097FF2900019603236722009449A800F0F0
:101680008FFF2900019603237B2200944EA800F0CF
:1016900087FF2900019603238F22009453A800F0AE
:1016A0007FFF290001960323A322009458A800F08D
:1016B00077FF290001960323B72200945DA800F06C
:1016C0006FFF0623704E01933100CC3378220094D3
:1016D00012A80527082500F063FF002378361A00BA
:1016E00031000195009717A800F05AFF0023310040
:1016F0001A00019500971CA800F052FF002331004A
:101700001A000195009721A800F04AFF002331003C
:101710001A000195009726A800F042FF002331002F
:101720001A00019500972BA800F03AFF0023574EAE
:101730001A00483631000195009762A800F030FF8A
:10174000002331001A000195009767A800F028FFD8
:10175000002331001A00019500976CA800F020FFCB
:10176000002331001A000195009771A800F018FFBE
:10177000002331001A000195009776A800F010FFB1
:10178000002331001A00019500977BA800F008FFA4
:10179000002331001A000195009780A800F000FF97
:1017A000002331001A000195009785A800F0F8FE8B
:1017B000002331001A00019500978AA800F0F0FE7E
:1017C000002331001A00019500978FA800F0E8FE71
:1017D0000025F0232E4E00932A00290030000195A9
:1017E000FEF798FF2B4B2200019328232A490093F0
:1017F000300023000295FFF772F9264B0F22019368
:101800003C2326490093300023000295FFF767F937
:10181000204B1022019350232149009330002300D4
:101820000295FFF75CF91B4B0B22019364231D49C2
:101830000093300023000295FFF751F9FA213000A0
:10184000890001F092F906230693053B0A93114B98
:1018500005970793023F0024F02301940093220090
:1018600021000B48FEF756FF30AD069B9C421BDA69
:101870002B6828001B68984701341435F5E7C046EB
:10188000ACFDFFFF8C3200088430000804310008F2
:1018900004000020FFFF0000553D0008603D0008E7
:1018A000703D0008813D00083A00002130A800F09A
:1018B00099FE3A000F2135A800F094FE3A001E214F
:1018C0003AA800F08FFE3A002D213FA800F08AFED2
:1018D0003A003C2144A800F085FE3A004B2149A87B
:1018E00000F080FE3A005A214EA800F07BFE3A003C
:1018F000692153A800F076FE3A00782158A800F03C
:1019000071FE3A0087215DA800F06CFE002562ACF4
:10191000236820005B680135984714340A2DF7D1FD
:10192000002417AD2B6828005B68013498471435F4
:10193000052CF7D1079B00260193E623A24D220038
:1019400002960093A14923002800FFF7C8F86B46D0
:101950001B8B3C220D93591F079B0196009389B264
:10196000E6232800FFF702F9059C0A362101611AD7
:10197000974DF03189B2019500960A23E6229248EC
:10198000013CFEF7C7FE1195002CEFD112A800F024
:10199000DFFD0223099312A800F01CFE0E9B002B12
:1019A00000D076E08B48FFF7E1F90223184200D01F
:1019B00079E08848FFF7DAF90123184209D00EAB25
:1019C000998B012905D90239DA8B89B212A800F066
:1019D00009FEFFF7D9FD002832D017AC237C002B7D
:1019E00016D029230EAA9B18DB7F002B00D166E0BE
:1019F00025AB1B78002B00D164E02AAB1B78002BB1
:101A000000D162E02FAB1B78002B19D12BAC043333
:101A10001422534317AA9B5820001B68984712AB07
:101A2000A179DA894908521A19799B894908CB1892
:101A3000217992B24908591A89B2200000F0D2FDEA
:101A400030AE17ACE289237C002A41D0002B41D074
:101A5000023A92B2A189200000F0C4FD62AB089363
:101A600030ADE289A189280000F0D0FD00280BD01C
:101A70002B6828005B689847236820005B689847BC
:101A8000E189A089FFF794FD089B1435AB42E8D1AA
:101A900020E05048FFF76AF9002800D182E795233B
:101AA0009B009D44F0BD0EAB998BE42900D980E7E3
:101AB0000231DA8B89B212A800F094FD79E71CACF0
:101AC0000123A5E721AC0223A2E726AC3B009FE758
:101AD000002B67D11434B442B4D10A2694AB0893D6
:101AE00062ACE289237CDB2A61D8002B62D002320F
:101AF00092B2A189200000F075FDA279E389520815
:101B00002179D218A3894908C91892B289B212A8BA
:101B100000F07CFD002800D183E012A800F02CFD2D
:101B20000EABD98B988BFFF743FD059B2000013B43
:101B3000DBB2059323685B689847059B224D002B19
:101B400052D1059A0193F033110000932800FEF75B
:101B5000E1FD059B09220293079B1F490193642322
:101B600028000093143BFEF7BAFF059B0F22029357
:101B70001A4B1B4901937823280000933C3BFEF746
:101B8000AEFF0E9B002B00D089E7164CFFF7FCFC44
:101B9000002814D1013C002C11D00A21280000F0AB
:101BA000E4FFF3E7236820005B68984792E7002B87
:101BB00000D0FAE0002E34D0013EF6B231E0FFF75B
:101BC000E3FC0028FBD16AE7040000202C3D00085C
:101BD00061F8000028000020323D00081FF80000D6
:101BE0003C3D0008E903000012A800F0B1FC00230E
:101BF00001930A33009328006E33E622A521FEF7F5
:101C000089FD059D119B290101930A23691AF03171
:101C100089B20093E6226A48013DFEF77BFD002D64
:101C2000F0D1089B14349C4200D05AE762AB0F936A
:101C30000023012530AC0B930893237C002B51D05B
:101C4000069B9E4231DA8FAB109362AD00222B7C53
:101C50000C92934222D1323200215948FEF7E2FF22
:101C600000281BD12B6828001B6898478E230EAADA
:101C70009B181A78E3895208D21831AB1B78A189D6
:101C80005B08CB1A217992B24908C91889B2280099
:101C900000F0A8FC01230136F6B20C93109B9D4284
:101CA00003D00C9B1435002BD0D00A9BE289A1896C
:101CB0009A18099B92B2591889B2200000F092FC40
:101CC000F0212379A289CB1A9A4201DB01230893E0
:101CD000002A01D101230893E38900258C2B01D927
:101CE00001230B930F9B1434A342A6D1089B002B16
:101CF00003D0099B5B429BB209930B9B002B03D043
:101D00000A9B5B429BB20A932D4C0F21200000F0EE
:101D10002CFF002D00D13EE6079B00250193E62312
:101D20000093E13B1A00274920000295FEF7D7FEF9
:101D30000D99079B0439009389B2E62301953C2253
:101D40002000FEF713FF069B013306930A2B00D0F9
:101D500081E5FC26E633F6002A00290020000093E6
:101D60000196FEF7D7FC6423174D2000009308224C
:101D70003C3B164902960195FEF7B1FE7823200000
:101D8000009302960195703B0F221149FEF7A7FEC2
:101D9000104CFFF7F9FB00280CD1013C002C09D0B6
:101DA0000A21074800F0E1FEF3E7236820005B68A2
:101DB0009847FFE6FFF7E8FB0028FBD16FE6C04637
:101DC000040000202C3D00081FF800004C3D0008D6
:101DD0003C3D0008E903000080220B4BD203596907
:101DE00010B50A4301215A61084A106801430220D4
:101DF00011601168814311608022596992020A437F
:101E00005A6100F04FFB10BD001002400014004862
:101E100080230E4A9B0091690B43936100220C4B77
:101E2000C0219A60802252029A62C2220904920062
:101E300099508022996812060A439A609A68002A8B
:101E4000FCDB07225A61063A9A6070470010024094
:101E5000002401401FB5074A03AB1A80FE210093FE
:101E6000002202230448FFF7D7F91421034800F0A9
:101E70007CFEF0E7AA5500002C00002004000020A2
:101E8000F0B506000025954CA54413AC2819FEF7C3
:101E900025FC934B14359D42F7D10025F023019585
:101EA00000932A0029008F480895FEF733FC089913
:101EB0008D4A0898515C10184078059104901420C0
:101EC0006843011906910321FC20089F089BD7193C
:101ED0000293089BBF78D3181B790397834F19404F
:101EE000795CC000C90001400791032198100840A7
:101EF0007F491B11085C0799C01001430320034070
:101F0000FB181879029BC008D218D378C00201438D
:101F100001910093049A039B05990698FEF7ECFB48
:101F2000089B0135053308939D2DC0D1002E0AD1A1
:101F3000236820001B680136984714349D2EF7D182
:101F40006C4B9D44F0BD012E0FD10025236820006D
:101F50001B680135984714349D2DF7D10123F022D9
:101F6000290013A8FEF7A6F8EAE7022EE8D10C2311
:101F70000193023B0093073B1A005F4909A800F058
:101F80000FFB08230193033B009339000023083122
:101F90001A000EA800F004FB09A800F0D9FA06AB5D
:101FA000C82200214F481D8BFEF73CFE06AB2D18C2
:101FB000A9B25A8B09A800F015FB25000026EA8972
:101FC000A9897832280092B200F00CFB2B68280017
:101FD0001B680136984714359D2EF0D1FA2301274E
:101FE0001B0103939B3E4548FEF7C0FE0028A7D186
:101FF00009ADEA89A989D219891992B289B2280052
:1020000000F0F0FAA989AB880122002906D0EF324E
:10201000DBB2D31AD80FCA1799424241EB89642B1D
:1020200057D8002A00D076420EAD2B7C002B3DD035
:102030002B79AA895B089B189BB20493AB79EA8938
:102040005B089B189BB205930023250002932B7C11
:10205000002B0DD0059A0499280000F0D7FA00282B
:1020600006D02B6828005B6898470EA800F084FA19
:10207000029B1435013302939D2BE8D10EADEA8902
:10208000A989023292B2280000F0ACFAEB89F02B59
:1020900002D9280000F070FA0A21124800F065FD0C
:1020A000039B013B0393002B9DD149E7280000F0DF
:1020B0004FFA09A801792B79C289808949085B0800
:1020C00009189A18C91A92B289B2280000F08AFA3F
:1020D000E2E7002A00D076427F42A5E76CF3FFFFDB
:1020E000440C000004000020D43300087C330008B6
:1020F00080330008940C0000E63600082800002019
:10210000F0B5844E8FB0DB2201213000FEF78AFD4E
:102110000C230193023B0790009364220A337E490B
:1021200009A800F03DFA0021F023019100930A0074
:102130003000FEF7EFFA1425EF2200213000FEF701
:1021400071FDC822040000213000FEF76BFD734FC3
:1021500082B2A1B23B003000013DFEF7B1FC049712
:10216000002DE9D1142709AC200000F0F1F9049BFF
:1021700000970193C822F02329003000FEF7CAFA25
:102180006B46998B664BC82201930A23300000935B
:102190003B00FEF7BFFA049B02950193E6230093F0
:1021A000E13B1A005F493000FEF799FCFA27322321
:1021B000FF0006930593002F2DDD5B48FEF7D6FD4B
:1021C0000823184260D0594B033D023F2000A36012
:1021D00000F000FA5448FEF7C9FDC30707D5A189EE
:1021E000E289013989B22000013F00F0FBF94E4835
:1021F000FEF7BCFD830707D5A189E289013189B2C9
:102200002000013F00F0EEF9FB43DB171F406B1D80
:102210003CDA05256D42059B013B0593002B12DC42
:102220000135E289002D35DD013292B2A18920000D
:1022300000F0D8F9069B5B1B06930593002B02DC8C
:10224000012306930593E389BC2B53D9142D25DD77
:10225000F824F0230022240211000093019430009E
:10226000FEF758FA049B152201931423304900937A
:1022700002940F3B3000FEF732FCFA212548C900DA
:1022800000F073FC0FB0F0BD234B9FE7192DC2DDAA
:102290001925C0E7002DCDD0013AC6E7A389079ADA
:1022A000934202DB1432934211DDF0230022214CD1
:1022B0001100009301943000FEF72CFA049B029465
:1022C00001931423152200931B490F3BD2E7FC24F2
:1022D000F0230022E4001100009301943000FEF787
:1022E00019FA049B029401931423152200931349B5
:1022F0000F3BBFE700230193049BB9B20093462232
:10230000E6230448FEF732FC1421024800F02DFCBD
:1023100051E7C04604000020C6380008FFFF000057
:1023200010FC0000EC3D000828000020D637000813
:10233000F23D00081FF80000083E00081E3E00089D
:1023400080220B4B520018600A4BD9690A43DA61AC
:102350008022596992020A435A610022064B1A6090
:1023600060329A61196A5F3A0A431A627047C0463E
:10237000840000200010024000200040F8B59023A7
:10238000DB050E00150017491A6801270A401A607C
:102390008022196892000A431A601A6A1249134C83
:1023A0000A401A628022196AD2020A431A6223681A
:1023B0000F48BB432360B7239B00A362A16A00F0D0
:1023C000F3FB310000F0F0FBE062E36AFB40636383
:1023D0000023636223681F43064B27601B681D6050
:1023E000F8BDC046FFFEFFFFFFFFF4FF00200040E6
:1023F000006CDC02840000200121054A13688B4335
:1024000013609022D205136802490B401360704795
:1024100000040040FFFCFFFF0068431E9841704726
:10242000F7B505000E00170000240193019B9C42A4
:102430000ADA2B68002BFCD16300FA5AF15A280003
:10244000FFF79CFF0134F1E7F7BD074B10B51B68A0
:102450001A68002A07D01A68013A1A601B68002B14
:1024600001D1FFF7C9FF10BD840000200A4A30B532
:1024700011008024094B9568254202D0013B002BB6
:10248000F9D18022064B1870044B8C68144202D09C
:10249000013B002BF9D130BD0030014041420F001B
:1024A0000C3001408022174B5201996910B50A4344
:1024B0009A61C0225969D2020A435A619023DB050E
:1024C0001A68114920240A401A60882219681202E9
:1024D0000A431A601A6A0D490A401A62CC229968A6
:1024E00012020A439A600A4B9A680A4A1A60E0226A
:1024F000D2005A600020013CFFF7B8FF002CF9D150
:1025000010BDC04600100240FFBBFFFFFFFF0F0FD2
:1025100000300140460300000B4930B50B00802419
:102520000A4A8D68254202D0013A002AF9D1802159
:10253000064AD8609868084202D0013A002AF9D1C8
:10254000D86880B230BDC0460030014041420F0023
:1025500013B5037C0400002B09D18388C2898189CB
:1025600080680190E08800900248FEF7AEFA0123EF
:10257000237413BD0400002013B5037C0400002B5A
:1025800009D08388C289818900200190E088009069
:102590000248FEF7BFF80023237413BD0400002097
:1025A000C381002370B504AC268805AC2588044C93
:1025B00086800834C580046082818160037470BDA8
:1025C000B8390008024B08330360002303747047D6
:1025D000B8390008037C10B5002B02D003681B68D3
:1025E000984710BD70B5037C04000E001500002B49
:1025F00009D003685B6898472368A681E5811B685A
:102600002000984770BDA181E281FBE730B5047CD2
:10261000231E11D0858900238D420DD8848864192A
:10262000A14209DAC489944206D8C1880123091954
:102630008A4200DB00239BB2180030BD70B5047CD9
:10264000231E26D0C5898689954206D1B14204D37E
:1026500084880123A419A1421BDBC4886419B142F8
:1026600004D1954202D80223944212DC8088631E72
:102670008019934204D1B14202D30323884208DC7B
:1026800001380023884204D1954202D8944200DDEB
:102690000433180070BDC046F0B597B0D248FEF7BD
:1026A00065FB051EFAD1F0230A27D04CD04E02005C
:1026B0000100019000932000FEF72CF83B001A2245
:1026C000CC492000029501960097FEF708FA1E23D8
:1026D00019220093C8493B00200002950196FEF79D
:1026E000FEF932230295009301963B001722C3495D
:1026F0002000FEF7F4F90996BB48FEF737FB3221BC
:102700000490200000F031FA049B002BF4D0022B3F
:102710006BD12300012200272C331A700021F025F1
:10272000019100952B000A002000FDF7F3FF002F18
:1027300017D1099B132201931E23B1490093200056
:10274000143B0297FEF7CBF9FA212000890000F034
:102750000CFA019700952B003A0039002000FDF794
:10276000D9FF099BB92201932823C82100930CA803
:10277000263BFDF797FFA34B782201930523110019
:10278000009311A8FDF78EFF0CA8FDF765FF002F41
:1027900002D111A8FDF760FF0F22944C9A4D0092D0
:1027A0000195F02300212000FEF7BAF8E1220195FF
:1027B0000092F02300212000FEF7B2F8934D002F85
:1027C0001DD10BAA04219248FEF75EFCDC23019583
:1027D000009314223B0039002000FEF7A1F8824844
:1027E000FEF7C4FA0428FAD117E0049B012B00D0AD
:1027F0006DE1230002222C331A70049F8EE70CA88F
:10280000C2892821FFF7EEFEDC23009313330195E4
:10281000142219002000FEF783F8012600230596F4
:1028200006936B46198B00230193099B6422009346
:102830006E48052311ACFEF799F9237C0893002B11
:1028400000D1E9E0059BE289A1899219C91892B2E9
:1028500089B22000FFF7C6FEA279E38952082179E8
:10286000D218A3894908C9180CAD92B289B22800C0
:10287000FFF7E4FE002850D0059B11AA5B425BB233
:1028800005939379D2895B089A18AB79E9895B083B
:102890005B180321D31ADA170A40D3189B101422AD
:1028A000C5315C485EB2FFF769FD11ACE289A379DE
:1028B000D118DB2902DCD31A142B01D8764276B268
:1028C000A389002F39D1002B10D101210BAB5A70F5
:1028D000059A19709A70DE703A00009304990423E7
:1028E0004B48FEF799FC2000FDF7C8FE11AC0CAB7D
:1028F000A2899B899A4239D902220BAB1A70069A97
:1029000004995A70002242485A8000930423FEF72B
:1029100083FC2000FDF7B2FE28E0A279E38952088B
:10292000D2182379A1895B08C91A92B289B228000A
:10293000FFF784FE00289FD1B7E7EF2B10D90121C4
:102940000BAB5A70059A19709A70DE7000220093D2
:10295000049904232E48FEF75FFC2000FDF78EFE4D
:1029600011AC0CABA2899B899A42C5D31E4C2000A6
:10297000FEF7FCF9030708D50CA8C289002A04D089
:10298000013A92B28189FFF72DFE2000FEF7EEF9A1
:10299000C3060BD5EF230CA88179C2895B1A9A4232
:1029A00004DC013292B28189FFF71CFE2000FEF7A1
:1029B000DDF943070FD5002F0DD111AC237C002B7F
:1029C00009D17822012611002000FFF70BFE20001C
:1029D000FDF742FE05960CA8FFF7FCFD0521034814
:1029E00000F0C3F81DE7C0462800002004000020C6
:1029F000FFFF0000343E00084F3E0008693E00081B
:102A0000813E00081FFA000008FA000010A500002F
:102A10002C000020240000200BAD2A0004212D48AA
:102A2000FEF732FB0028A1DD2B780793012B32D073
:102A3000022B9BD1069B01330693092B43D9FC241F
:102A4000F023089AE4001100019400932248FDF756
:102A500061FE1E23214D0294009308221433204965
:102A60001D480195FEF73BF832230294019500932F
:102A700016221C491848FEF732F81B4C1B48FEF77B
:102A800075F9042823D0013C002C20D032211248B3
:102A900000F06BF8F2E72000FDF7DEFD6A78EF2129
:102AA00092B2002F00D107992000FFF79BFD02236F
:102AB0000326C8210A22EB5689000593AE570C481D
:102AC000FFF75CFC52E7FA210A22C900F7E717B0CA
:102AD000F0BDC0462C000020040000201FF80000BC
:102AE000953E00089E3E0008E903000028000020F3
:102AF000240000200A4B0722186000230360436073
:102B00008360C360036143618361C361054B1968DE
:102B10000A431A60044A5A6005229A6062B67047F6
:102B20008800002010E000E07FBB0000002210B50C
:102B300094000359002B02D12150180010BD01321E
:102B4000082AF5D101204042F8E7002310B59A0089
:102B500084588C4203D100231350180010BD013358
:102B6000082BF4D101204042F8E7002907D00022C9
:102B7000034B5A605A688A4201D230BFFAE7704765
:102B80008800002070B50024064D6B6801336B602F
:102B90002A68A3009B58002B00D098470134082CCA
:102BA000F6D170BD88000020002243088B4274D308
:102BB00003098B425FD3030A8B4244D3030B8B423E
:102BC00028D3030C8B420DD3FF22090212BA030C47
:102BD0008B4202D31212090265D0030B8B4219D328
:102BE00000E0090AC30B8B4201D3CB03C01A524148
:102BF000830B8B4201D38B03C01A5241430B8B4290
:102C000001D34B03C01A5241030B8B4201D30B0378
:102C1000C01A5241C30A8B4201D3CB02C01A52419F
:102C2000830A8B4201D38B02C01A5241430A8B4262
:102C300001D34B02C01A5241030A8B4201D30B024B
:102C4000C01A5241CDD2C3098B4201D3CB01C01A65
:102C5000524183098B4201D38B01C01A524143096F
:102C60008B4201D34B01C01A524103098B4201D35D
:102C70000B01C01A5241C3088B4201D3CB00C01ACA
:102C8000524183088B4201D38B00C01A5241430842
:102C90008B4201D34B00C01A5241411A00D2014667
:102CA000524110467047FFE701B5002000F0F0F8F0
:102CB00002BDC0460029F7D076E7704703460B43B4
:102CC0007FD4002243088B4274D303098B425FD325
:102CD000030A8B4244D3030B8B4228D3030C8B4251
:102CE0000DD3FF22090212BA030C8B4202D3121237
:102CF000090265D0030B8B4219D300E0090AC30B0C
:102D00008B4201D3CB03C01A5241830B8B4201D3B8
:102D10008B03C01A5241430B8B4201D34B03C01AA1
:102D20005241030B8B4201D30B03C01A5241C30A19
:102D30008B4201D3CB02C01A5241830A8B4201D38A
:102D40008B02C01A5241430A8B4201D34B02C01A74
:102D50005241030A8B4201D30B02C01A5241CDD219
:102D6000C3098B4201D3CB01C01A524183098B4264
:102D700001D38B01C01A524143098B4201D34B014D
:102D8000C01A524103098B4201D30B01C01A5241B0
:102D9000C3088B4201D3CB00C01A524183088B4237
:102DA00001D38B00C01A524143088B4201D34B0020
:102DB000C01A5241411A00D2014652411046704792
:102DC0005DE0CA0F00D04942031000D34042534097
:102DD00000229C4603098B422DD3030A8B4212D357
:102DE000FC22890112BA030A8B420CD38901921189
:102DF0008B4208D3890192118B4204D389013AD0C6
:102E0000921100E08909C3098B4201D3CB01C01A9A
:102E1000524183098B4201D38B01C01A52414309AD
:102E20008B4201D34B01C01A524103098B4201D39B
:102E30000B01C01A5241C3088B4201D3CB00C01A08
:102E4000524183088B4201D38B00C01A5241D9D220
:102E500043088B4201D34B00C01A5241411A00D2A1
:102E60000146634652415B10104601D34042002B9D
:102E700000D54942704763465B1000D3404201B51C
:102E8000002000F005F802BD0029F8D016E77047D1
:102E90007047C0460000000000000000590600080E
:102EA0007D060008000000000000005F0000000731
:102EB000000700147F147F14242A7F2A122313088A
:102EC000646236495522500005030000001C22416F
:102ED000000041221C00082A1C2A0808083E080895
:102EE000005030000008080808080060600000205A
:102EF000100804023E5149453E00427F40004261B5
:102F00005149462141454B311814127F1027454540
:102F100045393C4A49493001710905033649494957
:102F200036064949291E0036360000005636000094
:102F3000000814224114141414144122140800022D
:102F400001510906324979413E7E1111117E7F49B6
:102F50004949363E414141227F4141221C7F494936
:102F600049417F090901013E414151327F0808086A
:102F70007F00417F41002040413F017F08142241F2
:102F80007F404040407F0204027F7F0408107F3E64
:102F90004141413E7F090909063E4151215E7F09B9
:102FA000192946464949493101017F01013F404005
:102FB000403F1F2040201F7F2018207F63140814EB
:102FC000630304780403615149454300007F414194
:102FD000020408102041417F000004020102044065
:102FE00040404040000102040020545454787F487F
:102FF0004444383844444420384444487F38545486
:103000005418087E090102081454543C7F08040433
:103010007800447D40002040443D00007F1028445B
:1030200000417F40007C041804787C080404783850
:10303000444444387C14141408081414187C7C0884
:103040000404084854545420043F4440203C404069
:10305000207C1C2040201C3C4030403C4428102850
:10306000440C5050503C4464544C440008364100D9
:1030700000007F0000004136080008082A1C0808EC
:103080001C2A0808000000000000000000000000EA
:103090000000000000000000000000000000000030
:1030A000FFFFFFFF00000000000000000000000024
:1030B00000000000FFFFFFFF000000000000000014
:1030C0000000FFFFFFFFFFFFFFFFFFFFFFFFFFFF0E
:1030D000FFFF0000FFFFFFFFFFFFFFFFFFFFFFFFFE
:1030E000FFFFFFFFFFFFFFFFFFFFFFFFFFFFFFFFF0
:1030F000FFFFFFFFFFFFFFFFFFFFFFFF00000000DC
:103100001F000000000000001F001F001F00000043
:1031100000001F001F001F00000000001F001F0014
:103120001F00000000001F001F001F0000001F0004
:103130001F001F001F001F001F001F001F001F0097
:103140001F00000000001FF8000000000000000049
:103150001FF800000000E007E007E007E007E007D5
:10316000E007E007E007E007E0070000E007E0070E
:10317000E00700000000E007E007E00700000000B3
:10318000E007E007E00700000000E007E007E007D5
:10319000000000000000E007000000000000000048
:1031A0000000000000F800F800000000000000002F
:1031B00000F800000000000000F800F80000000027
:1031C000000000F8000000F80000000000F800F81F
:1031D0000000000000F800000000000000F80000FF
:1031E00000F800F8000000F80000000000000000F7
:1031F000000000F800F800F800F8000000000000EF
:1032000000F800F800F800F800F800F800F800F8FE
:1032100000F800F800F800F800F800F800F800F8EE
:1032200000F800F800F800F800000000000000F8C6
:1032300000F800F800F800000000000000000000A6
:1032400000F8000000F800F8000000F8000000009E
:10325000000000F80000000000F800F80000000086
:1032600000F8000000F800000000000000F800F87E
:1032700000000000000000F8000000000000000056
:1032800000F800F80000000000000000000000004E
:10329000000000000000000000000000000000002E
:1032A00000000000000000001FF81FF800000000F0
:1032B000000000000000000000001FF81FF81FF8C9
:1032C0001FF800000000000000001FF81FF80000B9
:1032D0001FF81FF800001FF81FF8000000001FF87B
:1032E0001FF800001FF81FF800001FF81FF800006B
:1032F00000001FF81FF81FF81FF81FF81FF81FF82D
:103300001FF8000000001FF81FF81FF81FF81FF833
:103310001FF81FF81FF80000000000001FF81FF83A
:10332000000000001FF81FF800000000000000006F
:103330001FF81FF8000000001FF81FF80000000031
:1033400000001FF81FF800000000000000001FF838
:103350001FF800001FF81FF81FF800000000000011
:1033600000001FF81FF81FF8000000000000000018
:10337000000000000000000000000000003F7FFF90
:10338000003F7FFF000000001FF800000000E00782
:10339000E007E007E007E007E007E007E007E007F5
:1033A000E0070000E007E007E00700000000E0079A
:1033B000E007E00700000000E007E007E00700008A
:1033C0000000E007E007E007000000000000E00761
:1033D000000000000A3405150F0F3408040F0F45D4
:1033E00008040F1639050D0F1F3505110F2B340575
:1033F000110F21450C040F333406150F3934060420
:103400000F393C06040F394506040F3F3605070FF8
:103410003F3F05070F473405150F4C450A040F5968
:103420003405150F623405150F673408040F6F3427
:1034300005150F7D3505150C8D3505150C863503E5
:10344000150C823504020C893504020C95350515DE
:103450000CA43505150C9A3E0B040C9A350B020C86
:10346000AD3405150CB23D05030CB73704060CB797
:103470004104060CB74706030CB73407030CC234EB
:1034800005150CC7340A040CC7450A040CC73C0ACE
:10349000040CD43405150CD93406040CD93D0605AA
:1034A0000CDF36050A0CDE4206070C002A170A302C
:1034B000162A170A302D2A170A30442A170A305ABA
:1034C0002A170A30712A170A30882A170A309E2ACA
:1034D000170A30B52A170A30CC2A170A30E22A0D0B
:1034E0000A300049170A3C1749170A3C2D49170AA8
:1034F0003C4449170A3C5B49170A3C7149170A3C8E
:103500008849170A3C9F49170A3CB549170A3CCC21
:1035100049170A3CE3490D0A3C001F0F0C3F0018F5
:103520000C073F031707013F00150C013F12260748
:10353000043F141E04093F1513020A3F0413050239
:103540003F1C2417063F1F1C14083F1F1A0F023F81
:1035500023190B023F332305073F3416030D3F3871
:103560001913113F3D1807023F4B2109093F4D1820
:10357000050A3F4E1303043F54220D083F591F080C
:10358000033F612417063F621D0B073F6D210303B4
:103590003F702308023F722102023F7F1C040E3F4E
:1035A0008000021C3F882511053F8B210E043F99A6
:1035B0002809023F9A2607023F9D2401023FA221CB
:1035C000190A3FA61E11023FAB13080B3FAD1004B2
:1035D000043FBB2518053FC32110043FC313090E48
:1035E0003FD4221C083FDB2012033FDE1C03033FB5
:1035F000E31C06043FE21A08013FD51F02033F0007
:10360000530B10330063080733006A060833115365
:10361000040A331853040A33135D080A3315670488
:103620000A332A53070E3320621506333463090325
:10363000334453050F3341620A06333F68050833AC
:1036400049680508335953050833545B0604335061
:103650005F0A08335D5B0604335D5F0A0833715E01
:103660000501336D530D0B3372680309336F600925
:10367000083387530404338657070633835D0C11E0
:1036800033836E020233886E0302338C6E0302337F
:1036900098530A09339B5D0405339C61020A33A9E0
:1036A00057080C33AB53050433B753050E33B861D9
:1036B000030D33BF630A0733C15C060733C35302EC
:1036C0000933C06A010333C66A010333DC530518AA
:1036D00033D360080333D468080333E1650404334B
:1036E000E953062033000000000000000000000045
:1036F00000000000000000000000000000000000CA
:1037000000001FF81FF8000000000000000000008B
:10371000000000001FF81FF81FF81FF8000000004D
:10372000000000001FF81FF800001FF81FF800003D
:103730001FF81FF8000000001FF81FF800001FF816
:103740001FF800001FF81FF8000000001FF81FF806
:103750001FF81FF81FF81FF81FF81FF800000000DF
:103760001FF81FF81FF81FF81FF81FF81FF81FF8A1
:103770000000000000001FF81FF8000000001FF804
:103780001FF800000000000000001FF81FF80000F4
:1037900000001FF81FF80000000000001FF81FF8CD
:1037A00000000000000000001FF81FF800001FF8D4
:1037B0001FF81FF800000000000000001FF81FF8AD
:1037C0001FF80000000000000000000000000000E2
:1037D0000000000000000000000000000000FFFFEB
:1037E000FFFF000000000000000000000000FFFFDD
:1037F000FFFFFFFFFFFFFFFFFFFF000000000000D3
:10380000FFFFFFFF0000000000000000FFFFFFFFC0
:1038100000000000FFFF00000000000000000000AA
:103820000000FFFF00000000FFFFFFFFFFFFFFFFA2
:10383000FFFFFFFFFFFFFFFF00000000FFFFFFFF94
:10384000FFFFFFFFFFFFFFFFFFFFFFFF0000000084
:10385000000000000000FFFFFFFF0000000000006C
:1038600000000000FFFFFFFFFFFFFFFFFFFFFFFF64
:10387000FFFFFFFF00000000000008FA000000F852
:1038800000F8000008FA000000000000000008FA3C
:10389000000000F800F8000008FA00000000000036
:1038A00008FA000000F81FF81FF800F8000008FAF6
:1038B00000000000000000001FF81FF81FF81FF8AC
:1038C0000000000000000000000000000000FFFFFA
:1038D000FFFF000000000000000000000000FFFFEC
:1038E000FFFFFFFFFFFFFFFFFFFF000000000000E2
:1038F000FFFFFFFF0000000000000000FFFFFFFFD0
:1039000000000000FFFF00000000000000000000B9
:103910000000FFFF00000000FFFFFFFFFFFFFFFFB1
:10392000FFFFFFFFFFFFFFFF00000000FFFFFFFFA3
:10393000FFFFFFFFFFFFFFFFFFFFFFFF0000000093
:10394000000000000000FFFFFFFF0000000000007B
:1039500000000000FFFFFFFFFFFFFFFFFFFFFFFF73
:10396000FFFFFFFF00000000000008FA000000F861
:1039700000F8000008FA000000000000000008FA4B
:10398000000000F800F8000008FA0000000008FA43
:1039900008FA00000000000000000000000008FA23
:1039A00008FA000000000000000000000000000015
:1039B0000000000000000000000000000000000007
:1039C00051250008792500084743433A2028474EEF
:1039D0005520546F6F6C7320666F722041726D209A
:1039E000456D6265646465642050726F63657373CE
:1039F0006F727320382D323031382D71342D6D6156
:103A00006A6F722920382E322E312032303138310F
:103A1000323133202872656C6561736529205B67DC
:103A200063632D382D6272616E63682072657669FA
:103A300073696F6E203236373037345D00412B00AA
:103A400000006165616269000121000000053653D4
:103A50002D4D00060C074D09011204140115011724
:103A600003180119011A011E04412B0000006165B1
:103A70006162690001210000000536532D4D0006EA
:103A80000C074D090112041401150117031801193F
:103A9000011A011E04412B0000006165616269008A
:103AA00001210000000536532D4D00060C074D097D
:103AB000011204140115011703180119011A011E3E
:103AC00004412B0000006165616269000121000072
:103AD000000536532D4D00060C074D090112041444
:103AE0000115011703180119011A011E04412B00C9
:103AF0000000616561626900012100000005365324
:103B00002D4D00060C074D09011204140115011773
:103B100003180119011A011E04412B000000616500
:103B20006162690001210000000536532D4D000639
:103B30000C074D090112041401150117031801198E
:103B4000011A011E04412B000000616561626900D9
:103B500001210000000536532D4D00060C074D09CC
:103B6000011204140115011703180119011A011E8D
:103B700004412B00000061656162690001210000C1
:103B8000000536532D4D00060C074D090112041493
:103B90000115011703180119011A011E04412B0018
:103BA0000000616561626900012100000005365373
:103BB0002D4D00060C074D090112041401150117C3
:103BC00003180119011A011E04412B000000616550
:103BD0006162690001210000000536532D4D000689
:103BE0000C074D09011204140115011703180119DE
:103BF000011A011E04412B00000061656162690029
:103C000001210000000536532D4D00060C074D091B
:103C1000011204140115011703180119011A011EDC
:103C200004412B0000006165616269000121000010
:103C3000000536532D4D00060C074D0901120414E2
:103C40000115011703180119011A011E04412B0067
:103C500000006165616269000121000000053653C2
:103C60002D4D00060C074D09011204140115011712
:103C700003180119011A011E04412B00000061659F
:103C80006162690001210000000536532D4D0006D8
:103C90000C074D090112041401150117031801192D
:103CA000011A011E04412B00000061656162690078
:103CB00001210000000536532D4D00060C074D096B
:103CC000011204140115011703180119011A011E2C
:103CD00004411D000000616561626900011300007C
:103CE000000536532D4D00060C074D090119014101
:103CF0001D0000006165616269000113000000059C
:103D000036532D4D00060C074D09011901411D00C8
:103D1000000061656162690001130000000536530F
:0C3D20002D4D00060C074D090119010093
:103D2C004C6576656C0047414D45204F5645520019
:103D3C004669726520746F207265737461727400C9
:103D4C00564943544F525921004D43552047616CFD
:103D5C00616761004F6E6C792035206D69737369F2
:103D6C006C65730063616E20626520696E20666C01
:103D7C0069676874006174206F6E652074696D6585
:103D8C00005072657373204669726520666F7220ED
:103D9C004272696369005072657373204C65667476
:103DAC0020666F7220496E76616465727300507282
:103DBC0065737320526967687420666F722054654E
:103DCC006E6E697300507265737320446F776E204A
:103DDC00666F72204D6F6F6E206C616E6465720041
:103DEC004675656C3D00546865204561676C6520BF
:103DFC006861732063726173686564005468652040
:103E0C004561676C6520686173206D6973736564C7
:103E1C002100546865204561676C652068617320DA
:103E2C006C616E6465642100507265737320526915
:103E3C0067687420666F722061206E6577206761F9
:103E4C006D65005072657373204C65667420746FD9
:103E5C00206A6F696E20612067616D6500416E7923
:103E6C00206F74686572206B657920746F206361B4
:103E7C006E63656C005072657373204669726520C1
:103E8C00746F20736572766500596F752077696E53
:103E9C0021005072657373206669726520746F20FF
:093EAC00636F6E74696E756500A8
:103EB800F0B587B0FDF78CFF474C2000FCF7CFFE2C
:103EC80090234022DB05196844480A4380211A6080
:103ED8001A688A431A60FCF745FF06285BD000255C
:103EE80014270020FDF7C8FF8C233D4E00933A00AD
:103EF8003B003C49200002950196FCF7ECFD9B2312
:103F08001722009338493B00200002950196FCF7E0
:103F1800E2FDAA231622009334493B0020000295B3
:103F28000196FCF7D8FDB9230295009301963B0052
:103F38001A222F492000FCF7CEFDC92305932748F4
:103F4800FCF710FF642106002000FEF70AFE002E91
:103F580023D1059B013B0593002BF0D10120FDF7F0
:103F68008BFFF026002233001100200001950096F7
:103F7800FCF7CCFB0220FDF77FFFFA212000890027
:103F8800FEF7EFFD00220195009633001100200096
:103F9800FCF7BCFB13E0FDF759FF022E19D005D83A
:103FA800012EDBD10020FDF731FB08E0042E04D000
:103FB800102ED3D1FEF7A0F801E0FCF7F1FA07487C
:103FC800FCF7D0FE00288CD039002000FEF7C9FD90
:103FD800F5E7FEF75DFBF2E704000020280000206B
:103FE800FFFF00008D3D0008A23D0008BA3D000813
:043FF800D13D0008AF
:0400000508000000EF
:00000001FF
