:020000040800F2
:1000000000100020A1140008291500082915000877
:1000100029150008291500082915000829150008C8
:1000200029150008291500082915000829150008B8
:100030002915000829150008291500085D27000862
:100040002915000829150008291500082915000898
:100050002915000829150008291500086113000852
:100060002915000829150008291500082915000878
:100070002915000829150008291500082915000868
:100080002915000829150008291500082915000858
:100090002915000829150008291500082915000848
:1000A000291500082915000829150008451300081E
:1000B00029150008F0B50324B54D9BB00E900F91A3
:1000C0000993019513000094DC22002110A800F090
:1000D00099FA7822019500942300110015A800F0E8
:1000E00091FA00240A9514250F9B9C4209DA2800F6
:1000F00060430E9B013418180368E4B21B689847EC
:10010000F2E700230D9305330693013B0893A14CBE
:10011000E6220A21200000F035FD782281B215A8E0
:1001200002F058F902220021200000F02BFD0127E7
:10013000002800D1023F6B460A25197E0B01C91A1F
:1001400089B20C000F34A4B20F2C0BD0924BF031BB
:1001500089B2019300950A23E6228E4800F08AFABC
:100160002100EEE715A810AC00F026FA200000F000
:1001700023FA0023E626874D0A9A0293053301925B
:1001800086491A002800009600F059FC0023052239
:10019000089901930A9B511A009389B233003732B0
:1001A000280000F093FC01235B42079305947C48F0
:1001B00000F08EFD022318420DD0059B1A79998913
:1001C000F0239B1A994206DA059B0231DA8989B23B
:1001D000180002F0FFF8724800F07AFDC30709D555
:1001E000059B9989002905D00239DA8989B218005E
:1001F00002F0F0F815AB9A79D9895208521819799A
:100200009B894908C91892B289B2059802F00EF983
:1002100000280CD0079B5B425BB20793099B002B25
:1002200000D05DE11422C8215E4801F09FFF15ACAB
:10023000079BE289A189D218C91992B289B220001C
:1002400002F0C8F8A389022B0AD1099B7F427FB232
:10025000002B05D1C82114224900524801F086FF25
:1002600015AB9B89EE2B0AD1099B7F427FB2002BF5
:1002700005D1C821142249004A4801F077FF15AB87
:10028000DB89022B0CD1079B5B425BB20793099B76
:10029000002B05D1C82114224900424801F066FF15
:1002A000059B059ADB8992799B1815AAD28901339F
:1002B000934200DB81E0069C364D013CE4B263B220
:1002C0000693002B2BD1069A0193F0331100009373
:1002D000280000F0CFF9069B092202930A9B3249BD
:1002E00001936423280000933C3B00F0A8FB069B8D
:1002F0000F2202932D4B2E4901937823280000935F
:10030000703B00F09CFB0424254800F0E1FC2042F7
:1003100000D0E3E00A21280002F013FAF4E7642297
:100320000021280000F02EFC0127384200D1023FB6
:10033000184EE6220A21300000F024FC7822050045
:100340005A21300000F01EFCA9B282B215A802F0BA
:1003500041F80A250023A521019300957833E62270
:10036000300000F087F92101641AA4B226000F368C
:10037000B6B20F2E1ED0084BF034A1B201930095F7
:100380000A23E622034800F075F93400EEE7C04680
:10039000FFFF00000400002061F80000F8360008AC
:1003A0002800002024000020FE3600081FF800006E
:1003B0000837000801235B42079300230C930133A5
:1003C0000B930F9B0C9A934250DD142555430E9BC3
:1003D00015AE5D192B7CB1895A4253410B9A5B4291
:1003E0001A400B922800F28902F020F8041E1CD15A
:1003F000B189F289023189B2280002F017F8041E8F
:1004000013D1F289B189023292B2280002F00EF8BB
:10041000041E0AD1F289B1890232023192B289B244
:10042000280002F003F8041E1BD02B6828005B682C
:100430009847230002229343012B03D1079B5B4281
:100440005BB207930223023C9C4301D17F427FB2FF
:10045000099B002B05D1FA2114228900264801F0BE
:1004600085FE0C9B0133DBB20C93AAE70B9B012B9F
:1004700020D1089B002B1DDD013B15A8089300F03F
:10048000ADF80A9B00260193E62505231B4C1A00B4
:100490001B4920000296009500F0D1FA0523089A26
:1004A0000196991A0A9B89B200933C222B002000E6
:1004B00000F00CFB099B11480521002B01D1089B82
:1004C000591D02F03EF9059801F07CFF0B9B002BB3
:1004D00000D16CE6089B002B00DD18E61BB0F0BDD8
:1004E000084800F0F5FB0028F8D10D9B01330D936F
:1004F000092B00D89BE6F1E724000020040000202F
:10050000F836000828000020F0B5EF230024FBB0E7
:1005100001940093220021002348F02700F0AAF85C
:100520007F0002AEA019143400F088F83500BC42F8
:10053000F7D100240A271D4B21001E3401933000FF
:1005400000971E233222A4B200F086F81436F02C55
:10055000F1D100240A272AAE154B21001E34019345
:10056000300000971E233C22A4B200F075F8143628
:10057000F02CF1D100240A2752AE0E4B21001E347C
:100580000193300000971E234622A4B200F064F8C5
:100590001436F02CF1D100231E2218212800FFF779
:1005A00089FD7BB0F0BDC046040000201FFA0000AA
:1005B0001F420000E847000013B504008388C28989
:1005C0008189408A0190E0880090034800F052F849
:1005D0000123237413BDC0460400002013B5037C1F
:1005E0000400002B09D08388C289818900200190F2
:1005F000E0880090024800F03DF80023237413BD0A
:1006000004000020F7B504001E0008AB1D8809ABEC
:100610001F880091019201F0CDFE074B67820833DD
:10062000236000232374009BA680A381019BE580A7
:100630002000E381FEBDC0466C2A000810B504000E
:1006400001F0B8FE034B200008332360002323741D
:1006500010BDC0466C2A000830B504AD2D8803AC2F
:1006600045820025248805748380C4808181C281ED
:1006700030BDC04637B506AC07AD2D88248868303C
:100680000195009400F0FFFB37BDF0B58FB00292EA
:1006900014AA0D90019115888B4200D992E0029A1C
:1006A000934200D98EE0CA18F02A00DD8AE0029A4F
:1006B000D218F02A00DD85E05A1E5B000993012361
:1006C0000392099A06939A1A0893002300920793BB
:1006D000039B079A934275DB6B46019A9B890D9C9D
:1006E00004939B189BB20A936B46029A9B8B6834C7
:1006F0009F18BFB23A0005930A992B00200000F022
:1007000087FB019A059B20009B189BB20B93029AD2
:10071000049B0B999E18B6B232002B0000F078FBB8
:10072000059A019B20009B1A9BB20C9332002B0070
:100730000C9900F06DFB019B049A20009E1AB6B242
:100740003A0031002B0000F063FB029B059A310058
:100750009F1ABFB22B003A00200000F059FB029B09
:10076000049A0C999E1AB6B22B003200200000F0B9
:100770004FFB2B0032000B99200000F049FB2B00AF
:100780003A000A99200000F043FB009B002B0DDC8F
:10079000069A079B944601330793009B634400939A
:1007A000130002330693009B002B91DD039B099AF3
:1007B000013B0393089B023308939B1A009AD318BA
:1007C000009385E70FB0F0BDF0B587B01F000CAB0C
:1007D000049018880DAB1B8815000593831A01221D
:1007E0000C000292791A002B02DA023A2B1A0292BA
:1007F0005B0001935E1A4B000393A74210DB049841
:10080000AAB2A1B2059B683000F002FB002E03DD06
:10081000029BED18039BF61A019B0134F618ECE7D6
:1008200007B0F0BDF0B587B004900CA807880DA8FC
:1008300000880D00059001201400591ABA1A029080
:10084000002903DAE91A01235B4202934B0001936A
:100850009E1A53000393A74210DB0498A2B2A9B2D8
:10086000059B683000F0D4FA002E03DD029BED18E2
:10087000039BF61A019B0134F618ECE707B0F0BDB4
:10088000F7B51C0008AB1D8809AB1B88AE1A00D554
:10089000561B671A00D50F1B0193B7420BDD8C4224
:1008A00006D200920B002A002100FFF78DFFF7BD52
:1008B00000952300F9E7954206D200920B002A002A
:1008C0002100FFF7AFFFF2E700952300F9E7F0B54D
:1008D000160007000D0085B00AAA1488CB180BAAD1
:1008E00012889BB2029303920192029B32000096FF
:1008F000FFF7C6FF3419039BA4B2019332002B000B
:10090000290038000094FFF7BBFF039B32000193DE
:10091000029B380019000094FFF7B2FF039B00947C
:1009200001932200029B29003800FFF7A9FF05B0C0
:10093000F0BDF0B58FB0160014AA128807900D0014
:1009400008928B426AD8B34268D8CA18F02A65DC8C
:10095000F218F02A62DC5A1E5B000A93012302920D
:100960000A9A05939C1A099300230693029B069A00
:10097000934253DB6B461B8907980393EB1A9BB298
:100980000B936B461B8B0B9904939A19039B92B2A2
:100990005F19089BBFB2019300923B00FFF770FF05
:1009A000049B0798EB1A9BB20C93039B0C999A1922
:1009B000049B92B25B199BB20D93089B009201932A
:1009C0000D9BFFF75DFF049B0B99F21A089B92B2F7
:1009D000019300923B000798FFF752FF039B0C998D
:1009E000F21A089B92B2019300920D9B0798FFF7B1
:1009F00047FF002C08DC069B01330693059BE41897
:100A000002330593002CB1DD029B0A9A013B02934D
:100A1000099B023309939B1AE418A7E70FB0F0BDB6
:100A200010B5683000F0F4F910BD37B506AC248875
:100A3000079D68300195009400F0FAF937BDF0B5D4
:100A400000249DB01D0022AB1B880490079323ABAC
:100A50001B880591089324AB1B8806920993069B7B
:100A60009C422EDA0522059B0AA81B5D203B5343BE
:100A7000154A9B185A1D03921A780100029200220F
:100A8000029E012716413E4219D0089E01320E8077
:100A90000A31072AF4D10399013302308B42EBD19A
:100AA00004980AAB0193009229000523079A683045
:100AB0000735013400F0BCF9ADB2E4B2CFE7099ECE
:100AC000E4E71DB0F0BDC0467C2A0008F0B50D007B
:100AD0008BB0059310AB1B880600069311AB1B88E7
:100AE00028000A211700079301F0D0FE08AC30312E
:100AF000217128000A2101F043FE0A2180B201F091
:100B0000C5FE3031E1702800642101F039FE0A2170
:100B100080B201F0BBFE3031A170FA2128008900BB
:100B200001F02EFE0A2180B201F0B0FE303161707A
:100B30002800094901F024FE079B30302070029301
:100B4000069B05220193059B2100009330003B008A
:100B5000FFF775FF0BB0F0BD10270000084B1B68B6
:100B6000002B08D1C26E930FD10E594001235200C1
:100B70008B431343C366C06E400140097047C046B3
:100B80000000002070B50D001400FFF7E7FF611BA7
:100B900001F07CFE481970BD002370B50500C366E6
:100BA00001242E002436300000F0B4F8A040EB6E93
:100BB0000134C018E866112CF3D10028F0D03000C1
:100BC00000F074F870BD10B5040001F07FFD200046
:100BD0002100683000F07FF92000243000F014F884
:100BE0002000203001F0A4FA0649200001F08AFD1F
:100BF00020002100283000F019FB2000FFF7CCFF77
:100C000010BDC0463B2200088023244A9B00916906
:100C100010B50B4380219361214B09061869214CC3
:100C200008431861186920401861002098608020EE
:100C300040029862C024C220240480001C5098689E
:100C40000143996099680029FCDB07215961063945
:100C5000996080235169DB030B43536180230F2488
:100C600051699B020B4353610F4A3F201368A34312
:100C700013609023DB05196881431960D168A14393
:100C8000D1600521D4682143D160DA688243DA60FB
:100C90001522D9680A43DA6010BDC0460010024030
:100CA00000240140FFFFFFBF00140048C2210022C2
:100CB000044B89009A605A50034A044993690B40D7
:100CC000936170470024014000100240FFFDFFFFC8
:100CD00001220F4B18691B691040424250414000ED
:100CE0009B0701D4102318439023DB051A69D20710
:100CF00001D4042210431B699B0701D40823184325
:100D00009023DB051B695B0701D40123184370475F
:100D1000001400488022074B52029A62052299680B
:100D20000A439A60042299681142FCD0186C80B280
:100D30007047C046002401400221024A53698B4398
:100D400053617047000400480223024A51690B4373
:100D5000536170470004004890224021D205536936
:100D60008B435361704790224023D20551690B4356
:100D70005361704710B50C00FFF7DEFF200001F053
:100D80006DFA10BD10B50C00FFF7DEFF200001F07A
:100D900065FA10BDF7B504000F001E00150008AB82
:100DA0001B882A210193FFF7E5FF390A2000FFF78E
:100DB000E9FFF9B22000FFF7E5FF310A2000FFF755
:100DC000E1FFF1B22000FFF7DDFF20002B21FFF74C
:100DD000D1FF290A2000FFF7D5FFE9B22000FFF775
:100DE000D1FF019B2000190AFFF7CCFF6B462000C2
:100DF0001979FFF7C7FF2C212000FFF7BBFFF7BDD4
:100E000010B50C00FFF7A0FF200001F07DFA10BD27
:100E100037B504001D00501C4B1C80B29BB20090E3
:100E20002000FFF7B7FF29002000FFF7E9FF37BDDB
:100E3000F0B51F00002485B00AAB1B880290039315
:100E400003987B1E01381018CB1880B29BB200901B
:100E50000298FFF79FFF0B9B7F00DD19039B9C42CD
:100E60000FD00B9EAE4205D031880298FFF7C8FF25
:100E70000236F7E70B9B0134DB190B93A4B2ED1993
:100E8000ECE705B0F0BDF0B51F00060085B00AAB79
:100E90001B880024029302980BAB1B880138039334
:100EA00010187B1ECB1880B200909BB23000FFF769
:100EB00071FF029B9C420CD00025BD4206D00399D5
:100EC00030000135FFF79CFFADB2F6E70134A4B264
:100ED000EFE705B0F0BD8022414B73B50D005969B5
:100EE00092020A435A6190228021D20504001068C0
:100EF00049010143116011683A4808260140116018
:100F000080225969D2020A435A610422364B2000DA
:100F100019680A431A601A68B2431A60FFF723FF80
:100F20002800192101F00DFC2000FFF715FF280013
:100F3000192101F006FC2000FFF715FF28001921F8
:100F400001F0FFFB20000121FFF714FF280096218C
:100F500001F0F7FB20001121FFF70CFF28001921F9
:100F600001F0EFFB20003A21FFF704FF200055219C
:100F7000FFF708FF2800192101F0E3FB20003621CC
:100F8000FFF7F8FE31002000FFF7FCFE28001921D2
:100F900001F0D7FB20005121FFF7ECFE28001921BA
:100FA00001F0CFFB20002121FFF7E4FE20001321F8
:100FB000FFF7E0FE20002921FFF7DCFE28001921C1
:100FC00001F0BFFB20002C21FFF7D4FE0021F0230D
:100FD000019100930A002000FFF755FF73BDC04642
:100FE00000100240FFDFFFFF0004004800207047B0
:100FF000002089188A4204D013780132C018C0B288
:10100000F8E77047012070479023DB055A690449CF
:101010000A405A618022196852030A431A607047D5
:10102000FFFBFFFF9022D205136802490B401360BB
:101030007047C046FFFFEFFF9023DB0518694005AE
:10104000C00F704703002D331B78022B02D0002302
:101050000363C363704713B5FF236A4613700379B4
:1010600003215370802304009370FFF7C1FF6B4688
:10107000D8702000FFF7C8FF00234021064A6846C9
:10108000C05C9062D0690842FCD00133042BF6D1D9
:101090002000FFF7C7FF13BD0038014070B5050001
:1010A0002D352B780400032B3DD0036B002B12D081
:1010B00001222A70036B4379FF2B23D1C3799B064E
:1010C00007D5827903799A4203D1FFF7C4FF002341
:1010D000236300232B70A36B002B24D0022320005A
:1010E0002B70FFF791FF2100002340200E4A18319A
:1010F000666B9E4211D90133CE5C9662D669064278
:10110000FCD0F5E701799942E3D190210823C90584
:10111000486903434B61E263DBE700262000A663D6
:10112000FFF780FF2E7070BD0038014070B50400DD
:101130000E2B1BD81A43C276020000254176017996
:101140001C3281769D4204D00499495D5155013588
:10115000F8E72200E91CC9B219322000FFF748FF66
:1011600063191877012304356563A3632000FFF733
:1011700063FF002802D02000FFF790FF002070BD21
:10118000F7B5070003232D373B700023040001ADA2
:10119000C363FF332B70DF3BAB70DE3323712379E6
:1011A000002B16D02A00032120006B70FA26FFF7CF
:1011B0001FFF7600E8702000FFF73EFF002805D1F2
:1011C00001212068013E01F0BCFAF4E7002E03D1B2
:1011D000267100233B70F7BD2000FFF715FF0023A9
:1011E000114AE95C91624020D1690142FBD0013390
:1011F000042BF6D12000FFF715FF002314262363EC
:10120000236B032B06D802212068013E01F099FAD6
:10121000002EF5D1236B032BDBD9E3797F2BBED9CD
:101220002379013BBAE7C04600380140304B020049
:1012300070B518600023016080212D320363C36301
:10124000836313702B4A03710400506989020143C0
:10125000516180219069C90101439161D16826489B
:10126000264D0140D1606B600833AB60244BC02237
:10127000EB609023DB055968D2000A435A60A02234
:10128000D96852030A43DA60DA681E4920000A402E
:10129000DA608022196812030A431A601A681A4930
:1012A0000A40F0211A605A6A8A435A621022596A27
:1012B0000A435A62FFF7B6FE2D232B6080231349A1
:1012C0001B050A68134380220B60114BD20018687B
:1012D00010431860986810439860D8680243DA6039
:1012E00080230A68200013430B60FFF749FF70BD9D
:1012F0007400002000100240FFBFFFFF00380140D3
:1013000088130000FFFFD7FFFFFFCBFF00E100E0E5
:1013100000040140094B0A495A6A196203002D333F
:101320001B78022B08D0036B132B05D8036BC31853
:101330005A71036B013303637047C04600380140A4
:10134000D8106000044B10B5DB699B0603D5034B36
:101350001868FFF7DFFF10BD00380140740000205F
:101360008023084ADB0010B553619022D20506495C
:10137000126908681A4202D0FFF790FE10BDFFF70D
:1013800061FEFBE7000401407400002080B500AF5F
:10139000234B1A68224B23490A401A60204B1A68D3
:1013A00080239B0413405A1E9341DBB2002B00D0D4
:1013B000F4E71D4B1A681C4B01210A431A601A4BB3
:1013C0001A68194B06218A431A60174B1A68164B84
:1013D00010210A431A60124B5A68114B13490A40F4
:1013E0005A600F4B5A680E4BA02189030A435A607A
:1013F0000B4B5A680A4B8021C9010A435A60084BBB
:101400001A68074B802149040A431A60044B5A6842
:10141000034B02210A435A60C046BD4680BDC04608
:1014200000100240FFFFFFFE00200240FFFFC3FF4D
:1014300080B582B000AF164A164BD31A9B103B60A2
:1014400000237B607A683B689A4208D2114B7A6825
:101450009200D35898477B6801337B60F2E70E4ACD
:101460000E4BD31A9B103B6000237B607A683B686D
:101470009A4208D2094B7A689200D35898477B6801
:1014800001337B60F2E7C046BD4602B080BDC04676
:101490006C2A00086C2A00086C2A00086C2A0008D4
:1014A00080B584B000AFFFF771FF1A4BFB601A4B99
:1014B000BB601A4A184BD31A7B607B685A1E7A604D
:1014C0005A1E9341DBB2002B08D0FA68531CFB6014
:1014D000BB68591CB96012781A70EEE7104BBB60FC
:1014E000104A0F4BD31A7B607B685A1E7A605A1ED3
:1014F0009341DBB2002B05D0BB685A1CBA600022B6
:101500001A70F1E7FFF794FF02F07AF9C046BD4682
:1015100004B080BD18390008000000200000002041
:10152000000000208800002080B500AFFEE7C04624
:1015300010B50748FFF7CCFB04231840054B04D037
:1015400000201A68824201D10130186010BDC046E7
:10155000280000207800002006398BB20C2130B51D
:1015600089B001910538023982B2009103A810496F
:1015700000F00EFF03A800F0E3FEFA210D4D322229
:101580002800C90000F0F2FD0B4C3221200001F0D0
:10159000D8F8FA2132222800490000F0E7FD322174
:1015A000200001F0CEF803A800F0DEFE09B030BD47
:1015B000742D00082400002004000020F0B59A4C8F
:1015C0000C26A54403230A24984D1A0029000E90E6
:1015D0000196009430A800F0DBFE29000196032359
:1015E0001722009435A800F0D3FE290001960323AA
:1015F0002B2200943AA800F0CBFE29000196032389
:101600003F2200943FA800F0C3FE29000196032367
:101610005322009444A800F0BBFE29000196032346
:101620006722009449A800F0B3FE29000196032325
:101630007B2200944EA800F0ABFE29000196032304
:101640008F22009453A800F0A3FE290001960323E3
:10165000A322009458A800F09BFE290001960323C2
:10166000B72200945DA800F093FE0623704E01930C
:101670003100CC337822009412A80527082500F009
:1016800087FE002378361A0031000195009717A8CD
:1016900000F07EFE002331001A00019500971CA87F
:1016A00000F076FE002331001A000195009721A872
:1016B00000F06EFE002331001A000195009726A865
:1016C00000F066FE002331001A00019500972BA858
:1016D00000F05EFE0023574E1A0048363100019597
:1016E000009762A800F054FE002331001A00019513
:1016F000009767A800F04CFE002331001A00019506
:1017000000976CA800F044FE002331001A000195F8
:10171000009771A800F03CFE002331001A000195EB
:10172000009776A800F034FE002331001A000195DE
:1017300000977BA800F02CFE002331001A000195D1
:10174000009780A800F024FE002331001A000195C4
:10175000009785A800F01CFE002331001A000195B7
:1017600000978AA800F014FE002331001A000195AA
:1017700000978FA800F00CFE0025F0232E4E00935A
:101780002A00290030000195FEF774FF2B4B220040
:10179000019328232A490093300023000295FFF784
:1017A0004EF9264B0F2201933C232649009330002B
:1017B00023000295FFF743F9204B10220193502399
:1017C00021490093300023000295FFF738F91B4BA5
:1017D0000B22019364231D490093300023000295DE
:1017E000FFF72DF9FA213000890000F0AAFF062347
:1017F0000693053B0A93114B05970793023F00247C
:10180000F02301940093220021000B48FEF732FFE1
:1018100030AD069B9C421BDA2B6828001B6898475A
:1018200001341435F5E7C046ACFDFFFF642E000817
:101830005C2C0008DC2C000804000020FFFF0000E6
:1018400018370008233700083337000844370008EA
:101850003A00002130A800F0BDFD3A000F2135A864
:1018600000F0B8FD3A001E213AA800F0B3FD3A009E
:101870002D213FA800F0AEFD3A003C2144A800F025
:10188000A9FD3A004B2149A800F0A4FD3A005A21D5
:101890004EA800F09FFD3A00692153A800F09AFD80
:1018A0003A00782158A800F095FD3A0087215DA8FC
:1018B00000F090FD002562AC236820005B680135D4
:1018C000984714340A2DF7D1002417AD2B6828004F
:1018D0005B68013498471435052CF7D1079B002627
:1018E0000193E623A04D2200029600939F49230016
:1018F0002800FFF7A4F86B461B8B3C220B93591F63
:10190000079B0196009389B2E6232800FFF7DEF8D3
:10191000059C0A362101611A954DF03189B2019575
:1019200000960A23E6229048013CFEF7A3FE11959B
:10193000002CEFD112A800F003FD0223099312A896
:1019400000F040FD0E9B002B00D076E08948FFF7A9
:10195000BFF90223184200D079E08648FFF7B8F9B2
:101960000123184209D00EAB998B012905D9023900
:10197000DA8B89B212A800F02DFDFFF7D9FD0028FF
:1019800032D017AC237C002B16D029230EAA9B182B
:10199000DB7F002B00D166E025AB1B78002B00D14C
:1019A00064E02AAB1B78002B00D162E02FAB1B78E0
:1019B000002B19D12BAC04331422534317AA9B5884
:1019C00020001B68984712ABA179DA894908521A9E
:1019D00019799B894908CB18217992B24908591A7B
:1019E00089B2200000F0F6FC30AE17ACE289237C0F
:1019F000002A41D0002B41D0023A92B2A1892000A6
:101A000000F0E8FC62AB089330ADE289A1892800C0
:101A100000F0F4FC00280BD02B6828005B68984786
:101A2000236820005B689847E189A089FFF794FD4F
:101A3000089B14359D42E8D120E04E48FFF748F955
:101A4000002800D182E795239B009D44F0BD0EAB9A
:101A5000998BE42900D980E70231DA8B89B212A888
:101A600000F0B8FC79E71CAC0123A5E721AC022308
:101A7000A2E726AC3B009FE7002B63D11434A642BB
:101A8000B4D10A2694AB089362ACE289237CDB2AAA
:101A90005DD8002B5ED0023292B2A189200000F006
:101AA00099FCA279E38952082179D218A3894908BF
:101AB000C91892B289B212A800F0A0FC002800D187
:101AC0007DE012A800F050FC0EABD98B988BFFF78D
:101AD00043FD059B2000013BDBB2059323685B6857
:101AE0009847059B204D002B4CD1059A0193F0336C
:101AF000110000932800FEF7BDFD059B092202930B
:101B0000079B1D4901936423280000933C3BFEF78B
:101B100096FF059B0F220293184B194901937823D6
:101B200028000093703BFEF78AFF0E9B002B00D02D
:101B300089E7FFF7FDFC002811D10A21280000F0F9
:101B400000FEF6E7236820005B68984796E7002BC5
:101B500000D0F4E0002E32D0013EF6B22FE0FFF7C5
:101B6000E7FC0028FBD16EE704000020F8360008EF
:101B700061F8000028000020FE3600081FF8000071
:101B80000837000812A800F0DBFB002301930A339A
:101B9000009328006E33E622A521FEF76BFD059D1C
:101BA000119B290101930A23691AF03189B200932C
:101BB000E6226848013DFEF75DFD002DF0D1089B4F
:101BC00014349C4200D060E762AB0F9300230125E0
:101BD00030AC0C930893237C002B51D0069B9E4283
:101BE00031DA8FAB109362AD00222B7C0D929342C1
:101BF00022D1323200215748FEF7C4FF00281BD102
:101C00002B6828001B6898478E230EAA9B181A7809
:101C1000E3895208D21831AB1B78A1895B08CB1A33
:101C2000217992B24908C91889B2280000F0D2FB84
:101C300001230136F6B20D93109B9D4203D00D9BFC
:101C40001435002BD0D00A9BE289A1899A18099BF0
:101C500092B2591889B2200000F0BCFBF021237920
:101C6000A289CB1A9A4201DB01230893002A01D1F1
:101C700001230893E38900258C2B01D901230C93C0
:101C80000F9B1434A342A6D1089B002B03D0099BC1
:101C90005B429BB209930C9B002B03D00A9B5B42D7
:101CA0009BB20A932B4C0F21200000F04AFD002D1F
:101CB00000D144E6079B00250193E6230093E13B16
:101CC0001A00254920000295FEF7B9FE0B99079BE3
:101CD0000439009389B2E62301953C222000FEF7E7
:101CE000F5FE069B013306930A2B00D087E5FC2600
:101CF000E633F6002A002900009320000196FEF743
:101D0000B9FC6423154D009308223C3B1449200084
:101D100002960195FEF793FE7823029600930195B3
:101D2000703B0F220F492000FEF789FEFFF700FCF1
:101D3000002809D10A21074800F003FDF6E72368CF
:101D400020005B68984705E7FFF7F2FB0028FBD10E
:101D500079E6C04604000020F83600081FF80000AD
:101D6000503700080837000880220B4BD20359690E
:101D700010B50A4301215A61084A10680143022044
:101D800011601168814311608022596992020A43EF
:101D90005A6100F07FFA10BD0010024000140048A4
:101DA00080230E4A9B0091690B43936100220C4BE8
:101DB000C0219A60802252029A62C22209049200D3
:101DC00099508022996812060A439A609A68002AFC
:101DD000FCDB07225A61063A9A6070470010024005
:101DE00000240140F0B587B00024EF23284D009374
:101DF0002200210028000194FEF73CFC0A23254E16
:101E00000093019623000E22234928000294FEF736
:101E100016FE2248FEF75CFF1427010000962800FA
:101E200001940A238222FEF751FE230001960097B7
:101E30002800029406221A49FEF701FE21006422BE
:101E40002800FEF79FFE009681B23B002800019417
:101E50008222FEF73BFE134F134B05AE3380220068
:101E600000960223FE213800FFF760F902232200CA
:101E70000096FD213800FFF759F9FA21C8224900E0
:101E80000A4800F073F96421280000F05AFCABE71F
:101E900004000020FFFF0000593700082800002040
:101EA000683700082C000020AA55000024000020FC
:101EB000F0B506000025954CA54413AC2819FEF793
:101EC000BDFB934B14359D42F7D10025F0230195BE
:101ED00000932A0029008F480895FEF7CBFB08994C
:101EE0008D4A0898515C1018407805910490142090
:101EF0006843011906910321FC20089F089BD7190C
:101F00000293089BBF78D3181B790397834F19401E
:101F1000795CC000C9000140079103219810084076
:101F20007F491B11085C0799C0100143032003403F
:101F3000FB181879029BC008D218D378C00201435D
:101F400001910093049A039B05990698FEF784FB80
:101F5000089B0135053308939D2DC0D1002E0AD171
:101F6000236820001B680136984714349D2EF7D152
:101F70006C4B9D44F0BD012E0FD10025236820003D
:101F80001B680135984714349D2DF7D10123F022A9
:101F9000290013A8FEF78EF8EAE7022EE8D10C23F9
:101FA0000193023B0093073B1A005F4909A800F028
:101FB000EFF908230193033B009339000023083114
:101FC0001A000EA800F0E4F909A800F0B9F906AB70
:101FD000C82200214F481D8BFEF7D4FD06AB2D18FB
:101FE000A9B25A8B09A800F0F5F925000026EA8964
:101FF000A9897832280092B200F0ECF92B68280009
:102000001B680136984714359D2EF0D1FA2301271D
:102010001B0103939B3E4548FEF75AFE0028A7D1BB
:1020200009ADEA89A989D219891992B289B2280021
:1020300000F0D0F9A989AB880122002906D0EF323F
:10204000DBB2D31AD80FCA1799424241EB89642BED
:1020500057D8002A00D076420EAD2B7C002B3DD005
:102060002B79AA895B089B189BB20493AB79EA8908
:102070005B089B189BB205930023250002932B7CE1
:10208000002B0DD0059A0499280000F0B7F900281C
:1020900006D02B6828005B6898470EA800F064F90A
:1020A000029B1435013302939D2BE8D10EADEA89D2
:1020B000A989023292B2280000F08CF9EB89F02B4A
:1020C00002D9280000F050F90A21124800F039FB2B
:1020D000039B013B0393002B9DD149E7280000F0AF
:1020E0002FF909A801792B79C289808949085B08F1
:1020F00009189A18C91A92B289B2280000F06AF930
:10210000E2E7002A00D076427F42A5E76CF3FFFFAA
:10211000440C000004000020AC2F0008542F0008DD
:10212000582F0008940C0000BE3200082800002040
:1021300080220B4B520018600A4BD9690A43DA61BE
:102140008022596992020A435A610022064B1A60A2
:1021500060329A61196A5F3A0A431A627047C04650
:102160007C0000200010024000200040F8B59023C1
:10217000DB050E00150017491A6801270A401A608E
:102180008022196892000A431A601A6A1249134C95
:102190000A401A628022196AD2020A431A6223682C
:1021A0000F48BB432360B7239B00A362A16A00F0E2
:1021B000E7FA310000F0E4FAE062E36AFB406363AF
:1021C0000023636223681F43064B27601B681D6062
:1021D000F8BDC046FFFEFFFFFFFFF4FF00200040F8
:1021E000006CDC027C0000200121054A13688B434F
:1021F00013609022D205136802490B4013607047A8
:1022000000040040FFFCFFFF0068431E9841704738
:10221000F7B505000E00170000240193019B9C42B6
:102220000ADA2B68002BFCD16300FA5AF15A280015
:10223000FFF79CFF0134F1E7F7BD074B10B51B68B2
:102240001A68002A07D01A68013A1A601B68002B26
:1022500001D1FFF7C9FF10BD7C0000200A4A30B54C
:1022600011008024094B9568254202D0013B002BC8
:10227000F9D18022064B1870044B8C68144202D0AE
:10228000013B002BF9D130BD0030014041420F002D
:102290000C3001408022174B5201996910B50A4356
:1022A0009A61C0225969D2020A435A619023DB0520
:1022B0001A68114920240A401A60882219681202FB
:1022C0000A431A601A6A0D490A401A62CC229968B8
:1022D00012020A439A600A4B9A680A4A1A60E0227C
:1022E000D2005A600020013CFFF7B8FF002CF9D162
:1022F00010BDC04600100240FFBBFFFFFFFF0F0FE5
:1023000000300140460300000B4930B50B0080242B
:102310000A4A8D68254202D0013A002AF9D180216B
:10232000064AD8609868084202D0013A002AF9D1DA
:10233000D86880B230BDC0460030014041420F0035
:1023400013B5037C0400002B09D18388C2898189DD
:1023500080680190E08800900248FEF766FB012348
:10236000237413BD0400002013B5037C0400002B6C
:1023700009D08388C289818900200190E08800907B
:102380000248FEF777F90023237413BD04000020F0
:10239000C381002370B504AC268805AC2588044CA5
:1023A00086800834C580046082818160037470BDBA
:1023B000B0330008024B08330360002303747047F6
:1023C000B0330008037C10B5002B02D003681B68F3
:1023D000984710BD70B5037C04000E001500002B5B
:1023E00009D003685B6898472368A681E5811B686C
:1023F0002000984770BDA181E281FBE730B5047CE5
:10240000231E11D0858900238D420DD8848864193C
:10241000A14209DAC489944206D8C1880123091966
:102420008A4200DB00239BB2180030BD70B5047CEB
:10243000231E26D0C5898689954206D1B14204D390
:1024400084880123A419A1421BDBC4886419B1420A
:1024500004D1954202D80223944212DC8088631E84
:102460008019934204D1B14202D30323884208DC8D
:1024700001380023884204D1954202D8944200DDFD
:102480000433180070BDC046F0B5F02300240A26BE
:102490008FB0844D00932200210083480194FEF701
:1024A000E9F833001A2281497F4802940195009689
:1024B000FEF7C5FA1E23192200937D4933007A489E
:1024C00002940195FEF7BBFA322302940093019522
:1024D0003300172277497448FEF7B1FA7648FEF7C1
:1024E000F7FB32210400704800F02BF9002CF5D0E6
:1024F000022C03D0012C02D00FB0F0BD0024142315
:1025000004AF0093B922113BC82101953800FEF7B2
:1025100079F86A4B7822019303231100009309A8EC
:10252000FEF770F83800FEF747F8002C02D109A832
:10253000FEF742F81425624EF02301962A0000218E
:1025400059480095FEF79CF90196DC26F023009689
:10255000320000215448FEF793F9002C00D084E0AB
:10256000584B2A00019321002300009601274E4872
:10257000FEF786F93E0009ACE289A189D2198919D2
:1025800092B289B22000FFF725FFA389C82B04D996
:10259000002220001100FFF71DFFA279E3895208F5
:1025A000D218FF23A18804AD1940A38992B2C9189B
:1025B00089B22800FFF73AFF002862D0A779E389A3
:1025C0007F08FB18AF79EA897F08BF18DF1BFB0F74
:1025D000DF1976427F101422C8213B4876B27FB2C1
:1025E000FFF7C4FDE389A2799918DB2902DC9B1A65
:1025F000142B01D87F427FB2A389002B01D17642F0
:1026000076B2227952089B1AC82B06D97822012764
:1026100011002000FFF7DEFE3E002748FEF758FBC2
:1026200004AD030708D5EA89002A05D0013A92B221
:10263000A9892800FFF7CEFE1F48FEF749FBC30615
:102640000BD5EF23A979EA895B1A9A4205DC01329E
:1026500092B2A9892800FFF7BDFE2800FFF7B2FE5D
:102660000521114800F06DF886E7FA892821380025
:10267000FFF7B0FE134B00960193EF232A001900D9
:1026800074E7FF21A279E3895208D218A38892B295
:102690000B40A1892800C91A89B2FFF7C7FE00289C
:1026A0008CD19FE7FFFF000004000020B337000833
:1026B000CE370008E8370008280000201FFA000085
:1026C00008FA000010A50000240000200A4B072291
:1026D00018600023036043608360C360036143614B
:1026E0008361C361054B19680A431A60044A5A6042
:1026F00005229A6062B670478000002010E000E07A
:102700007FBB0000002210B594000359002B02D1BA
:102710002150180010BD0132082AF5D10120404295
:10272000F8E7002310B59A0084588C4203D10023A7
:102730001350180010BD0133082BF4D10120404282
:10274000F8E7002907D00022034B5A605A688A42F2
:1027500001D230BFFAE770478000002070B5002436
:10276000064D6B6801336B602A68A3009B58002BF1
:1027700000D098470134082CF6D170BD80000020AD
:10278000002243088B4274D303098B425FD3030AB0
:102790008B4244D3030B8B4228D3030C8B420DD3C3
:1027A000FF22090212BA030C8B4202D31212090251
:1027B00065D0030B8B4219D300E0090AC30B8B428F
:1027C00001D3CB03C01A5241830B8B4201D38B033D
:1027D000C01A5241430B8B4201D34B03C01A5241E2
:1027E000030B8B4201D30B03C01A5241C30A8B4225
:1027F00001D3CB02C01A5241830A8B4201D38B0210
:10280000C01A5241430A8B4201D34B02C01A5241B3
:10281000030A8B4201D30B02C01A5241CDD2C30925
:102820008B4201D3CB01C01A524183098B4201D3A1
:102830008B01C01A524143098B4201D34B01C01A8C
:10284000524103098B4201D30B01C01A5241C30804
:102850008B4201D3CB00C01A524183088B4201D373
:102860008B00C01A524143088B4201D34B00C01A5F
:102870005241411A00D20146524110467047FFE7CB
:1028800001B5002000F0F0F802BDC0460029F7D0E5
:1028900076E7704703460B437FD4002243088B4200
:1028A00074D303098B425FD3030A8B4244D3030BD7
:1028B0008B4228D3030C8B420DD3FF22090212BA9C
:1028C000030C8B4202D31212090265D0030B8B4218
:1028D00019D300E0090AC30B8B4201D3CB03C01A02
:1028E0005241830B8B4201D38B03C01A5241430BDD
:1028F0008B4201D34B03C01A5241030B8B4201D3CD
:102900000B03C01A5241C30A8B4201D3CB02C01A37
:102910005241830A8B4201D38B02C01A5241430AAF
:102920008B4201D34B02C01A5241030A8B4201D39E
:102930000B02C01A5241CDD2C3098B4201D3CB0145
:10294000C01A524183098B4201D38B01C01A5241F4
:1029500043098B4201D34B01C01A524103098B42F8
:1029600001D30B01C01A5241C3088B4201D3CB00E3
:10297000C01A524183088B4201D38B00C01A5241C6
:1029800043088B4201D34B00C01A5241411A00D276
:1029900001465241104670475DE0CA0F00D04942DF
:1029A000031000D34042534000229C4603098B424F
:1029B0002DD3030A8B4212D3FC22890112BA030AD7
:1029C0008B420CD3890192118B4208D38901921159
:1029D0008B4204D389013AD0921100E08909C309DE
:1029E0008B4201D3CB01C01A524183098B4201D3E0
:1029F0008B01C01A524143098B4201D34B01C01ACB
:102A0000524103098B4201D30B01C01A5241C30842
:102A10008B4201D3CB00C01A524183088B4201D3B1
:102A20008B00C01A5241D9D243088B4201D34B00CC
:102A3000C01A5241411A00D20146634652415B100E
:102A4000104601D34042002B00D5494270476346EF
:102A50005B1000D3404201B5002000F005F802BD34
:102A60000029F8D016E770477047C0460000000004
:102A700000000000B9050008DD05000800000000A6
:102A80000000005F00000007000700147F147F149F
:102A9000242A7F2A122313086462364955225000E3
:102AA00005030000001C2241000041221C00082AEE
:102AB0001C2A0808083E08080050300000080808D2
:102AC0000808006060000020100804023E514945DB
:102AD0003E00427F400042615149462141454B3111
:102AE0001814127F1027454545393C4A49493001A1
:102AF000710905033649494936064949291E0036F8
:102B00003600000056360000000814224114141448
:102B10001414412214080002015109063249794176
:102B20003E7E1111117E7F494949363E4141412285
:102B30007F4141221C7F494949417F090901013EEA
:102B4000414151327F0808087F00417F4100204009
:102B5000413F017F081422417F404040407F0204F2
:102B6000027F7F0408107F3E4141413E7F090909F1
:102B7000063E4151215E7F0919294646494949319E
:102B800001017F01013F4040403F1F2040201F7F47
:102B90002018207F63140814630304780403615130
:102BA00049454300007F4141020408102041417F14
:102BB00000000402010204404040404000010204C1
:102BC0000020545454787F484444383844444420C6
:102BD000384444487F3854545418087E0901020888
:102BE0001454543C7F0804047800447D4000204085
:102BF000443D00007F10284400417F40007C0418C1
:102C000004787C0804047838444444387C14141450
:102C100008081414187C7C080404084854545420F0
:102C2000043F4440203C4040207C1C2040201C3C71
:102C30004030403C44281028440C5050503C4464E0
:102C4000544C44000836410000007F00000041362B
:102C5000080008082A1C08081C2A080800000000B0
:102C60000000000000000000000000000000000064
:102C70000000000000000000FFFFFFFF0000000058
:102C8000000000000000000000000000FFFFFFFF48
:102C900000000000000000000000FFFFFFFFFFFF3A
:102CA000FFFFFFFFFFFFFFFFFFFF0000FFFFFFFF32
:102CB000FFFFFFFFFFFFFFFFFFFFFFFFFFFFFFFF24
:102CC000FFFFFFFFFFFFFFFFFFFFFFFFFFFFFFFF14
:102CD000FFFFFFFF000000001F00000000000000D9
:102CE0001F001F001F00000000001F001F001F002A
:102CF000000000001F001F001F00000000001F0058
:102D00001F001F0000001F001F001F001F001F00EA
:102D10001F001F001F001F001F00000000001FF801
:102D200000000000000000001FF800000000E007A5
:102D3000E007E007E007E007E007E007E007E0075B
:102D4000E0070000E007E007E00700000000E00700
:102D5000E007E00700000000E007E007E0070000F0
:102D60000000E007E007E007000000000000E007C7
:102D700000000000000000000000000000F800F863
:102D8000000000000000000000F80000000000004B
:102D900000F800F800000000000000F8000000F853
:102DA0000000000000F800F80000000000F800003B
:102DB0000000000000F8000000F800F8000000F833
:102DC0000000000000000000000000F800F800F81B
:102DD00000F800000000000000F800F800F800F81B
:102DE00000F800F800F800F800F800F800F800F823
:102DF00000F800F800F800F800F800F800F800F813
:102E000000000000000000F800F800F800F80000E2
:102E1000000000000000000000F8000000F800F8CA
:102E2000000000F800000000000000F800000000B2
:102E300000F800F80000000000F8000000F80000B2
:102E40000000000000F800F800000000000000F89A
:102E5000000000000000000000F800F80000000082
:102E60000000000000000000000000000000000062
:102E70000000000000000000000000000000000052
:102E80001FF81FF800000000000000000000000014
:102E900000001FF81FF81FF81FF8000000000000D6
:102EA00000001FF81FF800001FF81FF800001FF8AF
:102EB0001FF8000000001FF81FF800001FF81FF89F
:102EC00000001FF81FF8000000001FF81FF81FF88F
:102ED0001FF81FF81FF81FF81FF8000000001FF868
:102EE0001FF81FF81FF81FF81FF81FF81FF8000041
:102EF000000000001FF81FF8000000001FF81FF876
:102F000000000000000000001FF81FF80000000093
:102F10001FF81FF80000000000001FF81FF8000055
:102F20000000000000001FF81FF800001FF81FF845
:102F30001FF800000000000000001FF81FF81FF835
:102F40000000000000000000000000000000000081
:102F500000000000003F7FFF003F7FFF00000000F7
:102F60001FF800000000E007E007E007E007E007C7
:102F7000E007E007E007E007E0070000E007E00700
:102F8000E00700000000E007E007E00700000000A5
:102F9000E007E007E00700000000E007E007E007C7
:102FA000000000000000E007000000000A340515E2
:102FB0000F0F3408040F0F4508040F1639050D0FC5
:102FC0001F3505110F2B3405110F21450C040F334C
:102FD0003406150F393406040F393C06040F394501
:102FE00006040F3F3605070F3F3F05070F4734051F
:102FF000150F4C450A040F593405150F6234051599
:103000000F673408040F6F3405150F7D3505150C57
:103010008D3505150C863503150C823504020C8997
:103020003504020C953505150CA43505150C9A3E92
:103030000B040C9A350B020CAD3405150CB23D0592
:10304000030CB73704060CB74104060CB747060358
:103050000CB73407030CC23405150CC7340A040C32
:10306000C7450A040CC73C0A040CD43405150CD916
:103070003406040CD93D06050CDF36050A0CDE4289
:1030800006070C002A170A30162A170A302D2A17AD
:103090000A30442A170A305A2A170A30712A170AA6
:1030A00030882A170A309E2A170A30B52A170A30A4
:1030B000CC2A170A30E22A0D0A300049170A3C17B9
:1030C00049170A3C2D49170A3C4449170A3C5B49F9
:1030D000170A3C7149170A3C8849170A3C9F49174F
:1030E0000A3CB549170A3CCC49170A3CE3490D0A8A
:1030F0003C001F0F0C3F00180C073F031707013F50
:1031000000150C013F122607043F141E04093F1549
:1031100013020A3F041305023F1C2417063F1F1C1D
:1031200014083F1F1A0F023F23190B023F332305D8
:10313000073F3416030D3F381913113F3D1807029E
:103140003F4B2109093F4D18050A3F4E1303043F29
:1031500054220D083F591F08033F612417063F62A0
:103160001D0B073F6D2103033F702308023F7221AF
:1031700002023F7F1C040E3F8000021C3F88251185
:10318000053F8B210E043F992809023F9A2607022A
:103190003F9D2401023FA221190A3FA61E11023FB2
:1031A000AB13080B3FAD1004043FBB2518053FC30C
:1031B0002110043FC313090E3FD4221C083FDB201B
:1031C00012033FDE1C03033FE31C06043FE21A0820
:1031D000013FD51F02033F00530B10330063080764
:1031E00033006A0608331153040A331853040A33B0
:1031F000135D080A331567040A332A53070E332078
:103200006215063334630903334453050F334162B7
:103210000A06333F680508334968050833595305E2
:103220000833545B060433505F0A08335D5B0604C1
:10323000335D5F0A0833715E0501336D530D0B3347
:1032400072680309336F60090833875304043386B7
:1032500057070633835D0C1133836E020233886E89
:103260000302338C6E03023398530A09339B5D04C7
:1032700005339C61020A33A957080C33AB5305048C
:1032800033B753050E33B861030D33BF630A0733F9
:10329000C15C060733C353020933C06A010333C656
:1032A0006A010333DC53051833D360080333D46851
:1032B000080333E165040433E953062033000000BA
:1032C00000000000000000000000000000000000FE
:1032D000000000000000000000001FF81FF80000C0
:1032E0000000000000000000000000001FF81FF8B0
:1032F0001FF81FF800000000000000001FF81FF872
:1033000000001FF81FF800001FF81FF80000000061
:103310001FF81FF800001FF81FF800001FF81FF823
:10332000000000001FF81FF81FF81FF81FF81FF813
:103330001FF81FF8000000001FF81FF81FF81FF803
:103340001FF81FF81FF81FF80000000000001FF80A
:103350001FF8000000001FF81FF800000000000028
:1033600000001FF81FF8000000001FF81FF8000001
:10337000000000001FF81FF800000000000000001F
:103380001FF81FF800001FF81FF81FF800000000CA
:10339000000000001FF81FF81FF8000000000000E8
:1033A000000000000000000000000000000000001D
:1033B000000000000000000041230008692300080D
:1033C0004743433A2028474E5520546F6F6C732073
:1033D000666F722041726D20456D6265646465643C
:1033E0002050726F636573736F727320382D3230A3
:1033F00031382D71342D6D616A6F722920382E326B
:103400002E31203230313831323133202872656C20
:103410006561736529205B6763632D382D62726176
:103420006E6368207265766973696F6E2032363715
:103430003037345D00412B00000061656162690036
:1034400001210000000536532D4D00060C074D09E3
:10345000011204140115011703180119011A011EA4
:1034600004412B00000061656162690001210000D8
:10347000000536532D4D00060C074D0901120414AA
:103480000115011703180119011A011E04412B002F
:10349000000061656162690001210000000536538A
:1034A0002D4D00060C074D090112041401150117DA
:1034B00003180119011A011E04412B000000616567
:1034C0006162690001210000000536532D4D0006A0
:1034D0000C074D09011204140115011703180119F5
:1034E000011A011E04412B00000061656162690040
:1034F00001210000000536532D4D00060C074D0933
:10350000011204140115011703180119011A011EF3
:1035100004412B0000006165616269000121000027
:10352000000536532D4D00060C074D0901120414F9
:103530000115011703180119011A011E04412B007E
:1035400000006165616269000121000000053653D9
:103550002D4D00060C074D09011204140115011729
:1035600003180119011A011E04412B0000006165B6
:103570006162690001210000000536532D4D0006EF
:103580000C074D0901120414011501170318011944
:10359000011A011E04412B0000006165616269008F
:1035A00001210000000536532D4D00060C074D0982
:1035B000011204140115011703180119011A011E43
:1035C00004412B0000006165616269000121000077
:1035D000000536532D4D00060C074D090112041449
:1035E0000115011703180119011A011E04412B00CE
:1035F0000000616561626900012100000005365329
:103600002D4D00060C074D09011204140115011778
:1036100003180119011A011E04412B000000616505
:103620006162690001210000000536532D4D00063E
:103630000C074D0901120414011501170318011993
:10364000011A011E04412B000000616561626900DE
:1036500001210000000536532D4D00060C074D09D1
:10366000011204140115011703180119011A011E92
:1036700004412B00000061656162690001210000C6
:10368000000536532D4D00060C074D090112041498
:103690000115011703180119011A011E04411D002B
:1036A0000000616561626900011300000005365386
:1036B0002D4D00060C074D09011901411D000000A8
:1036C00061656162690001130000000536532D4DEC
:1036D00000060C074D09011901411D00000061653C
:1036E0006162690001130000000536532D4D00068C
:0836F0000C074D09011901004E
:1036F8004C6576656C0047414D45204F5645520054
:103708004669726520746F20726573746172740003
:103718004D43552047616C616761004F6E6C79209D
:1037280035206D697373696C65730063616E20621F
:103738006520696E20666C69676874006174206F23
:103748006E652074696D6500564943544F5259217E
:1037580000427574746F6E207374617465203A004A
:1037680052616E643A200050726573732046697224
:103778006520666F722042726963690050726573D2
:1037880073204C65667420666F7220496E7661649A
:10379800657273005072657373205269676874208C
:1037A800666F722054656E6E69730050726573732C
:1037B80020526967687420666F722061206E657791
:1037C8002067616D65005072657373204C6566747F
:1037D80020746F206A6F696E20612067616D6500D3
:1037E800416E79206F74686572206B657920746FFB
:0837F8002063616E63656C0043
:10380000F0B585B0FEF7B0FA3D4C2000FDF7DBF9CE
:1038100090234022DB0519683A480A4380211A6048
:103820001A688A431A60FDF753FA062801D1FEF799
:10383000D9FAFEF729FE14250020FEF739FB0027F0
:103840008C23314E029700932A002B002F49200031
:103850000196FDF7F4F89B230297009317222B00A3
:103860002B4920000196FDF7EAF8AA23029700935E
:1038700001962B00162227492000FDF7E0F8C937F2
:103880002048FDF725FA642106002000FEF759FFC5
:10389000002E24D1013F002FF2D1EF271948FDF768
:1038A00017FA061EC8D10120FEF702FB3200F023F2
:1038B0003100200001960097FCF7DCFE0220FEF7A5
:1038C000F7FAFA2120008900FEF73BFF01960097E6
:1038D000F023320031002000FCF7CCFEDEE7022EA0
:1038E0000AD0042E05D0012ED7D10020FDF766FEA8
:1038F000A2E7FCF709FE9FE7FEF7C6FD9CE7C0467E
:103900000400002028000020FFFF00006F3700089F
:08391000843700089C37000811
:0400000508000000EF
:00000001FF
