:020000040800F2
:1000000000100020650D0008ED0D0008ED0D000842
:10001000ED0D0008ED0D0008ED0D0008ED0D0008D8
:10002000ED0D0008ED0D0008ED0D0008ED0D0008C8
:10003000ED0D0008ED0D0008ED0D0008551300084A
:10004000ED0D0008ED0D0008ED0D0008ED0D0008A8
:10005000ED0D0008ED0D0008ED0D0008ED0D000898
:10006000ED0D0008ED0D0008ED0D0008ED0D000888
:10007000ED0D0008ED0D0008ED0D0008ED0D000878
:10008000ED0D0008ED0D0008ED0D0008ED0D000868
:10009000ED0D0008ED0D0008ED0D0008ED0D000858
:1000A000ED0D0008ED0D0008ED0D0008ED0D000848
:1000B000ED0D000837B506AC07AD2D882488253036
:1000C0000195009400F08AFB37BDF0B58FB0029225
:1000D00014AA0D90019115888B4200D992E0029AE2
:1000E000934200D98EE0CA18F02A00DD8AE0029A15
:1000F000D218F02A00DD85E05A1E5B000993012327
:100100000392099A06939A1A089300230092079380
:10011000039B079A934275DB6B46019A9B890D9C62
:1001200004939B189BB20A936B46029A9B8B2534CF
:100130009F18BFB23A0005930A992B00200000F0E7
:10014000A7FB019A059B20009B189BB20B93029A78
:10015000049B0B999E18B6B232002B0000F098FB5E
:10016000059A019B20009B1A9BB20C9332002B0036
:100170000C9900F08DFB019B049A20009E1AB6B2E8
:100180003A0031002B0000F083FB029B059A3100FE
:100190009F1ABFB22B003A00200000F079FB029BAF
:1001A000049A0C999E1AB6B22B003200200000F07F
:1001B0006FFB2B0032000B99200000F069FB2B0035
:1001C0003A000A99200000F063FB009B002B0DDC35
:1001D000069A079B944601330793009B6344009360
:1001E000130002330693009B002B91DD039B099AB9
:1001F000013B0393089B023308939B1A009AD31880
:10020000009385E70FB0F0BDF0B587B01F000CABD1
:10021000049018880DAB1B8815000593831A0122E2
:100220000C000292791A002B02DA023A2B1A02927F
:100230005B0001935E1A4B000393A74210DB049806
:10024000AAB2A1B2059B253000F022FB002E03DDEF
:10025000029BED18039BF61A019B0134F618ECE79C
:1002600007B0F0BDF0B587B004900CA807880DA8C2
:1002700000880D00059001201400591ABA1A029046
:10028000002903DAE91A01235B4202934B00019330
:100290009E1A53000393A74210DB0498A2B2A9B29E
:1002A000059B253000F0F4FA002E03DD029BED18CB
:1002B000039BF61A019B0134F618ECE707B0F0BD7A
:1002C000F7B51C0008AB1D8809AB1B88AE1A00D51A
:1002D000561B671A00D50F1B0193B7420BDD8C42EA
:1002E00006D200920B002A002100FFF78DFFF7BD18
:1002F00000952300F9E7954206D200920B002A00F0
:100300002100FFF7AFFFF2E700952300F9E7F0B512
:10031000160007000D0085B00AAA1488CB180BAA96
:1003200012889BB2029303920192029B32000096C4
:10033000FFF7C6FF3419039BA4B2019332002B00D0
:10034000290038000094FFF7BBFF039B32000193A4
:10035000029B380019000094FFF7B2FF039B009442
:1003600001932200029B29003800FFF7A9FF05B086
:10037000F0BDF0B58FB0160014AA128807900D00DA
:1003800008928B426AD8B34268D8CA18F02A65DC52
:10039000F218F02A62DC5A1E5B000A9301230292D3
:1003A0000A9A05939C1A099300230693029B069AC6
:1003B000934253DB6B461B8907980393EB1A9BB25E
:1003C0000B936B461B8B0B9904939A19039B92B268
:1003D0005F19089BBFB2019300923B00FFF770FFCB
:1003E000049B0798EB1A9BB20C93039B0C999A19E8
:1003F000049B92B25B199BB20D93089B00920193F0
:100400000D9BFFF75DFF049B0B99F21A089B92B2BC
:10041000019300923B000798FFF752FF039B0C9952
:10042000F21A089B92B2019300920D9B0798FFF776
:1004300047FF002C08DC069B01330693059BE4185C
:1004400002330593002CB1DD029B0A9A013B029313
:10045000099B023309939B1AE418A7E70FB0F0BD7C
:1004600010B5253000F014FA10BD37B506AC24885D
:10047000079D25300195009400F01CFA37BDF0B5BA
:1004800000249DB01D0022AB1B880490079323AB72
:100490001B880591089324AB1B8806920993069B41
:1004A0009C422EDA0522059B0AA81B5D203B534384
:1004B000154A9B185A1D03921A78010002920022D5
:1004C000029E012716413E4219D0089E01320E803D
:1004D0000A31072AF4D10399013302308B42EBD160
:1004E00004980AAB0193009229000523079A25304E
:1004F0000735013400F0DEF9ADB2E4B2CFE7099E72
:10050000E4E71DB0F0BDC04664160008F0B50D006C
:100510008BB0059310AB1B880600069311AB1B88AC
:1005200028000A211700079300F0ACFF08AC303117
:10053000217128000A2100F01FFF0A2180B200F07B
:10054000A1FF3031E1702800642100F015FF0A217D
:1005500080B200F097FF3031A170FA2128008900A5
:1005600000F00AFF0A2180B200F08CFF3031617088
:100570002800094900F000FF079B303020700293EB
:10058000069B05220193059B2100009330003B0050
:10059000FFF775FF0BB0F0BD10270000084B1B687C
:1005A000002B08D1826A930FD10E594001235200CB
:1005B0008B4313438362806A400140097047C04601
:1005C0000000002070B50D001400FFF7E7FF611B6D
:1005D00000F058FF481970BD002370B50500836214
:1005E00001242E002436300000F0ACF8A040AB6AA5
:1005F0000134C018A862112CF3D10028F0D03000CB
:1006000000F06CF870BD10B5040000F05BFE200037
:100610002100253000F0F6F92000243000F00EF81B
:100620002000203000F05CFD0349200000F066FE51
:100630002000FFF7D1FF10BDEB1100088023234AF3
:100640009B00916910B50B4380219361204B0906F3
:100650001869204C0843186118692040186100206F
:100660009860802040029862C024C2202404800048
:100670001C5098680143996099680029FCDB0121AE
:100680005961996080235169DB030B4353618023D7
:100690000F2451699B020B4353610F4A3F2013689B
:1006A000A34313609023DB05196881431960D16867
:1006B000A143D1600521D4682143D160DA68824327
:1006C000DA601522D9680A43DA6010BD00100240D2
:1006D00000240140FFFFFFBF00140048C221002298
:1006E000044B89009A605A50034A044993690B40AD
:1006F000936170470024014000100240FFFDFFFF9E
:1007000001220F4B18691B691040424250414000C2
:100710009B0701D4102318439023DB051A69D207E5
:1007200001D4042210431B699B0701D408231843FA
:100730009023DB051B695B0701D401231843704735
:10074000001400488022074B52029A6205229968E1
:100750000A439A60042299681142FCD0186C80B256
:100760007047C04600240140F7B580271D0008AB44
:10077000194C1B88BF02009201932A20A7610E002A
:1007800000F044FD0223300AA36100F03FFDF0B207
:1007900000F03CFD280A00F039FDE8B200F036FD1B
:1007A000A7612B2000F032FD0223A361009B180AF1
:1007B00000F02CFD6B46187800F028FD019B180A0C
:1007C00000F024FD6B46187900F020FDA7612C2075
:1007D00000F01CFDF7BDC04600040048F0B51C0049
:1007E0000E0001391500611887B089B20291A0216D
:1007F0000CAB1A880DAB1B880390049353199BB262
:10080000224F49008B4210D8013B9BB200935443C6
:10081000029B2A003100FFF7A7FF0223BB61013CC6
:1008200031D3049800F03EFDF9E72B00413BFF3B3C
:10083000D21893B205934023FF3300932A00029B02
:1008400031000398FFF790FF0223BB613F33FF3372
:100850005D1BADB26543013D03D3049800F022FD5A
:10086000F9E7059B002200933100029B0398FFF7F4
:100870007BFF0223BB61059B5C43013C03D30498CF
:1008800000F010FDF9E707B0F0BDC04600040048D5
:1008900037B5541C1D00A4B24B1C9BB20094FFF74B
:1008A00063FF0222024B28009A6100F0FBFC37BD77
:1008B00000040048F0B50D00A02489B002930EABEF
:1008C0001B88029903934F1E9B18EF199BB20600D9
:1008D000BFB26400A34220D80024013B9BB2009326
:1008E00029003B00FFF740FF029B5F000F9BDE19D2
:1008F000039B9C4265D00F9DB54207D00222324B2C
:1009000028889A6100F0CEFC0235F5E70F9B013490
:10091000DB190F93A4B2F619EAE7A41AA3B206935F
:1009200013000399413BFF3BCB189BB20793402335
:10093000FF33009329003B00FFF716FF029B5B008B
:1009400005930F9B039300230493049A069B934201
:1009500015DD0024029BA34209DD039A6300D05AEF
:100960000222194B01349A6100F09CFCF2E7059ACF
:10097000039B944663440393049B0133E4E7059B84
:10098000069C30005C430F9B00221C19079B29002A
:1009900000933B00FFF7E8FE00260227079BB342C7
:1009A0000FDD0025029BAB4207DD6B00E05A064BD2
:1009B00001359F6100F076FCF4E7059B0136E418F1
:1009C000ECE709B0F0BDC046000400488022024BAD
:1009D00092029A617047C046000400480222014B0F
:1009E0009A6170470004004890224021D205536963
:1009F0008B435361704790224023D20551690B43CA
:100A000053617047F7B58025424BAD025A690E001D
:100A10002A435A6190228021D205070010684901BB
:100A20000143116011683C483C4C01401160802238
:100A30005969D2020A435A610423226838001343D9
:100A400008222360236893432360FFF7D4FF30001C
:100A5000192100F072FC3800FFF7C6FF30001921A1
:100A600000F06BFC3800FFF7C6FF3000192100F0E2
:100A700064FCA561012000F0C9FB3000962100F064
:100A80005CFCA561112000F0C1FB1921300000F0D1
:100A900054FCA5613A2000F0B9FB02235520A36164
:100AA00000F0B4FB1921300000F047FCA5613620AE
:100AB00000F0ACFB02230820A36100F0A7FB30008C
:100AC000192100F03AFCA561512000F09FFB19218B
:100AD000300000F032FCA561212000F097FBA561F9
:100AE000132000F093FBA561292000F08FFB30005C
:100AF000192100F022FCA5612C2000F087FBA02327
:100B000000215B00009338000191503B0A00FFF781
:100B100065FEF7BD00100240FFDFFFFF0004004844
:100B2000802210B5034B92029A61080000F06EFB20
:100B300010BDC04600040048022210B5024B080058
:100B40009A6100F063FB10BD00040048022210B55A
:100B5000024B08009A6100F0A5FB10BD000400489C
:100B6000002337B5802204200193204B92029A6122
:100B70001F4A10700198441C01946328FADD02207A
:100B800098611C4B1C481C6804401C6014780C7055
:100B900001249D682542FCD01C6804401C60147828
:100BA0000C701C6804401C6001249D682542FCD028
:100BB00014784C701C6804401C6001249D68254218
:100BC000FCD014788C701C682040186001209C6850
:100BD0000442FCD01278CA70012299681142FCD0FC
:100BE00080221968D2010A431A6037BD0004004808
:100BF0000C30014000300140FFBFFFFFF7B58026F9
:100C00000227A025114CB60201913320A66100F005
:100C1000FDFA6D00A761002000F044FB280000F001
:100C200041FB002000F03EFBA661372000F0EEFA09
:100C30000198290000F010FD0D000812A761C0B254
:100C400000F0E4FAE8B200F0E1FAF7BD0004004871
:100C500080B500AF234B1A68224B23490A401A6023
:100C6000204B1A6880239B0413405A1E9341DBB229
:100C7000002B00D0F4E71D4B1A681C4B01210A43DE
:100C80001A601A4B1A68194B06218A431A60174BCF
:100C90001A68164B10210A431A60124B5A68114BFE
:100CA00013490A405A600F4B5A680E4BA021890322
:100CB0000A435A600B4B5A680A4B8021C9010A4308
:100CC0005A60084B1A68074B802149040A431A608E
:100CD000044B5A68034B02210A435A60C046BD4682
:100CE00080BDC04600100240FFFFFFFE0020024012
:100CF000FFFFC3FF80B582B000AF164A164BD31A70
:100D00009B103B6000237B607A683B689A4208D264
:100D1000114B7A689200D35898477B6801337B6007
:100D2000F2E70E4A0E4BD31A9B103B6000237B6008
:100D30007A683B689A4208D2094B7A689200D35885
:100D400098477B6801337B60F2E7C046BD4602B03E
:100D500080BDC046641600086416000864160008CA
:100D60006416000880B584B000AFFFF771FF1A4B1E
:100D7000FB601A4BBB601A4A184BD31A7B607B6826
:100D80005A1E7A605A1E9341DBB2002B08D0FA68D3
:100D9000531CFB60BB68591CB96012781A70EEE7EF
:100DA000104BBB60104A0F4BD31A7B607B685A1EF6
:100DB0007A605A1E9341DBB2002B05D0BB685A1CE7
:100DC000BA6000221A70F1E7FFF794FF00F068FEA6
:100DD000C046BD4604B080BD4C1C00080000002089
:100DE00000000020000000204000002080B500AF7F
:100DF000FEE7C04680220B4BD203596910B50A4367
:100E000001215A61084A10680143022011601168EB
:100E1000814311608022596992020A435A6100F0AD
:100E200007FA10BD001002400014004880230E4A4B
:100E30009B0091690B43936100220C4BC0219A6087
:100E4000802252029A62C2220904920099508022A2
:100E5000996812060A439A609A68002AFCDB072206
:100E60005A61063A9A60704700100240002401401F
:100E7000224B186072B68023214A9B0251690B43B2
:100E8000536180239169DB010B4393619023A0217F
:100E9000DB05186889030143196019681948014086
:100EA00019601968184801401960596A17480140CB
:100EB00059628021586A4900014359621021586AD9
:100EC00001435962D36812490B40D3600022114B91
:100ED0001A605A609A60104ADA60642219680A43FC
:100EE0001A60012219680A431A6080230B4A1B0505
:100EF00011680B43136062B67047C0463000002093
:100F000000100240FFFFEFFFFFFFFBFF1FF3F7FFA3
:100F1000FFBFFFFF003801408813000000E100E040
:100F200083680F2B0ED872B60F228368013383605B
:100F30000368C3181973036801331340036062B672
:100F40000020704701204042FBE70822064B10B505
:100F50001C68144204D1186802431A60996210BDDB
:100F6000FFF7DEFFFBE7C0460038014070B5050023
:100F70000C002178002907D0AB68102BFCD028008A
:100F8000FFF7E3FF0134F4E770BD7FB500230F26C0
:100F900001AA137207330C00344025003035092CA8
:100FA00001D937342500D5540909013BF3D211008A
:100FB000FFF7DCFF7FBD002313B501AA93700F3349
:100FC0000B401C003734092B01D830331C000B11A7
:100FD0005470DCB221003731092B00DC0739117065
:100FE0001100FFF7C3FF13BD0023F0B587B003AEB8
:100FF000F37201900C002B33002901DA4C420233CA
:101000000A252F0033702000390000F025FB303115
:1010100071552000390000F039FA013D0400002D1F
:10102000F1D131000198FFF7A1FF07B0F0BD10B575
:10103000034B1C30596AC9B2FFF772FF10BDC0469E
:101040000038014003008268002082420CD072B652
:101050000F219A68013A9A605A689A18107B5A6868
:1010600001320A405A6062B6704710B51C30FFF773
:10107000E9FFC0B210BD10B583680D4C002B03D042
:10108000FFF7E0FFA06210BD0822236893432360AE
:101090004023E2691A4202D0226A13432362E369C1
:1010A0001B06F0D51023A2691343A361EBE7C046EA
:1010B0000038014010B5084CE269130603D5074B10
:1010C0001868FFF7D8FFE3699B0603D5034B186840
:1010D000FFF7ADFF10BDC0460038014030000020D2
:1010E00080220B4B520018600A4BD9690A43DA611F
:1010F0008022596992020A435A610022064B1A6003
:1011000060329A61196A5F3A0A431A627047C046B0
:10111000340000200010024000200040F8B5902369
:10112000DB050E00150017491A6801270A401A60EE
:101130008022196892000A431A601A6A1249134CF5
:101140000A401A628022196AD2020A431A6223688C
:101150000F48BB432360B7239B00A362A16A00F042
:101160000BF9310000F008F9E062E36AFB406363C9
:101170000023636223681F43064B27601B681D60C2
:10118000F8BDC046FFFEFFFFFFFFF4FF0020004058
:10119000006CDC02340000200121054A13688B43F7
:1011A00013609022D205136802490B401360704708
:1011B00000040040FFFCFFFF0068431E9841704799
:1011C000F7B505000E00170000240193019B9C4217
:1011D0000ADA2B68002BFCD16300FA5AF15A280076
:1011E000FFF79CFF0134F1E7F7BD074B10B51B6813
:1011F0001A68002A07D01A68013A1A601B68002B87
:1012000001D1FFF7C9FF10BD34000020064B10B517
:10121000802118706523054A94680C4202D0013B76
:10122000002BF9D110BDC0460C3001400030014008
:101230008022174B5201996910B50A439A61C02266
:101240005969D2020A435A619023DB051A68114991
:1012500020240A401A608822196812020A431A6080
:101260001A6A0D490A401A62CC22996812020A438E
:101270009A600A4B9A680A4A1A60E022D2005A60C1
:101280000020013CFFF7C2FF002CF9D110BDC04681
:1012900000100240FFBBFFFFFFFF0F0F00300140B7
:1012A00046C3000065228021054BD860986808423B
:1012B00002D0013A002AF9D1D86880B27047C046FE
:1012C000003001400A4B072218600023036043608E
:1012D0008360C360036143618361C361054B196827
:1012E0000A431A60044A5A6005229A6062B670473F
:1012F0003800002010E000E07FBB0000002210B5A5
:1013000094000359002B02D12150180010BD013266
:10131000082AF5D101204042F8E7002310B59A00D1
:1013200084588C4203D100231350180010BD0133A0
:10133000082BF4D101204042F8E7002907D0002211
:10134000034B5A605A688A4201D230BFFAE77047AD
:101350003800002070B50024064D6B6801336B60C7
:101360002A68A3009B58002B00D098470134082C12
:10137000F6D170BD38000020002243088B4274D3A0
:1013800003098B425FD3030A8B4244D3030B8B4286
:1013900028D3030C8B420DD3FF22090212BA030C8F
:1013A0008B4202D31212090265D0030B8B4219D370
:1013B00000E0090AC30B8B4201D3CB03C01A524190
:1013C000830B8B4201D38B03C01A5241430B8B42D8
:1013D00001D34B03C01A5241030B8B4201D30B03C1
:1013E000C01A5241C30A8B4201D3CB02C01A5241E8
:1013F000830A8B4201D38B02C01A5241430A8B42AB
:1014000001D34B02C01A5241030A8B4201D30B0293
:10141000C01A5241CDD2C3098B4201D3CB01C01AAD
:10142000524183098B4201D38B01C01A52414309B7
:101430008B4201D34B01C01A524103098B4201D3A5
:101440000B01C01A5241C3088B4201D3CB00C01A12
:10145000524183088B4201D38B00C01A524143088A
:101460008B4201D34B00C01A5241411A00D20146AF
:10147000524110467047FFE701B5002000F0F0F838
:1014800002BDC0460029F7D076E7704703460B43FC
:101490007FD4002243088B4274D303098B425FD36D
:1014A000030A8B4244D3030B8B4228D3030C8B4299
:1014B0000DD3FF22090212BA030C8B4202D312127F
:1014C000090265D0030B8B4219D300E0090AC30B54
:1014D0008B4201D3CB03C01A5241830B8B4201D301
:1014E0008B03C01A5241430B8B4201D34B03C01AEA
:1014F0005241030B8B4201D30B03C01A5241C30A62
:101500008B4201D3CB02C01A5241830A8B4201D3D2
:101510008B02C01A5241430A8B4201D34B02C01ABC
:101520005241030A8B4201D30B02C01A5241CDD261
:10153000C3098B4201D3CB01C01A524183098B42AC
:1015400001D38B01C01A524143098B4201D34B0195
:10155000C01A524103098B4201D30B01C01A5241F8
:10156000C3088B4201D3CB00C01A524183088B427F
:1015700001D38B00C01A524143088B4201D34B0068
:10158000C01A5241411A00D20146524110467047DA
:101590005DE0CA0F00D04942031000D340425340DF
:1015A00000229C4603098B422DD3030A8B4212D39F
:1015B000FC22890112BA030A8B420CD389019211D1
:1015C0008B4208D3890192118B4204D389013AD00E
:1015D000921100E08909C3098B4201D3CB01C01AE3
:1015E000524183098B4201D38B01C01A52414309F6
:1015F0008B4201D34B01C01A524103098B4201D3E4
:101600000B01C01A5241C3088B4201D3CB00C01A50
:10161000524183088B4201D38B00C01A5241D9D268
:1016200043088B4201D34B00C01A5241411A00D2E9
:101630000146634652415B10104601D34042002BE5
:1016400000D54942704763465B1000D3404201B564
:10165000002000F005F802BD0029F8D016E7704719
:101660007047C046000000000000005F0000000757
:10167000000700147F147F14242A7F2A12231308E2
:10168000646236495522500005030000001C2241C7
:10169000000041221C00082A1C2A0808083E0808ED
:1016A00000503000000808080808006060000020B2
:1016B000100804023E5149453E00427F400042610D
:1016C0005149462141454B311814127F1027454599
:1016D00045393C4A494930017109050336494949B0
:1016E00036064949291E00363600000056360000ED
:1016F0000008142241141414141441221408000286
:1017000001510906324979413E7E1111117E7F490E
:101710004949363E414141227F4141221C7F49498E
:1017200049417F090901013E414151327F080808C2
:101730007F00417F41002040413F017F081422414A
:101740007F404040407F0204027F7F0408107F3EBC
:101750004141413E7F090909063E4151215E7F0911
:10176000192946464949493101017F01013F40405D
:10177000403F1F2040201F7F2018207F6314081443
:10178000630304780403615149454300007F4141EC
:10179000020408102041417F0000040201020440BD
:1017A00040404040000102040020545454787F48D7
:1017B0004444383844444420384444487F385454DE
:1017C0005418087E090102081454543C7F0804048C
:1017D0007800447D40002040443D00007F102844B4
:1017E00000417F40007C041804787C0804047838A9
:1017F000444444387C14141408081414187C7C08DD
:101800000404084854545420043F4440203C4040C1
:10181000207C1C2040201C3C4030403C44281028A8
:10182000440C5050503C4464544C44000836410031
:1018300000007F0000004136080008082A1C080844
:101840001C2A08084743433A2028474E5520546F26
:101850006F6C7320666F722041726D20456D6265FA
:10186000646465642050726F636573736F72732074
:10187000382D323031392D71332D757064617465B6
:101880002920382E332E3120323031393037303361
:10189000202872656C6561736529205B6763632D21
:1018A000382D6272616E6368207265766973696F44
:1018B0006E203237333032375D00412B000000613B
:1018C000656162690001210000000536532D4D005D
:1018D000060C074D09011204140115011703180124
:1018E00019011A011E04412B000000616561626943
:1018F0000001210000000536532D4D00060C074D58
:1019000009011204140115011703180119011A0124
:101910001E04412B00000061656162690001210025
:1019200000000536532D4D00060C074D0901120429
:10193000140115011703180119011A011E04412B86
:101940000000006165616269000121000000053648
:10195000532D4D00060C074D090112041401150109
:101960001703180119011A011E04412B0000006120
:10197000656162690001210000000536532D4D00AC
:10198000060C074D09011204140115011703180173
:1019900019011A011E04412B000000616561626992
:1019A0000001210000000536532D4D00060C074DA7
:1019B00009011204140115011703180119011A0174
:1019C0001E04412B00000061656162690001210075
:1019D00000000536532D4D00060C074D0901120479
:1019E000140115011703180119011A011E04412BD6
:1019F0000000006165616269000121000000053698
:101A0000532D4D00060C074D090112041401150158
:101A10001703180119011A011E04412B000000616F
:101A2000656162690001210000000536532D4D00FB
:101A3000060C074D090112041401150117031801C2
:101A400019011A011E04411D0000006165616269EF
:101A50000001130000000536532D4D00060C074D04
:101A600009011901411D0000006165616269000101
:101A7000130000000536532D4D00060C074D0901DB
:101A80001901411D000000616561626900011300D8
:101A900000000536532D4D00060C074D09011901B4
:101AA000F0B587B0FFF7A6F96648FEF7ACFDEF2763
:101AB000C825644C3A0000212000FEF783FD3A005F
:101AC000039000212000FEF77DFD78220490002184
:101AD0002000FEF777FD7822059000212000FEF718
:101AE00071FD594A060000212000FEF76BFD6B4690
:101AF0006A46694680B2B6B29B8A128A8989013DDC
:101B0000019000962000FEF702FC002DD1D1019536
:101B10002A0029000097EF232000FEF7CBFA643556
:101B2000484C3A0000212000FEF74CFD3A0003909B
:101B300000212000FEF746FD7822049000212000BD
:101B4000FEF740FD7822059000212000FEF73AFDC7
:101B50003D4A060000212000FEF734FD6B466A4630
:101B6000694680B2B6B29B8A128A8989013D01908A
:101B700000962000FEF79EFA002DD1D101952A0093
:101B800029000097EF232000FEF794FAC8353A00A9
:101B900000212000FEF716FD3A00039000212000EE
:101BA000FEF710FD7822060000212000FEF70AFD56
:101BB000254A049000212000FEF704FD6B4669468B
:101BC00080B21B8A8989B2B20090013D2000FEF7E5
:101BD0007CFA002DDBD101952A0029000097EF2324
:101BE0002000FEF767FA32353A0000212000FEF7A8
:101BF000E9FC3A00039000212000FEF7E3FC782284
:101C0000060000212000FEF7DDFC0F4A04900021B1
:101C10002000FEF7D7FC6B46694680B21B8A898993
:101C2000B2B20090013D2000FEF7A3FB002DDBD1F6
:101C300001950097EF232A0029002000FEF73AFAC9
:0C1C400036E7C04604000020FFFF000053
:0400000508000000EF
:00000001FF
