:020000040800F2
:1000000000100020310B0008B90B0008B90B0008E4
:10001000B90B0008B90B0008B90B0008B90B0008B0
:10002000B90B0008B90B0008B90B0008B90B0008A0
:10003000B90B0008B90B0008B90B0008DD0E000869
:10004000B90B0008B90B0008B90B0008B90B000880
:10005000B90B0008B90B0008B90B0008B90B000870
:10006000B90B0008B90B0008B90B0008B90B000860
:10007000B90B0008B90B0008B90B0008B90B000850
:10008000B90B0008B90B0008B90B0008B90B000840
:10009000B90B0008B90B0008B90B0008B90B000830
:1000A000B90B0008B90B0008B90B0008B90B000820
:1000B000B90B000837B506AC07AD2D88248825306C
:1000C0000195009400F0F7FB37BDF0B58FB00292B8
:1000D00014AA0D90019115888B4200D992E0029AE2
:1000E000934200D98EE0CA18F02A00DD8AE0029A15
:1000F000D218F02A00DD85E05A1E5B000993012327
:100100000392099A06939A1A089300230092079380
:10011000039B079A934275DB6B46019A9B890D9C62
:1001200004939B189BB20A936B46029A9B8B2534CF
:100130009F18BFB23A0005930A992B00200000F0E7
:100140007FFB019A059B20009B189BB20B93029AA0
:10015000049B0B999E18B6B232002B0000F070FB86
:10016000059A019B20009B1A9BB20C9332002B0036
:100170000C9900F065FB019B049A20009E1AB6B210
:100180003A0031002B0000F05BFB029B059A310026
:100190009F1ABFB22B003A00200000F051FB029BD7
:1001A000049A0C999E1AB6B22B003200200000F07F
:1001B00047FB2B0032000B99200000F041FB2B0085
:1001C0003A000A99200000F03BFB009B002B0DDC5D
:1001D000069A079B944601330793009B6344009360
:1001E000130002330693009B002B91DD039B099AB9
:1001F000013B0393089B023308939B1A009AD31880
:10020000009385E70FB0F0BDF0B587B01F000CABD1
:10021000049018880DAB1B8815000593831A0122E2
:100220000C000292791A002B02DA023A2B1A02927F
:100230005B0001935E1A4B000393A74210DB049806
:10024000AAB2A1B2059B253000F0FAFA002E03DD18
:10025000029BED18039BF61A019B0134F618ECE79C
:1002600007B0F0BDF0B587B004900CA807880DA8C2
:1002700000880D00059001201400591ABA1A029046
:10028000002903DAE91A01235B4202934B00019330
:100290009E1A53000393A74210DB0498A2B2A9B29E
:1002A000059B253000F0CCFA002E03DD029BED18F3
:1002B000039BF61A019B0134F618ECE707B0F0BD7A
:1002C000F7B51C0008AB1D8809AB1B88AE1A00D51A
:1002D000561B671A00D50F1B0193B7420BDD8C42EA
:1002E00006D200920B002A002100FFF78DFFF7BD18
:1002F00000952300F9E7954206D200920B002A00F0
:100300002100FFF7AFFFF2E700952300F9E7F0B512
:10031000160007000D0085B00AAA1488CB180BAA96
:1003200012889BB2029303920192029B32000096C4
:10033000FFF7C6FF3419039BA4B2019332002B00D0
:10034000290038000094FFF7BBFF039B32000193A4
:10035000029B380019000094FFF7B2FF039B009442
:1003600001932200029B29003800FFF7A9FF05B086
:10037000F0BDF0B58FB0160014AA128807900D00DA
:1003800008928B426AD8B34268D8CA18F02A65DC52
:10039000F218F02A62DC5A1E5B000A9301230292D3
:1003A0000A9A05939C1A099300230693029B069AC6
:1003B000934253DB6B461B8907980393EB1A9BB25E
:1003C0000B936B461B8B0B9904939A19039B92B268
:1003D0005F19089BBFB2019300923B00FFF770FFCB
:1003E000049B0798EB1A9BB20C93039B0C999A19E8
:1003F000049B92B25B199BB20D93089B00920193F0
:100400000D9BFFF75DFF049B0B99F21A089B92B2BC
:10041000019300923B000798FFF752FF039B0C9952
:10042000F21A089B92B2019300920D9B0798FFF776
:1004300047FF002C08DC069B01330693059BE4185C
:1004400002330593002CB1DD029B0A9A013B029313
:10045000099B023309939B1AE418A7E70FB0F0BD7C
:1004600010B5253000F0ECF910BD37B506AC248886
:10047000079D25300195009400F0F2F937BDF0B5E5
:1004800000249DB01D0022AB1B880490079323AB72
:100490001B880591089324AB1B8806920993069B41
:1004A0009C422EDA0522059B0AA81B5D203B534384
:1004B000154A9B185A1D03921A78010002920022D5
:1004C000029E012716413E4219D0089E01320E803D
:1004D0000A31072AF4D10399013302308B42EBD160
:1004E00004980AAB0193009229000523079A25304E
:1004F0000735013400F0B4F9ADB2E4B2CFE7099E9C
:10050000E4E71DB0F0BDC046EC110008F0B50D00E9
:100510008BB0059310AB1B880600069311AB1B88AC
:1005200028000A211700079300F070FD08AC303155
:10053000217128000A2100F0E3FC0A2180B200F0BA
:1005400065FD3031E1702800642100F0D9FC0A21FA
:1005500080B200F05BFD3031A170FA2128008900E3
:1005600000F0CEFC0A2180B200F050FD3031617005
:100570002800094900F0C4FC079B3030207002932A
:10058000069B05220193059B2100009330003B0050
:10059000FFF775FF0BB0F0BD10270000084B1B687C
:1005A000002B08D1826A930FD10E594001235200CB
:1005B0008B4313438362806A400140097047C04601
:1005C0000000002070B50D001400FFF7E7FF611B6D
:1005D00000F01CFD481970BD002370B50500836252
:1005E00001242E002436300000F0ACF8A040AB6AA5
:1005F0000134C018A862112CF3D10028F0D03000CB
:1006000000F06CF870BD10B5040000F01FFC200075
:100610002100253000F077F92000243000F00EF89A
:100620002000203000F00AFB0349200000F02AFCE3
:100630002000FFF7D1FF10BD470D00088023234A9B
:100640009B00916910B50B4380219361204B0906F3
:100650001869204C0843186118692040186100206F
:100660009860802040029862C024C2202404800048
:100670001C5098680143996099680029FCDB0121AE
:100680005961996080235169DB030B4353618023D7
:100690000F2451699B020B4353610F4A3F2013689B
:1006A000A34313609023DB05196881431960D16867
:1006B000A143D1600521D4682143D160DA68824327
:1006C000DA601522D9680A43DA6010BD00100240D2
:1006D00000240140FFFFFFBF00140048C221002298
:1006E000044B89009A605A50034A044993690B40AD
:1006F000936170470024014000100240FFFDFFFF9E
:1007000001220F4B18691B691040424250414000C2
:100710009B0701D4102318439023DB051A69D207E5
:1007200001D4042210431B699B0701D408231843FA
:100730009023DB051B695B0701D401231843704735
:10074000001400488022074B52029A6205229968E1
:100750000A439A60042299681142FCD0186C80B256
:100760007047C046002401400221024A53698B436E
:1007700053617047000400480223024A51690B4349
:10078000536170470004004890224021D20553690C
:100790008B435361704790224023D20551690B432C
:1007A0005361704710B50C00FFF7DEFF200000F02A
:1007B000DBFA10BD10B50C00FFF7DEFF200000F0E3
:1007C000D3FA10BDF7B504000F001E00150008ABEA
:1007D0001B882A210193FFF7E5FF390A2000FFF764
:1007E000E9FFF9B22000FFF7E5FF310A2000FFF72B
:1007F000E1FFF1B22000FFF7DDFF20002B21FFF722
:10080000D1FF290A2000FFF7D5FFE9B22000FFF74A
:10081000D1FF019B2000190AFFF7CCFF6B46200097
:100820001979FFF7C7FF2C212000FFF7BBFFF7BDA9
:1008300010B50C00FFF7A0FF200000F0EBFA10BD90
:1008400037B504001D00501C4B1C80B29BB20090B9
:100850002000FFF7B7FF29002000FFF7E9FF37BDB1
:10086000F0B51F00002485B00AAB1B8802900393EB
:1008700003987B1E01381018CB1880B29BB20090F1
:100880000298FFF79FFF0B9B7F00DD19039B9C42A3
:100890000FD00B9EAE4205D031880298FFF7C8FFFB
:1008A0000236F7E70B9B0134DB190B93A4B2ED1969
:1008B000ECE705B0F0BDF0B51F00060085B00AAB4F
:1008C0001B880024029302980BAB1B88013803930A
:1008D00010187B1ECB1880B200909BB23000FFF73F
:1008E00071FF029B9C420CD00025BD4206D00399AB
:1008F00030000135FFF79CFFADB2F6E70134A4B23A
:10090000EFE705B0F0BD8022414B73B50D0059698A
:1009100092020A435A6190228021D2050400106895
:1009200049010143116011683A48082601401160ED
:1009300080225969D2020A435A610422364B2000B0
:1009400019680A431A601A68B2431A60FFF723FF56
:100950002800192100F0B5FA2000FFF715FF280044
:10096000192100F0AEFA2000FFF715FF2800192129
:1009700000F0A7FA20000121FFF714FF28009621BC
:1009800000F09FFA20001121FFF70CFF2800192129
:1009900000F097FA20003A21FFF704FF20005521CC
:1009A000FFF708FF2800192100F08BFA20003621FC
:1009B000FFF7F8FE31002000FFF7FCFE28001921A8
:1009C00000F07FFA20005121FFF7ECFE28001921EA
:1009D00000F077FA20002121FFF7E4FE2000132128
:1009E000FFF7E0FE20002921FFF7DCFE2800192197
:1009F00000F067FA20002C21FFF7D4FE0021F0233D
:100A0000019100930A002000FFF755FF73BDC04617
:100A100000100240FFDFFFFF0004004880B500AF78
:100A2000234B1A68224B23490A401A60204B1A684C
:100A300080239B0413405A1E9341DBB2002B00D04D
:100A4000F4E71D4B1A681C4B01210A431A601A4B2C
:100A50001A68194B06218A431A60174B1A68164BFD
:100A600010210A431A60124B5A68114B13490A406D
:100A70005A600F4B5A680E4BA02189030A435A60F3
:100A80000B4B5A680A4B8021C9010A435A60084B34
:100A90001A68074B802149040A431A60044B5A68BC
:100AA000034B02210A435A60C046BD4680BDC04682
:100AB00000100240FFFFFFFE00200240FFFFC3FFC7
:100AC00080B582B000AF164A164BD31A9B103B601C
:100AD00000237B607A683B689A4208D2114B7A689F
:100AE0009200D35898477B6801337B60F2E70E4A47
:100AF0000E4BD31A9B103B6000237B607A683B68E7
:100B00009A4208D2094B7A689200D35898477B687A
:100B100001337B60F2E7C046BD4602B080BDC046EF
:100B2000EC110008EC110008EC110008EC110008B1
:100B300080B584B000AFFFF771FF1A4BFB601A4B12
:100B4000BB601A4A184BD31A7B607B685A1E7A60C6
:100B50005A1E9341DBB2002B08D0FA68531CFB608D
:100B6000BB68591CB96012781A70EEE7104BBB6075
:100B7000104A0F4BD31A7B607B685A1E7A605A1E4C
:100B80009341DBB2002B05D0BB685A1CBA6000222F
:100B90001A70F1E7FFF794FF00F030FDC046BD4644
:100BA00004B080BDA817000800000020000000204D
:100BB000000000203C00002080B500AFFEE7C046EA
:100BC00080220B4BD203596910B50A4301215A61A7
:100BD000084A1068014302201160116881431160C6
:100BE0008022596992020A435A6100F0D9F810BD77
:100BF000001002400014004880230E4A9B009169B7
:100C00000B43936100220C4BC0219A608022520258
:100C10009A62C222090492009950802299681206B1
:100C20000A439A609A68002AFCDB07225A61063A56
:100C30009A607047001002400024014080220B4B54
:100C4000520018600A4BD9690A43DA618022596957
:100C500092020A435A610022064B1A6060329A617E
:100C6000196A5F3A0A431A627047C0463000002092
:100C70000010024000200040F8B59023DB050E0074
:100C8000150017491A6801270A401A60802219685E
:100C900092000A431A601A6A1249134C0A401A62F7
:100CA0008022196AD2020A431A6223680F48BB43A2
:100CB0002360B7239B00A362A16A00F021F93100F1
:100CC00000F01EF9E062E36AFB40636300236362A5
:100CD00023681F43064B27601B681D60F8BDC04694
:100CE000FFFEFFFFFFFFF4FF00200040006CDC026E
:100CF000300000200121054A13688B4313609022C5
:100D0000D205136802490B4013607047000400408D
:100D1000FFFCFFFF0068431E98417047F7B50500D0
:100D20000E00170000240193019B9C420ADA2B68F5
:100D3000002BFCD16300FA5AF15A2800FFF79CFF00
:100D40000134F1E7F7BD074B10B51B681A68002A9C
:100D500007D01A68013A1A601B68002B01D1FFF70F
:100D6000C9FF10BD300000200A4A30B511008024B0
:100D7000094B9568254202D0013B002BF9D1802216
:100D8000064B1870044B8C68144202D0013B002BB8
:100D9000F9D130BD0030014041420F000C3001401C
:100DA0008022174B5201996910B50A439A61C022FB
:100DB0005969D2020A435A619023DB051A68114926
:100DC00020240A401A608822196812020A431A6015
:100DD0001A6A0D490A401A62CC22996812020A4323
:100DE0009A600A4B9A680A4A1A60E022D2005A6056
:100DF0000020013CFFF7B8FF002CF9D110BDC04620
:100E000000100240FFBBFFFFFFFF0F0F003001404B
:100E100066C300000B4930B50B0080240A4A8D6878
:100E2000254202D0013A002AF9D18021064AD86031
:100E30009868084202D0013A002AF9D1D86880B2F5
:100E400030BDC0460030014041420F000A4B07222E
:100E500018600023036043608360C36003614361E3
:100E60008361C361054B19680A431A60044A5A60DA
:100E700005229A6062B670473400002010E000E05E
:100E80007FBB0000002210B594000359002B02D153
:100E90002150180010BD0132082AF5D1012040422E
:100EA000F8E7002310B59A0084588C4203D1002340
:100EB0001350180010BD0133082BF4D1012040421B
:100EC000F8E7002907D00022034B5A605A688A428B
:100ED00001D230BFFAE770473400002070B500241B
:100EE000064D6B6801336B602A68A3009B58002B8A
:100EF00000D098470134082CF6D170BD3400002092
:100F0000002243088B4274D303098B425FD3030A48
:100F10008B4244D3030B8B4228D3030C8B420DD35B
:100F2000FF22090212BA030C8B4202D312120902E9
:100F300065D0030B8B4219D300E0090AC30B8B4227
:100F400001D3CB03C01A5241830B8B4201D38B03D5
:100F5000C01A5241430B8B4201D34B03C01A52417A
:100F6000030B8B4201D30B03C01A5241C30A8B42BD
:100F700001D3CB02C01A5241830A8B4201D38B02A8
:100F8000C01A5241430A8B4201D34B02C01A52414C
:100F9000030A8B4201D30B02C01A5241CDD2C309BE
:100FA0008B4201D3CB01C01A524183098B4201D33A
:100FB0008B01C01A524143098B4201D34B01C01A25
:100FC000524103098B4201D30B01C01A5241C3089D
:100FD0008B4201D3CB00C01A524183088B4201D30C
:100FE0008B00C01A524143088B4201D34B00C01AF8
:100FF0005241411A00D20146524110467047FFE764
:1010000001B5002000F0F0F802BDC0460029F7D07D
:1010100076E7704703460B437FD4002243088B4298
:1010200074D303098B425FD3030A8B4244D3030B6F
:101030008B4228D3030C8B420DD3FF22090212BA34
:10104000030C8B4202D31212090265D0030B8B42B0
:1010500019D300E0090AC30B8B4201D3CB03C01A9A
:101060005241830B8B4201D38B03C01A5241430B75
:101070008B4201D34B03C01A5241030B8B4201D365
:101080000B03C01A5241C30A8B4201D3CB02C01AD0
:101090005241830A8B4201D38B02C01A5241430A48
:1010A0008B4201D34B02C01A5241030A8B4201D337
:1010B0000B02C01A5241CDD2C3098B4201D3CB01DE
:1010C000C01A524183098B4201D38B01C01A52418D
:1010D00043098B4201D34B01C01A524103098B4291
:1010E00001D30B01C01A5241C3088B4201D3CB007C
:1010F000C01A524183088B4201D38B00C01A52415F
:1011000043088B4201D34B00C01A5241411A00D20E
:1011100001465241104670475DE0CA0F00D0494277
:10112000031000D34042534000229C4603098B42E7
:101130002DD3030A8B4212D3FC22890112BA030A6F
:101140008B420CD3890192118B4208D389019211F1
:101150008B4204D389013AD0921100E08909C30976
:101160008B4201D3CB01C01A524183098B4201D378
:101170008B01C01A524143098B4201D34B01C01A63
:10118000524103098B4201D30B01C01A5241C308DB
:101190008B4201D3CB00C01A524183088B4201D34A
:1011A0008B00C01A5241D9D243088B4201D34B0065
:1011B000C01A5241411A00D20146634652415B10A7
:1011C000104601D34042002B00D549427047634688
:1011D0005B1000D3404201B5002000F005F802BDCD
:1011E0000029F8D016E770477047C046000000009D
:1011F0000000005F00000007000700147F147F1448
:10120000242A7F2A1223130864623649552250008B
:1012100005030000001C2241000041221C00082A96
:101220001C2A0808083E080800503000000808087A
:101230000808006060000020100804023E51494583
:101240003E00427F400042615149462141454B31B9
:101250001814127F1027454545393C4A4949300149
:10126000710905033649494936064949291E0036A0
:1012700036000000563600000008142241141414F1
:10128000141441221408000201510906324979411F
:101290003E7E1111117E7F494949363E414141222E
:1012A0007F4141221C7F494949417F090901013E93
:1012B000414151327F0808087F00417F41002040B2
:1012C000413F017F081422417F404040407F02049B
:1012D000027F7F0408107F3E4141413E7F0909099A
:1012E000063E4151215E7F09192946464949493147
:1012F00001017F01013F4040403F1F2040201F7FF0
:101300002018207F631408146303047804036151D8
:1013100049454300007F4141020408102041417FBC
:101320000000040201020440404040400001020469
:101330000020545454787F4844443838444444206E
:10134000384444487F3854545418087E0901020830
:101350001454543C7F0804047800447D400020402D
:10136000443D00007F10284400417F40007C041869
:1013700004787C0804047838444444387C141414F9
:1013800008081414187C7C08040408485454542099
:10139000043F4440203C4040207C1C2040201C3C1A
:1013A0004030403C44281028440C5050503C446489
:1013B000544C44000836410000007F0000004136D4
:1013C000080008082A1C08081C2A08084743433A52
:1013D0002028474E5520546F6F6C7320666F722023
:1013E00041726D20456D6265646465642050726F62
:1013F000636573736F727320382D323031382D71FD
:10140000342D6D616A6F722920382E322E312032D0
:1014100030313831323133202872656C6561736543
:1014200029205B6763632D382D6272616E636820CB
:101430007265766973696F6E203236373037345D86
:1014400000412B000000616561626900012100001C
:10145000000536532D4D00060C074D0901120414EA
:101460000115011703180119011A011E04412B006F
:1014700000006165616269000121000000053653CA
:101480002D4D00060C074D0901120414011501171A
:1014900003180119011A011E04412B0000006165A7
:1014A0006162690001210000000536532D4D0006E0
:1014B0000C074D0901120414011501170318011935
:1014C000011A011E04412B00000061656162690080
:1014D00001210000000536532D4D00060C074D0973
:1014E000011204140115011703180119011A011E34
:1014F00004412B0000006165616269000121000068
:10150000000536532D4D00060C074D090112041439
:101510000115011703180119011A011E04412B00BE
:101520000000616561626900012100000005365319
:101530002D4D00060C074D09011204140115011769
:1015400003180119011A011E04412B0000006165F6
:101550006162690001210000000536532D4D00062F
:101560000C074D0901120414011501170318011984
:10157000011A011E04412B000000616561626900CF
:1015800001210000000536532D4D00060C074D09C2
:10159000011204140115011703180119011A011E83
:1015A00004411D00000061656162690001130000D3
:1015B000000536532D4D00060C074D090119014158
:1015C0001D000000616561626900011300000005F3
:1015D00036532D4D00060C074D09011901411D0020
:1015E0000000616561626900011300000005365367
:0C15F0002D4D00060C074D0901190100EB
:1015FC00F0B587B0FFF7DEFA6648FEF7FEFFEF277F
:10160C00C825644C3A0000212000FEF7D5FF3A00B3
:10161C00039000212000FEF7CFFF782204900021D8
:10162C002000FEF7C9FF7822059000212000FEF76C
:10163C00C3FF594A060000212000FEF7BDFF6B4690
:10164C006A46694680B2B6B29B8A128A8989013D84
:10165C00019000962000FEF754FE002DD1D101958B
:10166C002A0029000097EF232000FEF71DFD6435AA
:10167C00484C3A0000212000FEF79EFF3A000390F0
:10168C0000212000FEF798FF782204900021200012
:10169C00FEF792FF7822059000212000FEF78CFFC8
:1016AC003D4A060000212000FEF786FF6B466A4685
:1016BC00694680B2B6B29B8A128A8989013D019033
:1016CC0000962000FEF7F0FC002DD1D101952A00E8
:1016DC0029000097EF232000FEF7E6FCC8353A00FE
:1016EC0000212000FEF768FF3A0003900021200043
:1016FC00FEF762FF7822060000212000FEF75CFF57
:10170C00254A049000212000FEF756FF6B466946DF
:10171C0080B21B8A8989B2B20090013D2000FEF78D
:10172C00CEFC002DDBD101952A0029000097EF2378
:10173C002000FEF7B9FC32353A0000212000FEF7FC
:10174C003BFF3A00039000212000FEF735FF782282
:10175C00060000212000FEF72FFF0F4A0490002105
:10176C002000FEF729FF6B46694680B21B8A8989E7
:10177C00B2B20090013D2000FEF7F5FD002DDBD14B
:10178C0001950097EF232A0029002000FEF78CFC1E
:0C179C0036E7C04604000020FFFF0000FC
:0400000508000000EF
:00000001FF
