:020000040800F2
:100000000010002051010008C9010008C9010008C2
:10001000C9010008C9010008C9010008C901000898
:10002000C9010008C9010008C9010008C901000888
:10003000C9010008C9010008C9010008C901000878
:10004000C9010008C9010008C9010008C901000868
:10005000C9010008C9010008C9010008C901000858
:10006000C9010008C9010008C9010008C901000848
:10007000C9010008C9010008C9010008C901000838
:10008000C9010008C9010008C9010008C901000828
:10009000C9010008C9010008C9010008C901000818
:1000A000C9010008C9010008C9010008C901000808
:1000B000C901000880B500AF214B214A12682149CF
:1000C0000A401A60C0461E4B1A6880239B041340E6
:1000D000F9D11D4B1C4A126801210A431A601A4BC0
:1000E000194A126806218A431A60174B164A126889
:1000F00010210A431A60124B114A526813490A40F0
:100100005A600F4B0E4A5268A02189030A435A6075
:100110000B4B0B4A52688021C9010A435A60084BB5
:10012000074A1268802149040A431A60044B044AB2
:10013000526802210A435A60C046BD4680BDC0468F
:1001400000100240FFFFFFFE00200240FFFFC3FF40
:1001500080B584B000AFFFF7ADFF164BFB60164BC8
:10016000BB60164A144BD31A7B6007E0BB685A1C6D
:10017000BA60FA68511CF96012781A707B685A1ECE
:100180007A60002BF2D10E4BBB600E4A0C4BD31A97
:100190007B6004E0BB685A1CBA6000221A707B685E
:1001A0005A1E7A60002BF5D100F086F9C046BD4694
:1001B00004B080BD8407000800000020000000207B
:1001C000000000200000002080B500AFFEE7C04620
:1001D00080B582B000AF7860C0467B685A1E7A60F6
:1001E000002BFAD1C046BD4602B080BD80B500AF3D
:1001F0000E4B0E4A52698021C9030A435A610C4BC7
:100200000B4A126801210A431A60094B084A126816
:1002100002218A431A60054B044A526980218902EF
:100220000A435A61C046BD4680BDC0460010024028
:100230000014004880B582B000AF0200FB1D1A70A8
:100240009023DB059022D205526906490A405A6183
:10025000FB1D1B78180000F09FF9C046BD4602B098
:1002600080BDC046FFFBFFFF80B582B000AF02003B
:10027000FB1D1A709023DB059022D2055269802164
:10028000C9000A435A61FB1D1B78180000F084F96D
:10029000C046BD4602B080BD80B582B000AF02004E
:1002A000BB1D1A809023DB059022D2055269802164
:1002B000C9000A435A61BB1D1B88180000F0A4F94D
:1002C000C046BD4602B080BD80B582B000AF90236D
:1002D000DB059022D20512688021C9020A431A6008
:1002E0009023DB059022D20512686C490A401A60FF
:1002F0009023DB059022D2051268802149030A432E
:100300001A609023DB059022D205126864490A40E6
:100310001A609023DB059022D20552698021890062
:100320000A435A615F4B1800FFF752FF9023DB0529
:100330009022D20552695C490A405A61594B180013
:10034000FFF746FF9023DB059022D20552698021FA
:1003500089000A435A61534B1800FFF739FF012007
:10036000FFF768FF4F4B1800FFF732FF1120FFF730
:1003700061FF4E4B1800FFF72BFF3A20FFF75AFFA3
:100380005520FFF771FF474B1800FFF721FF36207C
:10039000FFF750FF0020FFF767FF424B1800FFF701
:1003A00017FF5120FFF746FFFF20FFF75DFF2A20D0
:1003B000FFF740FF0020FFF757FF0020FFF754FF33
:1003C0000020FFF751FFEF20FFF74EFF2B20FFF734
:1003D00031FF0020FFF748FF0020FFF745FF002016
:1003E000FFF742FFEF20FFF73FFF2E4B1800FFF70C
:1003F000EFFE2120FFF71EFF2A4B1800FFF7E8FE53
:100400001320FFF717FF274B1800FFF7E1FE292005
:10041000FFF710FF234B1800FFF7DAFE2C20FFF741
:1004200009FF00237B6000237B6006E0204B18005F
:10043000FFF732FF7B6801337B607B681D4A934284
:10044000F4DD00237B6007E0F8231B021800FFF7B0
:1004500023FF7B6801337B607B68164A9342F3DDA0
:1004600000237B6007E0FC23DB001800FFF714FF8C
:100470007B6801337B607B680E4A9342F3DD002387
:100480007B6005E01F20FFF707FF7B6801337B607F
:100490007B68084A9342F5DDC5E7C046FFFFF7FFDA
:1004A000FFFFDFFF40420F00FFFDFFFF404B4C000E
:1004B000FFFF0000FFE0000080B500AFFFF796FEF1
:1004C00000F01CF8FFF700FF0A4B0A4A52690121AD
:1004D0000A435A61084B1800FFF77AFE054B054A9C
:1004E000526901218A435A61034B1800FFF770FEDD
:1004F000EAE7C0460014004840420F0080B582B0D1
:1005000000AF214B204A9269802149010A439A6138
:100510001D4B1D4A5269C021C9020A435A619023EA
:10052000DB059022D205126818490A401A60902310
:10053000DB059022D2051268A82109020A431A603D
:100540009023DB059022D205126A1203120B1A6265
:100550000F4B9B683B600E4B0E4A1A600C4BE0221F
:10056000D2005A6000237B6007E0002000F014F8FE
:1005700003003B607B6801337B607B681F2BF4DDED
:10058000C046BD4602B080BD00100240FFABFFFF79
:10059000003001404603000080B586B000AF020085
:1005A000FB1D1A70154B7B61154B3B61C046154B0B
:1005B0009B688022134004D07B695A1E7A61002B0D
:1005C000F5D13B69FA1D12781A700C4B7B61C0465D
:1005D0000C4B9B688022134004D07B695A1E7A61C1
:1005E000002BF5D10F23FB183A6912781A700F23EC
:1005F000FB181B781800BD4606B080BD40420F00B6
:100600000C3001400030014080B584B000AF0200E2
:10061000BB1D1A80144BFB60C046144B9B688022A4
:10062000134004D0FB685A1EFA60002BF5D10F4B23
:10063000BA1D1288DA600C4BFB60C0460B4B9B68FE
:100640008022134004D0FB685A1EFA60002BF5D1BB
:10065000064BDA680A23FB181A800A23FB181B884A
:100660001800BD4604B080BD40420F00003001407C
:100670004743433A2028474E5520546F6F6C7320F0
:10068000666F722041524D20456D626564646564F9
:100690002050726F636573736F727320362D323022
:1006A00031372D71322D7570646174652920362EB5
:1006B000332E3120323031373036323020287265D7
:1006C0006C6561736529205B41524D2F656D6265D4
:1006D000646465642D362D6272616E636820726594
:1006E000766973696F6E203234393433375D004177
:1006F00030000000616561626900012600000005AC
:10070000436F727465782D4D3000060C074D09015A
:100710001204140115011703180119011A011E060C
:10072000413000000061656162690001260000003F
:1007300005436F727465782D4D3000060C074D0926
:10074000011204140115011703180119011A011EE1
:100750000641300000006165616269000126000009
:100760000005436F727465782D4D3000060C074DFF
:1007700009011204140115011703180119011A01C6
:040780001E06000051
:0400000508000000EF
:00000001FF
