:020000040800F2
:100000000010002051010008C9010008C9010008C2
:10001000C9010008C9010008C9010008C901000898
:10002000C9010008C9010008C9010008C901000888
:10003000C9010008C9010008C9010008C901000878
:10004000C9010008C9010008C9010008C901000868
:10005000C9010008C9010008C9010008C901000858
:10006000C9010008C9010008C9010008C901000848
:10007000C9010008C9010008C9010008C901000838
:10008000C9010008C9010008C9010008C901000828
:10009000C9010008C9010008C9010008C901000818
:1000A000C9010008C9010008C9010008C901000808
:1000B000C901000880B500AF214B1A68204B2149C7
:1000C0000A401A60C0461E4B1A6880239B041340E6
:1000D000F9D11D4B1A681C4B01210A431A601A4BB7
:1000E0001A68194B06218A431A60174B1A68164B77
:1000F00010210A431A60124B5A68114B13490A40E7
:100100005A600F4B5A680E4BA02189030A435A606C
:100110000B4B5A680A4B8021C9010A435A60084BAD
:100120001A68074B802149040A431A60044B5A6835
:10013000034B02210A435A60C046BD4680BDC046FB
:1001400000100240FFFFFFFE00200240FFFFC3FF40
:1001500080B584B000AFFFF7ADFF164BFB60164BC8
:10016000BB60164A144BD31A7B6007E0FA68531C35
:10017000FB60BB68591CB96012781A707B685A1E04
:100180007A60002BF2D10E4BBB600E4A0C4BD31A97
:100190007B6004E0BB685A1CBA6000221A707B685E
:1001A0005A1E7A60002BF5D100F086F9C046BD4694
:1001B00004B080BD6C070008000000200000002093
:1001C000000000200000002080B500AFFEE7C04620
:1001D00080B582B000AF7860C0467B685A1E7A60F6
:1001E000002BFAD1C046BD4602B080BD80B500AF3D
:1001F0000E4B5A690D4B8021C9030A435A610C4BBF
:100200001A680B4B01210A431A60094B1A68084B04
:1002100002218A431A60054B5A69044B80218902E6
:100220000A435A61C046BD4680BDC0460010024028
:100230000014004880B582B000AF0200FB1D1A70A8
:100240009023DB055A699023DB0506490A405A6171
:10025000FB1D1B78180000F09FF9C046BD4602B098
:1002600080BDC046FFFBFFFF80B582B000AF02003B
:10027000FB1D1A709023DB055A699023DB05802152
:10028000C9000A435A61FB1D1B78180000F084F96D
:10029000C046BD4602B080BD80B582B000AF02004E
:1002A000BB1D1A809023DB055A699023DB05802152
:1002B000C9000A435A61BB1D1B88180000F0A4F94D
:1002C000C046BD4602B080BD80B582B000AF90236D
:1002D000DB051A689023DB058021C9020A431A60F6
:1002E0009023DB051A689023DB056C490A401A60ED
:1002F0009023DB051A689023DB05802149030A431C
:100300001A609023DB051A689023DB0564490A40D4
:100310001A609023DB055A699023DB058021890050
:100320000A435A615F4B1800FFF752FF9023DB0529
:100330005A699023DB055C490A405A61594B180001
:10034000FFF746FF9023DB055A699023DB058021E8
:1003500089000A435A61534B1800FFF739FF012007
:10036000FFF768FF4F4B1800FFF732FF1120FFF730
:1003700061FF4E4B1800FFF72BFF3A20FFF75AFFA3
:100380005520FFF771FF474B1800FFF721FF36207C
:10039000FFF750FF0020FFF767FF424B1800FFF701
:1003A00017FF5120FFF746FFFF20FFF75DFF2A20D0
:1003B000FFF740FF0020FFF757FF0020FFF754FF33
:1003C0000020FFF751FFEF20FFF74EFF2B20FFF734
:1003D00031FF0020FFF748FF0020FFF745FF002016
:1003E000FFF742FFEF20FFF73FFF2E4B1800FFF70C
:1003F000EFFE2120FFF71EFF2A4B1800FFF7E8FE53
:100400001320FFF717FF274B1800FFF7E1FE292005
:10041000FFF710FF234B1800FFF7DAFE2C20FFF741
:1004200009FF00237B6000237B6006E0204B18005F
:10043000FFF732FF7B6801337B607B681D4A934284
:10044000F4DD00237B6007E0F8231B021800FFF7B0
:1004500023FF7B6801337B607B68164A9342F3DDA0
:1004600000237B6007E0FC23DB001800FFF714FF8C
:100470007B6801337B607B680E4A9342F3DD002387
:100480007B6005E01F20FFF707FF7B6801337B607F
:100490007B68084A9342F5DDC5E7C046FFFFF7FFDA
:1004A000FFFFDFFF40420F00FFFDFFFF404B4C000E
:1004B000FFFF0000FFE0000080B500AFFFF796FEF1
:1004C00000F01CF8FFF700FF0A4B5A69094B0121A5
:1004D0000A435A61084B1800FFF77AFE054B5A6928
:1004E000044B01218A435A61034B1800FFF770FE49
:1004F000EAE7C0460014004840420F0080B582B0D1
:1005000000AF214B9A69204B802149010A439A612F
:100510001D4B5A691C4BC021C9020A435A619023E2
:10052000DB051A689023DB0518490A401A609023FE
:10053000DB051A689023DB05A82109020A431A602B
:100540009023DB051A6A9023DB051203120B1A6253
:100550000F4B9B683B600E4B0E4A1A600C4BE0221F
:10056000D2005A6000237B6007E0002000F014F8FE
:1005700003003B607B6801337B607B681F2BF4DDED
:10058000C046BD4602B080BD00100240FFABFFFF79
:10059000003001404603000080B586B000AF020085
:1005A000FB1D1A70154B7B61154B3B61C046154B0B
:1005B0009B688022134004D07B695A1E7A61002B0D
:1005C000F5D13B69FA1D12781A700C4B7B61C0465D
:1005D0000C4B9B688022134004D07B695A1E7A61C1
:1005E000002BF5D10F217B183A6912781A707B180D
:1005F0001B781800BD4606B080BDC04640420F00C3
:100600000C3001400030014080B584B000AF0200E2
:10061000BB1D1A80144BFB60C046144B9B688022A4
:10062000134004D0FB685A1EFA60002BF5D10F4B23
:10063000BA1D1288DA600C4BFB60C0460B4B9B68FE
:100640008022134004D0FB685A1EFA60002BF5D1BB
:10065000064BDA680A217B181A807B181B88180061
:10066000BD4604B080BDC04640420F00003001408E
:100670004743433A2028474E5520546F6F6C7320F0
:10068000666F722041726D20456D626564646564B9
:100690002050726F636573736F727320382D323020
:1006A00031382D71342D6D616A6F722920382E32E8
:1006B0002E31203230313831323133202872656C9E
:1006C0006561736529205B6763632D382D627261F4
:1006D0006E6368207265766973696F6E2032363793
:1006E0003037345D00412B000000616561626900B4
:1006F00001210000000536532D4D00060C074D0961
:10070000011204140115011703180119011A011E21
:1007100006412B0000006165616269000121000053
:10072000000536532D4D00060C074D090112041427
:100730000115011703180119011A011E06412B00AA
:100740000000616561626900012100000005365307
:100750002D4D00060C074D09011204140115011757
:0C07600003180119011A011E0600000018
:0400000508000000EF
:00000001FF
