:020000040800F2
:1000000000100020C9010008510200085102000838
:100010005102000851020008510200085102000874
:100020005102000851020008510200085102000864
:10003000510200085102000851020008410A00085C
:100040005102000851020008510200085102000844
:100050005102000851020008510200085102000834
:100060005102000851020008510200085102000824
:100070005102000851020008510200085102000814
:100080005102000851020008510200085102000804
:1000900051020008510200085102000851020008F4
:1000A000510200085102000851020008790C0008B2
:1000B0005102000880B500AF234B1A68224B234938
:1000C0000A401A60204B1A6880239B0413405A1E72
:1000D0009341DBB2002B00D0F4E71D4B1A681C4B98
:1000E00001210A431A601A4B1A68194B06218A43E8
:1000F0001A60174B1A68164B10210A431A60124BEC
:100100005A68114B13490A405A600F4B5A680E4BFC
:10011000A02189030A435A600B4B5A680A4B80217D
:10012000C9010A435A60084B1A68074B80214904E9
:100130000A431A60044B5A68034B02210A435A606F
:10014000C046BD4680BDC04600100240FFFFFFFE16
:1001500000200240FFFFC3FF80B582B000AF164A07
:10016000164BD31A9B103B6000237B607A683B6878
:100170009A4208D2114B7A689200D35898477B680C
:1001800001337B60F2E70E4A0E4BD31A9B103B60A3
:1001900000237B607A683B689A4208D2094B7A68F0
:1001A0009200D35898477B6801337B60F2E7C046E2
:1001B000BD4602B080BDC046000000000000000047
:1001C000000000000000000080B584B000AFFFF721
:1001D00071FF1A4BFB601A4BBB601A4A184BD31ABB
:1001E0007B607B685A1E7A605A1E9341DBB2002BFB
:1001F00008D0FA68531CFB60BB68591CB9601278C0
:100200001A70EEE7104BBB60104A0F4BD31A7B609D
:100210007B685A1E7A605A1E9341DBB2002B05D0D0
:10022000BB685A1CBA6000221A70F1E7FFF794FF0E
:1002300000F010FEC046BD4604B080BD311000087D
:10024000000000200000002000000020B40000207A
:1002500080B500AFFEE7C04682B00190019B5A1EF8
:100260000192002BFAD102B0704737B50D4C200037
:1002700000F098FB250020007835203000F0F2FBDC
:10028000280000F013FB23000221074A0191101DF2
:100290001832009279332A00210000F005F962B685
:1002A00037BDC0460400002084000020F7B52E4E64
:1002B0002E493000203000F085FC00242C4B21001A
:1002C0001D1D2800370000F0CDF820370100380050
:1002D00000F084FC01342749380000F073FC0A2C3C
:1002E000ECD13800244901AF00F06CFC3900280043
:1002F00000F045F9002435002035395D280001342F
:1003000000F06CFC042CF6D128001C4900F05AFCCB
:10031000174B3900181D00F060F900253400203417
:10032000795D2000013500F059FC042DF6D1144907
:10033000200000F047FC0E4B1D1D280000F012F9B4
:100340000100200000F04AFC0E49200000F03AFCB9
:10035000280000F059FAC1B2200000F03FFC0A4921
:10036000200000F02FFCF7BD04000020E80F00087B
:10037000840000201E100008F80F00080510000877
:1003800012100008191000082E10000890221021E9
:10039000D20553698B435361704790221023D205D5
:1003A00051690B43536170470221054A10B55369E7
:1003B0008B4353610139406800F02FFB10BDC046EC
:1003C000001400480223054A10B551690B435361DC
:1003D0000121406800F021FB10BDC0460014004818
:1003E00090221021D20553698B43536170479022AC
:1003F0001023D20551690B43536170470221044A0F
:1004000010B553690B435361406800F006FB10BD03
:10041000000400480221044A10B553698B4353611C
:10042000406800F0FAFA10BD000400480123054AB4
:1004300010B551690B4353610321406800F0EDFA98
:1004400010BDC046001400480121054A10B553698B
:100450008B4353610231406800F0DFFA10BDC046A3
:100460000014004870B50C000500FFF78FFF210055
:1004700010312868C9B200F055FA0021286800F050
:1004800051FA0400FFF789FF200070BD70B5050028
:100490001202521894B2FFF779FF2100286800F089
:1004A0005BFAFFF77AFF70BD8C2370B50E00294907
:1004B00004004869DB0303434B610221264B66605D
:1004C00022601A6804258A431A60012219682348A9
:1004D0000A4308211A601A688A431A601A682A4374
:1004E0001A609023DB051A6802401A60802218689F
:1004F000520002431A601A4B1A688A431A601A683B
:100500002A431A60FFF749FF2000FFF74DFF200044
:10051000FFF780FF2000FFF797FF09212000FFF77A
:10052000A1FFC7221040AF3A024309212000FFF784
:10053000ADFF200020220321FFF7A8FF2900202281
:100540002000FFF7A3FF3000032100F066FA00202F
:1005500070BDC0460010024000140048FFFDFFFFC0
:100560000004004810B50400FFF710FF10212068B8
:1005700000F0D8F90400FFF710FF200010BD70B59F
:100580000C0005210500FFF76DFF062120702800F3
:10059000FFF768FF072160702800FFF763FF08215D
:1005A000A0702800FFF75EFFE07070BD70B50D0011
:1005B00004000A780521FFF769FF6A782000062108
:1005C000FFF764FFAA7820000721FFF75FFFEA78B2
:1005D00008212000FFF75AFF70BD70B504000D0020
:1005E000FFF7D4FE2321206800F09CF90021206849
:1005F00000F098F928700021206800F093F96870E5
:100600000021206800F08EF9A8700021206800F019
:1006100089F9E870FFF7C1FE70BD70B504000D00E8
:10062000FFF7B4FE2221206800F07CF929782068C9
:1006300000F078F96978206800F074F9A9782068EA
:1006400000F070F9E978206800F06CF9FFF7A5FE7A
:1006500070BD70B50400CAB20D000021FFF716FF8F
:1006600001212000FFF7FEFE012102008A43D2B2E1
:10067000EB0501D50143CAB201212000FFF706FFB7
:1006800070BD70B50D0001210400FFF7EBFE020004
:10069000002D06D1FD231A4001212000FFF7F6FEB0
:1006A00070BD012DF8D102200243D2B2F4E770B53B
:1006B0000D0001210400FFF7D5FE0200002D06D138
:1006C000DF231A4001212000FFF7E0FE70BD012D5D
:1006D000F8D120200243D2B2F4E770B50C0001211A
:1006E0000500FFF7BFFE0C230200A4001C409A4344
:1006F00022432800D2B20121FFF7C8FE70BD70B5B9
:100700000D0001210400FFF7ADFE102102008A4315
:10071000D2B2012D01D10143CAB201212000FFF75D
:10072000B5FE70BD70B50C0002210500FFF79AFE02
:10073000F8220240012C06D12243D2B20221280025
:10074000FFF7A4FE01E0042CF6D070BD70B50D00DB
:1007500002210400FFF786FE8F2210407F3A012D10
:1007600002D0042D05D14022024302212000FFF7D0
:100770008DFE70BD70B506000C001500202A14D83F
:10078000D2B20421FFF782FEFFF700FE202130687D
:1007900000F0C8F86519AC4205D02178306800F047
:1007A000C1F80134F7E7FFF7F8FD70BD70B506003A
:1007B0000C001500FFF7EAFD2121306800F0B2F8C7
:1007C0006519AC4206D00021306800F0ABF820700B
:1007D0000134F6E7FFF7E1FD70BD70B506000C00CF
:1007E0001500FFF7D3FD2421306800F09BF8651950
:1007F000AC4206D00021306800F094F8207001343B
:10080000F6E7FFF7CAFD70BD9023DB051869800786
:10081000C00F704770B504000D00FFF7C5FD200044
:10082000FFF7F8FD2000FFF701FE20220421200041
:10083000FFF72CFEFFF7AAFD2221206800F072F8D6
:100840002978206800F06EF86978206800F06AF86E
:10085000A978206800F066F8E978206800F062F86E
:10086000FFF79BFDFFF792FD2021206800F05AF86A
:100870002E002A79731B9A4205DD7179206800F0F9
:1008800051F80136F5E7FFF788FD2000FFF79AFDE4
:100890002000FFF7B3FD1421606800F0BEF82000CF
:1008A000FFF7B8FD2000FFF77FFD70BD80221A4BD7
:1008B0005201996982B00A439A61C0225969D202F1
:1008C0000A435A619023DB051A6814490A401A60EA
:1008D000A822196812020A431A601A6A1203120B3C
:1008E0001A620F4B9A680192D92292001A60B822BC
:1008F00052015A601A68019200220092009A1F2A3F
:1009000004DCDA680192009A0132F6E700209B6865
:10091000019302B07047C04600100240FFABFFFFDA
:100920000030014013B5094B01240193FA235B0009
:100930000193074B074819708268224204D1019A3B
:10094000511E0191002AF7D1187816BD40420F00C0
:100950000C30014000300140104B82B00193FA236B
:1009600001205B0001930E4BD9609A68024204D1CA
:10097000019A511E0191002AF7D1DA68FA2201206A
:10098000520001929A68024204D1019A511E0191CB
:10099000002AF7D1D868C0B202B0704740420F00B9
:1009A000003001400A4B07221860002303604360B7
:1009B0008360C360036143618361C361054B196850
:1009C0000A431A60044A5A6005229A6062B6704768
:1009D000A800002010E000E07FBB0000002210B55E
:1009E00094000359002B02D12150180010BD013290
:1009F000082AF5D101204042F8E7002310B59A00FB
:100A000084588C4203D100231350180010BD0133C9
:100A1000082BF4D101204042F8E700290AD0064B08
:100A20005A689A600022054B5A605A688A4201D27D
:100A300030BFFAE77047C04610E000E0A800002091
:100A400070B50024064D6B6801336B602A68A30003
:100A50009B58002B00D098470134082CF6D170BD6C
:100A6000A8000020214B224A1860802351699B0274
:100A70000B43536180239169DB010B439361902306
:100A8000A021DB0518680143102019601968814313
:100A900019601968303081431960196A154801409E
:100AA00019628021186A4900014319628021186A7D
:100AB0004901014300201962D3680F490B40D360FC
:100AC0000E4B0F4A186058609860DA60642219680B
:100AD0000A431A60012219680A431A608023094AEE
:100AE0001B0511680B43136062B67047B00000200D
:100AF00000100240FF00FFFFFFBFFFFF0038014072
:100B00008813000000E100E0030000685A6890428A
:100B100003D19A680120002A0FD172B61A68501CBE
:100B20009A18186011739A6801329A601A68202A1C
:100B300001D100221A6062B60020704710B5034B45
:100B40002C30596AC9B2FFF7DFFF10BD00380140F1
:100B500082680300101E0ED072B65A68511C59608C
:100B60009A18107B5A68202A01D100225A609A688C
:100B7000013A9A6062B6704710B50300426B0020DC
:100B8000824203D02C331800FFF7E2FF10BD70B58E
:100B90000500AB681F2BFCD82800FFF7B5FF082322
:100BA000054C22681A4206D12268280013432360AC
:100BB000FFF7CEFFA06270BD0038014010B5FFF70F
:100BC000E6FF10BD70B505000C002178002904D0A7
:100BD00028000134FFF7DBFFF7E770BD002313B5F2
:100BE00001AA93700F330B401C003734092B01D836
:100BF00030331C000B115470DCB221003731092B4B
:100C000000DC073911701100FFF7DCFF13BD70B570
:100C100005000C00090AFFF7E1FF2800E1B2FFF729
:100C2000DDFF70BD70B505000C00090CFFF7EFFF8C
:100C30002800A1B2FFF7EBFF70BD10B583680D4C23
:100C4000002B03D0FFF784FFA06210BD08222368A9
:100C5000934323604023E2691A4202D0226A13437D
:100C60002362E3691B06F0D51023A2691343A36135
:100C7000EBE7C0460038014010B5084CE2691306A6
:100C800003D5074B1868FFF7D8FFE3699B0603D528
:100C9000034B1868FFF752FF10BDC04600380140F3
:100CA000B0000020AAAAAA014743433A2028474E91
:100CB0005520546F6F6C7320666F722041726D20E7
:100CC000456D6265646465642050726F636573731B
:100CD0006F727320382D323031382D71342D6D61A3
:100CE0006A6F722920382E322E312032303138315D
:100CF000323133202872656C6561736529205B672A
:100D000063632D382D6272616E6368207265766947
:100D100073696F6E203236373037345D00412B00F7
:100D20000000616561626900012100000005365321
:100D30002D4D00060C074D09011204140115011771
:100D400003180119011A011E04412B0000006165FE
:100D50006162690001210000000536532D4D000637
:100D60000C074D090112041401150117031801198C
:100D7000011A011E04412B000000616561626900D7
:100D800001210000000536532D4D00060C074D09CA
:100D9000011204140115011703180119011A011E8B
:100DA00004412B00000061656162690001210000BF
:100DB000000536532D4D00060C074D090112041491
:100DC0000115011703180119011A011E04412B0016
:100DD0000000616561626900012100000005365371
:100DE0002D4D00060C074D090112041401150117C1
:100DF00003180119011A011E04412B00000061654E
:100E00006162690001210000000536532D4D000686
:100E10000C074D09011204140115011703180119DB
:100E2000011A011E04412B00000061656162690026
:100E300001210000000536532D4D00060C074D0919
:100E4000011204140115011703180119011A011EDA
:040E5000020000009C
:100E5400F0B58BB001AD04222C49280000F070F8E5
:100E6400FFF701FA2A4B29001C1D2000FFF79CFB09
:100E7400022320000421EB70FFF752FC200029001C
:100E8400FFF7C9FB20006A21FFF7E1FB20000021E6
:100E9400FFF7F5FB03212000FFF71DFC2000FFF7FF
:100EA400C3FA2000FFF78CFA1A4C1B4920002030AB
:100EB400FFF786FEFFF7F8F9154B1D1D2800FFF715
:100EC400A1FC00281CD002AF280020223900FFF723
:100ED40082FC200011492030FFF772FE0025260015
:100EE4002036795D3000FFF777FE01350C4930007C
:100EF400FFF766FE202DF2D10A493000FFF760FEAD
:100F0400C82120004900FFF786FDD3E7A40C0008A0
:100F14008400002004000020201000082A1000088B
:100F24001E1000082E1000080022044B9A625A6218
:100F34001A625A651A65DA647047C04604000020D4
:100F4400F0B5C64600B50F2A42D90D0005430C0082
:100F54000300AD0741D11500103D2D09A8462D0110
:100F6400AC46844400E03300266865681E60E66889
:100F7400A768DE601E005D609F6010341036634514
:100F8400F1D145460F240C2301352D014919144094
:100F94004519134224D00023CE58EE500433E61AE8
:100FA400032EF9D80323043CA4080134A4001A40F6
:100FB4002D190919561E002A07D0002300E023002A
:100FC400CA5C5C1CEA549E42F9D104BC9046F0BD54
:100FD4000500561E002AF0D1F7E7561E0500ECE77F
:040FE4002200F6E70A
:100FE8002A2A2A20524620436F6E6669670D0A0036
:100FF8000D0A52582041646472657373000D0A54D7
:10100800582041646472657373000D0A53743A2062
:10101800000D0A44523A20005258204D6F64650D65
:091028000A000D0A52580D0A00DD
:041031002D0F000877
:0400000508000000EF
:00000001FF
