:020000040800F2
:1000000000100020C9010008510200085102000838
:100010005102000851020008510200085102000874
:100020005102000851020008510200085102000864
:10003000510200085102000851020008790A000824
:100040005102000851020008510200085102000844
:100050005102000851020008510200085102000834
:100060005102000851020008510200085102000824
:100070005102000851020008510200085102000814
:100080005102000851020008510200085102000804
:1000900051020008510200085102000851020008F4
:1000A000510200085102000851020008B10C00087A
:1000B0005102000880B500AF234B1A68224B234938
:1000C0000A401A60204B1A6880239B0413405A1E72
:1000D0009341DBB2002B00D0F4E71D4B1A681C4B98
:1000E00001210A431A601A4B1A68194B06218A43E8
:1000F0001A60174B1A68164B10210A431A60124BEC
:100100005A68114B13490A405A600F4B5A680E4BFC
:10011000A02189030A435A600B4B5A680A4B80217D
:10012000C9010A435A60084B1A68074B80214904E9
:100130000A431A60044B5A68034B02210A435A606F
:10014000C046BD4680BDC04600100240FFFFFFFE16
:1001500000200240FFFFC3FF80B582B000AF164A07
:10016000164BD31A9B103B6000237B607A683B6878
:100170009A4208D2114B7A689200D35898477B680C
:1001800001337B60F2E70E4A0E4BD31A9B103B60A3
:1001900000237B607A683B689A4208D2094B7A68F0
:1001A0009200D35898477B6801337B60F2E7C046E2
:1001B000BD4602B080BDC046000000000000000047
:1001C000000000000000000080B584B000AFFFF721
:1001D00071FF1A4BFB601A4BBB601A4A184BD31ABB
:1001E0007B607B685A1E7A605A1E9341DBB2002BFB
:1001F00008D0FA68531CFB60BB68591CB9601278C0
:100200001A70EEE7104BBB60104A0F4BD31A7B609D
:100210007B685A1E7A605A1E9341DBB2002B05D0D0
:10022000BB685A1CBA6000221A70F1E7FFF794FF0E
:1002300000F014FEC046BD4604B080BD560F000855
:10024000000000200800002008000020A40000207A
:1002500080B500AFFEE7C04682B00190019B5A1EF8
:100260000192002BFAD102B0704737B5114C200033
:1002700000F0B4FB250020007835203000F00EFCA3
:10028000280000F02FFB6A2220000B4B01921A1D60
:10029000009221002A007C3000F000FA62B6902320
:1002A0000221DB051A688A431A60012219680A4391
:1002B0001A6037BD0C00002000000020F7B52E4C5E
:1002C0002E492000203000F099FC002526007C36C5
:1002D00029003000270000F0CBF82037010038005B
:1002E00000F098FC01352649380000F087FC0A2D03
:1002F000ECD13800234901AF00F080FC3900300018
:1003000000F0E5F8002526002036795D3000013543
:1003100000F080FC042DF6D130001B4900F06EFC8B
:10032000200039007C3000F000F90026250020353F
:10033000B95D2800013600F06DFC042EF6D12800CE
:1003400012497C3400F05AFC200000F0B3F80100A0
:10035000280000F05FFC28000D4900F04FFC200051
:1003600000F070FAC1B2280000F054FC28000949DE
:1003700000F044FCF7BDC0460C0000200C0F000844
:10038000420F00081C0F0008290F0008360F000854
:100390003D0F0008530F000890221021D205536929
:1003A0008B435361704790221023D20551690B4350
:1003B000536170470221054A10B5536940688B4369
:1003C0005361013900F045FB10BDC04600140048E0
:1003D0000223054A10B5516940680B43536101215E
:1003E00000F037FB10BDC0460014004890221021D9
:1003F000D20553698B435361704790221023D20575
:1004000051690B43536170470221044A10B5536987
:1004100040680B43536100F01CFB10BD0004004812
:100420000221044A10B5536940688B43536100F0C0
:1004300010FB10BD000400480123054A10B55169A6
:1004400040680B435361032100F003FB10BDC0461D
:10045000001400480121054A10B5536940688B43D8
:100460005361023100F0F5FA10BDC0460014004897
:1004700070B50C000500FFF78FFF210010312868D0
:10048000C9B200F06BFA0021286800F067FA040096
:10049000FFF789FF200070BD70B5050012025218E9
:1004A00094B2FFF779FF2100286800F071FAFFF796
:1004B0007AFF70BD10B50400FFF76EFF10212068B1
:1004C00000F04CFA0400FFF76EFF200010BD70B57D
:1004D0000C0005210500FFF7CBFF06212070280046
:1004E000FFF7C6FF072160702800FFF7C1FF082152
:1004F000A0702800FFF7BCFFE07070BD70B50D0064
:1005000004000A780521FFF7C7FF6A78200006215A
:10051000FFF7C2FFAA7820000721FFF7BDFFEA78A6
:1005200008212000FFF7B8FF70BD70B504000D0072
:10053000FFF732FF2321206800F010FA0021206825
:1005400000F00CFA28700021206800F007FA6870AB
:100550000021206800F002FAA8700021206800F055
:10056000FDF9E870FFF71FFF70BD70B504000D00C6
:10057000FFF712FF2221206800F0F0F929782068A7
:1005800000F0ECF96978206800F0E8F9A9782068B3
:1005900000F0E4F9E978206800F0E0F9FFF703FFE4
:1005A00070BD70B50400CAB20D000021FFF774FFE2
:1005B00001212000FFF75CFF012102008A43D2B233
:1005C000EB0501D50143CAB201212000FFF764FF0A
:1005D00070BD70B50D0001210400FFF749FF020056
:1005E000002D06D1FD231A4001212000FFF754FF02
:1005F00070BD012DF8D102200243D2B2F4E770B5EC
:100600000D0001210400FFF733FF0200002D06D189
:10061000DF231A4001212000FFF73EFF70BD012DAE
:10062000F8D120200243D2B2F4E770B50C000121CA
:100630000500FFF71DFF0C230200A4001C409A4395
:1006400022432800D2B20121FFF726FF70BD70B50A
:100650000D0001210400FFF70BFF102102008A4367
:10066000D2B2012D01D10143CAB201212000FFF70E
:1006700013FF70BD70B50C0002210500FFF7F8FEF6
:10068000F8220240012C06D12243D2B202212800D6
:10069000FFF702FF01E0042CF6D070BDF8B51F0093
:1006A0008C230E00344904004869DB0303434B618B
:1006B0000221324B22601A6866608A431A60012266
:1006C000196804250A4308211A601A682C488A43CD
:1006D0001A601A682A431A609023DB051A680240E0
:1006E0001A6080221868520002431A60254B1A686B
:1006F0008A431A601A682A431A60FFF754FE2000E2
:10070000FFF758FE2000FFF78BFE2000FFF7A2FE48
:1007100009212000FFF7ACFEC7221040AF3A024388
:1007200009212000FFF7B8FE200020220321FFF757
:10073000B3FE202229002000FFF7AEFE3000032187
:1007400000F087F929002000FFF794FF06992000A8
:10075000FFF70BFF39002000FFF7D0FE07992000BC
:10076000FFF71FFF20000021FFF733FF20000321C8
:10077000FFF75BFF0020F8BD0010024000140048A6
:10078000FFFDFFFF0004004870B50D0002210400CA
:10079000FFF76EFE8F2210407F3A012D02D0042D0C
:1007A00005D14022024302212000FFF775FE70BDF3
:1007B00070B506000C001500202A14D8D2B204210E
:1007C000FFF76AFEFFF7E8FD2021306800F0C6F869
:1007D0006519AC4205D02178306800F0BFF80134CB
:1007E000F7E7FFF7E0FD70BD70B506000C001500DF
:1007F000FFF7D2FD2121306800F0B0F86519AC4256
:1008000006D00021306800F0A9F820700134F6E726
:10081000FFF7C9FD70BD70B506000C001500FFF7AD
:10082000BBFD2421306800F099F86519AC4206D070
:100830000021306800F092F820700134F6E7FFF7ED
:10084000B2FD70BD9023DB0518698007C00F7047AB
:1008500010B50400FFF7F0FD2000FFF7B9FD10BD53
:1008600010B50400FFF7A6FD2000FFF7F3FD10BD53
:1008700070B504000D00FFF79DFD2000FFF7D0FDCF
:100880002000FFF7D9FD202204212000FFF704FEFD
:1008900029002000FFF769FEFFF77EFD2021206878
:1008A00000F05CF82E1D243531782068013600F008
:1008B00055F8AE42F8D1FFF776FD2000FFF788FD2E
:1008C0002000FFF7A1FD1421606800F0C2F82000AD
:1008D000FFF7A6FD2000FFF76DFD2000FFF7BAFD32
:1008E00070BDC04680221A4B5201996982B00A43FA
:1008F0009A61C0225969D2020A435A619023DB05EA
:100900001A6814490A401A60A822196812020A4398
:100910001A601A6A1203120B1A620F4B9A6801923C
:10092000D92292001A60B82252015A601A680192C4
:1009300000220092009A1F2A04DCDA680192009AD1
:100940000132F6E700209B68019302B07047C04671
:1009500000100240FFABFFFF0030014013B5094B10
:1009600001240193FA235B000193074B0748197098
:100970008268224204D1019A511E0191002AF7D1C6
:10098000187816BD40420F000C3001400030014085
:10099000104B82B00193FA2301205B0001930E4BB0
:1009A000D9609A68024204D1019A511E0191002A2D
:1009B000F7D1DA68FA220120520001929A680242C5
:1009C00004D1019A511E0191002AF7D1D868C0B212
:1009D00002B0704740420F00003001400A4B07222E
:1009E00018600023036043608360C3600361436158
:1009F0008361C361054B19680A431A60044A5A604F
:100A000005229A6062B670479800002010E000E06E
:100A10007FBB0000002210B594000359002B02D1C7
:100A20002150180010BD0132082AF5D101204042A2
:100A3000F8E7002310B59A0084588C4203D10023B4
:100A40001350180010BD0133082BF4D1012040428F
:100A5000F8E700290AD0064B5A689A600022054B35
:100A60005A605A688A4201D230BFFAE77047C046DE
:100A700010E000E09800002070B50024064D6B687F
:100A800001336B602A68A3009B58002B00D0984765
:100A90000134082CF6D170BD98000020214B224A69
:100AA0001860802351699B020B4353618023916935
:100AB000DB010B4393619023A021DB051868014300
:100AC000102019601968814319601968303081431A
:100AD0001960196A1548014019628021186A490095
:100AE000014319628021186A4901014300201962FB
:100AF000D3680F490B40D3600E4B0F4A1860586003
:100B00009860DA60642219680A431A600122196841
:100B10000A431A608023094A1B0511680B431360BE
:100B200062B67047A000002000100240FF00FFFFE7
:100B3000FFBFFFFF003801408813000000E100E024
:100B4000030000685A68904203D19A680120002A85
:100B50000FD172B61A68501C9A18186011739A68EF
:100B600001329A601A68202A01D100221A6062B606
:100B70000020704710B5034B2C30596AC9B2FFF7FB
:100B8000DFFF10BD0038014082680300101E0ED048
:100B900072B65A68511C59609A18107B5A68202AFC
:100BA00001D100225A609A68013A9A6062B6704791
:100BB00010B50300426B0020824203D02C33180092
:100BC000FFF7E2FF10BD70B50500AB681F2BFCD826
:100BD0002800FFF7B5FF0823054C22681A4206D10A
:100BE0002268280013432360FFF7CEFFA06270BD88
:100BF0000038014010B5FFF7E6FF10BD70B50500E5
:100C00000C002178002904D028000134FFF7DBFF15
:100C1000F7E770BD002313B501AA93700F330B40A3
:100C20001C003734092B01D830331C000B115470D1
:100C3000DCB221003731092B00DC073911701100BB
:100C4000FFF7DCFF13BD70B505000C00090AFFF7C4
:100C5000E1FF2800E1B2FFF7DDFF70BD70B50500D0
:100C60000C00090CFFF7EFFF2800A1B2FFF7EBFF24
:100C700070BD10B583680D4C002B03D0FFF784FFC7
:100C8000A06210BD08222368934323604023E269D9
:100C90001A4202D0226A13432362E3691B06F0D58D
:100CA0001023A2691343A361EBE7C046003801405B
:100CB00010B5084CE269130603D5074B1868FFF717
:100CC000D8FFE3699B0603D5034B1868FFF752FF73
:100CD00010BDC04600380140A00000204743433A01
:100CE0002028474E5520546F6F6C7320666F72201A
:100CF00041726D20456D6265646465642050726F59
:100D0000636573736F727320382D323031382D71F3
:100D1000342D6D616A6F722920382E322E312032C7
:100D200030313831323133202872656C656173653A
:100D300029205B6763632D382D6272616E636820C2
:100D40007265766973696F6E203236373037345D7D
:100D500000412B0000006165616269000121000013
:100D6000000536532D4D00060C074D0901120414E1
:100D70000115011703180119011A011E04412B0066
:100D800000006165616269000121000000053653C1
:100D90002D4D00060C074D09011204140115011711
:100DA00003180119011A011E04412B00000061659E
:100DB0006162690001210000000536532D4D0006D7
:100DC0000C074D090112041401150117031801192C
:100DD000011A011E04412B00000061656162690077
:100DE00001210000000536532D4D00060C074D096A
:100DF000011204140115011703180119011A011E2B
:100E000004412B000000616561626900012100005E
:100E1000000536532D4D00060C074D090112041430
:100E20000115011703180119011A011E04412B00B5
:100E30000000616561626900012100000005365310
:100E40002D4D00060C074D09011204140115011760
:0C0E500003180119011A011E0400000023
:100E5C00F0B589B0FFF703FA1E4C902520007C30CA
:100E6C00FFF7F0FC20001C492030FFF7C1FEED0518
:100E7C0026007C363000FFF7DFFC002824D001224E
:100E8C006B69300013436B611F326946FFF7BDFC81
:100E9C00200012492030FFF7ABFE002627006B46DE
:100EAC002037995D3800FFF7AFFE01360C4938004A
:100EBC00FFF79EFE202EF1D10A493800FFF798FE6D
:100ECC0001226B6993436B61C82120004900FFF735
:100EDC00BAFDCDE70C000020440F00084F0F0008AE
:100EEC00420F0008530F00080022044B9A625A620A
:100EFC001A625A651A65DA647047C0460C00002005
:100F0C002A2A2A20524620436F6E6669670D0A0012
:100F1C000D0A52582041646472657373000D0A54B3
:100F2C00582041646472657373000D0A53743A203F
:100F3C00000D0A44523A20005258204D6F646561EE
:0A0F4C000D0A000D0A52580D0A00AC
:080F5600AAAAAA01AAAAAA0294
:040F5E00F50E000884
:0400000508000000EF
:00000001FF
