:020000040800F2
:100000000010002051010008C9010008C9010008C2
:10001000C9010008C9010008C9010008C901000898
:10002000C9010008C9010008C9010008C901000888
:10003000C9010008C9010008C9010008C901000878
:10004000C9010008C9010008C9010008C901000868
:10005000C9010008C9010008C9010008C901000858
:10006000C9010008C9010008C9010008C901000848
:10007000C9010008C9010008C9010008C901000838
:10008000C9010008C9010008C9010008C901000828
:10009000C9010008C9010008C9010008C901000818
:1000A000C9010008C9010008C9010008C901000808
:1000B000C901000880B500AF214B214A12682149CF
:1000C0000A401A60C0461E4B1A6880239B041340E6
:1000D000F9D11D4B1C4A126801210A431A601A4BC0
:1000E000194A126806218A431A60174B164A126889
:1000F00010210A431A60124B114A526813490A40F0
:100100005A600F4B0E4A5268A02189030A435A6075
:100110000B4B0B4A52688021C9010A435A60084BB5
:10012000074A1268802149040A431A60044B044AB2
:10013000526802210A435A60C046BD4680BDC0468F
:1001400000100240FFFFFFFE00200240FFFFC3FF40
:1001500080B584B000AFFFF7ADFF164BFB60164BC8
:10016000BB60164A144BD31A7B6007E0BB685A1C6D
:10017000BA60FA68511CF96012781A707B685A1ECE
:100180007A60002BF2D10E4BBB600E4A0C4BD31A97
:100190007B6004E0BB685A1CBA6000221A707B685E
:1001A0005A1E7A60002BF5D100F03CF8C046BD46DF
:1001B00004B080BD440300080000002000000020BF
:1001C000000000200000002080B500AFFEE7C04620
:1001D00080B582B000AF7860C0467B685A1E7A60F6
:1001E000002BFAD1C046BD4602B080BD80B500AF3D
:1001F0000A4B0A4A52698021C9030A435A61084BD3
:10020000074A126801210A431A60054B044A126822
:1002100002218A431A60C046BD4680BD00100240DC
:100220000014004880B500AFFFF7E0FF0A4B0A4A10
:10023000526901210A435A61084B1800FFF7C8FFB1
:10024000054B054A526901218A435A61034B180044
:10025000FFF7BEFFEAE7C0460014004840420F0027
:100260004743433A2028474E5520546F6F6C732004
:10027000666F722041524D20456D6265646465640D
:100280002050726F636573736F727320362D323036
:1002900031372D71322D7570646174652920362EC9
:1002A000332E3120323031373036323020287265EB
:1002B0006C6561736529205B41524D2F656D6265E8
:1002C000646465642D362D6272616E6368207265A8
:1002D000766973696F6E203234393433375D00418B
:1002E00030000000616561626900012600000005C0
:1002F000436F727465782D4D3000060C074D09016F
:100300001204140115011703180119011A011E0620
:100310004130000000616561626900012600000053
:1003200005436F727465782D4D3000060C074D093A
:10033000011204140115011703180119011A011EF5
:0403400006000000B3
:0400000508000000EF
:00000001FF
