:020000040800F2
:1000000000100020F1190008791A0008791A000878
:10001000791A0008791A0008791A0008791A000874
:10002000791A0008791A0008791A0008791A000864
:10003000791A0008791A0008791A00089D2000082A
:10004000791A0008791A0008791A0008791A000844
:10005000791A0008791A0008791A0008791A000834
:10006000791A0008791A0008791A0008791A000824
:10007000791A0008791A0008791A0008791A000814
:10008000791A0008791A0008791A0008791A000804
:10009000791A0008791A0008791A0008791A0008F4
:1000A000791A0008791A0008791A0008791A0008E4
:1000B000791A000890238020F0B50125FF26C64656
:1000C0000027904620222A4CDB05C00000B598622C
:1000D0009E629F61A562A5619E629A610A12C9B281
:1000E000A562A56198619E629A61A5624246A5617A
:1000F0009E6299612121A562A56198629E629F61BD
:10010000A562A5619E6299611112D2B2A562A56134
:1001100098619E629961A562A5619E629A612222A0
:10012000A562A56198629E629F61A562A5619E62BB
:100130009A61A562A5619E629F6119681A68120C96
:1001400012041A6002229861A261A262A261A262F4
:10015000A261A262A2611869A262A2611A69000288
:100160001640801980B2196004BC9046F0BDC046AC
:1001700000140048F0B5454657464E46DE46180086
:10018000E0B5012789B0029312AB1E8813AB1C881F
:100190000D009046401AB31A069703D5931B01260B
:1001A000764206965B0003931B1A9B46029B8B428A
:1001B00000DAD0E02312049343000793E3B20593DF
:1001C000531C01931312802400939023FF200122DB
:1001D0006449DB05E4006E46B78800269C6298629D
:1001E0009E6136368A628A6198629E616E1CB24652
:1001F000B6B236128A628A619C6198629E615646E6
:10020000F6B28A628A6198629E6100268A628A6179
:100210009C6298629E6137368A628A6198629E61AA
:100220002E128A62B1468A619C6198629E610026A4
:1002300005408A628A6198629D618A628A619C62D5
:1002400098629E6138368A628A6198629E613E1227
:10025000FFB28A628A619C6198629E618A6200260E
:100260008A6198629F6139278A628A619C6298627A
:100270009E618A628A6198629F618A628A619C61DA
:100280009862009F002607409F61BC464746074092
:100290008A628A6198629F618A628A619C629862BE
:1002A0009E6120368A628A6198629E614E468A62A9
:1002B0008A619C6198629E618A6200268A61986266
:1002C0009D6121258A628A619C6298629E618A6230
:1002D0008A6198629D6165468A628A619C619862C2
:1002E0009D6122258A628A6198629F618A628A6121
:1002F0009C6298629E618A628A6198629D61049D97
:100300008A628A619C6198629D61059D8A628A61A8
:1003100098629D615D468A628A61002D13DD069DAB
:10032000079EAC465D46AD1B039EE044B346029E6D
:10033000AB44554656450EDB4646013601964646C9
:100340003612009647E7039D029EAC465546E344AD
:10035000564500DB3FE709B03CBC90469946A246B3
:10036000AB46F0BD00140048F0B557464E46454632
:10037000DE46E0B5012789B012A8068813A80488D4
:1003800002968C461500581AB61A0697002803DA0A
:10039000C81A01235B420693430003939B1B9B46B1
:1003A000029B934200DAD1E0231204937300079377
:1003B000E3B205934B1C01930B128024009390230E
:1003C000FF2001226549DB05E4006E46B788002660
:1003D0009C6298629E6136368A628A6198629E61EA
:1003E0003E12FFB28A628A619C6198629E618A6253
:1003F00000268A6198629F6137278A628A619C62BF
:1004000098629E618A628A6198629F61009F8A6297
:1004100007408A61BA469C6198629F6167460740BF
:100420008A62B9468A61002698629F6138278A628B
:100430008A619C6298629E618A628A6198629F6109
:100440006F1CBEB236128A628A619C6198629E619C
:10045000FEB28A628A6198629E6100268A628A611F
:100460009C6298629E6139368A628A6198629E6156
:100470002E12B0468A628A619C6198629E61002653
:1004800005408A628A6198629D618A628A619C6283
:1004900098629E6120368A628A6198629E615646A1
:1004A0008A628A619C6198629E614E468A628A6114
:1004B00098629E6100268A628A619C6298629E614F
:1004C00021368A628A6198629E6146468A628A61A2
:1004D0009C6198629E618A628A6198629D61002532
:1004E0008A628A619C6298629D6122358A628A6111
:1004F00098629D61049D8A628A619C6198629D6197
:10050000059D8A628A6198629D615D468A628A6100
:10051000002D13DD069D079EA8465D46AD1B039E7C
:10052000C444B346029EAB443D00BE420EDB664669
:100530000136019666463612009646E7039D029EF6
:10054000A8463D00C344BE4200DB3EE709B03CBCC8
:1005500090469946A246AB46F0BDC04600140048FE
:10056000F0B583B01C0008AB1D8809AB1F88AB1A1F
:1005700000D5531B661A00D50E1B01979E4208DD5D
:100580008C4215D20B00009221002A00FFF7F2FDE9
:1005900005E0954205D323000095FFF7E5FE03B083
:1005A000F0BD0B00009221002A00FFF7DDFEF6E708
:1005B00023000095FFF7DEFDF1E7C046F0B5CE461B
:1005C000474680B583B017000AAA15880BAA12887F
:1005D000CB1891469EB23300019200973A008046B4
:1005E0000C00FFF7BDFF4B467D19ADB20193BD4234
:1005F0002FD223002A00210040460097FFF7B4FEC7
:100600004B462A0001933100330040460097FFF724
:10061000ABFE4B4600950193B44208D0A64211D2DE
:1006200023002A0031004046FFF7A4FD05E0230027
:100630002A0021004046FFF797FE03B00CBC90460D
:100640009946F0BD33002A0021004046FFF792FD95
:10065000F3E723003A00210040460095FFF784FEAF
:100660004B463A0001933100330040460095FFF7B6
:100670007BFECEE7F0B54E46DE4657464546E0B532
:100680008BB0140014AA1288814602928B4271D852
:10069000A3426FD8CA18B02A6CDCE218DC2A69DCE5
:1006A0005A1E039266D35B001A00099301239B1A1A
:1006B00006930123089307930023A346059304910F
:1006C00025E0A74269D93B0021004846FFF752FDCB
:1006D0005B465A1B029B92B20193414653464846E1
:1006E0000092FFF73DFF069B002B4ADD039B099A12
:1006F000013B0393079B023307939B1A069A944688
:100700009C4463460693039B059A934232DB6B46F7
:100710009E8A9D895B460499F2184F1B029B6C18B8
:1007200092B2BFB2A4B239004846019300922300AE
:10073000FFF716FF049948468B1B9AB290465A461B
:10074000731899B2AA18029B92B2019300920B00FF
:100750008A464146FFF704FF5A46029B921B92B21B
:1007600001930092A742ACD13B0039004846FFF705
:10077000FBFDADE70BB03CBC90469946A246AB46AC
:10078000F0BD059A01320592089A944602326344FC
:1007900006930892002BB6DDA8E7230039004846EF
:1007A000FFF7E8FC94E7C046F0B5DE464E46454606
:1007B0005746E0B59BB09B4624AB049105921100CF
:1007C0001A8825AB1D8826AB1E88002900D109E2B6
:1007D000931D9BB219120691DBB21112D2B2039291
:1007E000079308AA002394460193463363449C462A
:1007F0004023902280240291994601210C48D20581
:10080000E4000095019D049B5B5D0A4D203BA846DA
:100810009F00FB189844EB5C01251D4200D154E277
:10082000009F08AD2F8002251D4200D153E203E056
:1008300000140048B4230008009F08AD6F81042510
:100840001D4200D13EE2009F08ADAF8208251D4247
:1008500000D134E2009F08ADEF8310251D4200D186
:100860002AE2009F08AD2F8520251D4200D120E2FD
:10087000009F08AD6F864D461D4200D116E2009DD7
:1008800008AB9D87434601255B781D4200D10AE2F3
:10089000009F08AD6F8002251D4200D100E2009F3D
:1008A00008ADAF8104251D4200D1F6E1009F08ADDF
:1008B000EF8208251D4200D1ECE1009F08AD2F8496
:1008C00010251D4200D1E2E1009F08AD6F85202573
:1008D0001D4200D1D8E1009F08ADAF864D461D42B4
:1008E00000D1CEE1009D08ABDD87434601259B7812
:1008F0001D4200D1C2E1009F08ADAF8002251D421C
:1009000000D1B8E1009F08ADEF8104251D4200D160
:10091000AEE1009F08AD2F8308251D4200D1A4E160
:10092000009F08AD6F8410251D4200D19AE1009F01
:1009300008ADAF8520251D4200D190E1009F08AD94
:10094000EF864D461D4200D186E1009F08AB5F5304
:1009500043460125DB781D4200D17AE1009F08ADB6
:10096000EF8002251D4200D170E1009F08AD2F826B
:1009700004251D4200D166E1009F08AD6F83082564
:100980001D4200D15CE1009F08ADAF8410251D42DF
:1009900000D152E1009F08ADEF8520251D4200D116
:1009A00048E1009F08AD2F874D461D4200D13DE133
:1009B0004223009F08ADEF52434601251B791D429B
:1009C00000D02FE108AD2E8102251D4200D025E187
:1009D00008AD6E8204251D4200D01BE108ADAE8338
:1009E00008251D4200D011E108ADEE8410251D42FE
:1009F00000D007E108AD2E8620251D4200D0FDE085
:100A000008AD6E874D461D4200D0F2E0442308AD8C
:100A1000EE52FF2300259462A84693623627956123
:100A20005D4681628161936297612F1DBFB23F1263
:100A300081628161946193629761EFB23D1DEDB275
:100A400081628161936295614546816281619462B0
:100A500093629561373581628161936295615D46EC
:100A60002D128162AA468161946193629561454627
:100A70008162816193629761816281619462936214
:100A8000956138358162816193629561069D8162CD
:100A90008161946193629561079D81628161936236
:100AA00095614546816281619462936295613935B1
:100AB0008162816193629561816281619461029D2D
:100AC00093629561039D8162816193629561454660
:100AD0008162816194629362956120358162816156
:100AE00093629561554681628161946193629561DB
:100AF00081628161936297614746816281619462FC
:100B00009362976181628161029D2137936297614F
:100B100081628161946193629561039D81628161CB
:100B200093629561454681628161946293629561A9
:100B3000009DB246A846816281619362DD3B93616C
:100B400008AF8162DD3381613D8894612E12EDB280
:100B50009362966181628161936295617D88816211
:100B60002E12EDB28161946193629661816281611E
:100B700093629561BD8881622E12EDB281619461AC
:100B8000936296618162816193629561FD88816261
:100B90002E12EDB2816194619362966181628161EE
:100BA000936295613D890A372E12EDB281628161AF
:100BB00094619362966181628161936295618162C1
:100BC0008161BC45C0D1434600935B4607339BB26D
:100BD0009B46019B059D0133DBB256460193AB4218
:100BE00000DA0FE61BB03CBC90469946A246AB46E5
:100BF000F0BD4423009F08ADEF520AE7009F08AD07
:100C00006F87FFE6009F08AD2F86F5E6009F08ADD1
:100C1000EF84EBE6009F08ADAF83E1E6009F08ADEF
:100C20006F82D7E6009F08AD2F81CDE6422308AD45
:100C3000EE52C1E608AD2E87B6E608ADEE85ACE60D
:100C400008ADAE84A2E608AD6E8398E608AD2E82AC
:100C50008EE608ADEE8084E608AB5E5378E608AD1C
:100C6000EE866EE608ADAE8564E608AD6E845AE6A3
:100C700008AD2E8350E608ADEE8146E608ADAE80A5
:100C80003CE608ABDE8730E608ADAE8626E608AD6A
:100C90006E851CE608AD2E8412E608ADEE8208E6ED
:100CA00008ADAE81FEE508AD6E80F4E508AB9E8729
:100CB000E8E508AD6E86DEE508AD2E85D4E508AD25
:100CC000EE83CAE508ADAE82C0E508AD2E800225F0
:100CD0001D4200D0B0E508AD6E81B0E5F0B5D64656
:100CE0004F4646460D00C0B586B098460EAB1B88F1
:100CF000060099460FAB1B8828000A2117009A4668
:100D000001F068FA04AC3031217128000A2101F0A9
:100D1000DBF985B228000A2101F05CFA3031E1707C
:100D200028000A2101F0D0F985B228000A2101F03B
:100D300051FA3031A17028000A2101F0C5F985B2BD
:100D400028000A2101F046FA3031617028000A219A
:100D500001F0BAF953463030207002934B460193AC
:100D600043460522009321003B003000FFF71CFDA5
:100D700006B01CBC90469946A246F0BD092802D890
:100D80003030C0B270473730C0B2FBE7F0B5C6466E
:100D900000B586B00C000CA90E880DA90F880F2194
:100DA00021400D0098463735092901D830310D0012
:100DB00037239C4605A9CD7025062D0FAC44092D7F
:100DC00002D8073B9C46AC4463468B7037239C4655
:100DD00025052D0FAC44092D02D8073B9C46AC4499
:100DE00063464B702313240B25003735092B01DC98
:100DF0003034250043460D7000930297130001968E
:100E00000422FFF7D1FC06B004BC9046F0BDC046FA
:100E10000023022282B001930E4B9A62019B0E4A7C
:100E2000934205DC019B01330193019B9342F9DD61
:100E30000222084B9A6100230193019B064A9342C8
:100E400005DC019B01330193019B9342F9DD02B064
:100E50007047C046000400481F4E000090238022C7
:100E6000DB05D2009A62FF229A6299617047C04600
:100E70009023802210B5FF240120DB05D2009A6266
:100E80000A129C629A61044AC9B2906290619C62A3
:100E900099619062906110BD0014004890238022F7
:100EA000DB05D2009A61FF229A6299617047C046C1
:100EB0009023802210B5FF240120DB05D2009A6127
:100EC0000A129C629A61044AC9B2906290619C6263
:100ED00099619062906110BD0014004882B0019049
:100EE000019B5A1E0192002BFAD102B07047C046F6
:100EF000902330B50022FF24DB059C629A611D68B7
:100F00001A680221120C12041A608022D2009A611F
:100F1000084A9161916291619162916191629161DE
:100F20001869916291611A690002144000191D60EC
:100F300080B230BD0014004870B590238026FF2594
:100F40000124DB05F60008129E629D6298610A4842
:100F5000C9B2846284619D6299611112D2B28462C5
:100F600084619E619D629961846284619D629A61DF
:100F70008462846170BDC04600140048F0B54F46DD
:100F80004646D646C0B58C46190008AB1B88902053
:100F9000984600238027FF2601259A46C0054B4C22
:100FA000FF008762866283613633A562A56186622F
:100FB00083610B12A562A5618761866283615346D6
:100FC000C9B2A562A56186628161A562A5618762D9
:100FD00086628361634637211B12A5629946A5612B
:100FE00086628161A562A5618761866283616346CD
:100FF000DBB2A5629C46A561866283615346A56209
:10100000A56187628662836143460131A562A5615D
:10101000866281611912A562A5618761866281611C
:10102000D9B2A5625346A561866281613921A56264
:10103000A561876286628361A562A561866281611E
:101040001112D2B2A562A561876186628161A56233
:10105000A56186628261A562A561876286628361FD
:101060002033A562A561866283614B46A562A561B6
:101070008761866283616346A562A561866283613A
:101080005346A562A5618762866283612133A562AA
:10109000A561866283615346A562A5618761866208
:1010A0008161A562A56186628261A562A561876290
:1010B000866283612233A562A56186628361A5622F
:1010C000A5611CBC90469946A246F0BD001400489C
:1010D00030B5551C83B01C00ADB24B1C9BB20095C3
:1010E000FFF74CFF90228023D205DB009361FF23A2
:1010F00001202112936291610449E4B288628861FF
:10110000936294618862886103B030BD0014004826
:10111000F0B5454657464E46DE46E0B51E0085B062
:101120000EAB1F88741E0F9B7D1EA4B255199846E6
:10113000ADB20B199BB200950397FFF71FFF002F6D
:101140002FD0002E2DD0013463009C4600239B46F7
:1011500080239021DB009A46FF270124B146144DDD
:10116000C9054A46404600230292564602888E61CF
:101170001612D2B28F6201338E61AC62AC618F62A3
:101180008A61029A9BB2AC620230AC619A42ECD1A5
:101190005B4601339BB29B46039B9146E0445B4513
:1011A000DFD105B03CBC90469946A246AB46F0BDA7
:1011B00000140048F0B54646D6464F46C0B582B04A
:1011C0001E000AAB1B88984645460BAB013D1C88A8
:1011D0005519731ECB18ADB29BB20095FFF7CEFE2A
:1011E0004346002B24D023129C46002E20D0802280
:1011F00000239021D2009246FF2501209946E3B2B8
:101200000E4CC905002257468F616746013292B2E3
:101210008D628F61A062A0618D628B61A062A0610E
:101220009642F0D14A46013292B291469045E9D1B8
:1012300002B01CBC90469946A246F0BD001400487E
:10124000F0B5DE4657464E4645468C239024E0B521
:10125000894A8A465169DB0385B00B43E405039054
:1012600053612368854F9B0D9B0523602268844B47
:10127000844D1343082223603B68012693433B605F
:101280003B68043A13433B602B680B3293432B605B
:101290002B680A3A13432B6002239B46AB61FF3352
:1012A000FF33A36199465B46AE61BB618023DB00DF
:1012B0000A215046A361984600F0E6FE5B460A21EB
:1012C000BB62504600F0E0FE5B466421BB615046C5
:1012D00000F0DAFE5B46AB614B466421A3615046E9
:1012E000AE6100F0D1FE4B4696215046A36200F05D
:1012F000CBFE4346FF27A3620023A7629946A36162
:101300004346AE62AE61A762A661AE62AE61A36102
:101310001C23A762A661AE62AE61A762A3614346C9
:10132000AE62AE61A3624B46A762A3610733AE62B1
:10133000AE61A762A3614346AE62AE61A3614B4654
:10134000A7620F22A3614346AE62AE61A762A261AB
:10135000AE62AE61A3624B46A762A3611133AE6277
:10136000AE61A762A3614346AE62AE61A361102382
:10137000A762A3614B46AE62AE61A762A36143461A
:10138000AE62AE61A3624B46A762A3615B46AE62EA
:10139000AE61A762A3614346AE62AE61A3614B46F4
:1013A000A762A361AE62AE61A762A3614346AE626B
:1013B000AE61A3624B46A762A361B033AE62AE6179
:1013C000A762A3614346AE62AE61A3611423A76224
:1013D000A361023BAE62AE61A762A3614346AE6207
:1013E000AE61A3624B46A762A3610B33AE62AE61EE
:1013F000A762A3614346AE62AE61A3614B46A7629A
:101400006421A3615046AE62AE61A762A361AE6281
:10141000AE6100F039FE4346A3624B46A762A3616A
:101420002233AE62AE61A762A361B933AE6200221D
:10143000AE610398009300212C3BFFF79FFD00262F
:10144000DC2243460120B021013989B2A361A762A1
:10145000A661A862A861A762A661A862A861002926
:10146000F2D1013A92B2002AEDD105B03CBC9046CF
:101470009946A246AB46F0BD001002400004004869
:101480005555150000140048F0B54546DE46574650
:101490004E46E0B597B01400059220AA8046128807
:1014A00004918B4200D939E1A34200D936E1C91831
:1014B000B02900DD32E1E118DC2900DD2EE1591E02
:1014C000089100D22AE15B001900159301235B1AF1
:1014D0000A9313129946D3B20293012314931393E0
:1014E000002309938023DB0090269B464B46FF2771
:1014F000C246F605039311E0089B159A013B089339
:10150000139B023313939B1A0A9A94469C44634696
:10151000089A0A93099B934200DDFFE06B461A8C00
:10152000049B9446634498B26B46059D9C8CA846E8
:10153000A446E044434606929AB2431C99B2531C17
:1015400007949CB200940B0012910B90010050463E
:101550000F940C92FFF712FD049B079998468C4656
:10156000E04443469BB21A000699059B8C46984678
:10157000E04443469BB298465D46531C11009AB224
:101580004346B56101250398684CB7620133B061E9
:1015900002989BB2A5629946A561B762B061A56247
:1015A0005046A56100931192130042460D91FFF73A
:1015B000E5FC5A460398B261079BB762B061049894
:1015C000029AC31A484699B24B1CA5629BB2A56108
:1015D000B762B261A5624246A56100905046109381
:1015E0000E91FFF7CBFC5846029AB0610398B762A0
:1015F000B061A5620698A561B762B261049AA5625E
:10160000131A98B28146431C0F989AB213004946A8
:10161000A56100900F9250460C9AFFF7AFFC5A4616
:101620000398B261029AB762B061A5620598A5619C
:10163000B762B261079AA562831A9AB29046531CA8
:101640009AB24946A56150460F9B079200924246C6
:10165000FFF794FC5846029AB0610398B762B061F4
:10166000A5620698A561B762B261059AA562131AD0
:1016700098B28146431C98B2A5614A46109B0E99C8
:10168000069000905046FFF779FC5B460398B361E3
:10169000029AB762B0610698A562119BA5610D9987
:1016A000B762B261A5624A46A56100905046FFF755
:1016B00065FC5B460398B361029A079BB7620B997E
:1016C000B061A5625046A561B762B261A5624246AB
:1016D000A5610093129BFFF751FC5B460398B36131
:1016E000029A0A9BB762B061A562A561B762B26156
:1016F000A562A561002B00DDFEE6099A0132099280
:10170000149A9446023263440A931492002B00DD2B
:10171000F2E6099B089A934200DCFFE617B03CBC56
:1017200090469946A246AB46F0BDC046001400481C
:1017300090238022C021DB05920070B59A611F4A78
:101740001C6810681D680902294303251960116887
:10175000A943116040219A690A439A618022996ADB
:10176000D2000A439A6280230121154A936293684A
:101770000B439360936803310B43936013681942E2
:10178000FCD0136C90220D49D205146008608021B2
:10179000890091621A00413AFF3A0A4992B28A429C
:1017A0000AD818B2B0234138FF385843064900F030
:1017B00015FDB03080B270BD0448FCE7001400484D
:1017C00000240140340D0000CCF2FFFFFFFF0000B9
:1017D00090238022C021DB05920070B59A611E4AD9
:1017E0001C6810681D6889012943196019681B4D20
:1017F00029400125196091692943916180219A6AE4
:101800000A439A624023164A7C39936293682B43B9
:10181000936093680B43936093681942FCD1136CF7
:1018200090220D49D20514600860802189009162E0
:101830000C4A0D499A1892B28A420BD8094ADC2008
:1018400094461BB263445843084900F0C7FCDC309F
:1018500080B270BD0648FCE700140048FFFFCFFFD0
:1018600000240140A8FDFFFF1C0C0000E4F3FFFF73
:10187000FFFF0000E0224807C00F4B0212010001E9
:1018800013401843CB0702D580231B02184370472F
:101890000805400F7047C046C020930180010340F7
:1018A0000F2010400843802103434900D000084026
:1018B0001843202352001A4010437047C0208B1158
:1018C00018402023CA10134018430F230B4018431D
:1018D00010234910194008437047C04680B500AF37
:1018E000234B1A68224B23490A401A60204B1A687E
:1018F00080239B0413405A1E9341DBB2002B00D07F
:10190000F4E71D4B1A681C4B01210A431A601A4B5D
:101910001A68194B06218A431A60174B1A68164B2E
:1019200010210A431A60124B5A68114B13490A409E
:101930005A600F4B5A680E4BA02189030A435A6024
:101940000B4B5A680A4B8021C9010A435A60084B65
:101950001A68074B802149040A431A60044B5A68ED
:10196000034B02210A435A60C046BD4680BDC046B3
:1019700000100240FFFFFFFE00200240FFFFC3FFF8
:1019800080B582B000AF164A164BD31A9B103B604D
:1019900000237B607A683B689A4208D2114B7A68D0
:1019A0009200D35898477B6801337B60F2E70E4A78
:1019B0000E4BD31A9B103B6000237B607A683B6818
:1019C0009A4208D2094B7A689200D35898477B68AC
:1019D00001337B60F2E7C046BD4602B080BDC04621
:1019E000B4230008B4230008B4230008B42300087B
:1019F00080B584B000AFFFF771FF1A4BFB601A4B44
:101A0000BB601A4A184BD31A7B607B685A1E7A60F7
:101A10005A1E9341DBB2002B08D0FA68531CFB60BE
:101A2000BB68591CB96012781A70EEE7104BBB60A6
:101A3000104A0F4BD31A7B607B685A1E7A605A1E7D
:101A40009341DBB2002B05D0BB685A1CBA60002260
:101A50001A70F1E7FFF794FF00F0A6FEC046BD46FE
:101A600004B080BD243000080000002000000020E9
:101A7000000000203400002080B500AFFEE7C04623
:101A800080230D4A9B0091690B43936100230B4A0D
:101A9000C0219360C22309049B00D1508023916828
:101AA0001B060B4393609368002BFCDB06235361FA
:101AB000053B93607047C04600100240002401407F
:101AC0009022C023D20511689B020B431360802330
:101AD0000121084A5B00936293680B43936093680B
:101AE00003310B43936013681942FCD0106C00045F
:101AF000000C704700240140084B1A68002A03D0EC
:101B000058684001400970475A68900FD10E414013
:101B100001205200884310435860F2E70000002083
:101B2000C0239B029C460123F0B5C6469025802722
:101B30009846042100B5114AED057F0000240120DC
:101B400066462B68334346462B609762936833435F
:101B5000936093680B43936013681942FCD0136C35
:101B60001B041B0C83400130E4181128E8D1002C21
:101B7000E4D0034B5C6004BC9046F0BD00240140FF
:101B8000000000200C4A70B513680400002B08D038
:101B900053685B01091B5809013100F01BFB081950
:101BA00070BD5068830FC50E5D4001234000AB43FC
:101BB00003435360EDE7C04600000020F8B52A4B10
:101BC000CE461D00474699460835280080B500F0EE
:101BD000E1F9484629002C30FFF732FB8023234AE5
:101BE0009B0091690B4393610023214AC0219360BC
:101BF000C22309049B00D150802391681B060B432C
:101C000093609368002BFCDB06235361053B9360D4
:101C1000C0239B029846802390265B009C460127A8
:101C20000425134AF6050020012144463368234366
:101C300033606346936293683B43936093682B439E
:101C4000936013681D42FCD0136C1B041B0C8B406B
:101C50000131C0181129E8D10028E4D04B46586062
:101C60000CBC90469946F8BD0000002000100240D0
:101C700000240140F0B5DE46574645464E46002357
:101C8000E0B587B00593584B9B46584B5C469A4647
:101C9000002398462C342000FFF74AFD0500200061
:101CA000FFF796FD0600AF2D02D8DB2800D880E0B4
:101CB000059B04210133DBB299462000FFF7DAFDD2
:101CC0004B4699B243460090019301226E232000B7
:101CD000FFF704F800254B46290020005E19FFF7A6
:101CE000C9FDF6B2B6B2010032002000FFF7D4FD04
:101CF000DC23002200210190009320002C3BFFF701
:101D000059FA012101222000FEF7D4F90700010051
:101D10002000FFF7D3FD86421BD007212000FFF7EC
:101D2000A9FD434602938223052251460190009368
:101D30002000813BFEF738FD07212000FFF79AFDC8
:101D40004346009001930122962331002000FFF7C3
:101D50001DF839002000FFF79BFDA8421BD005218C
:101D60002000FFF787FD4346029396230522514644
:101D7000019000932000953BFEF716FD0521200001
:101D8000FFF778FD4346009001930122A02329002C
:101D90002000FEF7FBFF5846013514210830ADB294
:101DA00000F072F9082D96D1059B0933DBB205933B
:101DB00071E706212000FFF75DFD43460122310057
:101DC0000193009046232000FEF788FF01212000A8
:101DD000FFF750FD4346009001930122282329007C
:101DE0002000FEF77BFF63E7000000204427000887
:101DF000081880B2814203D8401A80B28142FBD9D0
:101E00007047C04670B50488012C00D175E0022CE3
:101E10004CD101220021002300244588012D4FD000
:101E2000022D00D089E001328588012D4CD0022D91
:101E300000D079E00132C588012D49D0022D00D0B3
:101E400069E001320589012D46D0022D5AD10132B7
:101E50004589012D44D0022D00D080E001328589D2
:101E6000012D41D0022D00D070E00132C08901283F
:101E70003ED0022800D17BE0042800D07AE0013374
:101E8000012B38DC0120012936DC012A00DD7DE050
:101E9000012C00DD7CE0002B2DD000292CD0531E1E
:101EA0009A41504204221040023025E0042C00D018
:101EB00065E045880022002101230024012DAFD1D7
:101EC00085880131012DB2D1C5880131012DB5D1EF
:101ED00005890131012DB8D145890131012DBAD1D2
:101EE00085890131012DBDD1C08901310128C0D1C1
:101EF0000131012BC6DD042070BD00220121002329
:101F000000248AE7042D01D10133A1E7063D6E428A
:101F1000754164199CE7042D01D1013392E7063D18
:101F20006E42754164198DE7042D01D1013382E7BA
:101F3000063D6E42754164197DE7042D01D10133E0
:101F400072E7063D6E42754164196DE7042D01D1BB
:101F500001338BE7063D6E427541641986E7042D17
:101F600001D101337BE7063D6E427541641976E786
:101F7000013285E7063845426841241880E7063C6F
:101F800063425C4100220021002346E70220B3E7C0
:101F90000620B1E7094B10B520221860002104305B
:101FA00000F0ECFF0721064B1A680A431A60054A45
:101FB0005A6005229A6062B610BDC046300000200B
:101FC00010E000E07FBB00004368002B17D083685F
:101FD000002B1AD0C368002B19D00369002B18D02E
:101FE0004369002B17D08369002B16D0C369002BDF
:101FF00015D0036A002B14D0012040427047002303
:102000009B00C01841600020F8E70123F8E7022395
:10201000F6E70323F4E70423F2E70523F0E70623BA
:10202000EEE70733ECE7C0464368994217D0836870
:1020300099421BD0C36899421AD00369994219D0BA
:102040004369994218D08369994217D0C36999426C
:1020500016D0036A8B4215D00120404270470023FE
:102060009B00C018002343600020F7E70123F7E737
:102070000223F5E70323F3E70423F1E70523EFE762
:102080000623EDE70723EBE7002905D000230360D3
:1020900030BF03688B42FBD37047C04670B5094D13
:1020A00000242B681A6801321A6000E02B68A20035
:1020B0009B185B68002B00D098470134082CF5D1A1
:1020C00070BDC04630000020002243088B4274D30C
:1020D00003098B425FD3030A8B4244D3030B8B4229
:1020E00028D3030C8B420DD3FF22090212BA030C32
:1020F0008B4202D31212090265D0030B8B4219D313
:1021000000E0090AC30B8B4201D3CB03C01A524132
:10211000830B8B4201D38B03C01A5241430B8B427A
:1021200001D34B03C01A5241030B8B4201D30B0363
:10213000C01A5241C30A8B4201D3CB02C01A52418A
:10214000830A8B4201D38B02C01A5241430A8B424D
:1021500001D34B02C01A5241030A8B4201D30B0236
:10216000C01A5241CDD2C3098B4201D3CB01C01A50
:10217000524183098B4201D38B01C01A524143095A
:102180008B4201D34B01C01A524103098B4201D348
:102190000B01C01A5241C3088B4201D3CB00C01AB5
:1021A000524183088B4201D38B00C01A524143082D
:1021B0008B4201D34B00C01A5241411A00D2014652
:1021C000524110467047FFE701B5002000F0F0F8DB
:1021D00002BDC0460029F7D076E7704703460B439F
:1021E0007FD4002243088B4274D303098B425FD310
:1021F000030A8B4244D3030B8B4228D3030C8B423C
:102200000DD3FF22090212BA030C8B4202D3121221
:10221000090265D0030B8B4219D300E0090AC30BF6
:102220008B4201D3CB03C01A5241830B8B4201D3A3
:102230008B03C01A5241430B8B4201D34B03C01A8C
:102240005241030B8B4201D30B03C01A5241C30A04
:102250008B4201D3CB02C01A5241830A8B4201D375
:102260008B02C01A5241430A8B4201D34B02C01A5F
:102270005241030A8B4201D30B02C01A5241CDD204
:10228000C3098B4201D3CB01C01A524183098B424F
:1022900001D38B01C01A524143098B4201D34B0138
:1022A000C01A524103098B4201D30B01C01A52419B
:1022B000C3088B4201D3CB00C01A524183088B4222
:1022C00001D38B00C01A524143088B4201D34B000B
:1022D000C01A5241411A00D201465241104670477D
:1022E0005DE0CA0F00D04942031000D34042534082
:1022F00000229C4603098B422DD3030A8B4212D342
:10230000FC22890112BA030A8B420CD38901921173
:102310008B4208D3890192118B4204D389013AD0B0
:10232000921100E08909C3098B4201D3CB01C01A85
:10233000524183098B4201D38B01C01A5241430998
:102340008B4201D34B01C01A524103098B4201D386
:102350000B01C01A5241C3088B4201D3CB00C01AF3
:10236000524183088B4201D38B00C01A5241D9D20B
:1023700043088B4201D34B00C01A5241411A00D28C
:102380000146634652415B10104601D34042002B88
:1023900000D54942704763465B1000D3404201B507
:1023A000002000F005F802BD0029F8D016E77047BC
:1023B0007047C046000000000000005F00000007FA
:1023C000000700147F147F14242A7F2A1223130885
:1023D000646236495522500005030000001C22416A
:1023E000000041221C00082A1C2A0808083E080890
:1023F0000050300000080808080800606000002055
:10240000100804023E5149453E00427F40004261AF
:102410005149462141454B311814127F102745453B
:1024200045393C4A49493001710905033649494952
:1024300036064949291E003636000000563600008F
:102440000008142241141414141441221408000228
:1024500001510906324979413E7E1111117E7F49B1
:102460004949363E414141227F4141221C7F494931
:1024700049417F090901013E414151327F08080865
:102480007F00417F41002040413F017F08142241ED
:102490007F404040407F0204027F7F0408107F3E5F
:1024A0004141413E7F090909063E4151215E7F09B4
:1024B000192946464949493101017F01013F404000
:1024C000403F1F2040201F7F2018207F63140814E6
:1024D000630304780403615149454300007F41418F
:1024E000020408102041417F000004020102044060
:1024F00040404040000102040020545454787F487A
:102500004444383844444420384444487F38545480
:102510005418087E090102081454543C7F0804042E
:102520007800447D40002040443D00007F10284456
:1025300000417F40007C041804787C08040478384B
:10254000444444387C14141408081414187C7C087F
:102550000404084854545420043F4440203C404064
:10256000207C1C2040201C3C4030403C442810284B
:10257000440C5050503C4464544C440008364100D4
:1025800000007F0000004136080008082A1C0808E7
:102590001C2A08084743433A2028474E5520546FC9
:1025A0006F6C7320666F722041726D20456D62659D
:1025B000646465642050726F636573736F72732017
:1025C000392D323031392D71342D6D616A6F722998
:1025D00020392E322E31203230313931303235200F
:1025E0002872656C6561736529205B41524D2F61CE
:1025F000726D2D392D6272616E6368207265766925
:1026000073696F6E203237373539395D00412B00E1
:102610000000616561626900012100000005365318
:102620002D4D00060C074D09011204140115011768
:1026300003180119011A011E02412B0000006165F7
:102640006162690001210000000536532D4D00062E
:102650000C074D0901120414011501170318011983
:10266000011A011E02412B000000616561626900D0
:1026700001210000000536532D4D00060C074D09C1
:10268000011204140115011703180119011A011E82
:1026900002412B00000061656162690001210000B8
:1026A000000536532D4D00060C074D090112041488
:1026B0000115011703180119011A011E02411D001D
:1026C0000000616561626900011300000005365376
:1026D0002D4D00060C074D09011901411D00000098
:1026E00061656162690001130000000536532D4DDC
:1026F00000060C074D09011901411D00000061652C
:102700006162690001130000000536532D4D00067B
:102710000C074D09011901412B0000006165616240
:10272000690001210000000536532D4D00060C07FD
:102730004D09011204140115011703180119011A9A
:04274000011E020074
:102744004572726F720000005468652067616D65A0
:10275400206F66206C696665000000004472617732
:1027640020796F75722079656C6C6F77206372695C
:1027740074746572730000007468656E207072650D
:10278400737320426C756500426C7565000000002F
:1027940052656400477265656E000000446F6E65A3
:0127A4000034
:1027A800F0B5DE464E4645465746E0B591B0FFF7D0
:1027B80001FAE44C00212C342000FFF757F8DC26FE
:1027C800B02300220021019000962000FEF7EEFCC5
:1027D80007212000FFF74AF800250A231022DA49CA
:1027E80002950190009320000F33FDF7D9FF0721D0
:1027F8002000FFF73BF81E231922D44902950190C7
:10280800009320001D3BFDF7CBFF07212000FFF7B9
:102818002DF828230F22CE4902950190009320001D
:10282800273BFDF7BDFFFA21C64DC9000835280032
:10283800FFF726FC00212000FFF718F8B02300223C
:102848000021019000962000FEF7B0FC072120002F
:10285800FFF70CF80F23B4224421019000932000C5
:102868001933FEF7A3FC01212000FEF7FFFF072123
:1028780006002000FEF7FAFFB82302900093042216
:102888002000B4490196713BFDF78AFF2000FEF74E
:102898004BFF06002000FEF797FF0700AF2E00D978
:1028A8005DE3DB2800D95AE33300443B9BB2282B75
:1028B80000D94AE30300B43B9BB20F2B00D944E391
:1028C800A04D052108352800FFF7DAFBC8212800AC
:1028D800FFF7D6FB07212000FEF7C8FF0F23B4221D
:1028E80044210190009320001933FEF75FFC012179
:1028F8002000FEF7BBFF072106002000FEF7B6FF09
:10290800B823029000932000032293490196713B5B
:10291800FDF746FF8B4C2C342000FEF705FF060020
:102928002000FEF751FF0700AF2E00D908E3DB288F
:1029380000D905E33300443B9BB2282B00D9F0E2D1
:102948000300B43B9BB20F2B00D9EAE27D4D052171
:1029580008352800FFF794FBC8212800FFF790FBF3
:1029680007212000FEF782FF0F23B42244210190A3
:10297800009320001933FEF719FC01212000FEF70F
:1029880075FF072106002000FEF770FFB8230290AC
:1029980000932000052271490196713BFDF700FF65
:1029A800684C2C342000FEF7BFFE06002000FEF71E
:1029B8000BFF0700AF2E00D9AEE2DB2800D9ABE24F
:1029C8003300443B9BB2282B00D996E20300B43B6A
:1029D8009BB20F2B00D990E25A4D052108352800EB
:1029E800FFF74EFBC8212800FFF74AFB072120000C
:1029F800FEF73CFF0F23B4224421019000932000EE
:102A08001933FEF7D3FB01212000FEF72FFF072122
:102A180006002000FEF72AFFB8230290009320004A
:102A280004224F490196713BFDF7BAFE454C2C3400
:102A38002000FEF779FE06002000FEF7C5FE07001D
:102A4800AF2E00D954E2DB2800D951E23300443BD1
:102A58009BB2282B00D93CE20300B43B9BB20F2B5E
:102A680000D936E2374805210830FFF709FB002175
:102A78002000FEF7FBFE0F2301900093B4224421AF
:102A880020001933FEF792FB364B2E4E0F9301238D
:102A98002C360E930E9C0021631E9BB21A00300048
:102AA8009A46FDF703FB01003000FEF7EDFE230018
:102AB8002200DA339BB2023ADB2B00D81A1C93B2FD
:102AC8000E9A9B46131CDB2A01D96B469B8F9BB23F
:102AD8009946254B00251C005B460D934B46AF27B6
:102AE800A946AF21050004930D9B30001A009B46B0
:102AF800FDF7DCFA01003000FEF7C6FE7B1C9BB236
:102B08005A4649460A9030000B93FDF7CFFA010068
:102B18003000FEF7B9FE4B4601339BB2984606904B
:102B2800B02B00D0ADE05A4600213000FDF7BEFAC8
:102B380001003000FEF7A8FE002309900593270046
:102B480014E0C046000000204C2700086027000859
:102B58007C2700088C27000894270008982700087D
:102B6800A027000825FF0000FFFF0000524639009B
:102B78003000FDF79BFA01003000FEF785FE524653
:102B8800059907903000FDF791FA01003000FEF733
:102B98007BFE049B39001A00089030009B46FDF725
:102BA80085FA01003000FEF76FFE5B465A460700C3
:102BB800494630000493FDF779FA01003000FEF72A
:102BC80063FE049A834605990C903000FDF76EFA6F
:102BD80001003000FEF758FE0A9A531E9A41069BE0
:102BE800591E8B41D318099A511E8A419B18079A7E
:102BF800511E8A419B18089A511E8A419B183A0017
:102C0800511E8A419B185A46511E8A419B18020040
:102C1800511E8A419B18002D1BD1032B42D02B003B
:102C2800524649463000FEF74FFA4346B02B00D1D2
:102C380022E1524641463000FDF738FA01003000E3
:102C4800FEF722FE013449460500C1460B9FA4B297
:102C58004AE729003000032B0ADC012B08DDFEF7C8
:102C680005FE2A0001003000FEF712FE0500D6E737
:102C7800FEF7FCFD002201003000FEF709FE05000A
:102C8800CDE719000D9A3000FDF710FA0100300069
:102C9800FEF7FAFD434605934B460990002B00D1F9
:102CA80064E74CE70A9B012B00D1DFE0022B00D13F
:102CB800D1E0042B00D057E10022022301219446E1
:102CC80000250592069A012A00D1C2E0022A00D105
:102CD800BBE0042A00D0AEE01900099B012B00D10B
:102CE800A7E0022B00D1A0E0042B00D094E0013132
:102CF800079B012B00D18DE0022B00D186E0042B2D
:102D08007BD10131089B012B75D0022B6FD0042B8E
:102D180064D10131012F5FD0022F59D0042F4ED139
:102D280001310C9B012B48D0022B42D0042B37D108
:102D38000131012832D002282CD004281ED10131BB
:102D4800012925DC0122012D12DC6346012B00DD5F
:102D580090E0059B012B00DDB9E0002918D0002D7B
:102D680006D06246531E9A41042352421A40023248
:102D780000213000FEF78CFD050050E7059A063863
:102D88004342434193469B445B4605930129D9DD61
:102D98000422EDE701239B46DC44D1E70135CFE768
:102DA800063B5A425A41059B9B4693445B46059312
:102DB800BFE701239B46DC44BBE70135B9E7059A29
:102DC800063F7B427B4193469B445B460593A8E7BD
:102DD80001239B46DC44A4E70135A2E7063B5A429F
:102DE8005A41059B9B4693445B46059392E7012312
:102DF8009B46DC448EE701358CE7063B5A425A4134
:102E0800059B9B4693445B4605937BE701239B46C2
:102E1800DC4477E7013575E7063B5A425A41059B82
:102E28009B4693445B46059362E701239B46DC443B
:102E38005EE701355CE71300063B5A425A41059BA1
:102E48009B4693445B46059347E701239B46DC4436
:102E580043E7013541E7012300259C460A9B0021F1
:102E6800063B5A425A41012305922BE700230125CC
:102E78009C46F3E702227BE70E9B01339AB20F9B35
:102E88000E9201339BB20F93DD2A00D002E6002692
:102E9800374D2C350024320021002800FDF706F9B3
:102EA80001002800FEF706FD01002800FEF7DEFC01
:102EB80021000134030032002800A4B2FEF704F90F
:102EC800B02CE8D10136B6B2DC2EE3D1DCE506221F
:102ED8004EE702212000FEF7C9FC310003003A004A
:102EE8002000FEF7F1F805212800FFF7C9F89FE553
:102EF80005212800FFF7C4F89AE504212000FEF711
:102F0800B5FC310003003A002000FEF7DDF805218A
:102F18002800FFF7B5F845E505212800FFF7B0F8C8
:102F280040E501212000FEF7A1FC310003003A0032
:102F38002000FEF7C9F805212800FFF7A1F8EBE407
:102F480005212800FFF79CF8E6E406212000FEF79B
:102F58008DFC3A00030031002000FEF7B5F805218A
:102F68002800FFF78DF891E400239C461D0075E7C3
:042F78000000002035
:102F7C00F0B5050083074AD0541E002A44D0030044
:102F8C000322CEB202E00135013C3DD301332E7059
:102F9C001342F8D1032C2FD9FF220A4015021543F6
:102FAC002A0415430F2C35D92700103F3F093E0149
:102FBC00B4461E001A0010366644156055609560C4
:102FCC00D5601032B242F8D10F260C2201373F01E6
:102FDC002640DB193700224217D03E1FB608B4003A
:102FEC00A4461A001C1D644420C2A242FCD1032436
:102FFC000136B6009B193C40002C05D0C9B21C19F7
:10300C00197001339C42FBD1F0BD3400F4E714007D
:08301C000300BFE72700E0E715
:0400000508000000EF
:00000001FF
